{
	"data": {
		"bytecode": {
			"linkReferences": {},
			"object": "608060405234801561001057600080fd5b50613a0c806100206000396000f3fe608060405234801561001057600080fd5b50600436106103205760003560e01c806370a08231116101a7578063b6db75a0116100ee578063d539139311610097578063e63ab1e911610071578063e63ab1e914610643578063e985e9c51461064b578063e9e15b4f1461065e57610320565b8063d539139314610620578063d547741f14610628578063e58378bb1461063b57610320565b8063b88d4fde116100c8578063b88d4fde146105e7578063c87b56dd146105fa578063ca15c8731461060d57610320565b8063b6db75a0146105b9578063b6f8fd40146105c1578063b8192205146105d457610320565b806395d89b4111610150578063a22cb4651161012a578063a22cb46514610571578063a4063dbc14610584578063b5ada6d8146105a657610320565b806395d89b411461055957806398bcede914610561578063a217fddf1461056957610320565b80638c7a63ae116101815780638c7a63ae146105135780639010d07c1461053357806391d148541461054657610320565b806370a08231146104f057806379502c55146105035780638456cb591461050b57610320565b80633f4ba83a1161026b5780634f92a728116102145780635c975abb116101ee5780635c975abb146104cd5780636352211e146104d55780636c0360eb146104e857610320565b80634f92a7281461049f57806357e340ce146104a75780635be57b6a146104ba57610320565b8063430c208111610245578063430c2081146104555780634f64b2be146104685780634f6ccce71461048c57610320565b80633f4ba83a1461042757806342842e0e1461042f57806342966c681461044257610320565b806323b872dd116102cd5780632f745c59116102a75780632f745c59146103ee57806336568abe1461040157806337fdc8a11461041457610320565b806323b872dd146103b5578063248a9ca3146103c85780632f2ff15d146103db57610320565b8063095ea7b3116102fe578063095ea7b3146103835780631755ff211461039857806318160ddd146103a057610320565b806301ffc9a71461032557806306fdde031461034e578063081812fc14610363575b600080fd5b610338610333366004612b82565b610671565b6040516103459190612d97565b60405180910390f35b610356610694565b6040516103459190612dab565b610376610371366004612b25565b61072a565b6040516103459190612d19565b610396610391366004612afa565b610776565b005b61037661080e565b6103a861081e565b6040516103459190612da2565b6103966103c33660046129af565b61082f565b6103a86103d6366004612b25565b610867565b6103966103e9366004612b3d565b61087c565b6103a86103fc366004612afa565b6108c4565b61039661040f366004612b3d565b6108ef565b6103a8610422366004612be6565b610931565b610396610986565b61039661043d3660046129af565b6109d8565b610396610450366004612b25565b6109f3565b610338610463366004612afa565b610b28565b61047b610476366004612b25565b610b34565b604051610345959493929190612d69565b6103a861049a366004612b25565b610b6e565b610396610b84565b6103966104b536600461293f565b610c1a565b6103a86104c8366004612bba565b610c8f565b610338610cdb565b6103766104e3366004612b25565b610ce4565b610356610d0c565b6103a86104fe36600461293f565b610d6d565b610376610db6565b610396610dc6565b610526610521366004612b25565b610e16565b60405161034591906138e5565b610376610541366004612b61565b610e27565b610338610554366004612b3d565b610e3f565b610356610e57565b6103a8610eb8565b6103a8610ebf565b61039661057f366004612ab7565b610ec4565b61059761059236600461293f565b610f92565b60405161034593929190613928565b6103386105b436600461293f565b610fb7565b610338610fc2565b6103966105cf366004612ae8565b610ff0565b6103966105e2366004612c25565b611230565b6103966105f53660046129ef565b6113e9565b610356610608366004612b25565b611428565b6103a861061b366004612b25565b611572565b6103a8611589565b610396610636366004612b3d565b6115ad565b6103a86115e7565b6103a861160b565b610338610659366004612977565b61162f565b61039661066c36600461293f565b61165d565b6001600160e01b0319811660009081526097602052604090205460ff165b919050565b60ce8054604080516020601f60026000196101006001881615020190951694909404938401819004810282018101909252828152606093909290918301828280156107205780601f106106f557610100808354040283529160200191610720565b820191906000526020600020905b81548152906001019060200180831161070357829003601f168201915b5050505050905090565b600061073582611680565b61075a5760405162461bcd60e51b81526004016107519061346f565b60405180910390fd5b50600090815260cc60205260409020546001600160a01b031690565b600061078182610ce4565b9050806001600160a01b0316836001600160a01b031614156107b55760405162461bcd60e51b8152600401610751906136de565b806001600160a01b03166107c761168d565b6001600160a01b031614806107e357506107e38161065961168d565b6107ff5760405162461bcd60e51b81526004016107519061333e565b6108098383611691565b505050565b610192546001600160a01b031681565b600061082a60ca6116ff565b905090565b61084061083a61168d565b8261170a565b61085c5760405162461bcd60e51b81526004016107519061373b565b61080983838361178f565b60009081526065602052604090206002015490565b60008281526065602052604090206002015461089a9061055461168d565b6108b65760405162461bcd60e51b815260040161075190612e5d565b6108c0828261189d565b5050565b6001600160a01b038216600090815260c9602052604081206108e69083611906565b90505b92915050565b6108f761168d565b6001600160a01b0316816001600160a01b0316146109275760405162461bcd60e51b815260040161075190613888565b6108c08282611912565b60fb5460009060ff16156109575760405162461bcd60e51b815260040161075190613307565b610192546109709085906001600160a01b03168461197b565b915061097c83836119f7565b50805b9392505050565b6109b27f65d7a28e3265b37a6474929f336521b332c1681b933f6cb9f3376673440d862a61055461168d565b6109ce5760405162461bcd60e51b8152600401610751906137cd565b6109d6611abb565b565b610809838383604051806020016040528060008152506113e9565b60fb5460ff1615610a165760405162461bcd60e51b815260040161075190613307565b610a1e61281d565b610a2782611b27565b90506000610a3c610a3661168d565b8461170a565b90506000610a50610a4b61168d565b611b88565b8015610a785750610a5f61168d565b6001600160a01b031683600001516001600160a01b0316145b90506000610a8585610ce4565b90508280610a905750815b610aac5760405162461bcd60e51b815260040161075190612eba565b8360400151846060015114610ad35760405162461bcd60e51b815260040161075190613624565b610adc85611b8e565b8484600001516001600160a01b0316826001600160a01b03167fbfa41556980d157c24e8632dbb78958f8759a86b4acdea421f93dc7259fb55db60405160405180910390a45050505050565b60006108e6838361170a565b61019360205260009081526040902080546001820154600283015460038401546004909401546001600160a01b0390931693919290919085565b600080610b7c60ca84611bd0565b509392505050565b610b8c610fc2565b610ba85760405162461bcd60e51b81526004016107519061382b565b61019154610bbe906001600160a01b0316611bec565b61019180546001600160a01b0319166001600160a01b03928316179081905560405133927f7c76c17de59691df2ef36af3938c91f69cd18ad27f67a54a38e38686f0b40c4992610c1092911690612d19565b60405180910390a2565b61019154610c30906001600160a01b0316611c6c565b6001600160a01b0316610c4161168d565b6001600160a01b031614610c675760405162461bcd60e51b8152600401610751906134cc565b6001600160a01b0316600090815261019460205260409020600201805460ff19166001179055565b60fb5460009060ff1615610cb55760405162461bcd60e51b815260040161075190613307565b61019254610ccf9084906001600160a01b0316600061197b565b90506108e982826119f7565b60fb5460ff1690565b60006108e9826040518060600160405280602981526020016139ae6029913960ca9190611c84565b60d18054604080516020601f60026000196101006001881615020190951694909404938401819004810282018101909252828152606093909290918301828280156107205780601f106106f557610100808354040283529160200191610720565b60006001600160a01b038216610d955760405162461bcd60e51b81526004016107519061339b565b6001600160a01b038216600090815260c9602052604090206108e9906116ff565b610191546001600160a01b031681565b610df27f65d7a28e3265b37a6474929f336521b332c1681b933f6cb9f3376673440d862a61055461168d565b610e0e5760405162461bcd60e51b8152600401610751906130ad565b6109d6611c91565b610e1e61281d565b6108e982611b27565b60008281526065602052604081206108e69083611906565b60008281526065602052604081206108e69083611cea565b60cf8054604080516020601f60026000196101006001881615020190951694909404938401819004810282018101909252828152606093909290918301828280156107205780601f106106f557610100808354040283529160200191610720565b61015f5481565b600081565b610ecc61168d565b6001600160a01b0316826001600160a01b03161415610efd5760405162461bcd60e51b81526004016107519061319e565b8060cd6000610f0a61168d565b6001600160a01b03908116825260208083019390935260409182016000908120918716808252919093529120805460ff191692151592909217909155610f4e61168d565b6001600160a01b03167f17307eab39ab6107e8899845ad3d59bd9653f200f220920489ca2b5937696c3183604051610f869190612d97565b60405180910390a35050565b6101946020526000908152604090208054600182015460029092015490919060ff1683565b60006108e982611b88565b600061082a7fb19546dff01e856fb3f010c267a7b1c60363cf8a4664e21cc89c26224620214e61055461168d565b600054610100900460ff16806110095750611009611cff565b80611017575060005460ff16155b6110335760405162461bcd60e51b81526004016107519061350d565b600054610100900460ff1615801561105e576000805460ff1961ff0019909116610100171660011790555b6001600160a01b0383161580159061107e57506001600160a01b03821615155b61109a5760405162461bcd60e51b815260040161075190612f4e565b6110a2611d05565b6110aa611d05565b6110b2611d87565b6111266040518060400160405280601881526020017f476f6c6466696e636820563220506f6f6c20546f6b656e7300000000000000008152506040518060400160405280600981526020017f4746492d56322d50540000000000000000000000000000000000000000000000815250611e1e565b61112e611f2f565b611136611d05565b61019180546001600160a01b0319166001600160a01b03841617905561117c7f65d7a28e3265b37a6474929f336521b332c1681b933f6cb9f3376673440d862a846108b6565b6111a67fb19546dff01e856fb3f010c267a7b1c60363cf8a4664e21cc89c26224620214e846108b6565b6111f07f65d7a28e3265b37a6474929f336521b332c1681b933f6cb9f3376673440d862a7fb19546dff01e856fb3f010c267a7b1c60363cf8a4664e21cc89c26224620214e611fbb565b61121a7fb19546dff01e856fb3f010c267a7b1c60363cf8a4664e21cc89c26224620214e80611fbb565b8015610809576000805461ff0019169055505050565b61123b610a4b61168d565b6112575760405162461bcd60e51b81526004016107519061310a565b60fb5460ff161561127a5760405162461bcd60e51b815260040161075190613307565b60008381526101936020526040902080546001600160a01b0316806112b15760405162461bcd60e51b8152600401610751906131d5565b806001600160a01b03166112c361168d565b6001600160a01b0316146112e95760405162461bcd60e51b815260040161075190613798565b6001600160a01b03811660009081526101946020526040902060018101546113119086611fd0565b60018201819055815410156113385760405162461bcd60e51b81526004016107519061320c565b60038301546113479086611fd0565b60038401819055600284015410156113715760405162461bcd60e51b815260040161075190613681565b60048301546113809085611fd0565b6004840155856001600160a01b03831661139982610ce4565b6001600160a01b03167fda8c6dd3bef4f6eabede38563ec41a960f3fd84ccab769aa77db40494f9eee98888888600101546040516113d993929190613940565b60405180910390a4505050505050565b6113fa6113f461168d565b8361170a565b6114165760405162461bcd60e51b81526004016107519061373b565b61142284848484611ff5565b50505050565b606061143382611680565b61144f5760405162461bcd60e51b8152600401610751906135c7565b600082815260d0602090815260409182902080548351601f60026000196101006001861615020190931692909204918201849004840281018401909452808452606093928301828280156114e45780601f106114b9576101008083540402835291602001916114e4565b820191906000526020600020905b8154815290600101906020018083116114c757829003601f168201915b505060d1549394505050506002600019610100600184161502019091160461150d57905061068f565b80511561153f5760d181604051602001611528929190612c98565b60405160208183030381529060405291505061068f565b60d161154a84612028565b60405160200161155b929190612c98565b604051602081830303815290604052915050919050565b60008181526065602052604081206108e9906116ff565b7f9f2df0fed2c77648de5860a4cc508cd0818c85b8b8a1ab4ceeef8d981c8956a681565b6000828152606560205260409020600201546115cb9061055461168d565b6109275760405162461bcd60e51b8152600401610751906132aa565b7fb19546dff01e856fb3f010c267a7b1c60363cf8a4664e21cc89c26224620214e81565b7f65d7a28e3265b37a6474929f336521b332c1681b933f6cb9f3376673440d862a81565b6001600160a01b03918216600090815260cd6020908152604080832093909416825291909152205460ff1690565b61019280546001600160a01b0319166001600160a01b0392909216919091179055565b60006108e960ca83612137565b3390565b600081815260cc6020526040902080546001600160a01b0319166001600160a01b03841690811790915581906116c682610ce4565b6001600160a01b03167f8c5be1e5ebec7d5bd14f71427d1e84f3dd0314c0f7b2291e5b200ac8c7c3b92560405160405180910390a45050565b60006108e982612143565b600061171582611680565b6117315760405162461bcd60e51b81526004016107519061324d565b600061173c83610ce4565b9050806001600160a01b0316846001600160a01b031614806117775750836001600160a01b031661176c8461072a565b6001600160a01b0316145b806117875750611787818561162f565b949350505050565b826001600160a01b03166117a282610ce4565b6001600160a01b0316146117c85760405162461bcd60e51b81526004016107519061356a565b6001600160a01b0382166117ee5760405162461bcd60e51b815260040161075190613141565b6117f9838383612147565b611804600082611691565b6001600160a01b038316600090815260c9602052604090206118269082612152565b506001600160a01b038216600090815260c960205260409020611849908261215e565b5061185660ca828461216a565b5080826001600160a01b0316846001600160a01b03167fddf252ad1be2c89b69c2b068fc378daa952ba7f163c4a11628f55a4df523b3ef60405160405180910390a4505050565b60008281526065602052604090206118b59082612180565b156108c0576118c261168d565b6001600160a01b0316816001600160a01b0316837f2f8788117e7eff1d82e926ec794901d17c78024a50270940304540a733656f0d60405160405180910390a45050565b60006108e68383612195565b600082815260656020526040902061192a90826121da565b156108c05761193761168d565b6001600160a01b0316816001600160a01b0316837ff6391f5c32d9c69d2a47ea670b442974b53935d1edc7fd64eb21e047a839171b60405160405180910390a45050565b6040805160a0810182526001600160a01b039384168152602085810135818301908152953582840190815260006060840181815260808501828152878352610193909452949020925183546001600160a01b03191696169590951782559451600182015592516002840155516003830155915160049091015590565b6001600160a01b038216611a1d5760405162461bcd60e51b81526004016107519061343a565b611a2681611680565b15611a435760405162461bcd60e51b81526004016107519061303f565b611a4f60008383612147565b6001600160a01b038216600090815260c960205260409020611a71908261215e565b50611a7e60ca828461216a565b5060405181906001600160a01b038416906000907fddf252ad1be2c89b69c2b068fc378daa952ba7f163c4a11628f55a4df523b3ef908290a45050565b60fb5460ff16611add5760405162461bcd60e51b815260040161075190612f17565b60fb805460ff191690557f5db9ee0a495bf2e6ff9c91a7834c1ba4fdd244a5e8aa4e537bd38aeae4b073aa611b1061168d565b604051611b1d9190612d19565b60405180910390a1565b611b2f61281d565b5060009081526101936020908152604091829020825160a08101845281546001600160a01b0316815260018201549281019290925260028101549282019290925260038201546060820152600490910154608082015290565b50600190565b60008181526101936020526040812080546001600160a01b031916815560018101829055600281018290556003810182905560040155611bcd816121ef565b50565b6000808080611bdf86866122bc565b9097909650945050505050565b60006001600160a01b03821663b93f9b0a600b5b6040518263ffffffff1660e01b8152600401611c1c9190612da2565b60206040518083038186803b158015611c3457600080fd5b505afa158015611c48573d6000803e3d6000fd5b505050506040513d601f19601f820116820180604052508101906108e9919061295b565b60006001600160a01b03821663b93f9b0a6002611c00565b6000611787848484612318565b60fb5460ff1615611cb45760405162461bcd60e51b815260040161075190613307565b60fb805460ff191660011790557f62e78cea01bee320cd4e420270b5ea74000d11b0c9f74754ebdbfc544b05a258611b1061168d565b60006108e6836001600160a01b038416612377565b303b1590565b600054610100900460ff1680611d1e5750611d1e611cff565b80611d2c575060005460ff16155b611d485760405162461bcd60e51b81526004016107519061350d565b600054610100900460ff16158015611d73576000805460ff1961ff0019909116610100171660011790555b8015611bcd576000805461ff001916905550565b600054610100900460ff1680611da05750611da0611cff565b80611dae575060005460ff16155b611dca5760405162461bcd60e51b81526004016107519061350d565b600054610100900460ff16158015611df5576000805460ff1961ff0019909116610100171660011790555b611d737f01ffc9a70000000000000000000000000000000000000000000000000000000061238f565b600054610100900460ff1680611e375750611e37611cff565b80611e45575060005460ff16155b611e615760405162461bcd60e51b81526004016107519061350d565b600054610100900460ff16158015611e8c576000805460ff1961ff0019909116610100171660011790555b8251611e9f9060ce906020860190612855565b508151611eb39060cf906020850190612855565b50611edd7f80ac58cd0000000000000000000000000000000000000000000000000000000061238f565b611f067f5b5e139f0000000000000000000000000000000000000000000000000000000061238f565b61121a7f780e9d630000000000000000000000000000000000000000000000000000000061238f565b600054610100900460ff1680611f485750611f48611cff565b80611f56575060005460ff16155b611f725760405162461bcd60e51b81526004016107519061350d565b600054610100900460ff16158015611f9d576000805460ff1961ff0019909116610100171660011790555b60fb805460ff191690558015611bcd576000805461ff001916905550565b60009182526065602052604090912060020155565b6000828201838110156108e65760405162461bcd60e51b815260040161075190613076565b61200084848461178f565b61200c848484846123de565b6114225760405162461bcd60e51b815260040161075190612fab565b606081612069575060408051808201909152600181527f3000000000000000000000000000000000000000000000000000000000000000602082015261068f565b8160005b811561208157600101600a8204915061206d565b60608167ffffffffffffffff8111801561209a57600080fd5b506040519080825280601f01601f1916602001820160405280156120c5576020820181803683370190505b50859350905060001982015b831561212e57600a840660300160f81b828280600190039350815181106120f457fe5b60200101907effffffffffffffffffffffffffffffffffffffffffffffffffffffffffffff1916908160001a905350600a840493506120d1565b50949350505050565b60006108e68383612377565b5490565b61080983838361252d565b60006108e6838361255d565b60006108e68383612623565b600061178784846001600160a01b03851661266d565b60006108e6836001600160a01b038416612623565b815460009082106121b85760405162461bcd60e51b815260040161075190612dbe565b8260000182815481106121c757fe5b9060005260206000200154905092915050565b60006108e6836001600160a01b03841661255d565b60006121fa82610ce4565b905061220881600084612147565b612213600083611691565b600082815260d06020526040902054600260001961010060018416150201909116041561225157600082815260d060205260408120612251916128d3565b6001600160a01b038116600090815260c9602052604090206122739083612152565b5061227f60ca83612704565b5060405182906000906001600160a01b038416907fddf252ad1be2c89b69c2b068fc378daa952ba7f163c4a11628f55a4df523b3ef908390a45050565b8154600090819083106122e15760405162461bcd60e51b8152600401610751906133f8565b60008460000184815481106122f257fe5b906000526020600020906002020190508060000154816001015492509250509250929050565b600082815260018401602052604081205482816123485760405162461bcd60e51b81526004016107519190612dab565b5084600001600182038154811061235b57fe5b9060005260206000209060020201600101549150509392505050565b60009081526001919091016020526040902054151590565b6001600160e01b031980821614156123b95760405162461bcd60e51b815260040161075190613008565b6001600160e01b0319166000908152609760205260409020805460ff19166001179055565b60006123f2846001600160a01b0316612710565b6123fe57506001611787565b600060606001600160a01b038616630a85bd0160e11b61241c61168d565b8988886040516024016124329493929190612d2d565b60408051601f198184030181529181526020820180517bffffffffffffffffffffffffffffffffffffffffffffffffffffffff166001600160e01b03199094169390931790925290516124859190612c7c565b6000604051808303816000865af19150503d80600081146124c2576040519150601f19603f3d011682016040523d82523d6000602084013e6124c7565b606091505b5091509150816124f9578051156124e15780518082602001fd5b60405162461bcd60e51b815260040161075190612fab565b60008180602001905181019061250f9190612b9e565b6001600160e01b031916630a85bd0160e11b14935061178792505050565b612538838383610809565b612540610cdb565b156108095760405162461bcd60e51b815260040161075190612e00565b60008181526001830160205260408120548015612619578354600019808301919081019060009087908390811061259057fe5b90600052602060002001549050808760000184815481106125ad57fe5b6000918252602080832090910192909255828152600189810190925260409020908401905586548790806125dd57fe5b600190038181906000526020600020016000905590558660010160008781526020019081526020016000206000905560019450505050506108e9565b60009150506108e9565b600061262f8383612377565b612665575081546001818101845560008481526020808220909301849055845484825282860190935260409020919091556108e9565b5060006108e9565b6000828152600184016020526040812054806126d257505060408051808201825283815260208082018481528654600181810189556000898152848120955160029093029095019182559151908201558654868452818801909252929091205561097f565b828560000160018303815481106126e557fe5b906000526020600020906002020160010181905550600091505061097f565b60006108e68383612749565b6000813f7fc5d2460186f7233c927e7db2dcc703c0e500b653ca82273b7bfad8045d85a470818114801590611787575050151592915050565b60008181526001830160205260408120548015612619578354600019808301919081019060009087908390811061277c57fe5b906000526020600020906002020190508087600001848154811061279c57fe5b6000918252602080832084546002909302019182556001938401549184019190915583548252898301905260409020908401905586548790806127db57fe5b60008281526020808220600260001990940193840201828155600190810183905592909355888152898201909252604082209190915594506108e99350505050565b6040518060a0016040528060006001600160a01b03168152602001600081526020016000815260200160008152602001600081525090565b828054600181600116156101000203166002900490600052602060002090601f016020900481019282601f1061289657805160ff19168380011785556128c3565b828001600101855582156128c3579182015b828111156128c35782518255916020019190600101906128a8565b506128cf929150612913565b5090565b50805460018160011615610100020316600290046000825580601f106128f95750611bcd565b601f016020900490600052602060002090810190611bcd91905b5b808211156128cf5760008155600101612914565b600060408284031215612939578081fd5b50919050565b600060208284031215612950578081fd5b81356108e681613982565b60006020828403121561296c578081fd5b81516108e681613982565b60008060408385031215612989578081fd5b823561299481613982565b915060208301356129a481613982565b809150509250929050565b6000806000606084860312156129c3578081fd5b83356129ce81613982565b925060208401356129de81613982565b929592945050506040919091013590565b60008060008060808587031215612a04578081fd5b8435612a0f81613982565b9350602085810135612a2081613982565b935060408601359250606086013567ffffffffffffffff80821115612a43578384fd5b818801915088601f830112612a56578384fd5b813581811115612a64578485fd5b604051601f8201601f1916810185018381118282101715612a83578687fd5b60405281815283820185018b1015612a99578586fd5b81858501868301379081019093019390935250939692955090935050565b60008060408385031215612ac9578182fd5b8235612ad481613982565b9150602083013580151581146129a4578182fd5b60008060408385031215612989578182fd5b60008060408385031215612b0c578182fd5b8235612b1781613982565b946020939093013593505050565b600060208284031215612b36578081fd5b5035919050565b60008060408385031215612b4f578182fd5b8235915060208301356129a481613982565b60008060408385031215612b73578182fd5b50508035926020909101359150565b600060208284031215612b93578081fd5b81356108e681613997565b600060208284031215612baf578081fd5b81516108e681613997565b60008060608385031215612bcc578182fd5b612bd68484612928565b915060408301356129a481613982565b600080600060808486031215612bfa578081fd5b612c048585612928565b92506040840135612c1481613982565b929592945050506060919091013590565b600080600060608486031215612c39578081fd5b505081359360208301359350604090920135919050565b60008151808452612c68816020860160208601613956565b601f01601f19169290920160200192915050565b60008251612c8e818460208701613956565b9190910192915050565b6000808454600180821660008114612cb75760018114612cce57612cfd565b60ff198316865260028304607f1686019350612cfd565b600283048886526020808720875b83811015612cf55781548a820152908501908201612cdc565b505050860193505b5050508351612d10818360208801613956565b01949350505050565b6001600160a01b0391909116815260200190565b60006001600160a01b03808716835280861660208401525083604083015260806060830152612d5f6080830184612c50565b9695505050505050565b6001600160a01b03959095168552602085019390935260408401919091526060830152608082015260a00190565b901515815260200190565b90815260200190565b6000602082526108e66020830184612c50565b60208082526022908201527f456e756d657261626c655365743a20696e646578206f7574206f6620626f756e604082015261647360f01b606082015260800190565b6020808252602b908201527f4552433732315061757361626c653a20746f6b656e207472616e73666572207760408201527f68696c6520706175736564000000000000000000000000000000000000000000606082015260800190565b6020808252602f908201527f416363657373436f6e74726f6c3a2073656e646572206d75737420626520616e60408201527f2061646d696e20746f206772616e740000000000000000000000000000000000606082015260800190565b6020808252602d908201527f4552433732314275726e61626c653a2063616c6c65722063616e6e6f7420627560408201527f726e207468697320746f6b656e00000000000000000000000000000000000000606082015260800190565b60208082526014908201527f5061757361626c653a206e6f7420706175736564000000000000000000000000604082015260600190565b6020808252602a908201527f4f776e657220616e6420636f6e666967206164647265737365732063616e6e6f60408201527f7420626520656d70747900000000000000000000000000000000000000000000606082015260800190565b60208082526032908201527f4552433732313a207472616e7366657220746f206e6f6e20455243373231526560408201527f63656976657220696d706c656d656e7465720000000000000000000000000000606082015260800190565b6020808252601c908201527f4552433136353a20696e76616c696420696e7465726661636520696400000000604082015260600190565b6020808252601c908201527f4552433732313a20746f6b656e20616c7265616479206d696e74656400000000604082015260600190565b6020808252601b908201527f536166654d6174683a206164646974696f6e206f766572666c6f770000000000604082015260600190565b6020808252603e908201527f4552433732315072657365744d696e7465725061757365724175746f49643a2060408201527f6d75737420686176652070617573657220726f6c6520746f2070617573650000606082015260800190565b6020808252600d908201527f496e76616c696420706f6f6c2100000000000000000000000000000000000000604082015260600190565b60208082526024908201527f4552433732313a207472616e7366657220746f20746865207a65726f2061646460408201527f7265737300000000000000000000000000000000000000000000000000000000606082015260800190565b60208082526019908201527f4552433732313a20617070726f766520746f2063616c6c657200000000000000604082015260600190565b6020808252600f908201527f496e76616c696420746f6b656e49640000000000000000000000000000000000604082015260600190565b60208082526021908201527f43616e6e6f742072656465656d206d6f7265207468616e207765206d696e74656040820152601960fa1b606082015260800190565b6020808252602c908201527f4552433732313a206f70657261746f7220717565727920666f72206e6f6e657860408201527f697374656e7420746f6b656e0000000000000000000000000000000000000000606082015260800190565b60208082526030908201527f416363657373436f6e74726f6c3a2073656e646572206d75737420626520616e60408201527f2061646d696e20746f207265766f6b6500000000000000000000000000000000606082015260800190565b60208082526010908201527f5061757361626c653a2070617573656400000000000000000000000000000000604082015260600190565b60208082526038908201527f4552433732313a20617070726f76652063616c6c6572206973206e6f74206f7760408201527f6e6572206e6f7220617070726f76656420666f7220616c6c0000000000000000606082015260800190565b6020808252602a908201527f4552433732313a2062616c616e636520717565727920666f7220746865207a6560408201527f726f206164647265737300000000000000000000000000000000000000000000606082015260800190565b60208082526022908201527f456e756d657261626c654d61703a20696e646578206f7574206f6620626f756e604082015261647360f01b606082015260800190565b6020808252818101527f4552433732313a206d696e7420746f20746865207a65726f2061646472657373604082015260600190565b6020808252602c908201527f4552433732313a20617070726f76656420717565727920666f72206e6f6e657860408201527f697374656e7420746f6b656e0000000000000000000000000000000000000000606082015260800190565b60208082526021908201527f4f6e6c7920476f6c6466696e636820666163746f727920697320616c6c6f77656040820152601960fa1b606082015260800190565b6020808252602e908201527f436f6e747261637420696e7374616e63652068617320616c726561647920626560408201527f656e20696e697469616c697a6564000000000000000000000000000000000000606082015260800190565b60208082526029908201527f4552433732313a207472616e73666572206f6620746f6b656e2074686174206960408201527f73206e6f74206f776e0000000000000000000000000000000000000000000000606082015260800190565b6020808252602f908201527f4552433732314d657461646174613a2055524920717565727920666f72206e6f60408201527f6e6578697374656e7420746f6b656e0000000000000000000000000000000000606082015260800190565b60208082526023908201527f43616e206f6e6c79206275726e2066756c6c792072656465656d656420746f6b60408201527f656e730000000000000000000000000000000000000000000000000000000000606082015260800190565b6020808252603c908201527f43616e6e6f742072656465656d206d6f7265207468616e207072696e6369706160408201527f6c2d6465706f736974656420616d6f756e7420666f7220746f6b656e00000000606082015260800190565b60208082526021908201527f4552433732313a20617070726f76616c20746f2063757272656e74206f776e6560408201527f7200000000000000000000000000000000000000000000000000000000000000606082015260800190565b60208082526031908201527f4552433732313a207472616e736665722063616c6c6572206973206e6f74206f60408201527f776e6572206e6f7220617070726f766564000000000000000000000000000000606082015260800190565b6020808252818101527f4f6e6c792074686520746f6b656e277320706f6f6c2063616e2072656465656d604082015260600190565b602080825260409082018190527f4552433732315072657365744d696e7465725061757365724175746f49643a20908201527f6d75737420686176652070617573657220726f6c6520746f20756e7061757365606082015260800190565b6020808252602b908201527f4d75737420686176652061646d696e20726f6c6520746f20706572666f726d2060408201527f7468697320616374696f6e000000000000000000000000000000000000000000606082015260800190565b6020808252602f908201527f416363657373436f6e74726f6c3a2063616e206f6e6c792072656e6f756e636560408201527f20726f6c657320666f722073656c660000000000000000000000000000000000606082015260800190565b600060a0820190506001600160a01b0383511682526020830151602083015260408301516040830152606083015160608301526080830151608083015292915050565b92835260208301919091521515604082015260600190565b9283526020830191909152604082015260600190565b60005b83811015613971578181015183820152602001613959565b838111156114225750506000910152565b6001600160a01b0381168114611bcd57600080fd5b6001600160e01b031981168114611bcd57600080fdfe4552433732313a206f776e657220717565727920666f72206e6f6e6578697374656e7420746f6b656ea26469706673582212209e3aacf0a892503226fb4538e7ebed7e4aec200fdfadf6de5b8ddf04037bc5e264736f6c634300060c0033",
			"opcodes": "PUSH1 0x80 PUSH1 0x40 MSTORE CALLVALUE DUP1 ISZERO PUSH2 0x10 JUMPI PUSH1 0x0 DUP1 REVERT JUMPDEST POP PUSH2 0x3A0C DUP1 PUSH2 0x20 PUSH1 0x0 CODECOPY PUSH1 0x0 RETURN INVALID PUSH1 0x80 PUSH1 0x40 MSTORE CALLVALUE DUP1 ISZERO PUSH2 0x10 JUMPI PUSH1 0x0 DUP1 REVERT JUMPDEST POP PUSH1 0x4 CALLDATASIZE LT PUSH2 0x320 JUMPI PUSH1 0x0 CALLDATALOAD PUSH1 0xE0 SHR DUP1 PUSH4 0x70A08231 GT PUSH2 0x1A7 JUMPI DUP1 PUSH4 0xB6DB75A0 GT PUSH2 0xEE JUMPI DUP1 PUSH4 0xD5391393 GT PUSH2 0x97 JUMPI DUP1 PUSH4 0xE63AB1E9 GT PUSH2 0x71 JUMPI DUP1 PUSH4 0xE63AB1E9 EQ PUSH2 0x643 JUMPI DUP1 PUSH4 0xE985E9C5 EQ PUSH2 0x64B JUMPI DUP1 PUSH4 0xE9E15B4F EQ PUSH2 0x65E JUMPI PUSH2 0x320 JUMP JUMPDEST DUP1 PUSH4 0xD5391393 EQ PUSH2 0x620 JUMPI DUP1 PUSH4 0xD547741F EQ PUSH2 0x628 JUMPI DUP1 PUSH4 0xE58378BB EQ PUSH2 0x63B JUMPI PUSH2 0x320 JUMP JUMPDEST DUP1 PUSH4 0xB88D4FDE GT PUSH2 0xC8 JUMPI DUP1 PUSH4 0xB88D4FDE EQ PUSH2 0x5E7 JUMPI DUP1 PUSH4 0xC87B56DD EQ PUSH2 0x5FA JUMPI DUP1 PUSH4 0xCA15C873 EQ PUSH2 0x60D JUMPI PUSH2 0x320 JUMP JUMPDEST DUP1 PUSH4 0xB6DB75A0 EQ PUSH2 0x5B9 JUMPI DUP1 PUSH4 0xB6F8FD40 EQ PUSH2 0x5C1 JUMPI DUP1 PUSH4 0xB8192205 EQ PUSH2 0x5D4 JUMPI PUSH2 0x320 JUMP JUMPDEST DUP1 PUSH4 0x95D89B41 GT PUSH2 0x150 JUMPI DUP1 PUSH4 0xA22CB465 GT PUSH2 0x12A JUMPI DUP1 PUSH4 0xA22CB465 EQ PUSH2 0x571 JUMPI DUP1 PUSH4 0xA4063DBC EQ PUSH2 0x584 JUMPI DUP1 PUSH4 0xB5ADA6D8 EQ PUSH2 0x5A6 JUMPI PUSH2 0x320 JUMP JUMPDEST DUP1 PUSH4 0x95D89B41 EQ PUSH2 0x559 JUMPI DUP1 PUSH4 0x98BCEDE9 EQ PUSH2 0x561 JUMPI DUP1 PUSH4 0xA217FDDF EQ PUSH2 0x569 JUMPI PUSH2 0x320 JUMP JUMPDEST DUP1 PUSH4 0x8C7A63AE GT PUSH2 0x181 JUMPI DUP1 PUSH4 0x8C7A63AE EQ PUSH2 0x513 JUMPI DUP1 PUSH4 0x9010D07C EQ PUSH2 0x533 JUMPI DUP1 PUSH4 0x91D14854 EQ PUSH2 0x546 JUMPI PUSH2 0x320 JUMP JUMPDEST DUP1 PUSH4 0x70A08231 EQ PUSH2 0x4F0 JUMPI DUP1 PUSH4 0x79502C55 EQ PUSH2 0x503 JUMPI DUP1 PUSH4 0x8456CB59 EQ PUSH2 0x50B JUMPI PUSH2 0x320 JUMP JUMPDEST DUP1 PUSH4 0x3F4BA83A GT PUSH2 0x26B JUMPI DUP1 PUSH4 0x4F92A728 GT PUSH2 0x214 JUMPI DUP1 PUSH4 0x5C975ABB GT PUSH2 0x1EE JUMPI DUP1 PUSH4 0x5C975ABB EQ PUSH2 0x4CD JUMPI DUP1 PUSH4 0x6352211E EQ PUSH2 0x4D5 JUMPI DUP1 PUSH4 0x6C0360EB EQ PUSH2 0x4E8 JUMPI PUSH2 0x320 JUMP JUMPDEST DUP1 PUSH4 0x4F92A728 EQ PUSH2 0x49F JUMPI DUP1 PUSH4 0x57E340CE EQ PUSH2 0x4A7 JUMPI DUP1 PUSH4 0x5BE57B6A EQ PUSH2 0x4BA JUMPI PUSH2 0x320 JUMP JUMPDEST DUP1 PUSH4 0x430C2081 GT PUSH2 0x245 JUMPI DUP1 PUSH4 0x430C2081 EQ PUSH2 0x455 JUMPI DUP1 PUSH4 0x4F64B2BE EQ PUSH2 0x468 JUMPI DUP1 PUSH4 0x4F6CCCE7 EQ PUSH2 0x48C JUMPI PUSH2 0x320 JUMP JUMPDEST DUP1 PUSH4 0x3F4BA83A EQ PUSH2 0x427 JUMPI DUP1 PUSH4 0x42842E0E EQ PUSH2 0x42F JUMPI DUP1 PUSH4 0x42966C68 EQ PUSH2 0x442 JUMPI PUSH2 0x320 JUMP JUMPDEST DUP1 PUSH4 0x23B872DD GT PUSH2 0x2CD JUMPI DUP1 PUSH4 0x2F745C59 GT PUSH2 0x2A7 JUMPI DUP1 PUSH4 0x2F745C59 EQ PUSH2 0x3EE JUMPI DUP1 PUSH4 0x36568ABE EQ PUSH2 0x401 JUMPI DUP1 PUSH4 0x37FDC8A1 EQ PUSH2 0x414 JUMPI PUSH2 0x320 JUMP JUMPDEST DUP1 PUSH4 0x23B872DD EQ PUSH2 0x3B5 JUMPI DUP1 PUSH4 0x248A9CA3 EQ PUSH2 0x3C8 JUMPI DUP1 PUSH4 0x2F2FF15D EQ PUSH2 0x3DB JUMPI PUSH2 0x320 JUMP JUMPDEST DUP1 PUSH4 0x95EA7B3 GT PUSH2 0x2FE JUMPI DUP1 PUSH4 0x95EA7B3 EQ PUSH2 0x383 JUMPI DUP1 PUSH4 0x1755FF21 EQ PUSH2 0x398 JUMPI DUP1 PUSH4 0x18160DDD EQ PUSH2 0x3A0 JUMPI PUSH2 0x320 JUMP JUMPDEST DUP1 PUSH4 0x1FFC9A7 EQ PUSH2 0x325 JUMPI DUP1 PUSH4 0x6FDDE03 EQ PUSH2 0x34E JUMPI DUP1 PUSH4 0x81812FC EQ PUSH2 0x363 JUMPI JUMPDEST PUSH1 0x0 DUP1 REVERT JUMPDEST PUSH2 0x338 PUSH2 0x333 CALLDATASIZE PUSH1 0x4 PUSH2 0x2B82 JUMP JUMPDEST PUSH2 0x671 JUMP JUMPDEST PUSH1 0x40 MLOAD PUSH2 0x345 SWAP2 SWAP1 PUSH2 0x2D97 JUMP JUMPDEST PUSH1 0x40 MLOAD DUP1 SWAP2 SUB SWAP1 RETURN JUMPDEST PUSH2 0x356 PUSH2 0x694 JUMP JUMPDEST PUSH1 0x40 MLOAD PUSH2 0x345 SWAP2 SWAP1 PUSH2 0x2DAB JUMP JUMPDEST PUSH2 0x376 PUSH2 0x371 CALLDATASIZE PUSH1 0x4 PUSH2 0x2B25 JUMP JUMPDEST PUSH2 0x72A JUMP JUMPDEST PUSH1 0x40 MLOAD PUSH2 0x345 SWAP2 SWAP1 PUSH2 0x2D19 JUMP JUMPDEST PUSH2 0x396 PUSH2 0x391 CALLDATASIZE PUSH1 0x4 PUSH2 0x2AFA JUMP JUMPDEST PUSH2 0x776 JUMP JUMPDEST STOP JUMPDEST PUSH2 0x376 PUSH2 0x80E JUMP JUMPDEST PUSH2 0x3A8 PUSH2 0x81E JUMP JUMPDEST PUSH1 0x40 MLOAD PUSH2 0x345 SWAP2 SWAP1 PUSH2 0x2DA2 JUMP JUMPDEST PUSH2 0x396 PUSH2 0x3C3 CALLDATASIZE PUSH1 0x4 PUSH2 0x29AF JUMP JUMPDEST PUSH2 0x82F JUMP JUMPDEST PUSH2 0x3A8 PUSH2 0x3D6 CALLDATASIZE PUSH1 0x4 PUSH2 0x2B25 JUMP JUMPDEST PUSH2 0x867 JUMP JUMPDEST PUSH2 0x396 PUSH2 0x3E9 CALLDATASIZE PUSH1 0x4 PUSH2 0x2B3D JUMP JUMPDEST PUSH2 0x87C JUMP JUMPDEST PUSH2 0x3A8 PUSH2 0x3FC CALLDATASIZE PUSH1 0x4 PUSH2 0x2AFA JUMP JUMPDEST PUSH2 0x8C4 JUMP JUMPDEST PUSH2 0x396 PUSH2 0x40F CALLDATASIZE PUSH1 0x4 PUSH2 0x2B3D JUMP JUMPDEST PUSH2 0x8EF JUMP JUMPDEST PUSH2 0x3A8 PUSH2 0x422 CALLDATASIZE PUSH1 0x4 PUSH2 0x2BE6 JUMP JUMPDEST PUSH2 0x931 JUMP JUMPDEST PUSH2 0x396 PUSH2 0x986 JUMP JUMPDEST PUSH2 0x396 PUSH2 0x43D CALLDATASIZE PUSH1 0x4 PUSH2 0x29AF JUMP JUMPDEST PUSH2 0x9D8 JUMP JUMPDEST PUSH2 0x396 PUSH2 0x450 CALLDATASIZE PUSH1 0x4 PUSH2 0x2B25 JUMP JUMPDEST PUSH2 0x9F3 JUMP JUMPDEST PUSH2 0x338 PUSH2 0x463 CALLDATASIZE PUSH1 0x4 PUSH2 0x2AFA JUMP JUMPDEST PUSH2 0xB28 JUMP JUMPDEST PUSH2 0x47B PUSH2 0x476 CALLDATASIZE PUSH1 0x4 PUSH2 0x2B25 JUMP JUMPDEST PUSH2 0xB34 JUMP JUMPDEST PUSH1 0x40 MLOAD PUSH2 0x345 SWAP6 SWAP5 SWAP4 SWAP3 SWAP2 SWAP1 PUSH2 0x2D69 JUMP JUMPDEST PUSH2 0x3A8 PUSH2 0x49A CALLDATASIZE PUSH1 0x4 PUSH2 0x2B25 JUMP JUMPDEST PUSH2 0xB6E JUMP JUMPDEST PUSH2 0x396 PUSH2 0xB84 JUMP JUMPDEST PUSH2 0x396 PUSH2 0x4B5 CALLDATASIZE PUSH1 0x4 PUSH2 0x293F JUMP JUMPDEST PUSH2 0xC1A JUMP JUMPDEST PUSH2 0x3A8 PUSH2 0x4C8 CALLDATASIZE PUSH1 0x4 PUSH2 0x2BBA JUMP JUMPDEST PUSH2 0xC8F JUMP JUMPDEST PUSH2 0x338 PUSH2 0xCDB JUMP JUMPDEST PUSH2 0x376 PUSH2 0x4E3 CALLDATASIZE PUSH1 0x4 PUSH2 0x2B25 JUMP JUMPDEST PUSH2 0xCE4 JUMP JUMPDEST PUSH2 0x356 PUSH2 0xD0C JUMP JUMPDEST PUSH2 0x3A8 PUSH2 0x4FE CALLDATASIZE PUSH1 0x4 PUSH2 0x293F JUMP JUMPDEST PUSH2 0xD6D JUMP JUMPDEST PUSH2 0x376 PUSH2 0xDB6 JUMP JUMPDEST PUSH2 0x396 PUSH2 0xDC6 JUMP JUMPDEST PUSH2 0x526 PUSH2 0x521 CALLDATASIZE PUSH1 0x4 PUSH2 0x2B25 JUMP JUMPDEST PUSH2 0xE16 JUMP JUMPDEST PUSH1 0x40 MLOAD PUSH2 0x345 SWAP2 SWAP1 PUSH2 0x38E5 JUMP JUMPDEST PUSH2 0x376 PUSH2 0x541 CALLDATASIZE PUSH1 0x4 PUSH2 0x2B61 JUMP JUMPDEST PUSH2 0xE27 JUMP JUMPDEST PUSH2 0x338 PUSH2 0x554 CALLDATASIZE PUSH1 0x4 PUSH2 0x2B3D JUMP JUMPDEST PUSH2 0xE3F JUMP JUMPDEST PUSH2 0x356 PUSH2 0xE57 JUMP JUMPDEST PUSH2 0x3A8 PUSH2 0xEB8 JUMP JUMPDEST PUSH2 0x3A8 PUSH2 0xEBF JUMP JUMPDEST PUSH2 0x396 PUSH2 0x57F CALLDATASIZE PUSH1 0x4 PUSH2 0x2AB7 JUMP JUMPDEST PUSH2 0xEC4 JUMP JUMPDEST PUSH2 0x597 PUSH2 0x592 CALLDATASIZE PUSH1 0x4 PUSH2 0x293F JUMP JUMPDEST PUSH2 0xF92 JUMP JUMPDEST PUSH1 0x40 MLOAD PUSH2 0x345 SWAP4 SWAP3 SWAP2 SWAP1 PUSH2 0x3928 JUMP JUMPDEST PUSH2 0x338 PUSH2 0x5B4 CALLDATASIZE PUSH1 0x4 PUSH2 0x293F JUMP JUMPDEST PUSH2 0xFB7 JUMP JUMPDEST PUSH2 0x338 PUSH2 0xFC2 JUMP JUMPDEST PUSH2 0x396 PUSH2 0x5CF CALLDATASIZE PUSH1 0x4 PUSH2 0x2AE8 JUMP JUMPDEST PUSH2 0xFF0 JUMP JUMPDEST PUSH2 0x396 PUSH2 0x5E2 CALLDATASIZE PUSH1 0x4 PUSH2 0x2C25 JUMP JUMPDEST PUSH2 0x1230 JUMP JUMPDEST PUSH2 0x396 PUSH2 0x5F5 CALLDATASIZE PUSH1 0x4 PUSH2 0x29EF JUMP JUMPDEST PUSH2 0x13E9 JUMP JUMPDEST PUSH2 0x356 PUSH2 0x608 CALLDATASIZE PUSH1 0x4 PUSH2 0x2B25 JUMP JUMPDEST PUSH2 0x1428 JUMP JUMPDEST PUSH2 0x3A8 PUSH2 0x61B CALLDATASIZE PUSH1 0x4 PUSH2 0x2B25 JUMP JUMPDEST PUSH2 0x1572 JUMP JUMPDEST PUSH2 0x3A8 PUSH2 0x1589 JUMP JUMPDEST PUSH2 0x396 PUSH2 0x636 CALLDATASIZE PUSH1 0x4 PUSH2 0x2B3D JUMP JUMPDEST PUSH2 0x15AD JUMP JUMPDEST PUSH2 0x3A8 PUSH2 0x15E7 JUMP JUMPDEST PUSH2 0x3A8 PUSH2 0x160B JUMP JUMPDEST PUSH2 0x338 PUSH2 0x659 CALLDATASIZE PUSH1 0x4 PUSH2 0x2977 JUMP JUMPDEST PUSH2 0x162F JUMP JUMPDEST PUSH2 0x396 PUSH2 0x66C CALLDATASIZE PUSH1 0x4 PUSH2 0x293F JUMP JUMPDEST PUSH2 0x165D JUMP JUMPDEST PUSH1 0x1 PUSH1 0x1 PUSH1 0xE0 SHL SUB NOT DUP2 AND PUSH1 0x0 SWAP1 DUP2 MSTORE PUSH1 0x97 PUSH1 0x20 MSTORE PUSH1 0x40 SWAP1 KECCAK256 SLOAD PUSH1 0xFF AND JUMPDEST SWAP2 SWAP1 POP JUMP JUMPDEST PUSH1 0xCE DUP1 SLOAD PUSH1 0x40 DUP1 MLOAD PUSH1 0x20 PUSH1 0x1F PUSH1 0x2 PUSH1 0x0 NOT PUSH2 0x100 PUSH1 0x1 DUP9 AND ISZERO MUL ADD SWAP1 SWAP6 AND SWAP5 SWAP1 SWAP5 DIV SWAP4 DUP5 ADD DUP2 SWAP1 DIV DUP2 MUL DUP3 ADD DUP2 ADD SWAP1 SWAP3 MSTORE DUP3 DUP2 MSTORE PUSH1 0x60 SWAP4 SWAP1 SWAP3 SWAP1 SWAP2 DUP4 ADD DUP3 DUP3 DUP1 ISZERO PUSH2 0x720 JUMPI DUP1 PUSH1 0x1F LT PUSH2 0x6F5 JUMPI PUSH2 0x100 DUP1 DUP4 SLOAD DIV MUL DUP4 MSTORE SWAP2 PUSH1 0x20 ADD SWAP2 PUSH2 0x720 JUMP JUMPDEST DUP3 ADD SWAP2 SWAP1 PUSH1 0x0 MSTORE PUSH1 0x20 PUSH1 0x0 KECCAK256 SWAP1 JUMPDEST DUP2 SLOAD DUP2 MSTORE SWAP1 PUSH1 0x1 ADD SWAP1 PUSH1 0x20 ADD DUP1 DUP4 GT PUSH2 0x703 JUMPI DUP3 SWAP1 SUB PUSH1 0x1F AND DUP3 ADD SWAP2 JUMPDEST POP POP POP POP POP SWAP1 POP SWAP1 JUMP JUMPDEST PUSH1 0x0 PUSH2 0x735 DUP3 PUSH2 0x1680 JUMP JUMPDEST PUSH2 0x75A JUMPI PUSH1 0x40 MLOAD PUSH3 0x461BCD PUSH1 0xE5 SHL DUP2 MSTORE PUSH1 0x4 ADD PUSH2 0x751 SWAP1 PUSH2 0x346F JUMP JUMPDEST PUSH1 0x40 MLOAD DUP1 SWAP2 SUB SWAP1 REVERT JUMPDEST POP PUSH1 0x0 SWAP1 DUP2 MSTORE PUSH1 0xCC PUSH1 0x20 MSTORE PUSH1 0x40 SWAP1 KECCAK256 SLOAD PUSH1 0x1 PUSH1 0x1 PUSH1 0xA0 SHL SUB AND SWAP1 JUMP JUMPDEST PUSH1 0x0 PUSH2 0x781 DUP3 PUSH2 0xCE4 JUMP JUMPDEST SWAP1 POP DUP1 PUSH1 0x1 PUSH1 0x1 PUSH1 0xA0 SHL SUB AND DUP4 PUSH1 0x1 PUSH1 0x1 PUSH1 0xA0 SHL SUB AND EQ ISZERO PUSH2 0x7B5 JUMPI PUSH1 0x40 MLOAD PUSH3 0x461BCD PUSH1 0xE5 SHL DUP2 MSTORE PUSH1 0x4 ADD PUSH2 0x751 SWAP1 PUSH2 0x36DE JUMP JUMPDEST DUP1 PUSH1 0x1 PUSH1 0x1 PUSH1 0xA0 SHL SUB AND PUSH2 0x7C7 PUSH2 0x168D JUMP JUMPDEST PUSH1 0x1 PUSH1 0x1 PUSH1 0xA0 SHL SUB AND EQ DUP1 PUSH2 0x7E3 JUMPI POP PUSH2 0x7E3 DUP2 PUSH2 0x659 PUSH2 0x168D JUMP JUMPDEST PUSH2 0x7FF JUMPI PUSH1 0x40 MLOAD PUSH3 0x461BCD PUSH1 0xE5 SHL DUP2 MSTORE PUSH1 0x4 ADD PUSH2 0x751 SWAP1 PUSH2 0x333E JUMP JUMPDEST PUSH2 0x809 DUP4 DUP4 PUSH2 0x1691 JUMP JUMPDEST POP POP POP JUMP JUMPDEST PUSH2 0x192 SLOAD PUSH1 0x1 PUSH1 0x1 PUSH1 0xA0 SHL SUB AND DUP2 JUMP JUMPDEST PUSH1 0x0 PUSH2 0x82A PUSH1 0xCA PUSH2 0x16FF JUMP JUMPDEST SWAP1 POP SWAP1 JUMP JUMPDEST PUSH2 0x840 PUSH2 0x83A PUSH2 0x168D JUMP JUMPDEST DUP3 PUSH2 0x170A JUMP JUMPDEST PUSH2 0x85C JUMPI PUSH1 0x40 MLOAD PUSH3 0x461BCD PUSH1 0xE5 SHL DUP2 MSTORE PUSH1 0x4 ADD PUSH2 0x751 SWAP1 PUSH2 0x373B JUMP JUMPDEST PUSH2 0x809 DUP4 DUP4 DUP4 PUSH2 0x178F JUMP JUMPDEST PUSH1 0x0 SWAP1 DUP2 MSTORE PUSH1 0x65 PUSH1 0x20 MSTORE PUSH1 0x40 SWAP1 KECCAK256 PUSH1 0x2 ADD SLOAD SWAP1 JUMP JUMPDEST PUSH1 0x0 DUP3 DUP2 MSTORE PUSH1 0x65 PUSH1 0x20 MSTORE PUSH1 0x40 SWAP1 KECCAK256 PUSH1 0x2 ADD SLOAD PUSH2 0x89A SWAP1 PUSH2 0x554 PUSH2 0x168D JUMP JUMPDEST PUSH2 0x8B6 JUMPI PUSH1 0x40 MLOAD PUSH3 0x461BCD PUSH1 0xE5 SHL DUP2 MSTORE PUSH1 0x4 ADD PUSH2 0x751 SWAP1 PUSH2 0x2E5D JUMP JUMPDEST PUSH2 0x8C0 DUP3 DUP3 PUSH2 0x189D JUMP JUMPDEST POP POP JUMP JUMPDEST PUSH1 0x1 PUSH1 0x1 PUSH1 0xA0 SHL SUB DUP3 AND PUSH1 0x0 SWAP1 DUP2 MSTORE PUSH1 0xC9 PUSH1 0x20 MSTORE PUSH1 0x40 DUP2 KECCAK256 PUSH2 0x8E6 SWAP1 DUP4 PUSH2 0x1906 JUMP JUMPDEST SWAP1 POP JUMPDEST SWAP3 SWAP2 POP POP JUMP JUMPDEST PUSH2 0x8F7 PUSH2 0x168D JUMP JUMPDEST PUSH1 0x1 PUSH1 0x1 PUSH1 0xA0 SHL SUB AND DUP2 PUSH1 0x1 PUSH1 0x1 PUSH1 0xA0 SHL SUB AND EQ PUSH2 0x927 JUMPI PUSH1 0x40 MLOAD PUSH3 0x461BCD PUSH1 0xE5 SHL DUP2 MSTORE PUSH1 0x4 ADD PUSH2 0x751 SWAP1 PUSH2 0x3888 JUMP JUMPDEST PUSH2 0x8C0 DUP3 DUP3 PUSH2 0x1912 JUMP JUMPDEST PUSH1 0xFB SLOAD PUSH1 0x0 SWAP1 PUSH1 0xFF AND ISZERO PUSH2 0x957 JUMPI PUSH1 0x40 MLOAD PUSH3 0x461BCD PUSH1 0xE5 SHL DUP2 MSTORE PUSH1 0x4 ADD PUSH2 0x751 SWAP1 PUSH2 0x3307 JUMP JUMPDEST PUSH2 0x192 SLOAD PUSH2 0x970 SWAP1 DUP6 SWAP1 PUSH1 0x1 PUSH1 0x1 PUSH1 0xA0 SHL SUB AND DUP5 PUSH2 0x197B JUMP JUMPDEST SWAP2 POP PUSH2 0x97C DUP4 DUP4 PUSH2 0x19F7 JUMP JUMPDEST POP DUP1 JUMPDEST SWAP4 SWAP3 POP POP POP JUMP JUMPDEST PUSH2 0x9B2 PUSH32 0x65D7A28E3265B37A6474929F336521B332C1681B933F6CB9F3376673440D862A PUSH2 0x554 PUSH2 0x168D JUMP JUMPDEST PUSH2 0x9CE JUMPI PUSH1 0x40 MLOAD PUSH3 0x461BCD PUSH1 0xE5 SHL DUP2 MSTORE PUSH1 0x4 ADD PUSH2 0x751 SWAP1 PUSH2 0x37CD JUMP JUMPDEST PUSH2 0x9D6 PUSH2 0x1ABB JUMP JUMPDEST JUMP JUMPDEST PUSH2 0x809 DUP4 DUP4 DUP4 PUSH1 0x40 MLOAD DUP1 PUSH1 0x20 ADD PUSH1 0x40 MSTORE DUP1 PUSH1 0x0 DUP2 MSTORE POP PUSH2 0x13E9 JUMP JUMPDEST PUSH1 0xFB SLOAD PUSH1 0xFF AND ISZERO PUSH2 0xA16 JUMPI PUSH1 0x40 MLOAD PUSH3 0x461BCD PUSH1 0xE5 SHL DUP2 MSTORE PUSH1 0x4 ADD PUSH2 0x751 SWAP1 PUSH2 0x3307 JUMP JUMPDEST PUSH2 0xA1E PUSH2 0x281D JUMP JUMPDEST PUSH2 0xA27 DUP3 PUSH2 0x1B27 JUMP JUMPDEST SWAP1 POP PUSH1 0x0 PUSH2 0xA3C PUSH2 0xA36 PUSH2 0x168D JUMP JUMPDEST DUP5 PUSH2 0x170A JUMP JUMPDEST SWAP1 POP PUSH1 0x0 PUSH2 0xA50 PUSH2 0xA4B PUSH2 0x168D JUMP JUMPDEST PUSH2 0x1B88 JUMP JUMPDEST DUP1 ISZERO PUSH2 0xA78 JUMPI POP PUSH2 0xA5F PUSH2 0x168D JUMP JUMPDEST PUSH1 0x1 PUSH1 0x1 PUSH1 0xA0 SHL SUB AND DUP4 PUSH1 0x0 ADD MLOAD PUSH1 0x1 PUSH1 0x1 PUSH1 0xA0 SHL SUB AND EQ JUMPDEST SWAP1 POP PUSH1 0x0 PUSH2 0xA85 DUP6 PUSH2 0xCE4 JUMP JUMPDEST SWAP1 POP DUP3 DUP1 PUSH2 0xA90 JUMPI POP DUP2 JUMPDEST PUSH2 0xAAC JUMPI PUSH1 0x40 MLOAD PUSH3 0x461BCD PUSH1 0xE5 SHL DUP2 MSTORE PUSH1 0x4 ADD PUSH2 0x751 SWAP1 PUSH2 0x2EBA JUMP JUMPDEST DUP4 PUSH1 0x40 ADD MLOAD DUP5 PUSH1 0x60 ADD MLOAD EQ PUSH2 0xAD3 JUMPI PUSH1 0x40 MLOAD PUSH3 0x461BCD PUSH1 0xE5 SHL DUP2 MSTORE PUSH1 0x4 ADD PUSH2 0x751 SWAP1 PUSH2 0x3624 JUMP JUMPDEST PUSH2 0xADC DUP6 PUSH2 0x1B8E JUMP JUMPDEST DUP5 DUP5 PUSH1 0x0 ADD MLOAD PUSH1 0x1 PUSH1 0x1 PUSH1 0xA0 SHL SUB AND DUP3 PUSH1 0x1 PUSH1 0x1 PUSH1 0xA0 SHL SUB AND PUSH32 0xBFA41556980D157C24E8632DBB78958F8759A86B4ACDEA421F93DC7259FB55DB PUSH1 0x40 MLOAD PUSH1 0x40 MLOAD DUP1 SWAP2 SUB SWAP1 LOG4 POP POP POP POP POP JUMP JUMPDEST PUSH1 0x0 PUSH2 0x8E6 DUP4 DUP4 PUSH2 0x170A JUMP JUMPDEST PUSH2 0x193 PUSH1 0x20 MSTORE PUSH1 0x0 SWAP1 DUP2 MSTORE PUSH1 0x40 SWAP1 KECCAK256 DUP1 SLOAD PUSH1 0x1 DUP3 ADD SLOAD PUSH1 0x2 DUP4 ADD SLOAD PUSH1 0x3 DUP5 ADD SLOAD PUSH1 0x4 SWAP1 SWAP5 ADD SLOAD PUSH1 0x1 PUSH1 0x1 PUSH1 0xA0 SHL SUB SWAP1 SWAP4 AND SWAP4 SWAP2 SWAP3 SWAP1 SWAP2 SWAP1 DUP6 JUMP JUMPDEST PUSH1 0x0 DUP1 PUSH2 0xB7C PUSH1 0xCA DUP5 PUSH2 0x1BD0 JUMP JUMPDEST POP SWAP4 SWAP3 POP POP POP JUMP JUMPDEST PUSH2 0xB8C PUSH2 0xFC2 JUMP JUMPDEST PUSH2 0xBA8 JUMPI PUSH1 0x40 MLOAD PUSH3 0x461BCD PUSH1 0xE5 SHL DUP2 MSTORE PUSH1 0x4 ADD PUSH2 0x751 SWAP1 PUSH2 0x382B JUMP JUMPDEST PUSH2 0x191 SLOAD PUSH2 0xBBE SWAP1 PUSH1 0x1 PUSH1 0x1 PUSH1 0xA0 SHL SUB AND PUSH2 0x1BEC JUMP JUMPDEST PUSH2 0x191 DUP1 SLOAD PUSH1 0x1 PUSH1 0x1 PUSH1 0xA0 SHL SUB NOT AND PUSH1 0x1 PUSH1 0x1 PUSH1 0xA0 SHL SUB SWAP3 DUP4 AND OR SWAP1 DUP2 SWAP1 SSTORE PUSH1 0x40 MLOAD CALLER SWAP3 PUSH32 0x7C76C17DE59691DF2EF36AF3938C91F69CD18AD27F67A54A38E38686F0B40C49 SWAP3 PUSH2 0xC10 SWAP3 SWAP2 AND SWAP1 PUSH2 0x2D19 JUMP JUMPDEST PUSH1 0x40 MLOAD DUP1 SWAP2 SUB SWAP1 LOG2 JUMP JUMPDEST PUSH2 0x191 SLOAD PUSH2 0xC30 SWAP1 PUSH1 0x1 PUSH1 0x1 PUSH1 0xA0 SHL SUB AND PUSH2 0x1C6C JUMP JUMPDEST PUSH1 0x1 PUSH1 0x1 PUSH1 0xA0 SHL SUB AND PUSH2 0xC41 PUSH2 0x168D JUMP JUMPDEST PUSH1 0x1 PUSH1 0x1 PUSH1 0xA0 SHL SUB AND EQ PUSH2 0xC67 JUMPI PUSH1 0x40 MLOAD PUSH3 0x461BCD PUSH1 0xE5 SHL DUP2 MSTORE PUSH1 0x4 ADD PUSH2 0x751 SWAP1 PUSH2 0x34CC JUMP JUMPDEST PUSH1 0x1 PUSH1 0x1 PUSH1 0xA0 SHL SUB AND PUSH1 0x0 SWAP1 DUP2 MSTORE PUSH2 0x194 PUSH1 0x20 MSTORE PUSH1 0x40 SWAP1 KECCAK256 PUSH1 0x2 ADD DUP1 SLOAD PUSH1 0xFF NOT AND PUSH1 0x1 OR SWAP1 SSTORE JUMP JUMPDEST PUSH1 0xFB SLOAD PUSH1 0x0 SWAP1 PUSH1 0xFF AND ISZERO PUSH2 0xCB5 JUMPI PUSH1 0x40 MLOAD PUSH3 0x461BCD PUSH1 0xE5 SHL DUP2 MSTORE PUSH1 0x4 ADD PUSH2 0x751 SWAP1 PUSH2 0x3307 JUMP JUMPDEST PUSH2 0x192 SLOAD PUSH2 0xCCF SWAP1 DUP5 SWAP1 PUSH1 0x1 PUSH1 0x1 PUSH1 0xA0 SHL SUB AND PUSH1 0x0 PUSH2 0x197B JUMP JUMPDEST SWAP1 POP PUSH2 0x8E9 DUP3 DUP3 PUSH2 0x19F7 JUMP JUMPDEST PUSH1 0xFB SLOAD PUSH1 0xFF AND SWAP1 JUMP JUMPDEST PUSH1 0x0 PUSH2 0x8E9 DUP3 PUSH1 0x40 MLOAD DUP1 PUSH1 0x60 ADD PUSH1 0x40 MSTORE DUP1 PUSH1 0x29 DUP2 MSTORE PUSH1 0x20 ADD PUSH2 0x39AE PUSH1 0x29 SWAP2 CODECOPY PUSH1 0xCA SWAP2 SWAP1 PUSH2 0x1C84 JUMP JUMPDEST PUSH1 0xD1 DUP1 SLOAD PUSH1 0x40 DUP1 MLOAD PUSH1 0x20 PUSH1 0x1F PUSH1 0x2 PUSH1 0x0 NOT PUSH2 0x100 PUSH1 0x1 DUP9 AND ISZERO MUL ADD SWAP1 SWAP6 AND SWAP5 SWAP1 SWAP5 DIV SWAP4 DUP5 ADD DUP2 SWAP1 DIV DUP2 MUL DUP3 ADD DUP2 ADD SWAP1 SWAP3 MSTORE DUP3 DUP2 MSTORE PUSH1 0x60 SWAP4 SWAP1 SWAP3 SWAP1 SWAP2 DUP4 ADD DUP3 DUP3 DUP1 ISZERO PUSH2 0x720 JUMPI DUP1 PUSH1 0x1F LT PUSH2 0x6F5 JUMPI PUSH2 0x100 DUP1 DUP4 SLOAD DIV MUL DUP4 MSTORE SWAP2 PUSH1 0x20 ADD SWAP2 PUSH2 0x720 JUMP JUMPDEST PUSH1 0x0 PUSH1 0x1 PUSH1 0x1 PUSH1 0xA0 SHL SUB DUP3 AND PUSH2 0xD95 JUMPI PUSH1 0x40 MLOAD PUSH3 0x461BCD PUSH1 0xE5 SHL DUP2 MSTORE PUSH1 0x4 ADD PUSH2 0x751 SWAP1 PUSH2 0x339B JUMP JUMPDEST PUSH1 0x1 PUSH1 0x1 PUSH1 0xA0 SHL SUB DUP3 AND PUSH1 0x0 SWAP1 DUP2 MSTORE PUSH1 0xC9 PUSH1 0x20 MSTORE PUSH1 0x40 SWAP1 KECCAK256 PUSH2 0x8E9 SWAP1 PUSH2 0x16FF JUMP JUMPDEST PUSH2 0x191 SLOAD PUSH1 0x1 PUSH1 0x1 PUSH1 0xA0 SHL SUB AND DUP2 JUMP JUMPDEST PUSH2 0xDF2 PUSH32 0x65D7A28E3265B37A6474929F336521B332C1681B933F6CB9F3376673440D862A PUSH2 0x554 PUSH2 0x168D JUMP JUMPDEST PUSH2 0xE0E JUMPI PUSH1 0x40 MLOAD PUSH3 0x461BCD PUSH1 0xE5 SHL DUP2 MSTORE PUSH1 0x4 ADD PUSH2 0x751 SWAP1 PUSH2 0x30AD JUMP JUMPDEST PUSH2 0x9D6 PUSH2 0x1C91 JUMP JUMPDEST PUSH2 0xE1E PUSH2 0x281D JUMP JUMPDEST PUSH2 0x8E9 DUP3 PUSH2 0x1B27 JUMP JUMPDEST PUSH1 0x0 DUP3 DUP2 MSTORE PUSH1 0x65 PUSH1 0x20 MSTORE PUSH1 0x40 DUP2 KECCAK256 PUSH2 0x8E6 SWAP1 DUP4 PUSH2 0x1906 JUMP JUMPDEST PUSH1 0x0 DUP3 DUP2 MSTORE PUSH1 0x65 PUSH1 0x20 MSTORE PUSH1 0x40 DUP2 KECCAK256 PUSH2 0x8E6 SWAP1 DUP4 PUSH2 0x1CEA JUMP JUMPDEST PUSH1 0xCF DUP1 SLOAD PUSH1 0x40 DUP1 MLOAD PUSH1 0x20 PUSH1 0x1F PUSH1 0x2 PUSH1 0x0 NOT PUSH2 0x100 PUSH1 0x1 DUP9 AND ISZERO MUL ADD SWAP1 SWAP6 AND SWAP5 SWAP1 SWAP5 DIV SWAP4 DUP5 ADD DUP2 SWAP1 DIV DUP2 MUL DUP3 ADD DUP2 ADD SWAP1 SWAP3 MSTORE DUP3 DUP2 MSTORE PUSH1 0x60 SWAP4 SWAP1 SWAP3 SWAP1 SWAP2 DUP4 ADD DUP3 DUP3 DUP1 ISZERO PUSH2 0x720 JUMPI DUP1 PUSH1 0x1F LT PUSH2 0x6F5 JUMPI PUSH2 0x100 DUP1 DUP4 SLOAD DIV MUL DUP4 MSTORE SWAP2 PUSH1 0x20 ADD SWAP2 PUSH2 0x720 JUMP JUMPDEST PUSH2 0x15F SLOAD DUP2 JUMP JUMPDEST PUSH1 0x0 DUP2 JUMP JUMPDEST PUSH2 0xECC PUSH2 0x168D JUMP JUMPDEST PUSH1 0x1 PUSH1 0x1 PUSH1 0xA0 SHL SUB AND DUP3 PUSH1 0x1 PUSH1 0x1 PUSH1 0xA0 SHL SUB AND EQ ISZERO PUSH2 0xEFD JUMPI PUSH1 0x40 MLOAD PUSH3 0x461BCD PUSH1 0xE5 SHL DUP2 MSTORE PUSH1 0x4 ADD PUSH2 0x751 SWAP1 PUSH2 0x319E JUMP JUMPDEST DUP1 PUSH1 0xCD PUSH1 0x0 PUSH2 0xF0A PUSH2 0x168D JUMP JUMPDEST PUSH1 0x1 PUSH1 0x1 PUSH1 0xA0 SHL SUB SWAP1 DUP2 AND DUP3 MSTORE PUSH1 0x20 DUP1 DUP4 ADD SWAP4 SWAP1 SWAP4 MSTORE PUSH1 0x40 SWAP2 DUP3 ADD PUSH1 0x0 SWAP1 DUP2 KECCAK256 SWAP2 DUP8 AND DUP1 DUP3 MSTORE SWAP2 SWAP1 SWAP4 MSTORE SWAP2 KECCAK256 DUP1 SLOAD PUSH1 0xFF NOT AND SWAP3 ISZERO ISZERO SWAP3 SWAP1 SWAP3 OR SWAP1 SWAP2 SSTORE PUSH2 0xF4E PUSH2 0x168D JUMP JUMPDEST PUSH1 0x1 PUSH1 0x1 PUSH1 0xA0 SHL SUB AND PUSH32 0x17307EAB39AB6107E8899845AD3D59BD9653F200F220920489CA2B5937696C31 DUP4 PUSH1 0x40 MLOAD PUSH2 0xF86 SWAP2 SWAP1 PUSH2 0x2D97 JUMP JUMPDEST PUSH1 0x40 MLOAD DUP1 SWAP2 SUB SWAP1 LOG3 POP POP JUMP JUMPDEST PUSH2 0x194 PUSH1 0x20 MSTORE PUSH1 0x0 SWAP1 DUP2 MSTORE PUSH1 0x40 SWAP1 KECCAK256 DUP1 SLOAD PUSH1 0x1 DUP3 ADD SLOAD PUSH1 0x2 SWAP1 SWAP3 ADD SLOAD SWAP1 SWAP2 SWAP1 PUSH1 0xFF AND DUP4 JUMP JUMPDEST PUSH1 0x0 PUSH2 0x8E9 DUP3 PUSH2 0x1B88 JUMP JUMPDEST PUSH1 0x0 PUSH2 0x82A PUSH32 0xB19546DFF01E856FB3F010C267A7B1C60363CF8A4664E21CC89C26224620214E PUSH2 0x554 PUSH2 0x168D JUMP JUMPDEST PUSH1 0x0 SLOAD PUSH2 0x100 SWAP1 DIV PUSH1 0xFF AND DUP1 PUSH2 0x1009 JUMPI POP PUSH2 0x1009 PUSH2 0x1CFF JUMP JUMPDEST DUP1 PUSH2 0x1017 JUMPI POP PUSH1 0x0 SLOAD PUSH1 0xFF AND ISZERO JUMPDEST PUSH2 0x1033 JUMPI PUSH1 0x40 MLOAD PUSH3 0x461BCD PUSH1 0xE5 SHL DUP2 MSTORE PUSH1 0x4 ADD PUSH2 0x751 SWAP1 PUSH2 0x350D JUMP JUMPDEST PUSH1 0x0 SLOAD PUSH2 0x100 SWAP1 DIV PUSH1 0xFF AND ISZERO DUP1 ISZERO PUSH2 0x105E JUMPI PUSH1 0x0 DUP1 SLOAD PUSH1 0xFF NOT PUSH2 0xFF00 NOT SWAP1 SWAP2 AND PUSH2 0x100 OR AND PUSH1 0x1 OR SWAP1 SSTORE JUMPDEST PUSH1 0x1 PUSH1 0x1 PUSH1 0xA0 SHL SUB DUP4 AND ISZERO DUP1 ISZERO SWAP1 PUSH2 0x107E JUMPI POP PUSH1 0x1 PUSH1 0x1 PUSH1 0xA0 SHL SUB DUP3 AND ISZERO ISZERO JUMPDEST PUSH2 0x109A JUMPI PUSH1 0x40 MLOAD PUSH3 0x461BCD PUSH1 0xE5 SHL DUP2 MSTORE PUSH1 0x4 ADD PUSH2 0x751 SWAP1 PUSH2 0x2F4E JUMP JUMPDEST PUSH2 0x10A2 PUSH2 0x1D05 JUMP JUMPDEST PUSH2 0x10AA PUSH2 0x1D05 JUMP JUMPDEST PUSH2 0x10B2 PUSH2 0x1D87 JUMP JUMPDEST PUSH2 0x1126 PUSH1 0x40 MLOAD DUP1 PUSH1 0x40 ADD PUSH1 0x40 MSTORE DUP1 PUSH1 0x18 DUP2 MSTORE PUSH1 0x20 ADD PUSH32 0x476F6C6466696E636820563220506F6F6C20546F6B656E730000000000000000 DUP2 MSTORE POP PUSH1 0x40 MLOAD DUP1 PUSH1 0x40 ADD PUSH1 0x40 MSTORE DUP1 PUSH1 0x9 DUP2 MSTORE PUSH1 0x20 ADD PUSH32 0x4746492D56322D50540000000000000000000000000000000000000000000000 DUP2 MSTORE POP PUSH2 0x1E1E JUMP JUMPDEST PUSH2 0x112E PUSH2 0x1F2F JUMP JUMPDEST PUSH2 0x1136 PUSH2 0x1D05 JUMP JUMPDEST PUSH2 0x191 DUP1 SLOAD PUSH1 0x1 PUSH1 0x1 PUSH1 0xA0 SHL SUB NOT AND PUSH1 0x1 PUSH1 0x1 PUSH1 0xA0 SHL SUB DUP5 AND OR SWAP1 SSTORE PUSH2 0x117C PUSH32 0x65D7A28E3265B37A6474929F336521B332C1681B933F6CB9F3376673440D862A DUP5 PUSH2 0x8B6 JUMP JUMPDEST PUSH2 0x11A6 PUSH32 0xB19546DFF01E856FB3F010C267A7B1C60363CF8A4664E21CC89C26224620214E DUP5 PUSH2 0x8B6 JUMP JUMPDEST PUSH2 0x11F0 PUSH32 0x65D7A28E3265B37A6474929F336521B332C1681B933F6CB9F3376673440D862A PUSH32 0xB19546DFF01E856FB3F010C267A7B1C60363CF8A4664E21CC89C26224620214E PUSH2 0x1FBB JUMP JUMPDEST PUSH2 0x121A PUSH32 0xB19546DFF01E856FB3F010C267A7B1C60363CF8A4664E21CC89C26224620214E DUP1 PUSH2 0x1FBB JUMP JUMPDEST DUP1 ISZERO PUSH2 0x809 JUMPI PUSH1 0x0 DUP1 SLOAD PUSH2 0xFF00 NOT AND SWAP1 SSTORE POP POP POP JUMP JUMPDEST PUSH2 0x123B PUSH2 0xA4B PUSH2 0x168D JUMP JUMPDEST PUSH2 0x1257 JUMPI PUSH1 0x40 MLOAD PUSH3 0x461BCD PUSH1 0xE5 SHL DUP2 MSTORE PUSH1 0x4 ADD PUSH2 0x751 SWAP1 PUSH2 0x310A JUMP JUMPDEST PUSH1 0xFB SLOAD PUSH1 0xFF AND ISZERO PUSH2 0x127A JUMPI PUSH1 0x40 MLOAD PUSH3 0x461BCD PUSH1 0xE5 SHL DUP2 MSTORE PUSH1 0x4 ADD PUSH2 0x751 SWAP1 PUSH2 0x3307 JUMP JUMPDEST PUSH1 0x0 DUP4 DUP2 MSTORE PUSH2 0x193 PUSH1 0x20 MSTORE PUSH1 0x40 SWAP1 KECCAK256 DUP1 SLOAD PUSH1 0x1 PUSH1 0x1 PUSH1 0xA0 SHL SUB AND DUP1 PUSH2 0x12B1 JUMPI PUSH1 0x40 MLOAD PUSH3 0x461BCD PUSH1 0xE5 SHL DUP2 MSTORE PUSH1 0x4 ADD PUSH2 0x751 SWAP1 PUSH2 0x31D5 JUMP JUMPDEST DUP1 PUSH1 0x1 PUSH1 0x1 PUSH1 0xA0 SHL SUB AND PUSH2 0x12C3 PUSH2 0x168D JUMP JUMPDEST PUSH1 0x1 PUSH1 0x1 PUSH1 0xA0 SHL SUB AND EQ PUSH2 0x12E9 JUMPI PUSH1 0x40 MLOAD PUSH3 0x461BCD PUSH1 0xE5 SHL DUP2 MSTORE PUSH1 0x4 ADD PUSH2 0x751 SWAP1 PUSH2 0x3798 JUMP JUMPDEST PUSH1 0x1 PUSH1 0x1 PUSH1 0xA0 SHL SUB DUP2 AND PUSH1 0x0 SWAP1 DUP2 MSTORE PUSH2 0x194 PUSH1 0x20 MSTORE PUSH1 0x40 SWAP1 KECCAK256 PUSH1 0x1 DUP2 ADD SLOAD PUSH2 0x1311 SWAP1 DUP7 PUSH2 0x1FD0 JUMP JUMPDEST PUSH1 0x1 DUP3 ADD DUP2 SWAP1 SSTORE DUP2 SLOAD LT ISZERO PUSH2 0x1338 JUMPI PUSH1 0x40 MLOAD PUSH3 0x461BCD PUSH1 0xE5 SHL DUP2 MSTORE PUSH1 0x4 ADD PUSH2 0x751 SWAP1 PUSH2 0x320C JUMP JUMPDEST PUSH1 0x3 DUP4 ADD SLOAD PUSH2 0x1347 SWAP1 DUP7 PUSH2 0x1FD0 JUMP JUMPDEST PUSH1 0x3 DUP5 ADD DUP2 SWAP1 SSTORE PUSH1 0x2 DUP5 ADD SLOAD LT ISZERO PUSH2 0x1371 JUMPI PUSH1 0x40 MLOAD PUSH3 0x461BCD PUSH1 0xE5 SHL DUP2 MSTORE PUSH1 0x4 ADD PUSH2 0x751 SWAP1 PUSH2 0x3681 JUMP JUMPDEST PUSH1 0x4 DUP4 ADD SLOAD PUSH2 0x1380 SWAP1 DUP6 PUSH2 0x1FD0 JUMP JUMPDEST PUSH1 0x4 DUP5 ADD SSTORE DUP6 PUSH1 0x1 PUSH1 0x1 PUSH1 0xA0 SHL SUB DUP4 AND PUSH2 0x1399 DUP3 PUSH2 0xCE4 JUMP JUMPDEST PUSH1 0x1 PUSH1 0x1 PUSH1 0xA0 SHL SUB AND PUSH32 0xDA8C6DD3BEF4F6EABEDE38563EC41A960F3FD84CCAB769AA77DB40494F9EEE98 DUP9 DUP9 DUP9 PUSH1 0x1 ADD SLOAD PUSH1 0x40 MLOAD PUSH2 0x13D9 SWAP4 SWAP3 SWAP2 SWAP1 PUSH2 0x3940 JUMP JUMPDEST PUSH1 0x40 MLOAD DUP1 SWAP2 SUB SWAP1 LOG4 POP POP POP POP POP POP JUMP JUMPDEST PUSH2 0x13FA PUSH2 0x13F4 PUSH2 0x168D JUMP JUMPDEST DUP4 PUSH2 0x170A JUMP JUMPDEST PUSH2 0x1416 JUMPI PUSH1 0x40 MLOAD PUSH3 0x461BCD PUSH1 0xE5 SHL DUP2 MSTORE PUSH1 0x4 ADD PUSH2 0x751 SWAP1 PUSH2 0x373B JUMP JUMPDEST PUSH2 0x1422 DUP5 DUP5 DUP5 DUP5 PUSH2 0x1FF5 JUMP JUMPDEST POP POP POP POP JUMP JUMPDEST PUSH1 0x60 PUSH2 0x1433 DUP3 PUSH2 0x1680 JUMP JUMPDEST PUSH2 0x144F JUMPI PUSH1 0x40 MLOAD PUSH3 0x461BCD PUSH1 0xE5 SHL DUP2 MSTORE PUSH1 0x4 ADD PUSH2 0x751 SWAP1 PUSH2 0x35C7 JUMP JUMPDEST PUSH1 0x0 DUP3 DUP2 MSTORE PUSH1 0xD0 PUSH1 0x20 SWAP1 DUP2 MSTORE PUSH1 0x40 SWAP2 DUP3 SWAP1 KECCAK256 DUP1 SLOAD DUP4 MLOAD PUSH1 0x1F PUSH1 0x2 PUSH1 0x0 NOT PUSH2 0x100 PUSH1 0x1 DUP7 AND ISZERO MUL ADD SWAP1 SWAP4 AND SWAP3 SWAP1 SWAP3 DIV SWAP2 DUP3 ADD DUP5 SWAP1 DIV DUP5 MUL DUP2 ADD DUP5 ADD SWAP1 SWAP5 MSTORE DUP1 DUP5 MSTORE PUSH1 0x60 SWAP4 SWAP3 DUP4 ADD DUP3 DUP3 DUP1 ISZERO PUSH2 0x14E4 JUMPI DUP1 PUSH1 0x1F LT PUSH2 0x14B9 JUMPI PUSH2 0x100 DUP1 DUP4 SLOAD DIV MUL DUP4 MSTORE SWAP2 PUSH1 0x20 ADD SWAP2 PUSH2 0x14E4 JUMP JUMPDEST DUP3 ADD SWAP2 SWAP1 PUSH1 0x0 MSTORE PUSH1 0x20 PUSH1 0x0 KECCAK256 SWAP1 JUMPDEST DUP2 SLOAD DUP2 MSTORE SWAP1 PUSH1 0x1 ADD SWAP1 PUSH1 0x20 ADD DUP1 DUP4 GT PUSH2 0x14C7 JUMPI DUP3 SWAP1 SUB PUSH1 0x1F AND DUP3 ADD SWAP2 JUMPDEST POP POP PUSH1 0xD1 SLOAD SWAP4 SWAP5 POP POP POP POP PUSH1 0x2 PUSH1 0x0 NOT PUSH2 0x100 PUSH1 0x1 DUP5 AND ISZERO MUL ADD SWAP1 SWAP2 AND DIV PUSH2 0x150D JUMPI SWAP1 POP PUSH2 0x68F JUMP JUMPDEST DUP1 MLOAD ISZERO PUSH2 0x153F JUMPI PUSH1 0xD1 DUP2 PUSH1 0x40 MLOAD PUSH1 0x20 ADD PUSH2 0x1528 SWAP3 SWAP2 SWAP1 PUSH2 0x2C98 JUMP JUMPDEST PUSH1 0x40 MLOAD PUSH1 0x20 DUP2 DUP4 SUB SUB DUP2 MSTORE SWAP1 PUSH1 0x40 MSTORE SWAP2 POP POP PUSH2 0x68F JUMP JUMPDEST PUSH1 0xD1 PUSH2 0x154A DUP5 PUSH2 0x2028 JUMP JUMPDEST PUSH1 0x40 MLOAD PUSH1 0x20 ADD PUSH2 0x155B SWAP3 SWAP2 SWAP1 PUSH2 0x2C98 JUMP JUMPDEST PUSH1 0x40 MLOAD PUSH1 0x20 DUP2 DUP4 SUB SUB DUP2 MSTORE SWAP1 PUSH1 0x40 MSTORE SWAP2 POP POP SWAP2 SWAP1 POP JUMP JUMPDEST PUSH1 0x0 DUP2 DUP2 MSTORE PUSH1 0x65 PUSH1 0x20 MSTORE PUSH1 0x40 DUP2 KECCAK256 PUSH2 0x8E9 SWAP1 PUSH2 0x16FF JUMP JUMPDEST PUSH32 0x9F2DF0FED2C77648DE5860A4CC508CD0818C85B8B8A1AB4CEEEF8D981C8956A6 DUP2 JUMP JUMPDEST PUSH1 0x0 DUP3 DUP2 MSTORE PUSH1 0x65 PUSH1 0x20 MSTORE PUSH1 0x40 SWAP1 KECCAK256 PUSH1 0x2 ADD SLOAD PUSH2 0x15CB SWAP1 PUSH2 0x554 PUSH2 0x168D JUMP JUMPDEST PUSH2 0x927 JUMPI PUSH1 0x40 MLOAD PUSH3 0x461BCD PUSH1 0xE5 SHL DUP2 MSTORE PUSH1 0x4 ADD PUSH2 0x751 SWAP1 PUSH2 0x32AA JUMP JUMPDEST PUSH32 0xB19546DFF01E856FB3F010C267A7B1C60363CF8A4664E21CC89C26224620214E DUP2 JUMP JUMPDEST PUSH32 0x65D7A28E3265B37A6474929F336521B332C1681B933F6CB9F3376673440D862A DUP2 JUMP JUMPDEST PUSH1 0x1 PUSH1 0x1 PUSH1 0xA0 SHL SUB SWAP2 DUP3 AND PUSH1 0x0 SWAP1 DUP2 MSTORE PUSH1 0xCD PUSH1 0x20 SWAP1 DUP2 MSTORE PUSH1 0x40 DUP1 DUP4 KECCAK256 SWAP4 SWAP1 SWAP5 AND DUP3 MSTORE SWAP2 SWAP1 SWAP2 MSTORE KECCAK256 SLOAD PUSH1 0xFF AND SWAP1 JUMP JUMPDEST PUSH2 0x192 DUP1 SLOAD PUSH1 0x1 PUSH1 0x1 PUSH1 0xA0 SHL SUB NOT AND PUSH1 0x1 PUSH1 0x1 PUSH1 0xA0 SHL SUB SWAP3 SWAP1 SWAP3 AND SWAP2 SWAP1 SWAP2 OR SWAP1 SSTORE JUMP JUMPDEST PUSH1 0x0 PUSH2 0x8E9 PUSH1 0xCA DUP4 PUSH2 0x2137 JUMP JUMPDEST CALLER SWAP1 JUMP JUMPDEST PUSH1 0x0 DUP2 DUP2 MSTORE PUSH1 0xCC PUSH1 0x20 MSTORE PUSH1 0x40 SWAP1 KECCAK256 DUP1 SLOAD PUSH1 0x1 PUSH1 0x1 PUSH1 0xA0 SHL SUB NOT AND PUSH1 0x1 PUSH1 0x1 PUSH1 0xA0 SHL SUB DUP5 AND SWAP1 DUP2 OR SWAP1 SWAP2 SSTORE DUP2 SWAP1 PUSH2 0x16C6 DUP3 PUSH2 0xCE4 JUMP JUMPDEST PUSH1 0x1 PUSH1 0x1 PUSH1 0xA0 SHL SUB AND PUSH32 0x8C5BE1E5EBEC7D5BD14F71427D1E84F3DD0314C0F7B2291E5B200AC8C7C3B925 PUSH1 0x40 MLOAD PUSH1 0x40 MLOAD DUP1 SWAP2 SUB SWAP1 LOG4 POP POP JUMP JUMPDEST PUSH1 0x0 PUSH2 0x8E9 DUP3 PUSH2 0x2143 JUMP JUMPDEST PUSH1 0x0 PUSH2 0x1715 DUP3 PUSH2 0x1680 JUMP JUMPDEST PUSH2 0x1731 JUMPI PUSH1 0x40 MLOAD PUSH3 0x461BCD PUSH1 0xE5 SHL DUP2 MSTORE PUSH1 0x4 ADD PUSH2 0x751 SWAP1 PUSH2 0x324D JUMP JUMPDEST PUSH1 0x0 PUSH2 0x173C DUP4 PUSH2 0xCE4 JUMP JUMPDEST SWAP1 POP DUP1 PUSH1 0x1 PUSH1 0x1 PUSH1 0xA0 SHL SUB AND DUP5 PUSH1 0x1 PUSH1 0x1 PUSH1 0xA0 SHL SUB AND EQ DUP1 PUSH2 0x1777 JUMPI POP DUP4 PUSH1 0x1 PUSH1 0x1 PUSH1 0xA0 SHL SUB AND PUSH2 0x176C DUP5 PUSH2 0x72A JUMP JUMPDEST PUSH1 0x1 PUSH1 0x1 PUSH1 0xA0 SHL SUB AND EQ JUMPDEST DUP1 PUSH2 0x1787 JUMPI POP PUSH2 0x1787 DUP2 DUP6 PUSH2 0x162F JUMP JUMPDEST SWAP5 SWAP4 POP POP POP POP JUMP JUMPDEST DUP3 PUSH1 0x1 PUSH1 0x1 PUSH1 0xA0 SHL SUB AND PUSH2 0x17A2 DUP3 PUSH2 0xCE4 JUMP JUMPDEST PUSH1 0x1 PUSH1 0x1 PUSH1 0xA0 SHL SUB AND EQ PUSH2 0x17C8 JUMPI PUSH1 0x40 MLOAD PUSH3 0x461BCD PUSH1 0xE5 SHL DUP2 MSTORE PUSH1 0x4 ADD PUSH2 0x751 SWAP1 PUSH2 0x356A JUMP JUMPDEST PUSH1 0x1 PUSH1 0x1 PUSH1 0xA0 SHL SUB DUP3 AND PUSH2 0x17EE JUMPI PUSH1 0x40 MLOAD PUSH3 0x461BCD PUSH1 0xE5 SHL DUP2 MSTORE PUSH1 0x4 ADD PUSH2 0x751 SWAP1 PUSH2 0x3141 JUMP JUMPDEST PUSH2 0x17F9 DUP4 DUP4 DUP4 PUSH2 0x2147 JUMP JUMPDEST PUSH2 0x1804 PUSH1 0x0 DUP3 PUSH2 0x1691 JUMP JUMPDEST PUSH1 0x1 PUSH1 0x1 PUSH1 0xA0 SHL SUB DUP4 AND PUSH1 0x0 SWAP1 DUP2 MSTORE PUSH1 0xC9 PUSH1 0x20 MSTORE PUSH1 0x40 SWAP1 KECCAK256 PUSH2 0x1826 SWAP1 DUP3 PUSH2 0x2152 JUMP JUMPDEST POP PUSH1 0x1 PUSH1 0x1 PUSH1 0xA0 SHL SUB DUP3 AND PUSH1 0x0 SWAP1 DUP2 MSTORE PUSH1 0xC9 PUSH1 0x20 MSTORE PUSH1 0x40 SWAP1 KECCAK256 PUSH2 0x1849 SWAP1 DUP3 PUSH2 0x215E JUMP JUMPDEST POP PUSH2 0x1856 PUSH1 0xCA DUP3 DUP5 PUSH2 0x216A JUMP JUMPDEST POP DUP1 DUP3 PUSH1 0x1 PUSH1 0x1 PUSH1 0xA0 SHL SUB AND DUP5 PUSH1 0x1 PUSH1 0x1 PUSH1 0xA0 SHL SUB AND PUSH32 0xDDF252AD1BE2C89B69C2B068FC378DAA952BA7F163C4A11628F55A4DF523B3EF PUSH1 0x40 MLOAD PUSH1 0x40 MLOAD DUP1 SWAP2 SUB SWAP1 LOG4 POP POP POP JUMP JUMPDEST PUSH1 0x0 DUP3 DUP2 MSTORE PUSH1 0x65 PUSH1 0x20 MSTORE PUSH1 0x40 SWAP1 KECCAK256 PUSH2 0x18B5 SWAP1 DUP3 PUSH2 0x2180 JUMP JUMPDEST ISZERO PUSH2 0x8C0 JUMPI PUSH2 0x18C2 PUSH2 0x168D JUMP JUMPDEST PUSH1 0x1 PUSH1 0x1 PUSH1 0xA0 SHL SUB AND DUP2 PUSH1 0x1 PUSH1 0x1 PUSH1 0xA0 SHL SUB AND DUP4 PUSH32 0x2F8788117E7EFF1D82E926EC794901D17C78024A50270940304540A733656F0D PUSH1 0x40 MLOAD PUSH1 0x40 MLOAD DUP1 SWAP2 SUB SWAP1 LOG4 POP POP JUMP JUMPDEST PUSH1 0x0 PUSH2 0x8E6 DUP4 DUP4 PUSH2 0x2195 JUMP JUMPDEST PUSH1 0x0 DUP3 DUP2 MSTORE PUSH1 0x65 PUSH1 0x20 MSTORE PUSH1 0x40 SWAP1 KECCAK256 PUSH2 0x192A SWAP1 DUP3 PUSH2 0x21DA JUMP JUMPDEST ISZERO PUSH2 0x8C0 JUMPI PUSH2 0x1937 PUSH2 0x168D JUMP JUMPDEST PUSH1 0x1 PUSH1 0x1 PUSH1 0xA0 SHL SUB AND DUP2 PUSH1 0x1 PUSH1 0x1 PUSH1 0xA0 SHL SUB AND DUP4 PUSH32 0xF6391F5C32D9C69D2A47EA670B442974B53935D1EDC7FD64EB21E047A839171B PUSH1 0x40 MLOAD PUSH1 0x40 MLOAD DUP1 SWAP2 SUB SWAP1 LOG4 POP POP JUMP JUMPDEST PUSH1 0x40 DUP1 MLOAD PUSH1 0xA0 DUP2 ADD DUP3 MSTORE PUSH1 0x1 PUSH1 0x1 PUSH1 0xA0 SHL SUB SWAP4 DUP5 AND DUP2 MSTORE PUSH1 0x20 DUP6 DUP2 ADD CALLDATALOAD DUP2 DUP4 ADD SWAP1 DUP2 MSTORE SWAP6 CALLDATALOAD DUP3 DUP5 ADD SWAP1 DUP2 MSTORE PUSH1 0x0 PUSH1 0x60 DUP5 ADD DUP2 DUP2 MSTORE PUSH1 0x80 DUP6 ADD DUP3 DUP2 MSTORE DUP8 DUP4 MSTORE PUSH2 0x193 SWAP1 SWAP5 MSTORE SWAP5 SWAP1 KECCAK256 SWAP3 MLOAD DUP4 SLOAD PUSH1 0x1 PUSH1 0x1 PUSH1 0xA0 SHL SUB NOT AND SWAP7 AND SWAP6 SWAP1 SWAP6 OR DUP3 SSTORE SWAP5 MLOAD PUSH1 0x1 DUP3 ADD SSTORE SWAP3 MLOAD PUSH1 0x2 DUP5 ADD SSTORE MLOAD PUSH1 0x3 DUP4 ADD SSTORE SWAP2 MLOAD PUSH1 0x4 SWAP1 SWAP2 ADD SSTORE SWAP1 JUMP JUMPDEST PUSH1 0x1 PUSH1 0x1 PUSH1 0xA0 SHL SUB DUP3 AND PUSH2 0x1A1D JUMPI PUSH1 0x40 MLOAD PUSH3 0x461BCD PUSH1 0xE5 SHL DUP2 MSTORE PUSH1 0x4 ADD PUSH2 0x751 SWAP1 PUSH2 0x343A JUMP JUMPDEST PUSH2 0x1A26 DUP2 PUSH2 0x1680 JUMP JUMPDEST ISZERO PUSH2 0x1A43 JUMPI PUSH1 0x40 MLOAD PUSH3 0x461BCD PUSH1 0xE5 SHL DUP2 MSTORE PUSH1 0x4 ADD PUSH2 0x751 SWAP1 PUSH2 0x303F JUMP JUMPDEST PUSH2 0x1A4F PUSH1 0x0 DUP4 DUP4 PUSH2 0x2147 JUMP JUMPDEST PUSH1 0x1 PUSH1 0x1 PUSH1 0xA0 SHL SUB DUP3 AND PUSH1 0x0 SWAP1 DUP2 MSTORE PUSH1 0xC9 PUSH1 0x20 MSTORE PUSH1 0x40 SWAP1 KECCAK256 PUSH2 0x1A71 SWAP1 DUP3 PUSH2 0x215E JUMP JUMPDEST POP PUSH2 0x1A7E PUSH1 0xCA DUP3 DUP5 PUSH2 0x216A JUMP JUMPDEST POP PUSH1 0x40 MLOAD DUP2 SWAP1 PUSH1 0x1 PUSH1 0x1 PUSH1 0xA0 SHL SUB DUP5 AND SWAP1 PUSH1 0x0 SWAP1 PUSH32 0xDDF252AD1BE2C89B69C2B068FC378DAA952BA7F163C4A11628F55A4DF523B3EF SWAP1 DUP3 SWAP1 LOG4 POP POP JUMP JUMPDEST PUSH1 0xFB SLOAD PUSH1 0xFF AND PUSH2 0x1ADD JUMPI PUSH1 0x40 MLOAD PUSH3 0x461BCD PUSH1 0xE5 SHL DUP2 MSTORE PUSH1 0x4 ADD PUSH2 0x751 SWAP1 PUSH2 0x2F17 JUMP JUMPDEST PUSH1 0xFB DUP1 SLOAD PUSH1 0xFF NOT AND SWAP1 SSTORE PUSH32 0x5DB9EE0A495BF2E6FF9C91A7834C1BA4FDD244A5E8AA4E537BD38AEAE4B073AA PUSH2 0x1B10 PUSH2 0x168D JUMP JUMPDEST PUSH1 0x40 MLOAD PUSH2 0x1B1D SWAP2 SWAP1 PUSH2 0x2D19 JUMP JUMPDEST PUSH1 0x40 MLOAD DUP1 SWAP2 SUB SWAP1 LOG1 JUMP JUMPDEST PUSH2 0x1B2F PUSH2 0x281D JUMP JUMPDEST POP PUSH1 0x0 SWAP1 DUP2 MSTORE PUSH2 0x193 PUSH1 0x20 SWAP1 DUP2 MSTORE PUSH1 0x40 SWAP2 DUP3 SWAP1 KECCAK256 DUP3 MLOAD PUSH1 0xA0 DUP2 ADD DUP5 MSTORE DUP2 SLOAD PUSH1 0x1 PUSH1 0x1 PUSH1 0xA0 SHL SUB AND DUP2 MSTORE PUSH1 0x1 DUP3 ADD SLOAD SWAP3 DUP2 ADD SWAP3 SWAP1 SWAP3 MSTORE PUSH1 0x2 DUP2 ADD SLOAD SWAP3 DUP3 ADD SWAP3 SWAP1 SWAP3 MSTORE PUSH1 0x3 DUP3 ADD SLOAD PUSH1 0x60 DUP3 ADD MSTORE PUSH1 0x4 SWAP1 SWAP2 ADD SLOAD PUSH1 0x80 DUP3 ADD MSTORE SWAP1 JUMP JUMPDEST POP PUSH1 0x1 SWAP1 JUMP JUMPDEST PUSH1 0x0 DUP2 DUP2 MSTORE PUSH2 0x193 PUSH1 0x20 MSTORE PUSH1 0x40 DUP2 KECCAK256 DUP1 SLOAD PUSH1 0x1 PUSH1 0x1 PUSH1 0xA0 SHL SUB NOT AND DUP2 SSTORE PUSH1 0x1 DUP2 ADD DUP3 SWAP1 SSTORE PUSH1 0x2 DUP2 ADD DUP3 SWAP1 SSTORE PUSH1 0x3 DUP2 ADD DUP3 SWAP1 SSTORE PUSH1 0x4 ADD SSTORE PUSH2 0x1BCD DUP2 PUSH2 0x21EF JUMP JUMPDEST POP JUMP JUMPDEST PUSH1 0x0 DUP1 DUP1 DUP1 PUSH2 0x1BDF DUP7 DUP7 PUSH2 0x22BC JUMP JUMPDEST SWAP1 SWAP8 SWAP1 SWAP7 POP SWAP5 POP POP POP POP POP JUMP JUMPDEST PUSH1 0x0 PUSH1 0x1 PUSH1 0x1 PUSH1 0xA0 SHL SUB DUP3 AND PUSH4 0xB93F9B0A PUSH1 0xB JUMPDEST PUSH1 0x40 MLOAD DUP3 PUSH4 0xFFFFFFFF AND PUSH1 0xE0 SHL DUP2 MSTORE PUSH1 0x4 ADD PUSH2 0x1C1C SWAP2 SWAP1 PUSH2 0x2DA2 JUMP JUMPDEST PUSH1 0x20 PUSH1 0x40 MLOAD DUP1 DUP4 SUB DUP2 DUP7 DUP1 EXTCODESIZE ISZERO DUP1 ISZERO PUSH2 0x1C34 JUMPI PUSH1 0x0 DUP1 REVERT JUMPDEST POP GAS STATICCALL ISZERO DUP1 ISZERO PUSH2 0x1C48 JUMPI RETURNDATASIZE PUSH1 0x0 DUP1 RETURNDATACOPY RETURNDATASIZE PUSH1 0x0 REVERT JUMPDEST POP POP POP POP PUSH1 0x40 MLOAD RETURNDATASIZE PUSH1 0x1F NOT PUSH1 0x1F DUP3 ADD AND DUP3 ADD DUP1 PUSH1 0x40 MSTORE POP DUP2 ADD SWAP1 PUSH2 0x8E9 SWAP2 SWAP1 PUSH2 0x295B JUMP JUMPDEST PUSH1 0x0 PUSH1 0x1 PUSH1 0x1 PUSH1 0xA0 SHL SUB DUP3 AND PUSH4 0xB93F9B0A PUSH1 0x2 PUSH2 0x1C00 JUMP JUMPDEST PUSH1 0x0 PUSH2 0x1787 DUP5 DUP5 DUP5 PUSH2 0x2318 JUMP JUMPDEST PUSH1 0xFB SLOAD PUSH1 0xFF AND ISZERO PUSH2 0x1CB4 JUMPI PUSH1 0x40 MLOAD PUSH3 0x461BCD PUSH1 0xE5 SHL DUP2 MSTORE PUSH1 0x4 ADD PUSH2 0x751 SWAP1 PUSH2 0x3307 JUMP JUMPDEST PUSH1 0xFB DUP1 SLOAD PUSH1 0xFF NOT AND PUSH1 0x1 OR SWAP1 SSTORE PUSH32 0x62E78CEA01BEE320CD4E420270B5EA74000D11B0C9F74754EBDBFC544B05A258 PUSH2 0x1B10 PUSH2 0x168D JUMP JUMPDEST PUSH1 0x0 PUSH2 0x8E6 DUP4 PUSH1 0x1 PUSH1 0x1 PUSH1 0xA0 SHL SUB DUP5 AND PUSH2 0x2377 JUMP JUMPDEST ADDRESS EXTCODESIZE ISZERO SWAP1 JUMP JUMPDEST PUSH1 0x0 SLOAD PUSH2 0x100 SWAP1 DIV PUSH1 0xFF AND DUP1 PUSH2 0x1D1E JUMPI POP PUSH2 0x1D1E PUSH2 0x1CFF JUMP JUMPDEST DUP1 PUSH2 0x1D2C JUMPI POP PUSH1 0x0 SLOAD PUSH1 0xFF AND ISZERO JUMPDEST PUSH2 0x1D48 JUMPI PUSH1 0x40 MLOAD PUSH3 0x461BCD PUSH1 0xE5 SHL DUP2 MSTORE PUSH1 0x4 ADD PUSH2 0x751 SWAP1 PUSH2 0x350D JUMP JUMPDEST PUSH1 0x0 SLOAD PUSH2 0x100 SWAP1 DIV PUSH1 0xFF AND ISZERO DUP1 ISZERO PUSH2 0x1D73 JUMPI PUSH1 0x0 DUP1 SLOAD PUSH1 0xFF NOT PUSH2 0xFF00 NOT SWAP1 SWAP2 AND PUSH2 0x100 OR AND PUSH1 0x1 OR SWAP1 SSTORE JUMPDEST DUP1 ISZERO PUSH2 0x1BCD JUMPI PUSH1 0x0 DUP1 SLOAD PUSH2 0xFF00 NOT AND SWAP1 SSTORE POP JUMP JUMPDEST PUSH1 0x0 SLOAD PUSH2 0x100 SWAP1 DIV PUSH1 0xFF AND DUP1 PUSH2 0x1DA0 JUMPI POP PUSH2 0x1DA0 PUSH2 0x1CFF JUMP JUMPDEST DUP1 PUSH2 0x1DAE JUMPI POP PUSH1 0x0 SLOAD PUSH1 0xFF AND ISZERO JUMPDEST PUSH2 0x1DCA JUMPI PUSH1 0x40 MLOAD PUSH3 0x461BCD PUSH1 0xE5 SHL DUP2 MSTORE PUSH1 0x4 ADD PUSH2 0x751 SWAP1 PUSH2 0x350D JUMP JUMPDEST PUSH1 0x0 SLOAD PUSH2 0x100 SWAP1 DIV PUSH1 0xFF AND ISZERO DUP1 ISZERO PUSH2 0x1DF5 JUMPI PUSH1 0x0 DUP1 SLOAD PUSH1 0xFF NOT PUSH2 0xFF00 NOT SWAP1 SWAP2 AND PUSH2 0x100 OR AND PUSH1 0x1 OR SWAP1 SSTORE JUMPDEST PUSH2 0x1D73 PUSH32 0x1FFC9A700000000000000000000000000000000000000000000000000000000 PUSH2 0x238F JUMP JUMPDEST PUSH1 0x0 SLOAD PUSH2 0x100 SWAP1 DIV PUSH1 0xFF AND DUP1 PUSH2 0x1E37 JUMPI POP PUSH2 0x1E37 PUSH2 0x1CFF JUMP JUMPDEST DUP1 PUSH2 0x1E45 JUMPI POP PUSH1 0x0 SLOAD PUSH1 0xFF AND ISZERO JUMPDEST PUSH2 0x1E61 JUMPI PUSH1 0x40 MLOAD PUSH3 0x461BCD PUSH1 0xE5 SHL DUP2 MSTORE PUSH1 0x4 ADD PUSH2 0x751 SWAP1 PUSH2 0x350D JUMP JUMPDEST PUSH1 0x0 SLOAD PUSH2 0x100 SWAP1 DIV PUSH1 0xFF AND ISZERO DUP1 ISZERO PUSH2 0x1E8C JUMPI PUSH1 0x0 DUP1 SLOAD PUSH1 0xFF NOT PUSH2 0xFF00 NOT SWAP1 SWAP2 AND PUSH2 0x100 OR AND PUSH1 0x1 OR SWAP1 SSTORE JUMPDEST DUP3 MLOAD PUSH2 0x1E9F SWAP1 PUSH1 0xCE SWAP1 PUSH1 0x20 DUP7 ADD SWAP1 PUSH2 0x2855 JUMP JUMPDEST POP DUP2 MLOAD PUSH2 0x1EB3 SWAP1 PUSH1 0xCF SWAP1 PUSH1 0x20 DUP6 ADD SWAP1 PUSH2 0x2855 JUMP JUMPDEST POP PUSH2 0x1EDD PUSH32 0x80AC58CD00000000000000000000000000000000000000000000000000000000 PUSH2 0x238F JUMP JUMPDEST PUSH2 0x1F06 PUSH32 0x5B5E139F00000000000000000000000000000000000000000000000000000000 PUSH2 0x238F JUMP JUMPDEST PUSH2 0x121A PUSH32 0x780E9D6300000000000000000000000000000000000000000000000000000000 PUSH2 0x238F JUMP JUMPDEST PUSH1 0x0 SLOAD PUSH2 0x100 SWAP1 DIV PUSH1 0xFF AND DUP1 PUSH2 0x1F48 JUMPI POP PUSH2 0x1F48 PUSH2 0x1CFF JUMP JUMPDEST DUP1 PUSH2 0x1F56 JUMPI POP PUSH1 0x0 SLOAD PUSH1 0xFF AND ISZERO JUMPDEST PUSH2 0x1F72 JUMPI PUSH1 0x40 MLOAD PUSH3 0x461BCD PUSH1 0xE5 SHL DUP2 MSTORE PUSH1 0x4 ADD PUSH2 0x751 SWAP1 PUSH2 0x350D JUMP JUMPDEST PUSH1 0x0 SLOAD PUSH2 0x100 SWAP1 DIV PUSH1 0xFF AND ISZERO DUP1 ISZERO PUSH2 0x1F9D JUMPI PUSH1 0x0 DUP1 SLOAD PUSH1 0xFF NOT PUSH2 0xFF00 NOT SWAP1 SWAP2 AND PUSH2 0x100 OR AND PUSH1 0x1 OR SWAP1 SSTORE JUMPDEST PUSH1 0xFB DUP1 SLOAD PUSH1 0xFF NOT AND SWAP1 SSTORE DUP1 ISZERO PUSH2 0x1BCD JUMPI PUSH1 0x0 DUP1 SLOAD PUSH2 0xFF00 NOT AND SWAP1 SSTORE POP JUMP JUMPDEST PUSH1 0x0 SWAP2 DUP3 MSTORE PUSH1 0x65 PUSH1 0x20 MSTORE PUSH1 0x40 SWAP1 SWAP2 KECCAK256 PUSH1 0x2 ADD SSTORE JUMP JUMPDEST PUSH1 0x0 DUP3 DUP3 ADD DUP4 DUP2 LT ISZERO PUSH2 0x8E6 JUMPI PUSH1 0x40 MLOAD PUSH3 0x461BCD PUSH1 0xE5 SHL DUP2 MSTORE PUSH1 0x4 ADD PUSH2 0x751 SWAP1 PUSH2 0x3076 JUMP JUMPDEST PUSH2 0x2000 DUP5 DUP5 DUP5 PUSH2 0x178F JUMP JUMPDEST PUSH2 0x200C DUP5 DUP5 DUP5 DUP5 PUSH2 0x23DE JUMP JUMPDEST PUSH2 0x1422 JUMPI PUSH1 0x40 MLOAD PUSH3 0x461BCD PUSH1 0xE5 SHL DUP2 MSTORE PUSH1 0x4 ADD PUSH2 0x751 SWAP1 PUSH2 0x2FAB JUMP JUMPDEST PUSH1 0x60 DUP2 PUSH2 0x2069 JUMPI POP PUSH1 0x40 DUP1 MLOAD DUP1 DUP3 ADD SWAP1 SWAP2 MSTORE PUSH1 0x1 DUP2 MSTORE PUSH32 0x3000000000000000000000000000000000000000000000000000000000000000 PUSH1 0x20 DUP3 ADD MSTORE PUSH2 0x68F JUMP JUMPDEST DUP2 PUSH1 0x0 JUMPDEST DUP2 ISZERO PUSH2 0x2081 JUMPI PUSH1 0x1 ADD PUSH1 0xA DUP3 DIV SWAP2 POP PUSH2 0x206D JUMP JUMPDEST PUSH1 0x60 DUP2 PUSH8 0xFFFFFFFFFFFFFFFF DUP2 GT DUP1 ISZERO PUSH2 0x209A JUMPI PUSH1 0x0 DUP1 REVERT JUMPDEST POP PUSH1 0x40 MLOAD SWAP1 DUP1 DUP3 MSTORE DUP1 PUSH1 0x1F ADD PUSH1 0x1F NOT AND PUSH1 0x20 ADD DUP3 ADD PUSH1 0x40 MSTORE DUP1 ISZERO PUSH2 0x20C5 JUMPI PUSH1 0x20 DUP3 ADD DUP2 DUP1 CALLDATASIZE DUP4 CALLDATACOPY ADD SWAP1 POP JUMPDEST POP DUP6 SWAP4 POP SWAP1 POP PUSH1 0x0 NOT DUP3 ADD JUMPDEST DUP4 ISZERO PUSH2 0x212E JUMPI PUSH1 0xA DUP5 MOD PUSH1 0x30 ADD PUSH1 0xF8 SHL DUP3 DUP3 DUP1 PUSH1 0x1 SWAP1 SUB SWAP4 POP DUP2 MLOAD DUP2 LT PUSH2 0x20F4 JUMPI INVALID JUMPDEST PUSH1 0x20 ADD ADD SWAP1 PUSH31 0xFFFFFFFFFFFFFFFFFFFFFFFFFFFFFFFFFFFFFFFFFFFFFFFFFFFFFFFFFFFFFF NOT AND SWAP1 DUP2 PUSH1 0x0 BYTE SWAP1 MSTORE8 POP PUSH1 0xA DUP5 DIV SWAP4 POP PUSH2 0x20D1 JUMP JUMPDEST POP SWAP5 SWAP4 POP POP POP POP JUMP JUMPDEST PUSH1 0x0 PUSH2 0x8E6 DUP4 DUP4 PUSH2 0x2377 JUMP JUMPDEST SLOAD SWAP1 JUMP JUMPDEST PUSH2 0x809 DUP4 DUP4 DUP4 PUSH2 0x252D JUMP JUMPDEST PUSH1 0x0 PUSH2 0x8E6 DUP4 DUP4 PUSH2 0x255D JUMP JUMPDEST PUSH1 0x0 PUSH2 0x8E6 DUP4 DUP4 PUSH2 0x2623 JUMP JUMPDEST PUSH1 0x0 PUSH2 0x1787 DUP5 DUP5 PUSH1 0x1 PUSH1 0x1 PUSH1 0xA0 SHL SUB DUP6 AND PUSH2 0x266D JUMP JUMPDEST PUSH1 0x0 PUSH2 0x8E6 DUP4 PUSH1 0x1 PUSH1 0x1 PUSH1 0xA0 SHL SUB DUP5 AND PUSH2 0x2623 JUMP JUMPDEST DUP2 SLOAD PUSH1 0x0 SWAP1 DUP3 LT PUSH2 0x21B8 JUMPI PUSH1 0x40 MLOAD PUSH3 0x461BCD PUSH1 0xE5 SHL DUP2 MSTORE PUSH1 0x4 ADD PUSH2 0x751 SWAP1 PUSH2 0x2DBE JUMP JUMPDEST DUP3 PUSH1 0x0 ADD DUP3 DUP2 SLOAD DUP2 LT PUSH2 0x21C7 JUMPI INVALID JUMPDEST SWAP1 PUSH1 0x0 MSTORE PUSH1 0x20 PUSH1 0x0 KECCAK256 ADD SLOAD SWAP1 POP SWAP3 SWAP2 POP POP JUMP JUMPDEST PUSH1 0x0 PUSH2 0x8E6 DUP4 PUSH1 0x1 PUSH1 0x1 PUSH1 0xA0 SHL SUB DUP5 AND PUSH2 0x255D JUMP JUMPDEST PUSH1 0x0 PUSH2 0x21FA DUP3 PUSH2 0xCE4 JUMP JUMPDEST SWAP1 POP PUSH2 0x2208 DUP2 PUSH1 0x0 DUP5 PUSH2 0x2147 JUMP JUMPDEST PUSH2 0x2213 PUSH1 0x0 DUP4 PUSH2 0x1691 JUMP JUMPDEST PUSH1 0x0 DUP3 DUP2 MSTORE PUSH1 0xD0 PUSH1 0x20 MSTORE PUSH1 0x40 SWAP1 KECCAK256 SLOAD PUSH1 0x2 PUSH1 0x0 NOT PUSH2 0x100 PUSH1 0x1 DUP5 AND ISZERO MUL ADD SWAP1 SWAP2 AND DIV ISZERO PUSH2 0x2251 JUMPI PUSH1 0x0 DUP3 DUP2 MSTORE PUSH1 0xD0 PUSH1 0x20 MSTORE PUSH1 0x40 DUP2 KECCAK256 PUSH2 0x2251 SWAP2 PUSH2 0x28D3 JUMP JUMPDEST PUSH1 0x1 PUSH1 0x1 PUSH1 0xA0 SHL SUB DUP2 AND PUSH1 0x0 SWAP1 DUP2 MSTORE PUSH1 0xC9 PUSH1 0x20 MSTORE PUSH1 0x40 SWAP1 KECCAK256 PUSH2 0x2273 SWAP1 DUP4 PUSH2 0x2152 JUMP JUMPDEST POP PUSH2 0x227F PUSH1 0xCA DUP4 PUSH2 0x2704 JUMP JUMPDEST POP PUSH1 0x40 MLOAD DUP3 SWAP1 PUSH1 0x0 SWAP1 PUSH1 0x1 PUSH1 0x1 PUSH1 0xA0 SHL SUB DUP5 AND SWAP1 PUSH32 0xDDF252AD1BE2C89B69C2B068FC378DAA952BA7F163C4A11628F55A4DF523B3EF SWAP1 DUP4 SWAP1 LOG4 POP POP JUMP JUMPDEST DUP2 SLOAD PUSH1 0x0 SWAP1 DUP2 SWAP1 DUP4 LT PUSH2 0x22E1 JUMPI PUSH1 0x40 MLOAD PUSH3 0x461BCD PUSH1 0xE5 SHL DUP2 MSTORE PUSH1 0x4 ADD PUSH2 0x751 SWAP1 PUSH2 0x33F8 JUMP JUMPDEST PUSH1 0x0 DUP5 PUSH1 0x0 ADD DUP5 DUP2 SLOAD DUP2 LT PUSH2 0x22F2 JUMPI INVALID JUMPDEST SWAP1 PUSH1 0x0 MSTORE PUSH1 0x20 PUSH1 0x0 KECCAK256 SWAP1 PUSH1 0x2 MUL ADD SWAP1 POP DUP1 PUSH1 0x0 ADD SLOAD DUP2 PUSH1 0x1 ADD SLOAD SWAP3 POP SWAP3 POP POP SWAP3 POP SWAP3 SWAP1 POP JUMP JUMPDEST PUSH1 0x0 DUP3 DUP2 MSTORE PUSH1 0x1 DUP5 ADD PUSH1 0x20 MSTORE PUSH1 0x40 DUP2 KECCAK256 SLOAD DUP3 DUP2 PUSH2 0x2348 JUMPI PUSH1 0x40 MLOAD PUSH3 0x461BCD PUSH1 0xE5 SHL DUP2 MSTORE PUSH1 0x4 ADD PUSH2 0x751 SWAP2 SWAP1 PUSH2 0x2DAB JUMP JUMPDEST POP DUP5 PUSH1 0x0 ADD PUSH1 0x1 DUP3 SUB DUP2 SLOAD DUP2 LT PUSH2 0x235B JUMPI INVALID JUMPDEST SWAP1 PUSH1 0x0 MSTORE PUSH1 0x20 PUSH1 0x0 KECCAK256 SWAP1 PUSH1 0x2 MUL ADD PUSH1 0x1 ADD SLOAD SWAP2 POP POP SWAP4 SWAP3 POP POP POP JUMP JUMPDEST PUSH1 0x0 SWAP1 DUP2 MSTORE PUSH1 0x1 SWAP2 SWAP1 SWAP2 ADD PUSH1 0x20 MSTORE PUSH1 0x40 SWAP1 KECCAK256 SLOAD ISZERO ISZERO SWAP1 JUMP JUMPDEST PUSH1 0x1 PUSH1 0x1 PUSH1 0xE0 SHL SUB NOT DUP1 DUP3 AND EQ ISZERO PUSH2 0x23B9 JUMPI PUSH1 0x40 MLOAD PUSH3 0x461BCD PUSH1 0xE5 SHL DUP2 MSTORE PUSH1 0x4 ADD PUSH2 0x751 SWAP1 PUSH2 0x3008 JUMP JUMPDEST PUSH1 0x1 PUSH1 0x1 PUSH1 0xE0 SHL SUB NOT AND PUSH1 0x0 SWAP1 DUP2 MSTORE PUSH1 0x97 PUSH1 0x20 MSTORE PUSH1 0x40 SWAP1 KECCAK256 DUP1 SLOAD PUSH1 0xFF NOT AND PUSH1 0x1 OR SWAP1 SSTORE JUMP JUMPDEST PUSH1 0x0 PUSH2 0x23F2 DUP5 PUSH1 0x1 PUSH1 0x1 PUSH1 0xA0 SHL SUB AND PUSH2 0x2710 JUMP JUMPDEST PUSH2 0x23FE JUMPI POP PUSH1 0x1 PUSH2 0x1787 JUMP JUMPDEST PUSH1 0x0 PUSH1 0x60 PUSH1 0x1 PUSH1 0x1 PUSH1 0xA0 SHL SUB DUP7 AND PUSH4 0xA85BD01 PUSH1 0xE1 SHL PUSH2 0x241C PUSH2 0x168D JUMP JUMPDEST DUP10 DUP9 DUP9 PUSH1 0x40 MLOAD PUSH1 0x24 ADD PUSH2 0x2432 SWAP5 SWAP4 SWAP3 SWAP2 SWAP1 PUSH2 0x2D2D JUMP JUMPDEST PUSH1 0x40 DUP1 MLOAD PUSH1 0x1F NOT DUP2 DUP5 SUB ADD DUP2 MSTORE SWAP2 DUP2 MSTORE PUSH1 0x20 DUP3 ADD DUP1 MLOAD PUSH28 0xFFFFFFFFFFFFFFFFFFFFFFFFFFFFFFFFFFFFFFFFFFFFFFFFFFFFFFFF AND PUSH1 0x1 PUSH1 0x1 PUSH1 0xE0 SHL SUB NOT SWAP1 SWAP5 AND SWAP4 SWAP1 SWAP4 OR SWAP1 SWAP3 MSTORE SWAP1 MLOAD PUSH2 0x2485 SWAP2 SWAP1 PUSH2 0x2C7C JUMP JUMPDEST PUSH1 0x0 PUSH1 0x40 MLOAD DUP1 DUP4 SUB DUP2 PUSH1 0x0 DUP7 GAS CALL SWAP2 POP POP RETURNDATASIZE DUP1 PUSH1 0x0 DUP2 EQ PUSH2 0x24C2 JUMPI PUSH1 0x40 MLOAD SWAP2 POP PUSH1 0x1F NOT PUSH1 0x3F RETURNDATASIZE ADD AND DUP3 ADD PUSH1 0x40 MSTORE RETURNDATASIZE DUP3 MSTORE RETURNDATASIZE PUSH1 0x0 PUSH1 0x20 DUP5 ADD RETURNDATACOPY PUSH2 0x24C7 JUMP JUMPDEST PUSH1 0x60 SWAP2 POP JUMPDEST POP SWAP2 POP SWAP2 POP DUP2 PUSH2 0x24F9 JUMPI DUP1 MLOAD ISZERO PUSH2 0x24E1 JUMPI DUP1 MLOAD DUP1 DUP3 PUSH1 0x20 ADD REVERT JUMPDEST PUSH1 0x40 MLOAD PUSH3 0x461BCD PUSH1 0xE5 SHL DUP2 MSTORE PUSH1 0x4 ADD PUSH2 0x751 SWAP1 PUSH2 0x2FAB JUMP JUMPDEST PUSH1 0x0 DUP2 DUP1 PUSH1 0x20 ADD SWAP1 MLOAD DUP2 ADD SWAP1 PUSH2 0x250F SWAP2 SWAP1 PUSH2 0x2B9E JUMP JUMPDEST PUSH1 0x1 PUSH1 0x1 PUSH1 0xE0 SHL SUB NOT AND PUSH4 0xA85BD01 PUSH1 0xE1 SHL EQ SWAP4 POP PUSH2 0x1787 SWAP3 POP POP POP JUMP JUMPDEST PUSH2 0x2538 DUP4 DUP4 DUP4 PUSH2 0x809 JUMP JUMPDEST PUSH2 0x2540 PUSH2 0xCDB JUMP JUMPDEST ISZERO PUSH2 0x809 JUMPI PUSH1 0x40 MLOAD PUSH3 0x461BCD PUSH1 0xE5 SHL DUP2 MSTORE PUSH1 0x4 ADD PUSH2 0x751 SWAP1 PUSH2 0x2E00 JUMP JUMPDEST PUSH1 0x0 DUP2 DUP2 MSTORE PUSH1 0x1 DUP4 ADD PUSH1 0x20 MSTORE PUSH1 0x40 DUP2 KECCAK256 SLOAD DUP1 ISZERO PUSH2 0x2619 JUMPI DUP4 SLOAD PUSH1 0x0 NOT DUP1 DUP4 ADD SWAP2 SWAP1 DUP2 ADD SWAP1 PUSH1 0x0 SWAP1 DUP8 SWAP1 DUP4 SWAP1 DUP2 LT PUSH2 0x2590 JUMPI INVALID JUMPDEST SWAP1 PUSH1 0x0 MSTORE PUSH1 0x20 PUSH1 0x0 KECCAK256 ADD SLOAD SWAP1 POP DUP1 DUP8 PUSH1 0x0 ADD DUP5 DUP2 SLOAD DUP2 LT PUSH2 0x25AD JUMPI INVALID JUMPDEST PUSH1 0x0 SWAP2 DUP3 MSTORE PUSH1 0x20 DUP1 DUP4 KECCAK256 SWAP1 SWAP2 ADD SWAP3 SWAP1 SWAP3 SSTORE DUP3 DUP2 MSTORE PUSH1 0x1 DUP10 DUP2 ADD SWAP1 SWAP3 MSTORE PUSH1 0x40 SWAP1 KECCAK256 SWAP1 DUP5 ADD SWAP1 SSTORE DUP7 SLOAD DUP8 SWAP1 DUP1 PUSH2 0x25DD JUMPI INVALID JUMPDEST PUSH1 0x1 SWAP1 SUB DUP2 DUP2 SWAP1 PUSH1 0x0 MSTORE PUSH1 0x20 PUSH1 0x0 KECCAK256 ADD PUSH1 0x0 SWAP1 SSTORE SWAP1 SSTORE DUP7 PUSH1 0x1 ADD PUSH1 0x0 DUP8 DUP2 MSTORE PUSH1 0x20 ADD SWAP1 DUP2 MSTORE PUSH1 0x20 ADD PUSH1 0x0 KECCAK256 PUSH1 0x0 SWAP1 SSTORE PUSH1 0x1 SWAP5 POP POP POP POP POP PUSH2 0x8E9 JUMP JUMPDEST PUSH1 0x0 SWAP2 POP POP PUSH2 0x8E9 JUMP JUMPDEST PUSH1 0x0 PUSH2 0x262F DUP4 DUP4 PUSH2 0x2377 JUMP JUMPDEST PUSH2 0x2665 JUMPI POP DUP2 SLOAD PUSH1 0x1 DUP2 DUP2 ADD DUP5 SSTORE PUSH1 0x0 DUP5 DUP2 MSTORE PUSH1 0x20 DUP1 DUP3 KECCAK256 SWAP1 SWAP4 ADD DUP5 SWAP1 SSTORE DUP5 SLOAD DUP5 DUP3 MSTORE DUP3 DUP7 ADD SWAP1 SWAP4 MSTORE PUSH1 0x40 SWAP1 KECCAK256 SWAP2 SWAP1 SWAP2 SSTORE PUSH2 0x8E9 JUMP JUMPDEST POP PUSH1 0x0 PUSH2 0x8E9 JUMP JUMPDEST PUSH1 0x0 DUP3 DUP2 MSTORE PUSH1 0x1 DUP5 ADD PUSH1 0x20 MSTORE PUSH1 0x40 DUP2 KECCAK256 SLOAD DUP1 PUSH2 0x26D2 JUMPI POP POP PUSH1 0x40 DUP1 MLOAD DUP1 DUP3 ADD DUP3 MSTORE DUP4 DUP2 MSTORE PUSH1 0x20 DUP1 DUP3 ADD DUP5 DUP2 MSTORE DUP7 SLOAD PUSH1 0x1 DUP2 DUP2 ADD DUP10 SSTORE PUSH1 0x0 DUP10 DUP2 MSTORE DUP5 DUP2 KECCAK256 SWAP6 MLOAD PUSH1 0x2 SWAP1 SWAP4 MUL SWAP1 SWAP6 ADD SWAP2 DUP3 SSTORE SWAP2 MLOAD SWAP1 DUP3 ADD SSTORE DUP7 SLOAD DUP7 DUP5 MSTORE DUP2 DUP9 ADD SWAP1 SWAP3 MSTORE SWAP3 SWAP1 SWAP2 KECCAK256 SSTORE PUSH2 0x97F JUMP JUMPDEST DUP3 DUP6 PUSH1 0x0 ADD PUSH1 0x1 DUP4 SUB DUP2 SLOAD DUP2 LT PUSH2 0x26E5 JUMPI INVALID JUMPDEST SWAP1 PUSH1 0x0 MSTORE PUSH1 0x20 PUSH1 0x0 KECCAK256 SWAP1 PUSH1 0x2 MUL ADD PUSH1 0x1 ADD DUP2 SWAP1 SSTORE POP PUSH1 0x0 SWAP2 POP POP PUSH2 0x97F JUMP JUMPDEST PUSH1 0x0 PUSH2 0x8E6 DUP4 DUP4 PUSH2 0x2749 JUMP JUMPDEST PUSH1 0x0 DUP2 EXTCODEHASH PUSH32 0xC5D2460186F7233C927E7DB2DCC703C0E500B653CA82273B7BFAD8045D85A470 DUP2 DUP2 EQ DUP1 ISZERO SWAP1 PUSH2 0x1787 JUMPI POP POP ISZERO ISZERO SWAP3 SWAP2 POP POP JUMP JUMPDEST PUSH1 0x0 DUP2 DUP2 MSTORE PUSH1 0x1 DUP4 ADD PUSH1 0x20 MSTORE PUSH1 0x40 DUP2 KECCAK256 SLOAD DUP1 ISZERO PUSH2 0x2619 JUMPI DUP4 SLOAD PUSH1 0x0 NOT DUP1 DUP4 ADD SWAP2 SWAP1 DUP2 ADD SWAP1 PUSH1 0x0 SWAP1 DUP8 SWAP1 DUP4 SWAP1 DUP2 LT PUSH2 0x277C JUMPI INVALID JUMPDEST SWAP1 PUSH1 0x0 MSTORE PUSH1 0x20 PUSH1 0x0 KECCAK256 SWAP1 PUSH1 0x2 MUL ADD SWAP1 POP DUP1 DUP8 PUSH1 0x0 ADD DUP5 DUP2 SLOAD DUP2 LT PUSH2 0x279C JUMPI INVALID JUMPDEST PUSH1 0x0 SWAP2 DUP3 MSTORE PUSH1 0x20 DUP1 DUP4 KECCAK256 DUP5 SLOAD PUSH1 0x2 SWAP1 SWAP4 MUL ADD SWAP2 DUP3 SSTORE PUSH1 0x1 SWAP4 DUP5 ADD SLOAD SWAP2 DUP5 ADD SWAP2 SWAP1 SWAP2 SSTORE DUP4 SLOAD DUP3 MSTORE DUP10 DUP4 ADD SWAP1 MSTORE PUSH1 0x40 SWAP1 KECCAK256 SWAP1 DUP5 ADD SWAP1 SSTORE DUP7 SLOAD DUP8 SWAP1 DUP1 PUSH2 0x27DB JUMPI INVALID JUMPDEST PUSH1 0x0 DUP3 DUP2 MSTORE PUSH1 0x20 DUP1 DUP3 KECCAK256 PUSH1 0x2 PUSH1 0x0 NOT SWAP1 SWAP5 ADD SWAP4 DUP5 MUL ADD DUP3 DUP2 SSTORE PUSH1 0x1 SWAP1 DUP2 ADD DUP4 SWAP1 SSTORE SWAP3 SWAP1 SWAP4 SSTORE DUP9 DUP2 MSTORE DUP10 DUP3 ADD SWAP1 SWAP3 MSTORE PUSH1 0x40 DUP3 KECCAK256 SWAP2 SWAP1 SWAP2 SSTORE SWAP5 POP PUSH2 0x8E9 SWAP4 POP POP POP POP JUMP JUMPDEST PUSH1 0x40 MLOAD DUP1 PUSH1 0xA0 ADD PUSH1 0x40 MSTORE DUP1 PUSH1 0x0 PUSH1 0x1 PUSH1 0x1 PUSH1 0xA0 SHL SUB AND DUP2 MSTORE PUSH1 0x20 ADD PUSH1 0x0 DUP2 MSTORE PUSH1 0x20 ADD PUSH1 0x0 DUP2 MSTORE PUSH1 0x20 ADD PUSH1 0x0 DUP2 MSTORE PUSH1 0x20 ADD PUSH1 0x0 DUP2 MSTORE POP SWAP1 JUMP JUMPDEST DUP3 DUP1 SLOAD PUSH1 0x1 DUP2 PUSH1 0x1 AND ISZERO PUSH2 0x100 MUL SUB AND PUSH1 0x2 SWAP1 DIV SWAP1 PUSH1 0x0 MSTORE PUSH1 0x20 PUSH1 0x0 KECCAK256 SWAP1 PUSH1 0x1F ADD PUSH1 0x20 SWAP1 DIV DUP2 ADD SWAP3 DUP3 PUSH1 0x1F LT PUSH2 0x2896 JUMPI DUP1 MLOAD PUSH1 0xFF NOT AND DUP4 DUP1 ADD OR DUP6 SSTORE PUSH2 0x28C3 JUMP JUMPDEST DUP3 DUP1 ADD PUSH1 0x1 ADD DUP6 SSTORE DUP3 ISZERO PUSH2 0x28C3 JUMPI SWAP2 DUP3 ADD JUMPDEST DUP3 DUP2 GT ISZERO PUSH2 0x28C3 JUMPI DUP3 MLOAD DUP3 SSTORE SWAP2 PUSH1 0x20 ADD SWAP2 SWAP1 PUSH1 0x1 ADD SWAP1 PUSH2 0x28A8 JUMP JUMPDEST POP PUSH2 0x28CF SWAP3 SWAP2 POP PUSH2 0x2913 JUMP JUMPDEST POP SWAP1 JUMP JUMPDEST POP DUP1 SLOAD PUSH1 0x1 DUP2 PUSH1 0x1 AND ISZERO PUSH2 0x100 MUL SUB AND PUSH1 0x2 SWAP1 DIV PUSH1 0x0 DUP3 SSTORE DUP1 PUSH1 0x1F LT PUSH2 0x28F9 JUMPI POP PUSH2 0x1BCD JUMP JUMPDEST PUSH1 0x1F ADD PUSH1 0x20 SWAP1 DIV SWAP1 PUSH1 0x0 MSTORE PUSH1 0x20 PUSH1 0x0 KECCAK256 SWAP1 DUP2 ADD SWAP1 PUSH2 0x1BCD SWAP2 SWAP1 JUMPDEST JUMPDEST DUP1 DUP3 GT ISZERO PUSH2 0x28CF JUMPI PUSH1 0x0 DUP2 SSTORE PUSH1 0x1 ADD PUSH2 0x2914 JUMP JUMPDEST PUSH1 0x0 PUSH1 0x40 DUP3 DUP5 SUB SLT ISZERO PUSH2 0x2939 JUMPI DUP1 DUP2 REVERT JUMPDEST POP SWAP2 SWAP1 POP JUMP JUMPDEST PUSH1 0x0 PUSH1 0x20 DUP3 DUP5 SUB SLT ISZERO PUSH2 0x2950 JUMPI DUP1 DUP2 REVERT JUMPDEST DUP2 CALLDATALOAD PUSH2 0x8E6 DUP2 PUSH2 0x3982 JUMP JUMPDEST PUSH1 0x0 PUSH1 0x20 DUP3 DUP5 SUB SLT ISZERO PUSH2 0x296C JUMPI DUP1 DUP2 REVERT JUMPDEST DUP2 MLOAD PUSH2 0x8E6 DUP2 PUSH2 0x3982 JUMP JUMPDEST PUSH1 0x0 DUP1 PUSH1 0x40 DUP4 DUP6 SUB SLT ISZERO PUSH2 0x2989 JUMPI DUP1 DUP2 REVERT JUMPDEST DUP3 CALLDATALOAD PUSH2 0x2994 DUP2 PUSH2 0x3982 JUMP JUMPDEST SWAP2 POP PUSH1 0x20 DUP4 ADD CALLDATALOAD PUSH2 0x29A4 DUP2 PUSH2 0x3982 JUMP JUMPDEST DUP1 SWAP2 POP POP SWAP3 POP SWAP3 SWAP1 POP JUMP JUMPDEST PUSH1 0x0 DUP1 PUSH1 0x0 PUSH1 0x60 DUP5 DUP7 SUB SLT ISZERO PUSH2 0x29C3 JUMPI DUP1 DUP2 REVERT JUMPDEST DUP4 CALLDATALOAD PUSH2 0x29CE DUP2 PUSH2 0x3982 JUMP JUMPDEST SWAP3 POP PUSH1 0x20 DUP5 ADD CALLDATALOAD PUSH2 0x29DE DUP2 PUSH2 0x3982 JUMP JUMPDEST SWAP3 SWAP6 SWAP3 SWAP5 POP POP POP PUSH1 0x40 SWAP2 SWAP1 SWAP2 ADD CALLDATALOAD SWAP1 JUMP JUMPDEST PUSH1 0x0 DUP1 PUSH1 0x0 DUP1 PUSH1 0x80 DUP6 DUP8 SUB SLT ISZERO PUSH2 0x2A04 JUMPI DUP1 DUP2 REVERT JUMPDEST DUP5 CALLDATALOAD PUSH2 0x2A0F DUP2 PUSH2 0x3982 JUMP JUMPDEST SWAP4 POP PUSH1 0x20 DUP6 DUP2 ADD CALLDATALOAD PUSH2 0x2A20 DUP2 PUSH2 0x3982 JUMP JUMPDEST SWAP4 POP PUSH1 0x40 DUP7 ADD CALLDATALOAD SWAP3 POP PUSH1 0x60 DUP7 ADD CALLDATALOAD PUSH8 0xFFFFFFFFFFFFFFFF DUP1 DUP3 GT ISZERO PUSH2 0x2A43 JUMPI DUP4 DUP5 REVERT JUMPDEST DUP2 DUP9 ADD SWAP2 POP DUP9 PUSH1 0x1F DUP4 ADD SLT PUSH2 0x2A56 JUMPI DUP4 DUP5 REVERT JUMPDEST DUP2 CALLDATALOAD DUP2 DUP2 GT ISZERO PUSH2 0x2A64 JUMPI DUP5 DUP6 REVERT JUMPDEST PUSH1 0x40 MLOAD PUSH1 0x1F DUP3 ADD PUSH1 0x1F NOT AND DUP2 ADD DUP6 ADD DUP4 DUP2 GT DUP3 DUP3 LT OR ISZERO PUSH2 0x2A83 JUMPI DUP7 DUP8 REVERT JUMPDEST PUSH1 0x40 MSTORE DUP2 DUP2 MSTORE DUP4 DUP3 ADD DUP6 ADD DUP12 LT ISZERO PUSH2 0x2A99 JUMPI DUP6 DUP7 REVERT JUMPDEST DUP2 DUP6 DUP6 ADD DUP7 DUP4 ADD CALLDATACOPY SWAP1 DUP2 ADD SWAP1 SWAP4 ADD SWAP4 SWAP1 SWAP4 MSTORE POP SWAP4 SWAP7 SWAP3 SWAP6 POP SWAP1 SWAP4 POP POP JUMP JUMPDEST PUSH1 0x0 DUP1 PUSH1 0x40 DUP4 DUP6 SUB SLT ISZERO PUSH2 0x2AC9 JUMPI DUP2 DUP3 REVERT JUMPDEST DUP3 CALLDATALOAD PUSH2 0x2AD4 DUP2 PUSH2 0x3982 JUMP JUMPDEST SWAP2 POP PUSH1 0x20 DUP4 ADD CALLDATALOAD DUP1 ISZERO ISZERO DUP2 EQ PUSH2 0x29A4 JUMPI DUP2 DUP3 REVERT JUMPDEST PUSH1 0x0 DUP1 PUSH1 0x40 DUP4 DUP6 SUB SLT ISZERO PUSH2 0x2989 JUMPI DUP2 DUP3 REVERT JUMPDEST PUSH1 0x0 DUP1 PUSH1 0x40 DUP4 DUP6 SUB SLT ISZERO PUSH2 0x2B0C JUMPI DUP2 DUP3 REVERT JUMPDEST DUP3 CALLDATALOAD PUSH2 0x2B17 DUP2 PUSH2 0x3982 JUMP JUMPDEST SWAP5 PUSH1 0x20 SWAP4 SWAP1 SWAP4 ADD CALLDATALOAD SWAP4 POP POP POP JUMP JUMPDEST PUSH1 0x0 PUSH1 0x20 DUP3 DUP5 SUB SLT ISZERO PUSH2 0x2B36 JUMPI DUP1 DUP2 REVERT JUMPDEST POP CALLDATALOAD SWAP2 SWAP1 POP JUMP JUMPDEST PUSH1 0x0 DUP1 PUSH1 0x40 DUP4 DUP6 SUB SLT ISZERO PUSH2 0x2B4F JUMPI DUP2 DUP3 REVERT JUMPDEST DUP3 CALLDATALOAD SWAP2 POP PUSH1 0x20 DUP4 ADD CALLDATALOAD PUSH2 0x29A4 DUP2 PUSH2 0x3982 JUMP JUMPDEST PUSH1 0x0 DUP1 PUSH1 0x40 DUP4 DUP6 SUB SLT ISZERO PUSH2 0x2B73 JUMPI DUP2 DUP3 REVERT JUMPDEST POP POP DUP1 CALLDATALOAD SWAP3 PUSH1 0x20 SWAP1 SWAP2 ADD CALLDATALOAD SWAP2 POP JUMP JUMPDEST PUSH1 0x0 PUSH1 0x20 DUP3 DUP5 SUB SLT ISZERO PUSH2 0x2B93 JUMPI DUP1 DUP2 REVERT JUMPDEST DUP2 CALLDATALOAD PUSH2 0x8E6 DUP2 PUSH2 0x3997 JUMP JUMPDEST PUSH1 0x0 PUSH1 0x20 DUP3 DUP5 SUB SLT ISZERO PUSH2 0x2BAF JUMPI DUP1 DUP2 REVERT JUMPDEST DUP2 MLOAD PUSH2 0x8E6 DUP2 PUSH2 0x3997 JUMP JUMPDEST PUSH1 0x0 DUP1 PUSH1 0x60 DUP4 DUP6 SUB SLT ISZERO PUSH2 0x2BCC JUMPI DUP2 DUP3 REVERT JUMPDEST PUSH2 0x2BD6 DUP5 DUP5 PUSH2 0x2928 JUMP JUMPDEST SWAP2 POP PUSH1 0x40 DUP4 ADD CALLDATALOAD PUSH2 0x29A4 DUP2 PUSH2 0x3982 JUMP JUMPDEST PUSH1 0x0 DUP1 PUSH1 0x0 PUSH1 0x80 DUP5 DUP7 SUB SLT ISZERO PUSH2 0x2BFA JUMPI DUP1 DUP2 REVERT JUMPDEST PUSH2 0x2C04 DUP6 DUP6 PUSH2 0x2928 JUMP JUMPDEST SWAP3 POP PUSH1 0x40 DUP5 ADD CALLDATALOAD PUSH2 0x2C14 DUP2 PUSH2 0x3982 JUMP JUMPDEST SWAP3 SWAP6 SWAP3 SWAP5 POP POP POP PUSH1 0x60 SWAP2 SWAP1 SWAP2 ADD CALLDATALOAD SWAP1 JUMP JUMPDEST PUSH1 0x0 DUP1 PUSH1 0x0 PUSH1 0x60 DUP5 DUP7 SUB SLT ISZERO PUSH2 0x2C39 JUMPI DUP1 DUP2 REVERT JUMPDEST POP POP DUP2 CALLDATALOAD SWAP4 PUSH1 0x20 DUP4 ADD CALLDATALOAD SWAP4 POP PUSH1 0x40 SWAP1 SWAP3 ADD CALLDATALOAD SWAP2 SWAP1 POP JUMP JUMPDEST PUSH1 0x0 DUP2 MLOAD DUP1 DUP5 MSTORE PUSH2 0x2C68 DUP2 PUSH1 0x20 DUP7 ADD PUSH1 0x20 DUP7 ADD PUSH2 0x3956 JUMP JUMPDEST PUSH1 0x1F ADD PUSH1 0x1F NOT AND SWAP3 SWAP1 SWAP3 ADD PUSH1 0x20 ADD SWAP3 SWAP2 POP POP JUMP JUMPDEST PUSH1 0x0 DUP3 MLOAD PUSH2 0x2C8E DUP2 DUP5 PUSH1 0x20 DUP8 ADD PUSH2 0x3956 JUMP JUMPDEST SWAP2 SWAP1 SWAP2 ADD SWAP3 SWAP2 POP POP JUMP JUMPDEST PUSH1 0x0 DUP1 DUP5 SLOAD PUSH1 0x1 DUP1 DUP3 AND PUSH1 0x0 DUP2 EQ PUSH2 0x2CB7 JUMPI PUSH1 0x1 DUP2 EQ PUSH2 0x2CCE JUMPI PUSH2 0x2CFD JUMP JUMPDEST PUSH1 0xFF NOT DUP4 AND DUP7 MSTORE PUSH1 0x2 DUP4 DIV PUSH1 0x7F AND DUP7 ADD SWAP4 POP PUSH2 0x2CFD JUMP JUMPDEST PUSH1 0x2 DUP4 DIV DUP9 DUP7 MSTORE PUSH1 0x20 DUP1 DUP8 KECCAK256 DUP8 JUMPDEST DUP4 DUP2 LT ISZERO PUSH2 0x2CF5 JUMPI DUP2 SLOAD DUP11 DUP3 ADD MSTORE SWAP1 DUP6 ADD SWAP1 DUP3 ADD PUSH2 0x2CDC JUMP JUMPDEST POP POP POP DUP7 ADD SWAP4 POP JUMPDEST POP POP POP DUP4 MLOAD PUSH2 0x2D10 DUP2 DUP4 PUSH1 0x20 DUP9 ADD PUSH2 0x3956 JUMP JUMPDEST ADD SWAP5 SWAP4 POP POP POP POP JUMP JUMPDEST PUSH1 0x1 PUSH1 0x1 PUSH1 0xA0 SHL SUB SWAP2 SWAP1 SWAP2 AND DUP2 MSTORE PUSH1 0x20 ADD SWAP1 JUMP JUMPDEST PUSH1 0x0 PUSH1 0x1 PUSH1 0x1 PUSH1 0xA0 SHL SUB DUP1 DUP8 AND DUP4 MSTORE DUP1 DUP7 AND PUSH1 0x20 DUP5 ADD MSTORE POP DUP4 PUSH1 0x40 DUP4 ADD MSTORE PUSH1 0x80 PUSH1 0x60 DUP4 ADD MSTORE PUSH2 0x2D5F PUSH1 0x80 DUP4 ADD DUP5 PUSH2 0x2C50 JUMP JUMPDEST SWAP7 SWAP6 POP POP POP POP POP POP JUMP JUMPDEST PUSH1 0x1 PUSH1 0x1 PUSH1 0xA0 SHL SUB SWAP6 SWAP1 SWAP6 AND DUP6 MSTORE PUSH1 0x20 DUP6 ADD SWAP4 SWAP1 SWAP4 MSTORE PUSH1 0x40 DUP5 ADD SWAP2 SWAP1 SWAP2 MSTORE PUSH1 0x60 DUP4 ADD MSTORE PUSH1 0x80 DUP3 ADD MSTORE PUSH1 0xA0 ADD SWAP1 JUMP JUMPDEST SWAP1 ISZERO ISZERO DUP2 MSTORE PUSH1 0x20 ADD SWAP1 JUMP JUMPDEST SWAP1 DUP2 MSTORE PUSH1 0x20 ADD SWAP1 JUMP JUMPDEST PUSH1 0x0 PUSH1 0x20 DUP3 MSTORE PUSH2 0x8E6 PUSH1 0x20 DUP4 ADD DUP5 PUSH2 0x2C50 JUMP JUMPDEST PUSH1 0x20 DUP1 DUP3 MSTORE PUSH1 0x22 SWAP1 DUP3 ADD MSTORE PUSH32 0x456E756D657261626C655365743A20696E646578206F7574206F6620626F756E PUSH1 0x40 DUP3 ADD MSTORE PUSH2 0x6473 PUSH1 0xF0 SHL PUSH1 0x60 DUP3 ADD MSTORE PUSH1 0x80 ADD SWAP1 JUMP JUMPDEST PUSH1 0x20 DUP1 DUP3 MSTORE PUSH1 0x2B SWAP1 DUP3 ADD MSTORE PUSH32 0x4552433732315061757361626C653A20746F6B656E207472616E736665722077 PUSH1 0x40 DUP3 ADD MSTORE PUSH32 0x68696C6520706175736564000000000000000000000000000000000000000000 PUSH1 0x60 DUP3 ADD MSTORE PUSH1 0x80 ADD SWAP1 JUMP JUMPDEST PUSH1 0x20 DUP1 DUP3 MSTORE PUSH1 0x2F SWAP1 DUP3 ADD MSTORE PUSH32 0x416363657373436F6E74726F6C3A2073656E646572206D75737420626520616E PUSH1 0x40 DUP3 ADD MSTORE PUSH32 0x2061646D696E20746F206772616E740000000000000000000000000000000000 PUSH1 0x60 DUP3 ADD MSTORE PUSH1 0x80 ADD SWAP1 JUMP JUMPDEST PUSH1 0x20 DUP1 DUP3 MSTORE PUSH1 0x2D SWAP1 DUP3 ADD MSTORE PUSH32 0x4552433732314275726E61626C653A2063616C6C65722063616E6E6F74206275 PUSH1 0x40 DUP3 ADD MSTORE PUSH32 0x726E207468697320746F6B656E00000000000000000000000000000000000000 PUSH1 0x60 DUP3 ADD MSTORE PUSH1 0x80 ADD SWAP1 JUMP JUMPDEST PUSH1 0x20 DUP1 DUP3 MSTORE PUSH1 0x14 SWAP1 DUP3 ADD MSTORE PUSH32 0x5061757361626C653A206E6F7420706175736564000000000000000000000000 PUSH1 0x40 DUP3 ADD MSTORE PUSH1 0x60 ADD SWAP1 JUMP JUMPDEST PUSH1 0x20 DUP1 DUP3 MSTORE PUSH1 0x2A SWAP1 DUP3 ADD MSTORE PUSH32 0x4F776E657220616E6420636F6E666967206164647265737365732063616E6E6F PUSH1 0x40 DUP3 ADD MSTORE PUSH32 0x7420626520656D70747900000000000000000000000000000000000000000000 PUSH1 0x60 DUP3 ADD MSTORE PUSH1 0x80 ADD SWAP1 JUMP JUMPDEST PUSH1 0x20 DUP1 DUP3 MSTORE PUSH1 0x32 SWAP1 DUP3 ADD MSTORE PUSH32 0x4552433732313A207472616E7366657220746F206E6F6E204552433732315265 PUSH1 0x40 DUP3 ADD MSTORE PUSH32 0x63656976657220696D706C656D656E7465720000000000000000000000000000 PUSH1 0x60 DUP3 ADD MSTORE PUSH1 0x80 ADD SWAP1 JUMP JUMPDEST PUSH1 0x20 DUP1 DUP3 MSTORE PUSH1 0x1C SWAP1 DUP3 ADD MSTORE PUSH32 0x4552433136353A20696E76616C696420696E7465726661636520696400000000 PUSH1 0x40 DUP3 ADD MSTORE PUSH1 0x60 ADD SWAP1 JUMP JUMPDEST PUSH1 0x20 DUP1 DUP3 MSTORE PUSH1 0x1C SWAP1 DUP3 ADD MSTORE PUSH32 0x4552433732313A20746F6B656E20616C7265616479206D696E74656400000000 PUSH1 0x40 DUP3 ADD MSTORE PUSH1 0x60 ADD SWAP1 JUMP JUMPDEST PUSH1 0x20 DUP1 DUP3 MSTORE PUSH1 0x1B SWAP1 DUP3 ADD MSTORE PUSH32 0x536166654D6174683A206164646974696F6E206F766572666C6F770000000000 PUSH1 0x40 DUP3 ADD MSTORE PUSH1 0x60 ADD SWAP1 JUMP JUMPDEST PUSH1 0x20 DUP1 DUP3 MSTORE PUSH1 0x3E SWAP1 DUP3 ADD MSTORE PUSH32 0x4552433732315072657365744D696E7465725061757365724175746F49643A20 PUSH1 0x40 DUP3 ADD MSTORE PUSH32 0x6D75737420686176652070617573657220726F6C6520746F2070617573650000 PUSH1 0x60 DUP3 ADD MSTORE PUSH1 0x80 ADD SWAP1 JUMP JUMPDEST PUSH1 0x20 DUP1 DUP3 MSTORE PUSH1 0xD SWAP1 DUP3 ADD MSTORE PUSH32 0x496E76616C696420706F6F6C2100000000000000000000000000000000000000 PUSH1 0x40 DUP3 ADD MSTORE PUSH1 0x60 ADD SWAP1 JUMP JUMPDEST PUSH1 0x20 DUP1 DUP3 MSTORE PUSH1 0x24 SWAP1 DUP3 ADD MSTORE PUSH32 0x4552433732313A207472616E7366657220746F20746865207A65726F20616464 PUSH1 0x40 DUP3 ADD MSTORE PUSH32 0x7265737300000000000000000000000000000000000000000000000000000000 PUSH1 0x60 DUP3 ADD MSTORE PUSH1 0x80 ADD SWAP1 JUMP JUMPDEST PUSH1 0x20 DUP1 DUP3 MSTORE PUSH1 0x19 SWAP1 DUP3 ADD MSTORE PUSH32 0x4552433732313A20617070726F766520746F2063616C6C657200000000000000 PUSH1 0x40 DUP3 ADD MSTORE PUSH1 0x60 ADD SWAP1 JUMP JUMPDEST PUSH1 0x20 DUP1 DUP3 MSTORE PUSH1 0xF SWAP1 DUP3 ADD MSTORE PUSH32 0x496E76616C696420746F6B656E49640000000000000000000000000000000000 PUSH1 0x40 DUP3 ADD MSTORE PUSH1 0x60 ADD SWAP1 JUMP JUMPDEST PUSH1 0x20 DUP1 DUP3 MSTORE PUSH1 0x21 SWAP1 DUP3 ADD MSTORE PUSH32 0x43616E6E6F742072656465656D206D6F7265207468616E207765206D696E7465 PUSH1 0x40 DUP3 ADD MSTORE PUSH1 0x19 PUSH1 0xFA SHL PUSH1 0x60 DUP3 ADD MSTORE PUSH1 0x80 ADD SWAP1 JUMP JUMPDEST PUSH1 0x20 DUP1 DUP3 MSTORE PUSH1 0x2C SWAP1 DUP3 ADD MSTORE PUSH32 0x4552433732313A206F70657261746F7220717565727920666F72206E6F6E6578 PUSH1 0x40 DUP3 ADD MSTORE PUSH32 0x697374656E7420746F6B656E0000000000000000000000000000000000000000 PUSH1 0x60 DUP3 ADD MSTORE PUSH1 0x80 ADD SWAP1 JUMP JUMPDEST PUSH1 0x20 DUP1 DUP3 MSTORE PUSH1 0x30 SWAP1 DUP3 ADD MSTORE PUSH32 0x416363657373436F6E74726F6C3A2073656E646572206D75737420626520616E PUSH1 0x40 DUP3 ADD MSTORE PUSH32 0x2061646D696E20746F207265766F6B6500000000000000000000000000000000 PUSH1 0x60 DUP3 ADD MSTORE PUSH1 0x80 ADD SWAP1 JUMP JUMPDEST PUSH1 0x20 DUP1 DUP3 MSTORE PUSH1 0x10 SWAP1 DUP3 ADD MSTORE PUSH32 0x5061757361626C653A2070617573656400000000000000000000000000000000 PUSH1 0x40 DUP3 ADD MSTORE PUSH1 0x60 ADD SWAP1 JUMP JUMPDEST PUSH1 0x20 DUP1 DUP3 MSTORE PUSH1 0x38 SWAP1 DUP3 ADD MSTORE PUSH32 0x4552433732313A20617070726F76652063616C6C6572206973206E6F74206F77 PUSH1 0x40 DUP3 ADD MSTORE PUSH32 0x6E6572206E6F7220617070726F76656420666F7220616C6C0000000000000000 PUSH1 0x60 DUP3 ADD MSTORE PUSH1 0x80 ADD SWAP1 JUMP JUMPDEST PUSH1 0x20 DUP1 DUP3 MSTORE PUSH1 0x2A SWAP1 DUP3 ADD MSTORE PUSH32 0x4552433732313A2062616C616E636520717565727920666F7220746865207A65 PUSH1 0x40 DUP3 ADD MSTORE PUSH32 0x726F206164647265737300000000000000000000000000000000000000000000 PUSH1 0x60 DUP3 ADD MSTORE PUSH1 0x80 ADD SWAP1 JUMP JUMPDEST PUSH1 0x20 DUP1 DUP3 MSTORE PUSH1 0x22 SWAP1 DUP3 ADD MSTORE PUSH32 0x456E756D657261626C654D61703A20696E646578206F7574206F6620626F756E PUSH1 0x40 DUP3 ADD MSTORE PUSH2 0x6473 PUSH1 0xF0 SHL PUSH1 0x60 DUP3 ADD MSTORE PUSH1 0x80 ADD SWAP1 JUMP JUMPDEST PUSH1 0x20 DUP1 DUP3 MSTORE DUP2 DUP2 ADD MSTORE PUSH32 0x4552433732313A206D696E7420746F20746865207A65726F2061646472657373 PUSH1 0x40 DUP3 ADD MSTORE PUSH1 0x60 ADD SWAP1 JUMP JUMPDEST PUSH1 0x20 DUP1 DUP3 MSTORE PUSH1 0x2C SWAP1 DUP3 ADD MSTORE PUSH32 0x4552433732313A20617070726F76656420717565727920666F72206E6F6E6578 PUSH1 0x40 DUP3 ADD MSTORE PUSH32 0x697374656E7420746F6B656E0000000000000000000000000000000000000000 PUSH1 0x60 DUP3 ADD MSTORE PUSH1 0x80 ADD SWAP1 JUMP JUMPDEST PUSH1 0x20 DUP1 DUP3 MSTORE PUSH1 0x21 SWAP1 DUP3 ADD MSTORE PUSH32 0x4F6E6C7920476F6C6466696E636820666163746F727920697320616C6C6F7765 PUSH1 0x40 DUP3 ADD MSTORE PUSH1 0x19 PUSH1 0xFA SHL PUSH1 0x60 DUP3 ADD MSTORE PUSH1 0x80 ADD SWAP1 JUMP JUMPDEST PUSH1 0x20 DUP1 DUP3 MSTORE PUSH1 0x2E SWAP1 DUP3 ADD MSTORE PUSH32 0x436F6E747261637420696E7374616E63652068617320616C7265616479206265 PUSH1 0x40 DUP3 ADD MSTORE PUSH32 0x656E20696E697469616C697A6564000000000000000000000000000000000000 PUSH1 0x60 DUP3 ADD MSTORE PUSH1 0x80 ADD SWAP1 JUMP JUMPDEST PUSH1 0x20 DUP1 DUP3 MSTORE PUSH1 0x29 SWAP1 DUP3 ADD MSTORE PUSH32 0x4552433732313A207472616E73666572206F6620746F6B656E20746861742069 PUSH1 0x40 DUP3 ADD MSTORE PUSH32 0x73206E6F74206F776E0000000000000000000000000000000000000000000000 PUSH1 0x60 DUP3 ADD MSTORE PUSH1 0x80 ADD SWAP1 JUMP JUMPDEST PUSH1 0x20 DUP1 DUP3 MSTORE PUSH1 0x2F SWAP1 DUP3 ADD MSTORE PUSH32 0x4552433732314D657461646174613A2055524920717565727920666F72206E6F PUSH1 0x40 DUP3 ADD MSTORE PUSH32 0x6E6578697374656E7420746F6B656E0000000000000000000000000000000000 PUSH1 0x60 DUP3 ADD MSTORE PUSH1 0x80 ADD SWAP1 JUMP JUMPDEST PUSH1 0x20 DUP1 DUP3 MSTORE PUSH1 0x23 SWAP1 DUP3 ADD MSTORE PUSH32 0x43616E206F6E6C79206275726E2066756C6C792072656465656D656420746F6B PUSH1 0x40 DUP3 ADD MSTORE PUSH32 0x656E730000000000000000000000000000000000000000000000000000000000 PUSH1 0x60 DUP3 ADD MSTORE PUSH1 0x80 ADD SWAP1 JUMP JUMPDEST PUSH1 0x20 DUP1 DUP3 MSTORE PUSH1 0x3C SWAP1 DUP3 ADD MSTORE PUSH32 0x43616E6E6F742072656465656D206D6F7265207468616E207072696E63697061 PUSH1 0x40 DUP3 ADD MSTORE PUSH32 0x6C2D6465706F736974656420616D6F756E7420666F7220746F6B656E00000000 PUSH1 0x60 DUP3 ADD MSTORE PUSH1 0x80 ADD SWAP1 JUMP JUMPDEST PUSH1 0x20 DUP1 DUP3 MSTORE PUSH1 0x21 SWAP1 DUP3 ADD MSTORE PUSH32 0x4552433732313A20617070726F76616C20746F2063757272656E74206F776E65 PUSH1 0x40 DUP3 ADD MSTORE PUSH32 0x7200000000000000000000000000000000000000000000000000000000000000 PUSH1 0x60 DUP3 ADD MSTORE PUSH1 0x80 ADD SWAP1 JUMP JUMPDEST PUSH1 0x20 DUP1 DUP3 MSTORE PUSH1 0x31 SWAP1 DUP3 ADD MSTORE PUSH32 0x4552433732313A207472616E736665722063616C6C6572206973206E6F74206F PUSH1 0x40 DUP3 ADD MSTORE PUSH32 0x776E6572206E6F7220617070726F766564000000000000000000000000000000 PUSH1 0x60 DUP3 ADD MSTORE PUSH1 0x80 ADD SWAP1 JUMP JUMPDEST PUSH1 0x20 DUP1 DUP3 MSTORE DUP2 DUP2 ADD MSTORE PUSH32 0x4F6E6C792074686520746F6B656E277320706F6F6C2063616E2072656465656D PUSH1 0x40 DUP3 ADD MSTORE PUSH1 0x60 ADD SWAP1 JUMP JUMPDEST PUSH1 0x20 DUP1 DUP3 MSTORE PUSH1 0x40 SWAP1 DUP3 ADD DUP2 SWAP1 MSTORE PUSH32 0x4552433732315072657365744D696E7465725061757365724175746F49643A20 SWAP1 DUP3 ADD MSTORE PUSH32 0x6D75737420686176652070617573657220726F6C6520746F20756E7061757365 PUSH1 0x60 DUP3 ADD MSTORE PUSH1 0x80 ADD SWAP1 JUMP JUMPDEST PUSH1 0x20 DUP1 DUP3 MSTORE PUSH1 0x2B SWAP1 DUP3 ADD MSTORE PUSH32 0x4D75737420686176652061646D696E20726F6C6520746F20706572666F726D20 PUSH1 0x40 DUP3 ADD MSTORE PUSH32 0x7468697320616374696F6E000000000000000000000000000000000000000000 PUSH1 0x60 DUP3 ADD MSTORE PUSH1 0x80 ADD SWAP1 JUMP JUMPDEST PUSH1 0x20 DUP1 DUP3 MSTORE PUSH1 0x2F SWAP1 DUP3 ADD MSTORE PUSH32 0x416363657373436F6E74726F6C3A2063616E206F6E6C792072656E6F756E6365 PUSH1 0x40 DUP3 ADD MSTORE PUSH32 0x20726F6C657320666F722073656C660000000000000000000000000000000000 PUSH1 0x60 DUP3 ADD MSTORE PUSH1 0x80 ADD SWAP1 JUMP JUMPDEST PUSH1 0x0 PUSH1 0xA0 DUP3 ADD SWAP1 POP PUSH1 0x1 PUSH1 0x1 PUSH1 0xA0 SHL SUB DUP4 MLOAD AND DUP3 MSTORE PUSH1 0x20 DUP4 ADD MLOAD PUSH1 0x20 DUP4 ADD MSTORE PUSH1 0x40 DUP4 ADD MLOAD PUSH1 0x40 DUP4 ADD MSTORE PUSH1 0x60 DUP4 ADD MLOAD PUSH1 0x60 DUP4 ADD MSTORE PUSH1 0x80 DUP4 ADD MLOAD PUSH1 0x80 DUP4 ADD MSTORE SWAP3 SWAP2 POP POP JUMP JUMPDEST SWAP3 DUP4 MSTORE PUSH1 0x20 DUP4 ADD SWAP2 SWAP1 SWAP2 MSTORE ISZERO ISZERO PUSH1 0x40 DUP3 ADD MSTORE PUSH1 0x60 ADD SWAP1 JUMP JUMPDEST SWAP3 DUP4 MSTORE PUSH1 0x20 DUP4 ADD SWAP2 SWAP1 SWAP2 MSTORE PUSH1 0x40 DUP3 ADD MSTORE PUSH1 0x60 ADD SWAP1 JUMP JUMPDEST PUSH1 0x0 JUMPDEST DUP4 DUP2 LT ISZERO PUSH2 0x3971 JUMPI DUP2 DUP2 ADD MLOAD DUP4 DUP3 ADD MSTORE PUSH1 0x20 ADD PUSH2 0x3959 JUMP JUMPDEST DUP4 DUP2 GT ISZERO PUSH2 0x1422 JUMPI POP POP PUSH1 0x0 SWAP2 ADD MSTORE JUMP JUMPDEST PUSH1 0x1 PUSH1 0x1 PUSH1 0xA0 SHL SUB DUP2 AND DUP2 EQ PUSH2 0x1BCD JUMPI PUSH1 0x0 DUP1 REVERT JUMPDEST PUSH1 0x1 PUSH1 0x1 PUSH1 0xE0 SHL SUB NOT DUP2 AND DUP2 EQ PUSH2 0x1BCD JUMPI PUSH1 0x0 DUP1 REVERT INVALID GASLIMIT MSTORE NUMBER CALLDATACOPY ORIGIN BALANCE GASPRICE KECCAK256 PUSH16 0x776E657220717565727920666F72206E PUSH16 0x6E6578697374656E7420746F6B656EA2 PUSH5 0x6970667358 0x22 SLT KECCAK256 SWAP15 GASPRICE 0xAC CREATE 0xA8 SWAP3 POP ORIGIN 0x26 0xFB GASLIMIT CODESIZE 0xE7 0xEB 0xED PUSH31 0x4AEC200FDFADF6DE5B8DDF04037BC5E264736F6C634300060C003300000000 "
		},
		"gasEstimates": {
			"creation": {
				"codeDepositCost": "2972000",
				"executionCost": "3263",
				"totalCost": "2975263"
			},
			"external": {
				"DEFAULT_ADMIN_ROLE()": "340",
				"MINTER_ROLE()": "295",
				"OWNER_ROLE()": "339",
				"PAUSER_ROLE()": "294",
				"__initialize__(address,address)": "infinite",
				"_tokenIdTracker()": "1118",
				"approve(address,uint256)": "infinite",
				"balanceOf(address)": "infinite",
				"baseURI()": "infinite",
				"burn(uint256)": "infinite",
				"config()": "1161",
				"getApproved(uint256)": "infinite",
				"getRoleAdmin(bytes32)": "1268",
				"getRoleMember(bytes32,uint256)": "infinite",
				"getRoleMemberCount(bytes32)": "infinite",
				"getTokenInfo(uint256)": "infinite",
				"grantRole(bytes32,address)": "infinite",
				"hasRole(bytes32,address)": "infinite",
				"isAdmin()": "infinite",
				"isApprovedForAll(address,address)": "infinite",
				"isApprovedOrOwner(address,uint256)": "infinite",
				"mint((uint256,uint256),address)": "infinite",
				"name()": "infinite",
				"onPoolCreated(address)": "infinite",
				"ownerOf(uint256)": "infinite",
				"pause()": "infinite",
				"paused()": "1107",
				"poolAddress()": "1161",
				"pools(address)": "3029",
				"redeem(uint256,uint256,uint256)": "infinite",
				"renounceRole(bytes32,address)": "infinite",
				"revokeRole(bytes32,address)": "infinite",
				"safeTransferFrom(address,address,uint256)": "infinite",
				"safeTransferFrom(address,address,uint256,bytes)": "infinite",
				"self_mint((uint256,uint256),address,uint256)": "infinite",
				"setApprovalForAll(address,bool)": "infinite",
				"setPoolAddress(address)": "21279",
				"supportsInterface(bytes4)": "1365",
				"symbol()": "infinite",
				"tokenByIndex(uint256)": "3916",
				"tokenOfOwnerByIndex(address,uint256)": "infinite",
				"tokenURI(uint256)": "infinite",
				"tokens(uint256)": "4659",
				"totalSupply()": "1216",
				"transferFrom(address,address,uint256)": "infinite",
				"unpause()": "infinite",
				"updateGoldfinchConfig()": "infinite",
				"validPool(address)": "infinite"
			},
			"internal": {
				"_getTokenInfo(uint256)": "infinite",
				"_validPool(address)": "17",
				"createToken(struct IPoolTokens.MintParams calldata,address,uint256)": "infinite",
				"destroyAndBurn(uint256)": "infinite"
			}
		},
		"methodIdentifiers": {
			"DEFAULT_ADMIN_ROLE()": "a217fddf",
			"MINTER_ROLE()": "d5391393",
			"OWNER_ROLE()": "e58378bb",
			"PAUSER_ROLE()": "e63ab1e9",
			"__initialize__(address,address)": "b6f8fd40",
			"_tokenIdTracker()": "98bcede9",
			"approve(address,uint256)": "095ea7b3",
			"balanceOf(address)": "70a08231",
			"baseURI()": "6c0360eb",
			"burn(uint256)": "42966c68",
			"config()": "79502c55",
			"getApproved(uint256)": "081812fc",
			"getRoleAdmin(bytes32)": "248a9ca3",
			"getRoleMember(bytes32,uint256)": "9010d07c",
			"getRoleMemberCount(bytes32)": "ca15c873",
			"getTokenInfo(uint256)": "8c7a63ae",
			"grantRole(bytes32,address)": "2f2ff15d",
			"hasRole(bytes32,address)": "91d14854",
			"isAdmin()": "b6db75a0",
			"isApprovedForAll(address,address)": "e985e9c5",
			"isApprovedOrOwner(address,uint256)": "430c2081",
			"mint((uint256,uint256),address)": "5be57b6a",
			"name()": "06fdde03",
			"onPoolCreated(address)": "57e340ce",
			"ownerOf(uint256)": "6352211e",
			"pause()": "8456cb59",
			"paused()": "5c975abb",
			"poolAddress()": "1755ff21",
			"pools(address)": "a4063dbc",
			"redeem(uint256,uint256,uint256)": "b8192205",
			"renounceRole(bytes32,address)": "36568abe",
			"revokeRole(bytes32,address)": "d547741f",
			"safeTransferFrom(address,address,uint256)": "42842e0e",
			"safeTransferFrom(address,address,uint256,bytes)": "b88d4fde",
			"self_mint((uint256,uint256),address,uint256)": "37fdc8a1",
			"setApprovalForAll(address,bool)": "a22cb465",
			"setPoolAddress(address)": "e9e15b4f",
			"supportsInterface(bytes4)": "01ffc9a7",
			"symbol()": "95d89b41",
			"tokenByIndex(uint256)": "4f6ccce7",
			"tokenOfOwnerByIndex(address,uint256)": "2f745c59",
			"tokenURI(uint256)": "c87b56dd",
			"tokens(uint256)": "4f64b2be",
			"totalSupply()": "18160ddd",
			"transferFrom(address,address,uint256)": "23b872dd",
			"unpause()": "3f4ba83a",
			"updateGoldfinchConfig()": "4f92a728",
			"validPool(address)": "b5ada6d8"
		}
	},
	"abi": [
		{
			"anonymous": false,
			"inputs": [
				{
					"indexed": true,
					"internalType": "address",
					"name": "owner",
					"type": "address"
				},
				{
					"indexed": true,
					"internalType": "address",
					"name": "approved",
					"type": "address"
				},
				{
					"indexed": true,
					"internalType": "uint256",
					"name": "tokenId",
					"type": "uint256"
				}
			],
			"name": "Approval",
			"type": "event"
		},
		{
			"anonymous": false,
			"inputs": [
				{
					"indexed": true,
					"internalType": "address",
					"name": "owner",
					"type": "address"
				},
				{
					"indexed": true,
					"internalType": "address",
					"name": "operator",
					"type": "address"
				},
				{
					"indexed": false,
					"internalType": "bool",
					"name": "approved",
					"type": "bool"
				}
			],
			"name": "ApprovalForAll",
			"type": "event"
		},
		{
			"anonymous": false,
			"inputs": [
				{
					"indexed": true,
					"internalType": "address",
					"name": "who",
					"type": "address"
				},
				{
					"indexed": false,
					"internalType": "address",
					"name": "configAddress",
					"type": "address"
				}
			],
			"name": "GoldfinchConfigUpdated",
			"type": "event"
		},
		{
			"anonymous": false,
			"inputs": [
				{
					"indexed": false,
					"internalType": "address",
					"name": "account",
					"type": "address"
				}
			],
			"name": "Paused",
			"type": "event"
		},
		{
			"anonymous": false,
			"inputs": [
				{
					"indexed": true,
					"internalType": "bytes32",
					"name": "role",
					"type": "bytes32"
				},
				{
					"indexed": true,
					"internalType": "address",
					"name": "account",
					"type": "address"
				},
				{
					"indexed": true,
					"internalType": "address",
					"name": "sender",
					"type": "address"
				}
			],
			"name": "RoleGranted",
			"type": "event"
		},
		{
			"anonymous": false,
			"inputs": [
				{
					"indexed": true,
					"internalType": "bytes32",
					"name": "role",
					"type": "bytes32"
				},
				{
					"indexed": true,
					"internalType": "address",
					"name": "account",
					"type": "address"
				},
				{
					"indexed": true,
					"internalType": "address",
					"name": "sender",
					"type": "address"
				}
			],
			"name": "RoleRevoked",
			"type": "event"
		},
		{
			"anonymous": false,
			"inputs": [
				{
					"indexed": true,
					"internalType": "address",
					"name": "owner",
					"type": "address"
				},
				{
					"indexed": true,
					"internalType": "address",
					"name": "pool",
					"type": "address"
				},
				{
					"indexed": true,
					"internalType": "uint256",
					"name": "tokenId",
					"type": "uint256"
				}
			],
			"name": "TokenBurned",
			"type": "event"
		},
		{
			"anonymous": false,
			"inputs": [
				{
					"indexed": true,
					"internalType": "address",
					"name": "owner",
					"type": "address"
				},
				{
					"indexed": true,
					"internalType": "address",
					"name": "pool",
					"type": "address"
				},
				{
					"indexed": true,
					"internalType": "uint256",
					"name": "tokenId",
					"type": "uint256"
				},
				{
					"indexed": false,
					"internalType": "uint256",
					"name": "amount",
					"type": "uint256"
				},
				{
					"indexed": false,
					"internalType": "uint256",
					"name": "tranche",
					"type": "uint256"
				}
			],
			"name": "TokenMinted",
			"type": "event"
		},
		{
			"anonymous": false,
			"inputs": [
				{
					"indexed": true,
					"internalType": "address",
					"name": "owner",
					"type": "address"
				},
				{
					"indexed": true,
					"internalType": "address",
					"name": "pool",
					"type": "address"
				},
				{
					"indexed": true,
					"internalType": "uint256",
					"name": "tokenId",
					"type": "uint256"
				},
				{
					"indexed": false,
					"internalType": "uint256",
					"name": "principalRedeemed",
					"type": "uint256"
				},
				{
					"indexed": false,
					"internalType": "uint256",
					"name": "interestRedeemed",
					"type": "uint256"
				},
				{
					"indexed": false,
					"internalType": "uint256",
					"name": "tranche",
					"type": "uint256"
				}
			],
			"name": "TokenRedeemed",
			"type": "event"
		},
		{
			"anonymous": false,
			"inputs": [
				{
					"indexed": true,
					"internalType": "address",
					"name": "from",
					"type": "address"
				},
				{
					"indexed": true,
					"internalType": "address",
					"name": "to",
					"type": "address"
				},
				{
					"indexed": true,
					"internalType": "uint256",
					"name": "tokenId",
					"type": "uint256"
				}
			],
			"name": "Transfer",
			"type": "event"
		},
		{
			"anonymous": false,
			"inputs": [
				{
					"indexed": false,
					"internalType": "address",
					"name": "account",
					"type": "address"
				}
			],
			"name": "Unpaused",
			"type": "event"
		},
		{
			"inputs": [],
			"name": "DEFAULT_ADMIN_ROLE",
			"outputs": [
				{
					"internalType": "bytes32",
					"name": "",
					"type": "bytes32"
				}
			],
			"stateMutability": "view",
			"type": "function"
		},
		{
			"inputs": [],
			"name": "MINTER_ROLE",
			"outputs": [
				{
					"internalType": "bytes32",
					"name": "",
					"type": "bytes32"
				}
			],
			"stateMutability": "view",
			"type": "function"
		},
		{
			"inputs": [],
			"name": "OWNER_ROLE",
			"outputs": [
				{
					"internalType": "bytes32",
					"name": "",
					"type": "bytes32"
				}
			],
			"stateMutability": "view",
			"type": "function"
		},
		{
			"inputs": [],
			"name": "PAUSER_ROLE",
			"outputs": [
				{
					"internalType": "bytes32",
					"name": "",
					"type": "bytes32"
				}
			],
			"stateMutability": "view",
			"type": "function"
		},
		{
			"inputs": [
				{
					"internalType": "address",
					"name": "owner",
					"type": "address"
				},
				{
					"internalType": "contract GoldfinchConfig",
					"name": "_config",
					"type": "address"
				}
			],
			"name": "__initialize__",
			"outputs": [],
			"stateMutability": "nonpayable",
			"type": "function"
		},
		{
			"inputs": [],
			"name": "_tokenIdTracker",
			"outputs": [
				{
					"internalType": "uint256",
					"name": "_value",
					"type": "uint256"
				}
			],
			"stateMutability": "view",
			"type": "function"
		},
		{
			"inputs": [
				{
					"internalType": "address",
					"name": "to",
					"type": "address"
				},
				{
					"internalType": "uint256",
					"name": "tokenId",
					"type": "uint256"
				}
			],
			"name": "approve",
			"outputs": [],
			"stateMutability": "nonpayable",
			"type": "function"
		},
		{
			"inputs": [
				{
					"internalType": "address",
					"name": "owner",
					"type": "address"
				}
			],
			"name": "balanceOf",
			"outputs": [
				{
					"internalType": "uint256",
					"name": "",
					"type": "uint256"
				}
			],
			"stateMutability": "view",
			"type": "function"
		},
		{
			"inputs": [],
			"name": "baseURI",
			"outputs": [
				{
					"internalType": "string",
					"name": "",
					"type": "string"
				}
			],
			"stateMutability": "view",
			"type": "function"
		},
		{
			"inputs": [
				{
					"internalType": "uint256",
					"name": "tokenId",
					"type": "uint256"
				}
			],
			"name": "burn",
			"outputs": [],
			"stateMutability": "nonpayable",
			"type": "function"
		},
		{
			"inputs": [],
			"name": "config",
			"outputs": [
				{
					"internalType": "contract GoldfinchConfig",
					"name": "",
					"type": "address"
				}
			],
			"stateMutability": "view",
			"type": "function"
		},
		{
			"inputs": [
				{
					"internalType": "uint256",
					"name": "tokenId",
					"type": "uint256"
				}
			],
			"name": "getApproved",
			"outputs": [
				{
					"internalType": "address",
					"name": "",
					"type": "address"
				}
			],
			"stateMutability": "view",
			"type": "function"
		},
		{
			"inputs": [
				{
					"internalType": "bytes32",
					"name": "role",
					"type": "bytes32"
				}
			],
			"name": "getRoleAdmin",
			"outputs": [
				{
					"internalType": "bytes32",
					"name": "",
					"type": "bytes32"
				}
			],
			"stateMutability": "view",
			"type": "function"
		},
		{
			"inputs": [
				{
					"internalType": "bytes32",
					"name": "role",
					"type": "bytes32"
				},
				{
					"internalType": "uint256",
					"name": "index",
					"type": "uint256"
				}
			],
			"name": "getRoleMember",
			"outputs": [
				{
					"internalType": "address",
					"name": "",
					"type": "address"
				}
			],
			"stateMutability": "view",
			"type": "function"
		},
		{
			"inputs": [
				{
					"internalType": "bytes32",
					"name": "role",
					"type": "bytes32"
				}
			],
			"name": "getRoleMemberCount",
			"outputs": [
				{
					"internalType": "uint256",
					"name": "",
					"type": "uint256"
				}
			],
			"stateMutability": "view",
			"type": "function"
		},
		{
			"inputs": [
				{
					"internalType": "uint256",
					"name": "tokenId",
					"type": "uint256"
				}
			],
			"name": "getTokenInfo",
			"outputs": [
				{
					"components": [
						{
							"internalType": "address",
							"name": "pool",
							"type": "address"
						},
						{
							"internalType": "uint256",
							"name": "tranche",
							"type": "uint256"
						},
						{
							"internalType": "uint256",
							"name": "principalAmount",
							"type": "uint256"
						},
						{
							"internalType": "uint256",
							"name": "principalRedeemed",
							"type": "uint256"
						},
						{
							"internalType": "uint256",
							"name": "interestRedeemed",
							"type": "uint256"
						}
					],
					"internalType": "struct IPoolTokens.TokenInfo",
					"name": "",
					"type": "tuple"
				}
			],
			"stateMutability": "view",
			"type": "function"
		},
		{
			"inputs": [
				{
					"internalType": "bytes32",
					"name": "role",
					"type": "bytes32"
				},
				{
					"internalType": "address",
					"name": "account",
					"type": "address"
				}
			],
			"name": "grantRole",
			"outputs": [],
			"stateMutability": "nonpayable",
			"type": "function"
		},
		{
			"inputs": [
				{
					"internalType": "bytes32",
					"name": "role",
					"type": "bytes32"
				},
				{
					"internalType": "address",
					"name": "account",
					"type": "address"
				}
			],
			"name": "hasRole",
			"outputs": [
				{
					"internalType": "bool",
					"name": "",
					"type": "bool"
				}
			],
			"stateMutability": "view",
			"type": "function"
		},
		{
			"inputs": [],
			"name": "isAdmin",
			"outputs": [
				{
					"internalType": "bool",
					"name": "",
					"type": "bool"
				}
			],
			"stateMutability": "view",
			"type": "function"
		},
		{
			"inputs": [
				{
					"internalType": "address",
					"name": "owner",
					"type": "address"
				},
				{
					"internalType": "address",
					"name": "operator",
					"type": "address"
				}
			],
			"name": "isApprovedForAll",
			"outputs": [
				{
					"internalType": "bool",
					"name": "",
					"type": "bool"
				}
			],
			"stateMutability": "view",
			"type": "function"
		},
		{
			"inputs": [
				{
					"internalType": "address",
					"name": "spender",
					"type": "address"
				},
				{
					"internalType": "uint256",
					"name": "tokenId",
					"type": "uint256"
				}
			],
			"name": "isApprovedOrOwner",
			"outputs": [
				{
					"internalType": "bool",
					"name": "",
					"type": "bool"
				}
			],
			"stateMutability": "view",
			"type": "function"
		},
		{
			"inputs": [
				{
					"components": [
						{
							"internalType": "uint256",
							"name": "principalAmount",
							"type": "uint256"
						},
						{
							"internalType": "uint256",
							"name": "tranche",
							"type": "uint256"
						}
					],
					"internalType": "struct IPoolTokens.MintParams",
					"name": "params",
					"type": "tuple"
				},
				{
					"internalType": "address",
					"name": "to",
					"type": "address"
				}
			],
			"name": "mint",
			"outputs": [
				{
					"internalType": "uint256",
					"name": "tokenId",
					"type": "uint256"
				}
			],
			"stateMutability": "nonpayable",
			"type": "function"
		},
		{
			"inputs": [],
			"name": "name",
			"outputs": [
				{
					"internalType": "string",
					"name": "",
					"type": "string"
				}
			],
			"stateMutability": "view",
			"type": "function"
		},
		{
			"inputs": [
				{
					"internalType": "address",
					"name": "newPool",
					"type": "address"
				}
			],
			"name": "onPoolCreated",
			"outputs": [],
			"stateMutability": "nonpayable",
			"type": "function"
		},
		{
			"inputs": [
				{
					"internalType": "uint256",
					"name": "tokenId",
					"type": "uint256"
				}
			],
			"name": "ownerOf",
			"outputs": [
				{
					"internalType": "address",
					"name": "",
					"type": "address"
				}
			],
			"stateMutability": "view",
			"type": "function"
		},
		{
			"inputs": [],
			"name": "pause",
			"outputs": [],
			"stateMutability": "nonpayable",
			"type": "function"
		},
		{
			"inputs": [],
			"name": "paused",
			"outputs": [
				{
					"internalType": "bool",
					"name": "",
					"type": "bool"
				}
			],
			"stateMutability": "view",
			"type": "function"
		},
		{
			"inputs": [],
			"name": "poolAddress",
			"outputs": [
				{
					"internalType": "address",
					"name": "",
					"type": "address"
				}
			],
			"stateMutability": "view",
			"type": "function"
		},
		{
			"inputs": [
				{
					"internalType": "address",
					"name": "",
					"type": "address"
				}
			],
			"name": "pools",
			"outputs": [
				{
					"internalType": "uint256",
					"name": "totalMinted",
					"type": "uint256"
				},
				{
					"internalType": "uint256",
					"name": "totalPrincipalRedeemed",
					"type": "uint256"
				},
				{
					"internalType": "bool",
					"name": "created",
					"type": "bool"
				}
			],
			"stateMutability": "view",
			"type": "function"
		},
		{
			"inputs": [
				{
					"internalType": "uint256",
					"name": "tokenId",
					"type": "uint256"
				},
				{
					"internalType": "uint256",
					"name": "principalRedeemed",
					"type": "uint256"
				},
				{
					"internalType": "uint256",
					"name": "interestRedeemed",
					"type": "uint256"
				}
			],
			"name": "redeem",
			"outputs": [],
			"stateMutability": "nonpayable",
			"type": "function"
		},
		{
			"inputs": [
				{
					"internalType": "bytes32",
					"name": "role",
					"type": "bytes32"
				},
				{
					"internalType": "address",
					"name": "account",
					"type": "address"
				}
			],
			"name": "renounceRole",
			"outputs": [],
			"stateMutability": "nonpayable",
			"type": "function"
		},
		{
			"inputs": [
				{
					"internalType": "bytes32",
					"name": "role",
					"type": "bytes32"
				},
				{
					"internalType": "address",
					"name": "account",
					"type": "address"
				}
			],
			"name": "revokeRole",
			"outputs": [],
			"stateMutability": "nonpayable",
			"type": "function"
		},
		{
			"inputs": [
				{
					"internalType": "address",
					"name": "from",
					"type": "address"
				},
				{
					"internalType": "address",
					"name": "to",
					"type": "address"
				},
				{
					"internalType": "uint256",
					"name": "tokenId",
					"type": "uint256"
				}
			],
			"name": "safeTransferFrom",
			"outputs": [],
			"stateMutability": "nonpayable",
			"type": "function"
		},
		{
			"inputs": [
				{
					"internalType": "address",
					"name": "from",
					"type": "address"
				},
				{
					"internalType": "address",
					"name": "to",
					"type": "address"
				},
				{
					"internalType": "uint256",
					"name": "tokenId",
					"type": "uint256"
				},
				{
					"internalType": "bytes",
					"name": "_data",
					"type": "bytes"
				}
			],
			"name": "safeTransferFrom",
			"outputs": [],
			"stateMutability": "nonpayable",
			"type": "function"
		},
		{
			"inputs": [
				{
					"components": [
						{
							"internalType": "uint256",
							"name": "principalAmount",
							"type": "uint256"
						},
						{
							"internalType": "uint256",
							"name": "tranche",
							"type": "uint256"
						}
					],
					"internalType": "struct IPoolTokens.MintParams",
					"name": "params",
					"type": "tuple"
				},
				{
					"internalType": "address",
					"name": "to",
					"type": "address"
				},
				{
					"internalType": "uint256",
					"name": "tokenId",
					"type": "uint256"
				}
			],
			"name": "self_mint",
			"outputs": [
				{
					"internalType": "uint256",
					"name": "tokenIdReturn",
					"type": "uint256"
				}
			],
			"stateMutability": "nonpayable",
			"type": "function"
		},
		{
			"inputs": [
				{
					"internalType": "address",
					"name": "operator",
					"type": "address"
				},
				{
					"internalType": "bool",
					"name": "approved",
					"type": "bool"
				}
			],
			"name": "setApprovalForAll",
			"outputs": [],
			"stateMutability": "nonpayable",
			"type": "function"
		},
		{
			"inputs": [
				{
					"internalType": "address",
					"name": "_poolAddress",
					"type": "address"
				}
			],
			"name": "setPoolAddress",
			"outputs": [],
			"stateMutability": "nonpayable",
			"type": "function"
		},
		{
			"inputs": [
				{
					"internalType": "bytes4",
					"name": "interfaceId",
					"type": "bytes4"
				}
			],
			"name": "supportsInterface",
			"outputs": [
				{
					"internalType": "bool",
					"name": "",
					"type": "bool"
				}
			],
			"stateMutability": "view",
			"type": "function"
		},
		{
			"inputs": [],
			"name": "symbol",
			"outputs": [
				{
					"internalType": "string",
					"name": "",
					"type": "string"
				}
			],
			"stateMutability": "view",
			"type": "function"
		},
		{
			"inputs": [
				{
					"internalType": "uint256",
					"name": "index",
					"type": "uint256"
				}
			],
			"name": "tokenByIndex",
			"outputs": [
				{
					"internalType": "uint256",
					"name": "",
					"type": "uint256"
				}
			],
			"stateMutability": "view",
			"type": "function"
		},
		{
			"inputs": [
				{
					"internalType": "address",
					"name": "owner",
					"type": "address"
				},
				{
					"internalType": "uint256",
					"name": "index",
					"type": "uint256"
				}
			],
			"name": "tokenOfOwnerByIndex",
			"outputs": [
				{
					"internalType": "uint256",
					"name": "",
					"type": "uint256"
				}
			],
			"stateMutability": "view",
			"type": "function"
		},
		{
			"inputs": [
				{
					"internalType": "uint256",
					"name": "tokenId",
					"type": "uint256"
				}
			],
			"name": "tokenURI",
			"outputs": [
				{
					"internalType": "string",
					"name": "",
					"type": "string"
				}
			],
			"stateMutability": "view",
			"type": "function"
		},
		{
			"inputs": [
				{
					"internalType": "uint256",
					"name": "",
					"type": "uint256"
				}
			],
			"name": "tokens",
			"outputs": [
				{
					"internalType": "address",
					"name": "pool",
					"type": "address"
				},
				{
					"internalType": "uint256",
					"name": "tranche",
					"type": "uint256"
				},
				{
					"internalType": "uint256",
					"name": "principalAmount",
					"type": "uint256"
				},
				{
					"internalType": "uint256",
					"name": "principalRedeemed",
					"type": "uint256"
				},
				{
					"internalType": "uint256",
					"name": "interestRedeemed",
					"type": "uint256"
				}
			],
			"stateMutability": "view",
			"type": "function"
		},
		{
			"inputs": [],
			"name": "totalSupply",
			"outputs": [
				{
					"internalType": "uint256",
					"name": "",
					"type": "uint256"
				}
			],
			"stateMutability": "view",
			"type": "function"
		},
		{
			"inputs": [
				{
					"internalType": "address",
					"name": "from",
					"type": "address"
				},
				{
					"internalType": "address",
					"name": "to",
					"type": "address"
				},
				{
					"internalType": "uint256",
					"name": "tokenId",
					"type": "uint256"
				}
			],
			"name": "transferFrom",
			"outputs": [],
			"stateMutability": "nonpayable",
			"type": "function"
		},
		{
			"inputs": [],
			"name": "unpause",
			"outputs": [],
			"stateMutability": "nonpayable",
			"type": "function"
		},
		{
			"inputs": [],
			"name": "updateGoldfinchConfig",
			"outputs": [],
			"stateMutability": "nonpayable",
			"type": "function"
		},
		{
			"inputs": [
				{
					"internalType": "address",
					"name": "sender",
					"type": "address"
				}
			],
			"name": "validPool",
			"outputs": [
				{
					"internalType": "bool",
					"name": "",
					"type": "bool"
				}
			],
			"stateMutability": "view",
			"type": "function"
		}
	]
}