{
	"data": {
		"bytecode": {
			"linkReferences": {
				"Documents/STARTUPS/alloyx/goldfinch-contracts/V2.2/protocol/core/TranchingLogic.sol": {
					"TranchingLogic": [
						{
							"length": 20,
							"start": 1885
						},
						{
							"length": 20,
							"start": 2783
						},
						{
							"length": 20,
							"start": 2886
						},
						{
							"length": 20,
							"start": 5796
						},
						{
							"length": 20,
							"start": 9453
						}
					]
				}
			},
			"object": "608060405234801561001057600080fd5b50615341806100206000396000f3fe608060405234801561001057600080fd5b50600436106103995760003560e01c806380b65431116101e9578063bf8bcee41161010f578063d547741f116100ad578063e2bbb1581161007c578063e2bbb158146106e7578063e58378bb146106fa578063e63ab1e914610702578063f36213671461070a57610399565b8063d547741f14610699578063d972e8ad146106ac578063dd0ec241146106cc578063e2a657f9146106d457610399565b8063c77d5698116100e9578063c77d569814610663578063ca15c8731461066b578063cde888451461067e578063cf09e0d01461069157610399565b8063bf8bcee414610635578063bfaa8cca14610648578063c290d6911461065057610399565b8063a6a25e8811610187578063ae6c857a11610156578063ae6c857a146105ff578063b6db75a014610612578063b9317d861461061a578063bf6c87c71461062d57610399565b8063a6a25e88146105c9578063a8deac0e146105d1578063a8f9c4fe146105e4578063aa2a7c4c146105ec57610399565b806391d14854116101c357806391d14854146105885780639d1105301461059b578063a079a4dd146105ae578063a217fddf146105c157610399565b806380b654311461054a5780638456cb591461056d5780639010d07c1461057557610399565b8063441a3e70116102ce57806356ce15601161026c57806374f0314f1161023b57806374f0314f1461051f57806378bcd6041461052757806379502c551461053a5780637976323d1461054257610399565b806356ce1560146104f45780635c975abb146105075780635eb185a21461050f57806368dcfdc01461051757610399565b80634d02fe6f116102a85780634d02fe6f146104be5780634f92a728146104d1578063515bc323146104d9578063526d81f6146104ec57610399565b8063441a3e701461048057806344c08f23146104a157806347195e13146104a957610399565b806327ea6f2b1161033b5780633403c2fc116103155780633403c2fc1461045557806336568abe1461045d5780633f4ba83a146104705780634026478e1461047857610399565b806327ea6f2b146104275780632ae754be1461043a5780632f2ff15d1461044257610399565b80630cfb14b0116103775780630cfb14b0146103e457806317f76941146103ec5780631fe032be14610401578063248a9ca31461041457610399565b80630174b4491461039e5780630881806c146103c7578063097616a3146103d1575b600080fd5b6103b16103ac366004614555565b610712565b6040516103be91906147a8565b60405180910390f35b6103cf6107c0565b005b6103cf6103df3660046142f9565b61084c565b6103b16109d6565b6103f46109dd565b6040516103be919061479d565b6103cf61040f3660046143f1565b6109e7565b6103b161042236600461450e565b610de3565b6103cf61043536600461450e565b610df8565b6103b1610e9c565b6103cf610450366004614526565b610ec0565b6103cf610f04565b6103cf61046b366004614526565b6110f4565b6103cf611136565b6103cf611186565b61049361048e366004614555565b6111f7565b6040516103be9291906152d2565b6103b161131f565b6104b1611324565b6040516103be9190614689565b6104936104cc36600461450e565b611334565b6103cf6113a8565b6103b16104e7366004614602565b6114c4565b6103cf6114db565b6103cf6105023660046142f9565b611565565b6103f46117c0565b6103b16117c9565b6103b16117d0565b6103b16117dc565b6103cf61053536600461450e565b6117e3565b6104b1611a0b565b6103b1611a1b565b61055d61055836600461450e565b611a22565b6040516103be94939291906152a2565b6103cf611ad8565b6104b1610583366004614555565b611b28565b6103f4610596366004614526565b611b40565b6103cf6105a9366004614485565b611b58565b6103cf6105bc36600461450e565b611bba565b6103b1611c23565b6103cf611c28565b6103cf6105df366004614331565b611c53565b6103cf612070565b6104936105fa36600461450e565b6120cf565b6103cf61060d36600461450e565b612218565b6103f4612264565b6103cf610628366004614445565b612297565b6103cf612361565b6103cf61064336600461450e565b6123bd565b6103b161242b565b6103cf61065e36600461450e565b612430565b6103b1612484565b6103b161067936600461450e565b61248b565b6103b161068c366004614555565b6124a2565b6103b16124f7565b6103cf6106a7366004614526565b6124fe565b6106bf6106ba36600461450e565b612538565b6040516103be9190615294565b6103b1612588565b6103b16106e236600461450e565b6125d5565b6103b16106f5366004614555565b6125f4565b6103b1612905565b6103b1612929565b6103b161294d565b6040517f0174b44900000000000000000000000000000000000000000000000000000000815260009073__$fa771b4e26bbbbe95a3746e46e0a8e7cba$__90630174b4499061076790869086906004016152d2565b60206040518083038186803b15801561077f57600080fd5b505af4158015610793573d6000803e3d6000fd5b505050506040513d601f19601f820116820180604052508101906107b791906145ea565b90505b92915050565b6107ea7faf9a8bb3cbd6b84fbccefa71ff73e26e798553c6914585a84886212a46a9027933611b40565b61080f5760405162461bcd60e51b815260040161080690614e67565b60405180910390fd5b60975460ff16156108325760405162461bcd60e51b815260040161080690614d56565b6101cb5461084a90610845906001612971565b6129b3565b565b600054610100900460ff16806108655750610865612acd565b80610873575060005460ff16155b61088f5760405162461bcd60e51b815260040161080690614efb565b600054610100900460ff161580156108ba576000805460ff1961ff0019909116610100171660011790555b6001600160a01b0382166108e05760405162461bcd60e51b815260040161080690614dfb565b6108e8612ad3565b6108f0612b54565b6108f8612be0565b6109227fb19546dff01e856fb3f010c267a7b1c60363cf8a4664e21cc89c26224620214e83610efa565b61094c7f65d7a28e3265b37a6474929f336521b332c1681b933f6cb9f3376673440d862a83610efa565b6109967f65d7a28e3265b37a6474929f336521b332c1681b933f6cb9f3376673440d862a7fb19546dff01e856fb3f010c267a7b1c60363cf8a4664e21cc89c26224620214e612c6f565b6109c07fb19546dff01e856fb3f010c267a7b1c60363cf8a4664e21cc89c26224620214e80612c6f565b80156109d2576000805461ff00191690555b5050565b6101c95481565b6101c75460ff1681565b6109ef612264565b610a0b5760405162461bcd60e51b81526004016108069061517e565b6001600160a01b038716610a315760405162461bcd60e51b815260040161080690614c1d565b83610a4e5760405162461bcd60e51b815260040161080690614d8d565b82610a6b5760405162461bcd60e51b81526004016108069061506b565b6101c3546001600160a01b0316610a8788888888888888612c84565b6101c3546040517fff0825bc0000000000000000000000000000000000000000000000000000000081526001600160a01b039091169073__$fa771b4e26bbbbe95a3746e46e0a8e7cba$__9063ff0825bc90610ae9908590859060040161470f565b60006040518083038186803b158015610b0157600080fd5b505af4158015610b15573d6000803e3d6000fd5b50506040516302a7e68560e21b815273__$fa771b4e26bbbbe95a3746e46e0a8e7cba$__9250630a9f9a149150610b50908590600401614689565b60006040518083038186803b158015610b6857600080fd5b505af4158015610b7c573d6000803e3d6000fd5b505050506000826001600160a01b0316637df1f1b96040518163ffffffff1660e01b815260040160206040518083038186803b158015610bbb57600080fd5b505afa158015610bcf573d6000803e3d6000fd5b505050506040513d601f19601f82011682018060405250810190610bf39190614315565b90506000826001600160a01b0316637df1f1b96040518163ffffffff1660e01b815260040160206040518083038186803b158015610c3057600080fd5b505afa158015610c44573d6000803e3d6000fd5b505050506040513d601f19601f82011682018060405250810190610c689190614315565b9050806001600160a01b0316826001600160a01b031614610cd757610cad7faf9a8bb3cbd6b84fbccefa71ff73e26e798553c6914585a84886212a46a90279836124fe565b610cd77faf9a8bb3cbd6b84fbccefa71ff73e26e798553c6914585a84886212a46a9027982610ec0565b6101c554600090610cf0906001600160a01b0316612dcf565b6001600160a01b03166370a08231866040518263ffffffff1660e01b8152600401610d1b9190614689565b60206040518083038186803b158015610d3357600080fd5b505afa158015610d47573d6000803e3d6000fd5b505050506040513d601f19601f82011682018060405250810190610d6b91906145ea565b90508015610d95576101c554610d9590610d8d906001600160a01b0316612dcf565b868684612dda565b836001600160a01b0316856001600160a01b03167f987cdba0cba67c68d2c8aba6a4ba6545565eccfb3e2e5ff39579ffd94acaf9bb60405160405180910390a3505050505050505050505050565b60009081526065602052604090206002015490565b610e00612264565b610e1c5760405162461bcd60e51b81526004016108069061517e565b6101c3546040517f27ea6f2b0000000000000000000000000000000000000000000000000000000081526001600160a01b03909116906327ea6f2b90610e669084906004016147a8565b600060405180830381600087803b158015610e8057600080fd5b505af1158015610e94573d6000803e3d6000fd5b505050505b50565b7f956624bfbe09c0e98e645d61eba0de4ce88e8cceabdb00fead208d19a8e1209b81565b600082815260656020526040902060020154610ede90610596612e1b565b610efa5760405162461bcd60e51b815260040161080690614861565b6109d28282612e1f565b610f0c612264565b610f285760405162461bcd60e51b81526004016108069061517e565b610f306117c0565b610f3c57610f3c611ad8565b6101c554600090610f55906001600160a01b0316612dcf565b6101c554909150600090610f71906001600160a01b0316612e88565b90506000826001600160a01b03166370a08231306040518263ffffffff1660e01b8152600401610fa19190614689565b60206040518083038186803b158015610fb957600080fd5b505afa158015610fcd573d6000803e3d6000fd5b505050506040513d601f19601f82011682018060405250810190610ff191906145ea565b9050801561100457611004838383612f08565b6101c3546040517f70a082310000000000000000000000000000000000000000000000000000000081526000916001600160a01b03808716926370a0823192611051921690600401614689565b60206040518083038186803b15801561106957600080fd5b505afa15801561107d573d6000803e3d6000fd5b505050506040513d601f19601f820116820180604052508101906110a191906145ea565b905080156110c3576101c3546110c39085906001600160a01b03168584612dda565b60405130907f1fc1e771236d2e93bb9541cdcb4654ba0fd3fb615b48d829b7b365f03998512690600090a250505050565b6110fc612e1b565b6001600160a01b0316816001600160a01b03161461112c5760405162461bcd60e51b815260040161080690615212565b6109d28282612f49565b6111627f65d7a28e3265b37a6474929f336521b332c1681b933f6cb9f3376673440d862a610596612e1b565b61117e5760405162461bcd60e51b815260040161080690614a08565b61084a612fb2565b6111b07faf9a8bb3cbd6b84fbccefa71ff73e26e798553c6914585a84886212a46a9027933611b40565b6111cc5760405162461bcd60e51b815260040161080690614e67565b60975460ff16156111ef5760405162461bcd60e51b815260040161080690614d56565b61084a61301e565b60c954600090819060ff1661121e5760405162461bcd60e51b815260040161080690615147565b60c9805460ff1916905560975460ff161561124b5760405162461bcd60e51b815260040161080690614d56565b61125361417d565b6101c554611269906001600160a01b03166133f6565b6001600160a01b0316638c7a63ae866040518263ffffffff1660e01b815260040161129491906147a8565b60a06040518083038186803b1580156112ac57600080fd5b505afa1580156112c0573d6000803e3d6000fd5b505050506040513d601f19601f820116820180604052508101906112e49190614576565b905060006112f58260200151613401565b9050611303818388886134b1565b93509350505060c9805460ff1916600117905590939092509050565b600281565b6101c3546001600160a01b031681565b60008082611347575060009050806113a3565b826001141561135c57506103e89050806113a3565b826002141561137157506107d09050806113a3565b82600314156113865750610bb89050806113a3565b826004141561139b5750610fa09050806113a3565b506113889050805b915091565b6113b0612264565b6113cc5760405162461bcd60e51b81526004016108069061517e565b6101c5546113e2906001600160a01b03166137da565b6101c5805473ffffffffffffffffffffffffffffffffffffffff19166001600160a01b039283161790556101c354604080517f4f92a72800000000000000000000000000000000000000000000000000000000815290519190921691634f92a72891600480830192600092919082900301818387803b15801561146457600080fd5b505af1158015611478573d6000803e3d6000fd5b50506101c5546040513393507f7c76c17de59691df2ef36af3938c91f69cd18ad27f67a54a38e38686f0b40c4992506114ba916001600160a01b031690614689565b60405180910390a2565b60006114d087876125f4565b979650505050505050565b600054610100900460ff16806114f457506114f4612acd565b80611502575060005460ff16155b61151e5760405162461bcd60e51b815260040161080690614efb565b600054610100900460ff16158015611549576000805460ff1961ff0019909116610100171660011790555b611551612b54565b8015610e99576000805461ff001916905550565b61156d612264565b6115895760405162461bcd60e51b81526004016108069061517e565b6001600160a01b0381166115af5760405162461bcd60e51b815260040161080690614a65565b6101c3546101c5546001600160a01b03918216916000916115d09116612dcf565b6001600160a01b03166370a08231836040518263ffffffff1660e01b81526004016115fb9190614689565b60206040518083038186803b15801561161357600080fd5b505afa158015611627573d6000803e3d6000fd5b505050506040513d601f19601f8201168201806040525081019061164b91906145ea565b90508015611675576101c5546116759061166d906001600160a01b0316612dcf565b838584612dda565b6040516302a7e68560e21b815273__$fa771b4e26bbbbe95a3746e46e0a8e7cba$__90630a9f9a14906116ac908590600401614689565b60006040518083038186803b1580156116c457600080fd5b505af41580156116d8573d6000803e3d6000fd5b50506101c3805473ffffffffffffffffffffffffffffffffffffffff19166001600160a01b0387811691909117918290556040805163a4d66daf60e01b8152905192909116935063a4d66daf9250600480820192602092909190829003018186803b15801561174657600080fd5b505afa15801561175a573d6000803e3d6000fd5b505050506040513d601f19601f8201168201806040525081019061177e91906145ea565b506101c3546040516001600160a01b03918216918416907f987cdba0cba67c68d2c8aba6a4ba6545565eccfb3e2e5ff39579ffd94acaf9bb90600090a3505050565b60975460ff1690565b6101ca5481565b670de0b6b3a764000081565b6201518081565b61180d7faf9a8bb3cbd6b84fbccefa71ff73e26e798553c6914585a84886212a46a9027933611b40565b6118295760405162461bcd60e51b815260040161080690614e67565b60975460ff161561184c5760405162461bcd60e51b815260040161080690614d56565b6118546137f2565b6118705760405162461bcd60e51b815260040161080690614b41565b6101c360009054906101000a90046001600160a01b03166001600160a01b03166381c17a156040518163ffffffff1660e01b815260040160206040518083038186803b1580156118bf57600080fd5b505afa1580156118d3573d6000803e3d6000fd5b505050506040513d601f19601f820116820180604052508101906118f791906144ee565b156119145760405162461bcd60e51b815260040161080690614dc4565b6101c360009054906101000a90046001600160a01b03166001600160a01b031663457147a76040518163ffffffff1660e01b815260040160206040518083038186803b15801561196357600080fd5b505afa158015611977573d6000803e3d6000fd5b505050506040513d601f19601f8201168201806040525081019061199b91906144ee565b6119b75760405162461bcd60e51b815260040161080690614ad3565b6119c08161382c565b6101cb5430907f3420dd9c54d6a8846edd2fb39a41c30c31e7bc95b43655dae59f47cc913b60d5906119f3906001612971565b604051611a0091906147a8565b60405180910390a250565b6101c5546001600160a01b031681565b6101cb5490565b6101cb8181548110611a3057fe5b90600052602060002090600c0201600091509050806000016040518060a00160405290816000820154815260200160018201548152602001600282015481526020016003820154815260200160048201548152505090806005016040518060a0016040529081600082015481526020016001820154815260200160028201548152602001600382015481526020016004820154815250509080600a01549080600b0154905084565b611b047f65d7a28e3265b37a6474929f336521b332c1681b933f6cb9f3376673440d862a610596612e1b565b611b205760405162461bcd60e51b815260040161080690614a08565b61084a613993565b60008281526065602052604081206107b790836139ec565b60008281526065602052604081206107b790836139f8565b828114611b775760405162461bcd60e51b815260040161080690614be6565b60005b81811015610e9457611bb0858583818110611b9157fe5b90506020020135848484818110611ba457fe5b905060200201356111f7565b5050600101611b7a565b611be47faf9a8bb3cbd6b84fbccefa71ff73e26e798553c6914585a84886212a46a9027933611b40565b611c005760405162461bcd60e51b815260040161080690614e67565b60975460ff1615610e995760405162461bcd60e51b815260040161080690614d56565b600081565b60975460ff1615611c4b5760405162461bcd60e51b815260040161080690614d56565b61084a613a0d565b600054610100900460ff1680611c6c5750611c6c612acd565b80611c7a575060005460ff16155b611c965760405162461bcd60e51b815260040161080690614efb565b600054610100900460ff16158015611cc1576000805460ff1961ff0019909116610100171660011790555b6001600160a01b038d1615801590611ce157506001600160a01b038c1615155b611cfd5760405162461bcd60e51b8152600401610806906150d9565b8c6101c560006101000a8154816001600160a01b0302191690836001600160a01b031602179055506000611d4f6101c560009054906101000a90046001600160a01b03166001600160a01b0316613a3a565b90506001600160a01b038116611d775760405162461bcd60e51b8152600401610806906149d1565b611d808161084c565b611d898561382c565b611d988d8c8c8c8c8c8c612c84565b426101c4556101c68c905582611e5c57611db06141b5565b60408051602081019091526101c5548190611dd3906001600160a01b0316613a52565b6001600160a01b0316639b56d7886040518163ffffffff1660e01b815260040160206040518083038186803b158015611e0b57600080fd5b505afa158015611e1f573d6000803e3d6000fd5b505050506040513d601f19601f82011682018060405250810190611e4391906145ea565b90529050611e556101c88260016141d3565b5050611e6b565b611e696101c8858561421e565b505b611e957faf9a8bb3cbd6b84fbccefa71ff73e26e798553c6914585a84886212a46a902798e610efa565b611ebf7faf9a8bb3cbd6b84fbccefa71ff73e26e798553c6914585a84886212a46a9027982610efa565b611f097faf9a8bb3cbd6b84fbccefa71ff73e26e798553c6914585a84886212a46a902797fb19546dff01e856fb3f010c267a7b1c60363cf8a4664e21cc89c26224620214e612c6f565b611f537f956624bfbe09c0e98e645d61eba0de4ce88e8cceabdb00fead208d19a8e1209b7fb19546dff01e856fb3f010c267a7b1c60363cf8a4664e21cc89c26224620214e612c6f565b6101c554611f94907f956624bfbe09c0e98e645d61eba0de4ce88e8cceabdb00fead208d19a8e1209b90611f8f906001600160a01b0316613a5d565b610efa565b6101c554600090611fad906001600160a01b0316612dcf565b6001600160a01b031663095ea7b3306000196040518363ffffffff1660e01b8152600401611fdc9291906146f6565b602060405180830381600087803b158015611ff657600080fd5b505af115801561200a573d6000803e3d6000fd5b505050506040513d601f19601f8201168201806040525081019061202e91906144ee565b90508061204d5760405162461bcd60e51b8152600401610806906148f5565b50508015612061576000805461ff00191690555b50505050505050505050505050565b612078612264565b6120945760405162461bcd60e51b81526004016108069061517e565b6101c7805460ff1916600117905560405130907f90d9b09c68a7e1312ce22801552b47265d77db9496383d51374b4058545447d790600090a2565b60c954600090819060ff166120f65760405162461bcd60e51b815260040161080690615147565b60c9805460ff1916905560975460ff16156121235760405162461bcd60e51b815260040161080690614d56565b61212b61417d565b6101c554612141906001600160a01b03166133f6565b6001600160a01b0316638c7a63ae856040518263ffffffff1660e01b815260040161216c91906147a8565b60a06040518083038186803b15801561218457600080fd5b505afa158015612198573d6000803e3d6000fd5b505050506040513d601f19601f820116820180604052508101906121bc9190614576565b905060006121cd8260200151613401565b90506000806121dc8385613a68565b909250905060006121ed8383613ad3565b90506121fb84868a846134b1565b96509650505050505060c9805460ff191660011790559092909150565b6122427faf9a8bb3cbd6b84fbccefa71ff73e26e798553c6914585a84886212a46a9027933611b40565b61225e5760405162461bcd60e51b815260040161080690614e67565b6101ca55565b60006122927fb19546dff01e856fb3f010c267a7b1c60363cf8a4664e21cc89c26224620214e610596612e1b565b905090565b6122c17faf9a8bb3cbd6b84fbccefa71ff73e26e798553c6914585a84886212a46a9027933611b40565b6122dd5760405162461bcd60e51b815260040161080690614e67565b6101cb6000815481106122ec57fe5b90600052602060002090600c020160050160010154600014801561233357506101cb60008154811061231a57fe5b90600052602060002090600c0201600001600101546000145b61234f5760405162461bcd60e51b815260040161080690615110565b61235c6101c8838361421e565b505050565b612369612264565b6123855760405162461bcd60e51b81526004016108069061517e565b6101c7805460ff1916905560405130907f7184039938737267597232635b117c924371ac877d4329f2dfa5ca674c5cc4a590600090a2565b6123c5612264565b6123e15760405162461bcd60e51b81526004016108069061517e565b6101c3546040517fbf8bcee40000000000000000000000000000000000000000000000000000000081526001600160a01b039091169063bf8bcee490610e669084906004016147a8565b606481565b60975460ff16156124535760405162461bcd60e51b815260040161080690614d56565b600081116124735760405162461bcd60e51b8152600401610806906150a2565b61247c81613af8565b610e99613a0d565b6101c65481565b60008181526065602052604081206107ba90613b5d565b6040517fcde8884500000000000000000000000000000000000000000000000000000000815260009073__$fa771b4e26bbbbe95a3746e46e0a8e7cba$__9063cde888459061076790869086906004016152d2565b6101c45481565b60008281526065602052604090206002015461251c90610596612e1b565b61112c5760405162461bcd60e51b815260040161080690614c8b565b612540614259565b61254982613401565b6040805160a081018252825481526001830154602082015260028301549181019190915260038201546060820152600490910154608082015292915050565b60008060005b6101cb548110156125cf576125c56101cb82815481106125aa57fe5b600091825260209091206006600c9092020101548390613ad3565b915060010161258e565b50905090565b6101c881815481106125e357fe5b600091825260209091200154905081565b60c95460009060ff166126195760405162461bcd60e51b815260040161080690615147565b60c9805460ff1916905560975460ff16156126465760405162461bcd60e51b815260040161080690614d56565b600061265184613401565b905080600401546000146126775760405162461bcd60e51b815260040161080690614b0a565b600083116126975760405162461bcd60e51b815260040161080690614d1f565b6101c5546126ad906001600160a01b0316613a52565b6001600160a01b0316631852f200336101c86040518363ffffffff1660e01b81526004016126dc92919061469d565b60206040518083038186803b1580156126f457600080fd5b505afa158015612708573d6000803e3d6000fd5b505050506040513d601f19601f8201168201806040525081019061272c91906144ee565b6127485760405162461bcd60e51b815260040161080690614e30565b6101ca54421161276a5760405162461bcd60e51b815260040161080690614fc6565b805461277590613b68565b156127c2576127a67f956624bfbe09c0e98e645d61eba0de4ce88e8cceabdb00fead208d19a8e1209b610596612e1b565b6127c25760405162461bcd60e51b815260040161080690614963565b60018101546127d19084613ad3565b60018201556127de614288565b5060408051808201909152838152602081018590526101c554612809906001600160a01b03166133f6565b6001600160a01b0316635be57b6a82336040518363ffffffff1660e01b815260040161283692919061526f565b602060405180830381600087803b15801561285057600080fd5b505af1158015612864573d6000803e3d6000fd5b505050506040513d601f19601f8201168201806040525081019061288891906145ea565b6101c5549093506128ad906128a5906001600160a01b0316612dcf565b333087612dda565b8285336001600160a01b03167fcb3ef4109dcd006671348924f00aac8398190a5ff283d6e470d74581513e1036876040516128e891906147a8565b60405180910390a4505060c9805460ff1916600117905592915050565b7fb19546dff01e856fb3f010c267a7b1c60363cf8a4664e21cc89c26224620214e81565b7f65d7a28e3265b37a6474929f336521b332c1681b933f6cb9f3376673440d862a81565b7faf9a8bb3cbd6b84fbccefa71ff73e26e798553c6914585a84886212a46a9027981565b60006107b783836040518060400160405280601e81526020017f536166654d6174683a207375627472616374696f6e206f766572666c6f770000815250613b7e565b6129bb6137f2565b156129d85760405162461bcd60e51b815260040161080690614c54565b6101cb81815481106129e657fe5b90600052602060002090600c020160050160040154600014612a1a5760405162461bcd60e51b8152600401610806906151db565b6101c554600090612a4590612a37906001600160a01b0316613baa565b612a3f613c43565b90613ad3565b9050806101cb8381548110612a5657fe5b600091825260209091206009600c9092020101556101cb805430917ff839b119f21fb055e13aebac51bca6b308f52ec2d8db8306ce4d092d964e5bd09185908110612a9d57fe5b90600052602060002090600c02016005016000015483604051612ac19291906152d2565b60405180910390a25050565b303b1590565b600054610100900460ff1680612aec5750612aec612acd565b80612afa575060005460ff16155b612b165760405162461bcd60e51b815260040161080690614efb565b600054610100900460ff16158015611551576000805460ff1961ff0019909116610100171660011790558015610e99576000805461ff001916905550565b600054610100900460ff1680612b6d5750612b6d612acd565b80612b7b575060005460ff16155b612b975760405162461bcd60e51b815260040161080690614efb565b600054610100900460ff16158015612bc2576000805460ff1961ff0019909116610100171660011790555b6097805460ff191690558015610e99576000805461ff001916905550565b600054610100900460ff1680612bf95750612bf9612acd565b80612c07575060005460ff16155b612c235760405162461bcd60e51b815260040161080690614efb565b600054610100900460ff16158015612c4e576000805460ff1961ff0019909116610100171660011790555b60c9805460ff191660011790558015610e99576000805461ff001916905550565b60009182526065602052604090912060020155565b6101c554600090612c9d906001600160a01b0316613c47565b6001600160a01b03166301b215516040518163ffffffff1660e01b8152600401602060405180830381600087803b158015612cd757600080fd5b505af1158015612ceb573d6000803e3d6000fd5b505050506040513d601f19601f82011682018060405250810190612d0f9190614315565b6101c3805473ffffffffffffffffffffffffffffffffffffffff19166001600160a01b0383811691909117918290556101c5546040517fbb4a25090000000000000000000000000000000000000000000000000000000081529394509181169263bb4a250992612d9392169030908d908d908d908d908d908d908d90600401614729565b600060405180830381600087803b158015612dad57600080fd5b505af1158015612dc1573d6000803e3d6000fd5b505050505050505050505050565b60006107ba82613c52565b60408051808201909152601881527f4661696c656420746f207472616e7366657220455243323000000000000000006020820152610e948585858585613c6a565b3390565b6000828152606560205260409020612e379082613d58565b156109d257612e44612e1b565b6001600160a01b0316816001600160a01b0316837f2f8788117e7eff1d82e926ec794901d17c78024a50270940304540a733656f0d60405160405180910390a45050565b60006001600160a01b03821663b93f9b0a60065b6040518263ffffffff1660e01b8152600401612eb891906147a8565b60206040518083038186803b158015612ed057600080fd5b505afa158015612ee4573d6000803e3d6000fd5b505050506040513d601f19601f820116820180604052508101906107ba9190614315565b61235c8383836040518060400160405280601881526020017f4661696c656420746f207472616e736665722045524332300000000000000000815250613d6d565b6000828152606560205260409020612f619082613e58565b156109d257612f6e612e1b565b6001600160a01b0316816001600160a01b0316837ff6391f5c32d9c69d2a47ea670b442974b53935d1edc7fd64eb21e047a839171b60405160405180910390a45050565b60975460ff16612fd45760405162461bcd60e51b8152600401610806906148be565b6097805460ff191690557f5db9ee0a495bf2e6ff9c91a7834c1ba4fdd244a5e8aa4e537bd38aeae4b073aa613007612e1b565b6040516130149190614689565b60405180910390a1565b6101cb54600090613030906001612971565b905060006101cb828154811061304257fe5b90600052602060002090600c020160050160040154116130745760405162461bcd60e51b815260040161080690614b78565b6101cb818154811061308257fe5b90600052602060002090600c0201600001600401546000146130b65760405162461bcd60e51b815260040161080690614f58565b60006131066101cb83815481106130c957fe5b90600052602060002090600c0201600001600101546101cb84815481106130ec57fe5b600091825260209091206006600c90920201015490613ad3565b6101c3546040805163a4d66daf60e01b815290519293506001600160a01b03909116916327ea6f2b9161322491613198918691869163a4d66daf916004808301926020929190829003018186803b15801561316057600080fd5b505afa158015613174573d6000803e3d6000fd5b505050506040513d601f19601f82011682018060405250810190612a3f91906145ea565b6101c360009054906101000a90046001600160a01b03166001600160a01b0316631a861d266040518163ffffffff1660e01b815260040160206040518083038186803b1580156131e757600080fd5b505afa1580156131fb573d6000803e3d6000fd5b505050506040513d601f19601f8201168201806040525081019061321f91906145ea565b613e6d565b6040518263ffffffff1660e01b815260040161324091906147a8565b600060405180830381600087803b15801561325a57600080fd5b505af115801561326e573d6000803e3d6000fd5b50506101c5546000925061328b91506001600160a01b0316613baa565b905061329981612a3f613c43565b6101cb84815481106132a757fe5b600091825260209091206004600c9092020101556132c781612a3f613c43565b6101cb84815481106132d557fe5b600091825260209091206009600c9092020101556101cb805430917ff839b119f21fb055e13aebac51bca6b308f52ec2d8db8306ce4d092d964e5bd0918690811061331c57fe5b90600052602060002090600c0201600001600001546101cb868154811061333f57fe5b90600052602060002090600c0201600001600401546040516133629291906152d2565b60405180910390a2306001600160a01b03167ff839b119f21fb055e13aebac51bca6b308f52ec2d8db8306ce4d092d964e5bd06101cb85815481106133a357fe5b90600052602060002090600c0201600501600001546101cb86815481106133c657fe5b90600052602060002090600c0201600501600401546040516133e99291906152d2565b60405180910390a2505050565b60006107ba82613e83565b6000808211801561342057506101cb5461341c906002613e9b565b8211155b61343c5760405162461bcd60e51b815260040161080690614baf565b60006134686001613462600261345c6134558883613ed5565b8890613ad3565b90613f17565b90612971565b905060006101cb828154811061347a57fe5b600091825260208220600c909102019150613496856002613ed5565b6001146134a657816005016134a8565b815b95945050505050565b6101c55460009081906134cc906001600160a01b03166133f6565b6001600160a01b031663430c208133866040518363ffffffff1660e01b81526004016134f99291906146f6565b60206040518083038186803b15801561351157600080fd5b505afa158015613525573d6000803e3d6000fd5b505050506040513d601f19601f8201168201806040525081019061354991906144ee565b6135655760405162461bcd60e51b815260040161080690615034565b6101c55461357b906001600160a01b0316613a52565b6001600160a01b0316631852f200336101c86040518363ffffffff1660e01b81526004016135aa92919061469d565b60206040518083038186803b1580156135c257600080fd5b505afa1580156135d6573d6000803e3d6000fd5b505050506040513d601f19601f820116820180604052508101906135fa91906144ee565b6136165760405162461bcd60e51b815260040161080690614e30565b600083116136365760405162461bcd60e51b815260040161080690614ffd565b6000806136438888613a68565b909250905060006136548383613ad3565b9050808611156136765760405162461bcd60e51b815260040161080690614f8f565b8860040154613683613c43565b116136a05760405162461bcd60e51b815260040161080690614ce8565b60048901546136be5760018901546136b89087612971565b60018a01555b60006136ca8488613e6d565b905060006136dc8461321f8a85612971565b6101c5549091506136f5906001600160a01b03166133f6565b6001600160a01b031663b81922058a83856040518463ffffffff1660e01b8152600401613724939291906152e0565b600060405180830381600087803b15801561373e57600080fd5b505af1158015613752573d6000803e3d6000fd5b50506101c554613781925061377091506001600160a01b0316612dcf565b303361377c8587613ad3565b612dda565b888a60200151336001600160a01b03167f92f2787b755dae547f1701582fe74c7abf277ec14db316dd01abc69cacf7a25985856040516137c29291906152d2565b60405180910390a4909a909950975050505050505050565b60006001600160a01b03821663b93f9b0a600b612e9c565b6101cb80546000918291613807906001612971565b8154811061381157fe5b90600052602060002090600c02016000016004015411905090565b6101cb54600581106138505760405162461bcd60e51b81526004016108069061492c565b6040805161012081019091526101cb908060808101806138766001612a3f886002613e9b565b81526020016000815260200161388d6001806124a2565b815260200160008152602001600081525081526020016040518060a001604052806138c76002612a3f600289613e9b90919063ffffffff16565b8152602001600081526020016138de6001806124a2565b81526000602080830182905260409283018290529284528383018190529281018390528454600181810187559584529282902084518051600c90950290910193845580830151958401959095558481015160028401556060808601516003850155608095860151600485015584830151805160058601559283015160068501558282015160078501558281015160088501559190940151600983015592820151600a820155910151600b90910155506101ca55565b60975460ff16156139b65760405162461bcd60e51b815260040161080690614d56565b6097805460ff191660011790557f62e78cea01bee320cd4e420270b5ea74000d11b0c9f74754ebdbfc544b05a258613007612e1b565b60006107b78383613f59565b60006107b7836001600160a01b038416613f9e565b60405130907fa2380b088ee4df06f20f2bbd1971331d0a68504a9f120cc3b029aeb934f87b3c90600090a2565b60006001600160a01b03821663b93f9b0a6007612e9c565b60006107ba82613fb6565b60006107ba82613fce565b6000806000613a7f85600201548560400151610712565b90506000613a9586600301548660400151610712565b9050613aae85608001518261297190919063ffffffff16565b9350613ac785606001518361297190919063ffffffff16565b925050505b9250929050565b6000828201838110156107b75760405162461bcd60e51b815260040161080690614a9c565b6101c554610e9990613b12906001600160a01b0316612dcf565b6101c35460408051808201909152601981527f4661696c656420746f20636f6c6c656374207061796d656e7400000000000000602082015233916001600160a01b0316908590613c6a565b60006107ba82613fe6565b6000613b75826002613ed5565b60011492915050565b60008184841115613ba25760405162461bcd60e51b815260040161080691906147b1565b505050900390565b6040517ffc5636580000000000000000000000000000000000000000000000000000000081526000906001600160a01b0383169063fc56365890613bf3906007906004016147a8565b60206040518083038186803b158015613c0b57600080fd5b505afa158015613c1f573d6000803e3d6000fd5b505050506040513d601f19601f820116820180604052508101906107ba91906145ea565b4290565b60006107ba82613fea565b60006001600160a01b03821663b93f9b0a6005612e9c565b6001600160a01b038316613c905760405162461bcd60e51b81526004016108069061499a565b6040517f23b872dd0000000000000000000000000000000000000000000000000000000081526000906001600160a01b038716906323b872dd90613cdc90889088908890600401614779565b602060405180830381600087803b158015613cf657600080fd5b505af1158015613d0a573d6000803e3d6000fd5b505050506040513d601f19601f82011682018060405250810190613d2e91906144ee565b90508181613d4f5760405162461bcd60e51b815260040161080691906147b1565b50505050505050565b60006107b7836001600160a01b038416614002565b6001600160a01b038316613d935760405162461bcd60e51b81526004016108069061499a565b6040517fa9059cbb0000000000000000000000000000000000000000000000000000000081526000906001600160a01b0386169063a9059cbb90613ddd90879087906004016146f6565b602060405180830381600087803b158015613df757600080fd5b505af1158015613e0b573d6000803e3d6000fd5b505050506040513d601f19601f82011682018060405250810190613e2f91906144ee565b90508181613e505760405162461bcd60e51b815260040161080691906147b1565b505050505050565b60006107b7836001600160a01b03841661404c565b6000818310613e7c57816107b7565b5090919050565b60006001600160a01b03821663b93f9b0a600c612e9c565b600082613eaa575060006107ba565b82820282848281613eb757fe5b04146107b75760405162461bcd60e51b815260040161080690614e9e565b60006107b783836040518060400160405280601881526020017f536166654d6174683a206d6f64756c6f206279207a65726f0000000000000000815250614112565b60006107b783836040518060400160405280601a81526020017f536166654d6174683a206469766973696f6e206279207a65726f000000000000815250614146565b81546000908210613f7c5760405162461bcd60e51b815260040161080690614804565b826000018281548110613f8b57fe5b9060005260206000200154905092915050565b60009081526001919091016020526040902054151590565b60006001600160a01b03821663b93f9b0a6013612e9c565b60006001600160a01b03821663b93f9b0a600e612e9c565b5490565b60006001600160a01b03821663b93f9b0a6002612e9c565b600061400e8383613f9e565b614044575081546001818101845560008481526020808220909301849055845484825282860190935260409020919091556107ba565b5060006107ba565b60008181526001830160205260408120548015614108578354600019808301919081019060009087908390811061407f57fe5b906000526020600020015490508087600001848154811061409c57fe5b6000918252602080832090910192909255828152600189810190925260409020908401905586548790806140cc57fe5b600190038181906000526020600020016000905590558660010160008781526020019081526020016000206000905560019450505050506107ba565b60009150506107ba565b600081836141335760405162461bcd60e51b815260040161080691906147b1565b5082848161413d57fe5b06949350505050565b600081836141675760405162461bcd60e51b815260040161080691906147b1565b50600083858161417357fe5b0495945050505050565b6040518060a0016040528060006001600160a01b03168152602001600081526020016000815260200160008152602001600081525090565b60405180602001604052806001906020820280368337509192915050565b82805482825590600052602060002090810192821561420e579160200282015b8281111561420e5782518255916020019190600101906141f3565b5061421a9291506142a2565b5090565b82805482825590600052602060002090810192821561420e579160200282015b8281111561420e57823582559160200191906001019061423e565b6040518060a0016040528060008152602001600081526020016000815260200160008152602001600081525090565b604051806040016040528060008152602001600081525090565b5b8082111561421a57600081556001016142a3565b60008083601f8401126142c8578182fd5b50813567ffffffffffffffff8111156142df578182fd5b6020830191508360208083028501011115613acc57600080fd5b60006020828403121561430a578081fd5b81356107b7816152f6565b600060208284031215614326578081fd5b81516107b7816152f6565b6000806000806000806000806000806000806101608d8f031215614353578788fd5b61435d8d356152f6565b8c359b5061436e60208e01356152f6565b60208d01359a5060408d0135995060608d0135985060808d0135975060a08d0135965060c08d0135955060e08d013594506101008d013593506101208d0135925067ffffffffffffffff6101408e013511156143c8578081fd5b6143d98e6101408f01358f016142b7565b81935080925050509295989b509295989b509295989b565b600080600080600080600060e0888a03121561440b578283fd5b8735614416816152f6565b9960208901359950604089013598606081013598506080810135975060a0810135965060c00135945092505050565b60008060208385031215614457578182fd5b823567ffffffffffffffff81111561446d578283fd5b614479858286016142b7565b90969095509350505050565b6000806000806040858703121561449a578384fd5b843567ffffffffffffffff808211156144b1578586fd5b6144bd888389016142b7565b909650945060208701359150808211156144d5578384fd5b506144e2878288016142b7565b95989497509550505050565b6000602082840312156144ff578081fd5b815180151581146107b7578182fd5b60006020828403121561451f578081fd5b5035919050565b60008060408385031215614538578182fd5b82359150602083013561454a816152f6565b809150509250929050565b60008060408385031215614567578182fd5b50508035926020909101359150565b600060a08284031215614587578081fd5b60405160a0810181811067ffffffffffffffff821117156145a6578283fd5b60405282516145b4816152f6565b80825250602083015160208201526040830151604082015260608301516060820152608083015160808201528091505092915050565b6000602082840312156145fb578081fd5b5051919050565b60008060008060008060c0878903121561461a578384fd5b863595506020870135945060408701359350606087013560ff8116811461463f578283fd5b9598949750929560808101359460a0909101359350915050565b80518252602081015160208301526040810151604083015260608101516060830152608081015160808301525050565b6001600160a01b0391909116815260200190565b6000604082016001600160a01b038516835260206040818501528185548084526060860191508685528285209350845b818110156146e9578454835260019485019492840192016146cd565b5090979650505050505050565b6001600160a01b03929092168252602082015260400190565b6001600160a01b0392831681529116602082015260400190565b6001600160a01b03998a16815297891660208901529590971660408701526060860193909352608085019190915260a084015260c083015260e08201929092526101008101919091526101200190565b6001600160a01b039384168152919092166020820152604081019190915260600190565b901515815260200190565b90815260200190565b6000602080835283518082850152825b818110156147dd578581018301518582016040015282016147c1565b818111156147ee5783604083870101525b50601f01601f1916929092016040019392505050565b60208082526022908201527f456e756d657261626c655365743a20696e646578206f7574206f6620626f756e60408201527f6473000000000000000000000000000000000000000000000000000000000000606082015260800190565b6020808252602f908201527f416363657373436f6e74726f6c3a2073656e646572206d75737420626520616e60408201527f2061646d696e20746f206772616e740000000000000000000000000000000000606082015260800190565b60208082526014908201527f5061757361626c653a206e6f7420706175736564000000000000000000000000604082015260600190565b60208082526016908201527f4661696c656420746f20617070726f7665205553444300000000000000000000604082015260600190565b60208082526016908201527f43616e6e6f7420657863656564203520736c6963657300000000000000000000604082015260600190565b6020808252600f908201527f5265712053454e494f525f524f4c450000000000000000000000000000000000604082015260600190565b6020808252601a908201527f43616e27742073656e6420746f207a65726f2061646472657373000000000000604082015260600190565b6020808252600d908201527f4f776e657220696e76616c696400000000000000000000000000000000000000604082015260600190565b6020808252602c908201527f4d75737420686176652070617573657220726f6c6520746f20706572666f726d60408201527f207468697320616374696f6e0000000000000000000000000000000000000000606082015260800190565b6020808252601a908201527f4372656469746c696e652063616e6e6f7420626520656d707479000000000000604082015260600190565b6020808252601b908201527f536166654d6174683a206164646974696f6e206f766572666c6f770000000000604082015260600190565b6020808252601d908201527f4265796f6e64207072696e636970616c20677261636520706572696f64000000604082015260600190565b6020808252600e908201527f5472616e636865206c6f636b6564000000000000000000000000000000000000604082015260600190565b6020808252601a908201527f43757272656e7420736c696365207374696c6c20616374697665000000000000604082015260600190565b6020808252601d908201527f4a756e696f72207472616e636865206d757374206265206c6f636b6564000000604082015260600190565b60208082526013908201527f556e737570706f72746564207472616e63686500000000000000000000000000604082015260600190565b6020808252601e908201527f546f6b656e7349647320616e6420416d6f756e7473206d69736d617463680000604082015260600190565b6020808252601a908201527f426f72726f776572206d757374206e6f7420626520656d707479000000000000604082015260600190565b60208082526013908201527f506f6f6c20616c7265616479206c6f636b656400000000000000000000000000604082015260600190565b60208082526030908201527f416363657373436f6e74726f6c3a2073656e646572206d75737420626520616e60408201527f2061646d696e20746f207265766f6b6500000000000000000000000000000000606082015260800190565b60208082526011908201527f5472616e636865206973206c6f636b6564000000000000000000000000000000604082015260600190565b60208082526013908201527f4d757374206465706f736974203e207a65726f00000000000000000000000000604082015260600190565b60208082526010908201527f5061757361626c653a2070617573656400000000000000000000000000000000604082015260600190565b60208082526016908201527f5061796d656e7420706572696f6420696e76616c696400000000000000000000604082015260600190565b60208082526012908201527f4372656469746c696e65206973206c6174650000000000000000000000000000604082015260600190565b6020808252818101527f4f776e65722063616e6e6f7420626520746865207a65726f2061646472657373604082015260600190565b60208082526015908201527f41646472657373206e6f7420676f2d6c69737465640000000000000000000000604082015260600190565b60208082526015908201527f4d7573742068617665206c6f636b657220726f6c650000000000000000000000604082015260600190565b60208082526021908201527f536166654d6174683a206d756c7469706c69636174696f6e206f766572666c6f60408201527f7700000000000000000000000000000000000000000000000000000000000000606082015260800190565b6020808252602e908201527f436f6e747261637420696e7374616e63652068617320616c726561647920626560408201527f656e20696e697469616c697a6564000000000000000000000000000000000000606082015260800190565b60208082526017908201527f4c6f636b2063616e6e6f7420626520657874656e646564000000000000000000604082015260600190565b60208082526015908201527f496e76616c69642072656465656d20616d6f756e740000000000000000000000604082015260600190565b60208082526014908201527f4e6f74206f70656e20666f722066756e64696e67000000000000000000000000604082015260600190565b6020808252601c908201527f4d757374207769746864726177206d6f7265207468616e207a65726f00000000604082015260600190565b6020808252600f908201527f4e6f7420746f6b656e206f776e65720000000000000000000000000000000000604082015260600190565b60208082526016908201527f5465726d206d757374206e6f7420626520656d70747900000000000000000000604082015260600190565b60208082526017908201527f4d75737420706179206d6f7265207468616e207a65726f000000000000000000604082015260600190565b60208082526017908201527f436f6e6669672f626f72726f77657220696e76616c6964000000000000000000604082015260600190565b60208082526015908201527f4d757374206e6f7420686176652062616c616e63650000000000000000000000604082015260600190565b6020808252601f908201527f5265656e7472616e637947756172643a207265656e7472616e742063616c6c00604082015260600190565b6020808252602b908201527f4d75737420686176652061646d696e20726f6c6520746f20706572666f726d2060408201527f7468697320616374696f6e000000000000000000000000000000000000000000606082015260800190565b6020808252601d908201527f4a756e696f72207472616e63686520616c7265616479206c6f636b6564000000604082015260600190565b6020808252602f908201527f416363657373436f6e74726f6c3a2063616e206f6e6c792072656e6f756e636560408201527f20726f6c657320666f722073656c660000000000000000000000000000000000606082015260800190565b82518152602092830151928101929092526001600160a01b0316604082015260600190565b60a081016107ba8284614659565b61018081016152b18287614659565b6152be60a0830186614659565b610140820193909352610160015292915050565b918252602082015260400190565b9283526020830191909152604082015260600190565b6001600160a01b0381168114610e9957600080fdfea264697066735822122086d4e80a2b30808ef5284113588a5bec3a5ef8ca615458e9a5ba7c06c3026f7b64736f6c634300060c0033",
			"opcodes": "PUSH1 0x80 PUSH1 0x40 MSTORE CALLVALUE DUP1 ISZERO PUSH2 0x10 JUMPI PUSH1 0x0 DUP1 REVERT JUMPDEST POP PUSH2 0x5341 DUP1 PUSH2 0x20 PUSH1 0x0 CODECOPY PUSH1 0x0 RETURN INVALID PUSH1 0x80 PUSH1 0x40 MSTORE CALLVALUE DUP1 ISZERO PUSH2 0x10 JUMPI PUSH1 0x0 DUP1 REVERT JUMPDEST POP PUSH1 0x4 CALLDATASIZE LT PUSH2 0x399 JUMPI PUSH1 0x0 CALLDATALOAD PUSH1 0xE0 SHR DUP1 PUSH4 0x80B65431 GT PUSH2 0x1E9 JUMPI DUP1 PUSH4 0xBF8BCEE4 GT PUSH2 0x10F JUMPI DUP1 PUSH4 0xD547741F GT PUSH2 0xAD JUMPI DUP1 PUSH4 0xE2BBB158 GT PUSH2 0x7C JUMPI DUP1 PUSH4 0xE2BBB158 EQ PUSH2 0x6E7 JUMPI DUP1 PUSH4 0xE58378BB EQ PUSH2 0x6FA JUMPI DUP1 PUSH4 0xE63AB1E9 EQ PUSH2 0x702 JUMPI DUP1 PUSH4 0xF3621367 EQ PUSH2 0x70A JUMPI PUSH2 0x399 JUMP JUMPDEST DUP1 PUSH4 0xD547741F EQ PUSH2 0x699 JUMPI DUP1 PUSH4 0xD972E8AD EQ PUSH2 0x6AC JUMPI DUP1 PUSH4 0xDD0EC241 EQ PUSH2 0x6CC JUMPI DUP1 PUSH4 0xE2A657F9 EQ PUSH2 0x6D4 JUMPI PUSH2 0x399 JUMP JUMPDEST DUP1 PUSH4 0xC77D5698 GT PUSH2 0xE9 JUMPI DUP1 PUSH4 0xC77D5698 EQ PUSH2 0x663 JUMPI DUP1 PUSH4 0xCA15C873 EQ PUSH2 0x66B JUMPI DUP1 PUSH4 0xCDE88845 EQ PUSH2 0x67E JUMPI DUP1 PUSH4 0xCF09E0D0 EQ PUSH2 0x691 JUMPI PUSH2 0x399 JUMP JUMPDEST DUP1 PUSH4 0xBF8BCEE4 EQ PUSH2 0x635 JUMPI DUP1 PUSH4 0xBFAA8CCA EQ PUSH2 0x648 JUMPI DUP1 PUSH4 0xC290D691 EQ PUSH2 0x650 JUMPI PUSH2 0x399 JUMP JUMPDEST DUP1 PUSH4 0xA6A25E88 GT PUSH2 0x187 JUMPI DUP1 PUSH4 0xAE6C857A GT PUSH2 0x156 JUMPI DUP1 PUSH4 0xAE6C857A EQ PUSH2 0x5FF JUMPI DUP1 PUSH4 0xB6DB75A0 EQ PUSH2 0x612 JUMPI DUP1 PUSH4 0xB9317D86 EQ PUSH2 0x61A JUMPI DUP1 PUSH4 0xBF6C87C7 EQ PUSH2 0x62D JUMPI PUSH2 0x399 JUMP JUMPDEST DUP1 PUSH4 0xA6A25E88 EQ PUSH2 0x5C9 JUMPI DUP1 PUSH4 0xA8DEAC0E EQ PUSH2 0x5D1 JUMPI DUP1 PUSH4 0xA8F9C4FE EQ PUSH2 0x5E4 JUMPI DUP1 PUSH4 0xAA2A7C4C EQ PUSH2 0x5EC JUMPI PUSH2 0x399 JUMP JUMPDEST DUP1 PUSH4 0x91D14854 GT PUSH2 0x1C3 JUMPI DUP1 PUSH4 0x91D14854 EQ PUSH2 0x588 JUMPI DUP1 PUSH4 0x9D110530 EQ PUSH2 0x59B JUMPI DUP1 PUSH4 0xA079A4DD EQ PUSH2 0x5AE JUMPI DUP1 PUSH4 0xA217FDDF EQ PUSH2 0x5C1 JUMPI PUSH2 0x399 JUMP JUMPDEST DUP1 PUSH4 0x80B65431 EQ PUSH2 0x54A JUMPI DUP1 PUSH4 0x8456CB59 EQ PUSH2 0x56D JUMPI DUP1 PUSH4 0x9010D07C EQ PUSH2 0x575 JUMPI PUSH2 0x399 JUMP JUMPDEST DUP1 PUSH4 0x441A3E70 GT PUSH2 0x2CE JUMPI DUP1 PUSH4 0x56CE1560 GT PUSH2 0x26C JUMPI DUP1 PUSH4 0x74F0314F GT PUSH2 0x23B JUMPI DUP1 PUSH4 0x74F0314F EQ PUSH2 0x51F JUMPI DUP1 PUSH4 0x78BCD604 EQ PUSH2 0x527 JUMPI DUP1 PUSH4 0x79502C55 EQ PUSH2 0x53A JUMPI DUP1 PUSH4 0x7976323D EQ PUSH2 0x542 JUMPI PUSH2 0x399 JUMP JUMPDEST DUP1 PUSH4 0x56CE1560 EQ PUSH2 0x4F4 JUMPI DUP1 PUSH4 0x5C975ABB EQ PUSH2 0x507 JUMPI DUP1 PUSH4 0x5EB185A2 EQ PUSH2 0x50F JUMPI DUP1 PUSH4 0x68DCFDC0 EQ PUSH2 0x517 JUMPI PUSH2 0x399 JUMP JUMPDEST DUP1 PUSH4 0x4D02FE6F GT PUSH2 0x2A8 JUMPI DUP1 PUSH4 0x4D02FE6F EQ PUSH2 0x4BE JUMPI DUP1 PUSH4 0x4F92A728 EQ PUSH2 0x4D1 JUMPI DUP1 PUSH4 0x515BC323 EQ PUSH2 0x4D9 JUMPI DUP1 PUSH4 0x526D81F6 EQ PUSH2 0x4EC JUMPI PUSH2 0x399 JUMP JUMPDEST DUP1 PUSH4 0x441A3E70 EQ PUSH2 0x480 JUMPI DUP1 PUSH4 0x44C08F23 EQ PUSH2 0x4A1 JUMPI DUP1 PUSH4 0x47195E13 EQ PUSH2 0x4A9 JUMPI PUSH2 0x399 JUMP JUMPDEST DUP1 PUSH4 0x27EA6F2B GT PUSH2 0x33B JUMPI DUP1 PUSH4 0x3403C2FC GT PUSH2 0x315 JUMPI DUP1 PUSH4 0x3403C2FC EQ PUSH2 0x455 JUMPI DUP1 PUSH4 0x36568ABE EQ PUSH2 0x45D JUMPI DUP1 PUSH4 0x3F4BA83A EQ PUSH2 0x470 JUMPI DUP1 PUSH4 0x4026478E EQ PUSH2 0x478 JUMPI PUSH2 0x399 JUMP JUMPDEST DUP1 PUSH4 0x27EA6F2B EQ PUSH2 0x427 JUMPI DUP1 PUSH4 0x2AE754BE EQ PUSH2 0x43A JUMPI DUP1 PUSH4 0x2F2FF15D EQ PUSH2 0x442 JUMPI PUSH2 0x399 JUMP JUMPDEST DUP1 PUSH4 0xCFB14B0 GT PUSH2 0x377 JUMPI DUP1 PUSH4 0xCFB14B0 EQ PUSH2 0x3E4 JUMPI DUP1 PUSH4 0x17F76941 EQ PUSH2 0x3EC JUMPI DUP1 PUSH4 0x1FE032BE EQ PUSH2 0x401 JUMPI DUP1 PUSH4 0x248A9CA3 EQ PUSH2 0x414 JUMPI PUSH2 0x399 JUMP JUMPDEST DUP1 PUSH4 0x174B449 EQ PUSH2 0x39E JUMPI DUP1 PUSH4 0x881806C EQ PUSH2 0x3C7 JUMPI DUP1 PUSH4 0x97616A3 EQ PUSH2 0x3D1 JUMPI JUMPDEST PUSH1 0x0 DUP1 REVERT JUMPDEST PUSH2 0x3B1 PUSH2 0x3AC CALLDATASIZE PUSH1 0x4 PUSH2 0x4555 JUMP JUMPDEST PUSH2 0x712 JUMP JUMPDEST PUSH1 0x40 MLOAD PUSH2 0x3BE SWAP2 SWAP1 PUSH2 0x47A8 JUMP JUMPDEST PUSH1 0x40 MLOAD DUP1 SWAP2 SUB SWAP1 RETURN JUMPDEST PUSH2 0x3CF PUSH2 0x7C0 JUMP JUMPDEST STOP JUMPDEST PUSH2 0x3CF PUSH2 0x3DF CALLDATASIZE PUSH1 0x4 PUSH2 0x42F9 JUMP JUMPDEST PUSH2 0x84C JUMP JUMPDEST PUSH2 0x3B1 PUSH2 0x9D6 JUMP JUMPDEST PUSH2 0x3F4 PUSH2 0x9DD JUMP JUMPDEST PUSH1 0x40 MLOAD PUSH2 0x3BE SWAP2 SWAP1 PUSH2 0x479D JUMP JUMPDEST PUSH2 0x3CF PUSH2 0x40F CALLDATASIZE PUSH1 0x4 PUSH2 0x43F1 JUMP JUMPDEST PUSH2 0x9E7 JUMP JUMPDEST PUSH2 0x3B1 PUSH2 0x422 CALLDATASIZE PUSH1 0x4 PUSH2 0x450E JUMP JUMPDEST PUSH2 0xDE3 JUMP JUMPDEST PUSH2 0x3CF PUSH2 0x435 CALLDATASIZE PUSH1 0x4 PUSH2 0x450E JUMP JUMPDEST PUSH2 0xDF8 JUMP JUMPDEST PUSH2 0x3B1 PUSH2 0xE9C JUMP JUMPDEST PUSH2 0x3CF PUSH2 0x450 CALLDATASIZE PUSH1 0x4 PUSH2 0x4526 JUMP JUMPDEST PUSH2 0xEC0 JUMP JUMPDEST PUSH2 0x3CF PUSH2 0xF04 JUMP JUMPDEST PUSH2 0x3CF PUSH2 0x46B CALLDATASIZE PUSH1 0x4 PUSH2 0x4526 JUMP JUMPDEST PUSH2 0x10F4 JUMP JUMPDEST PUSH2 0x3CF PUSH2 0x1136 JUMP JUMPDEST PUSH2 0x3CF PUSH2 0x1186 JUMP JUMPDEST PUSH2 0x493 PUSH2 0x48E CALLDATASIZE PUSH1 0x4 PUSH2 0x4555 JUMP JUMPDEST PUSH2 0x11F7 JUMP JUMPDEST PUSH1 0x40 MLOAD PUSH2 0x3BE SWAP3 SWAP2 SWAP1 PUSH2 0x52D2 JUMP JUMPDEST PUSH2 0x3B1 PUSH2 0x131F JUMP JUMPDEST PUSH2 0x4B1 PUSH2 0x1324 JUMP JUMPDEST PUSH1 0x40 MLOAD PUSH2 0x3BE SWAP2 SWAP1 PUSH2 0x4689 JUMP JUMPDEST PUSH2 0x493 PUSH2 0x4CC CALLDATASIZE PUSH1 0x4 PUSH2 0x450E JUMP JUMPDEST PUSH2 0x1334 JUMP JUMPDEST PUSH2 0x3CF PUSH2 0x13A8 JUMP JUMPDEST PUSH2 0x3B1 PUSH2 0x4E7 CALLDATASIZE PUSH1 0x4 PUSH2 0x4602 JUMP JUMPDEST PUSH2 0x14C4 JUMP JUMPDEST PUSH2 0x3CF PUSH2 0x14DB JUMP JUMPDEST PUSH2 0x3CF PUSH2 0x502 CALLDATASIZE PUSH1 0x4 PUSH2 0x42F9 JUMP JUMPDEST PUSH2 0x1565 JUMP JUMPDEST PUSH2 0x3F4 PUSH2 0x17C0 JUMP JUMPDEST PUSH2 0x3B1 PUSH2 0x17C9 JUMP JUMPDEST PUSH2 0x3B1 PUSH2 0x17D0 JUMP JUMPDEST PUSH2 0x3B1 PUSH2 0x17DC JUMP JUMPDEST PUSH2 0x3CF PUSH2 0x535 CALLDATASIZE PUSH1 0x4 PUSH2 0x450E JUMP JUMPDEST PUSH2 0x17E3 JUMP JUMPDEST PUSH2 0x4B1 PUSH2 0x1A0B JUMP JUMPDEST PUSH2 0x3B1 PUSH2 0x1A1B JUMP JUMPDEST PUSH2 0x55D PUSH2 0x558 CALLDATASIZE PUSH1 0x4 PUSH2 0x450E JUMP JUMPDEST PUSH2 0x1A22 JUMP JUMPDEST PUSH1 0x40 MLOAD PUSH2 0x3BE SWAP5 SWAP4 SWAP3 SWAP2 SWAP1 PUSH2 0x52A2 JUMP JUMPDEST PUSH2 0x3CF PUSH2 0x1AD8 JUMP JUMPDEST PUSH2 0x4B1 PUSH2 0x583 CALLDATASIZE PUSH1 0x4 PUSH2 0x4555 JUMP JUMPDEST PUSH2 0x1B28 JUMP JUMPDEST PUSH2 0x3F4 PUSH2 0x596 CALLDATASIZE PUSH1 0x4 PUSH2 0x4526 JUMP JUMPDEST PUSH2 0x1B40 JUMP JUMPDEST PUSH2 0x3CF PUSH2 0x5A9 CALLDATASIZE PUSH1 0x4 PUSH2 0x4485 JUMP JUMPDEST PUSH2 0x1B58 JUMP JUMPDEST PUSH2 0x3CF PUSH2 0x5BC CALLDATASIZE PUSH1 0x4 PUSH2 0x450E JUMP JUMPDEST PUSH2 0x1BBA JUMP JUMPDEST PUSH2 0x3B1 PUSH2 0x1C23 JUMP JUMPDEST PUSH2 0x3CF PUSH2 0x1C28 JUMP JUMPDEST PUSH2 0x3CF PUSH2 0x5DF CALLDATASIZE PUSH1 0x4 PUSH2 0x4331 JUMP JUMPDEST PUSH2 0x1C53 JUMP JUMPDEST PUSH2 0x3CF PUSH2 0x2070 JUMP JUMPDEST PUSH2 0x493 PUSH2 0x5FA CALLDATASIZE PUSH1 0x4 PUSH2 0x450E JUMP JUMPDEST PUSH2 0x20CF JUMP JUMPDEST PUSH2 0x3CF PUSH2 0x60D CALLDATASIZE PUSH1 0x4 PUSH2 0x450E JUMP JUMPDEST PUSH2 0x2218 JUMP JUMPDEST PUSH2 0x3F4 PUSH2 0x2264 JUMP JUMPDEST PUSH2 0x3CF PUSH2 0x628 CALLDATASIZE PUSH1 0x4 PUSH2 0x4445 JUMP JUMPDEST PUSH2 0x2297 JUMP JUMPDEST PUSH2 0x3CF PUSH2 0x2361 JUMP JUMPDEST PUSH2 0x3CF PUSH2 0x643 CALLDATASIZE PUSH1 0x4 PUSH2 0x450E JUMP JUMPDEST PUSH2 0x23BD JUMP JUMPDEST PUSH2 0x3B1 PUSH2 0x242B JUMP JUMPDEST PUSH2 0x3CF PUSH2 0x65E CALLDATASIZE PUSH1 0x4 PUSH2 0x450E JUMP JUMPDEST PUSH2 0x2430 JUMP JUMPDEST PUSH2 0x3B1 PUSH2 0x2484 JUMP JUMPDEST PUSH2 0x3B1 PUSH2 0x679 CALLDATASIZE PUSH1 0x4 PUSH2 0x450E JUMP JUMPDEST PUSH2 0x248B JUMP JUMPDEST PUSH2 0x3B1 PUSH2 0x68C CALLDATASIZE PUSH1 0x4 PUSH2 0x4555 JUMP JUMPDEST PUSH2 0x24A2 JUMP JUMPDEST PUSH2 0x3B1 PUSH2 0x24F7 JUMP JUMPDEST PUSH2 0x3CF PUSH2 0x6A7 CALLDATASIZE PUSH1 0x4 PUSH2 0x4526 JUMP JUMPDEST PUSH2 0x24FE JUMP JUMPDEST PUSH2 0x6BF PUSH2 0x6BA CALLDATASIZE PUSH1 0x4 PUSH2 0x450E JUMP JUMPDEST PUSH2 0x2538 JUMP JUMPDEST PUSH1 0x40 MLOAD PUSH2 0x3BE SWAP2 SWAP1 PUSH2 0x5294 JUMP JUMPDEST PUSH2 0x3B1 PUSH2 0x2588 JUMP JUMPDEST PUSH2 0x3B1 PUSH2 0x6E2 CALLDATASIZE PUSH1 0x4 PUSH2 0x450E JUMP JUMPDEST PUSH2 0x25D5 JUMP JUMPDEST PUSH2 0x3B1 PUSH2 0x6F5 CALLDATASIZE PUSH1 0x4 PUSH2 0x4555 JUMP JUMPDEST PUSH2 0x25F4 JUMP JUMPDEST PUSH2 0x3B1 PUSH2 0x2905 JUMP JUMPDEST PUSH2 0x3B1 PUSH2 0x2929 JUMP JUMPDEST PUSH2 0x3B1 PUSH2 0x294D JUMP JUMPDEST PUSH1 0x40 MLOAD PUSH32 0x174B44900000000000000000000000000000000000000000000000000000000 DUP2 MSTORE PUSH1 0x0 SWAP1 PUSH20 0x0 SWAP1 PUSH4 0x174B449 SWAP1 PUSH2 0x767 SWAP1 DUP7 SWAP1 DUP7 SWAP1 PUSH1 0x4 ADD PUSH2 0x52D2 JUMP JUMPDEST PUSH1 0x20 PUSH1 0x40 MLOAD DUP1 DUP4 SUB DUP2 DUP7 DUP1 EXTCODESIZE ISZERO DUP1 ISZERO PUSH2 0x77F JUMPI PUSH1 0x0 DUP1 REVERT JUMPDEST POP GAS DELEGATECALL ISZERO DUP1 ISZERO PUSH2 0x793 JUMPI RETURNDATASIZE PUSH1 0x0 DUP1 RETURNDATACOPY RETURNDATASIZE PUSH1 0x0 REVERT JUMPDEST POP POP POP POP PUSH1 0x40 MLOAD RETURNDATASIZE PUSH1 0x1F NOT PUSH1 0x1F DUP3 ADD AND DUP3 ADD DUP1 PUSH1 0x40 MSTORE POP DUP2 ADD SWAP1 PUSH2 0x7B7 SWAP2 SWAP1 PUSH2 0x45EA JUMP JUMPDEST SWAP1 POP JUMPDEST SWAP3 SWAP2 POP POP JUMP JUMPDEST PUSH2 0x7EA PUSH32 0xAF9A8BB3CBD6B84FBCCEFA71FF73E26E798553C6914585A84886212A46A90279 CALLER PUSH2 0x1B40 JUMP JUMPDEST PUSH2 0x80F JUMPI PUSH1 0x40 MLOAD PUSH3 0x461BCD PUSH1 0xE5 SHL DUP2 MSTORE PUSH1 0x4 ADD PUSH2 0x806 SWAP1 PUSH2 0x4E67 JUMP JUMPDEST PUSH1 0x40 MLOAD DUP1 SWAP2 SUB SWAP1 REVERT JUMPDEST PUSH1 0x97 SLOAD PUSH1 0xFF AND ISZERO PUSH2 0x832 JUMPI PUSH1 0x40 MLOAD PUSH3 0x461BCD PUSH1 0xE5 SHL DUP2 MSTORE PUSH1 0x4 ADD PUSH2 0x806 SWAP1 PUSH2 0x4D56 JUMP JUMPDEST PUSH2 0x1CB SLOAD PUSH2 0x84A SWAP1 PUSH2 0x845 SWAP1 PUSH1 0x1 PUSH2 0x2971 JUMP JUMPDEST PUSH2 0x29B3 JUMP JUMPDEST JUMP JUMPDEST PUSH1 0x0 SLOAD PUSH2 0x100 SWAP1 DIV PUSH1 0xFF AND DUP1 PUSH2 0x865 JUMPI POP PUSH2 0x865 PUSH2 0x2ACD JUMP JUMPDEST DUP1 PUSH2 0x873 JUMPI POP PUSH1 0x0 SLOAD PUSH1 0xFF AND ISZERO JUMPDEST PUSH2 0x88F JUMPI PUSH1 0x40 MLOAD PUSH3 0x461BCD PUSH1 0xE5 SHL DUP2 MSTORE PUSH1 0x4 ADD PUSH2 0x806 SWAP1 PUSH2 0x4EFB JUMP JUMPDEST PUSH1 0x0 SLOAD PUSH2 0x100 SWAP1 DIV PUSH1 0xFF AND ISZERO DUP1 ISZERO PUSH2 0x8BA JUMPI PUSH1 0x0 DUP1 SLOAD PUSH1 0xFF NOT PUSH2 0xFF00 NOT SWAP1 SWAP2 AND PUSH2 0x100 OR AND PUSH1 0x1 OR SWAP1 SSTORE JUMPDEST PUSH1 0x1 PUSH1 0x1 PUSH1 0xA0 SHL SUB DUP3 AND PUSH2 0x8E0 JUMPI PUSH1 0x40 MLOAD PUSH3 0x461BCD PUSH1 0xE5 SHL DUP2 MSTORE PUSH1 0x4 ADD PUSH2 0x806 SWAP1 PUSH2 0x4DFB JUMP JUMPDEST PUSH2 0x8E8 PUSH2 0x2AD3 JUMP JUMPDEST PUSH2 0x8F0 PUSH2 0x2B54 JUMP JUMPDEST PUSH2 0x8F8 PUSH2 0x2BE0 JUMP JUMPDEST PUSH2 0x922 PUSH32 0xB19546DFF01E856FB3F010C267A7B1C60363CF8A4664E21CC89C26224620214E DUP4 PUSH2 0xEFA JUMP JUMPDEST PUSH2 0x94C PUSH32 0x65D7A28E3265B37A6474929F336521B332C1681B933F6CB9F3376673440D862A DUP4 PUSH2 0xEFA JUMP JUMPDEST PUSH2 0x996 PUSH32 0x65D7A28E3265B37A6474929F336521B332C1681B933F6CB9F3376673440D862A PUSH32 0xB19546DFF01E856FB3F010C267A7B1C60363CF8A4664E21CC89C26224620214E PUSH2 0x2C6F JUMP JUMPDEST PUSH2 0x9C0 PUSH32 0xB19546DFF01E856FB3F010C267A7B1C60363CF8A4664E21CC89C26224620214E DUP1 PUSH2 0x2C6F JUMP JUMPDEST DUP1 ISZERO PUSH2 0x9D2 JUMPI PUSH1 0x0 DUP1 SLOAD PUSH2 0xFF00 NOT AND SWAP1 SSTORE JUMPDEST POP POP JUMP JUMPDEST PUSH2 0x1C9 SLOAD DUP2 JUMP JUMPDEST PUSH2 0x1C7 SLOAD PUSH1 0xFF AND DUP2 JUMP JUMPDEST PUSH2 0x9EF PUSH2 0x2264 JUMP JUMPDEST PUSH2 0xA0B JUMPI PUSH1 0x40 MLOAD PUSH3 0x461BCD PUSH1 0xE5 SHL DUP2 MSTORE PUSH1 0x4 ADD PUSH2 0x806 SWAP1 PUSH2 0x517E JUMP JUMPDEST PUSH1 0x1 PUSH1 0x1 PUSH1 0xA0 SHL SUB DUP8 AND PUSH2 0xA31 JUMPI PUSH1 0x40 MLOAD PUSH3 0x461BCD PUSH1 0xE5 SHL DUP2 MSTORE PUSH1 0x4 ADD PUSH2 0x806 SWAP1 PUSH2 0x4C1D JUMP JUMPDEST DUP4 PUSH2 0xA4E JUMPI PUSH1 0x40 MLOAD PUSH3 0x461BCD PUSH1 0xE5 SHL DUP2 MSTORE PUSH1 0x4 ADD PUSH2 0x806 SWAP1 PUSH2 0x4D8D JUMP JUMPDEST DUP3 PUSH2 0xA6B JUMPI PUSH1 0x40 MLOAD PUSH3 0x461BCD PUSH1 0xE5 SHL DUP2 MSTORE PUSH1 0x4 ADD PUSH2 0x806 SWAP1 PUSH2 0x506B JUMP JUMPDEST PUSH2 0x1C3 SLOAD PUSH1 0x1 PUSH1 0x1 PUSH1 0xA0 SHL SUB AND PUSH2 0xA87 DUP9 DUP9 DUP9 DUP9 DUP9 DUP9 DUP9 PUSH2 0x2C84 JUMP JUMPDEST PUSH2 0x1C3 SLOAD PUSH1 0x40 MLOAD PUSH32 0xFF0825BC00000000000000000000000000000000000000000000000000000000 DUP2 MSTORE PUSH1 0x1 PUSH1 0x1 PUSH1 0xA0 SHL SUB SWAP1 SWAP2 AND SWAP1 PUSH20 0x0 SWAP1 PUSH4 0xFF0825BC SWAP1 PUSH2 0xAE9 SWAP1 DUP6 SWAP1 DUP6 SWAP1 PUSH1 0x4 ADD PUSH2 0x470F JUMP JUMPDEST PUSH1 0x0 PUSH1 0x40 MLOAD DUP1 DUP4 SUB DUP2 DUP7 DUP1 EXTCODESIZE ISZERO DUP1 ISZERO PUSH2 0xB01 JUMPI PUSH1 0x0 DUP1 REVERT JUMPDEST POP GAS DELEGATECALL ISZERO DUP1 ISZERO PUSH2 0xB15 JUMPI RETURNDATASIZE PUSH1 0x0 DUP1 RETURNDATACOPY RETURNDATASIZE PUSH1 0x0 REVERT JUMPDEST POP POP PUSH1 0x40 MLOAD PUSH4 0x2A7E685 PUSH1 0xE2 SHL DUP2 MSTORE PUSH20 0x0 SWAP3 POP PUSH4 0xA9F9A14 SWAP2 POP PUSH2 0xB50 SWAP1 DUP6 SWAP1 PUSH1 0x4 ADD PUSH2 0x4689 JUMP JUMPDEST PUSH1 0x0 PUSH1 0x40 MLOAD DUP1 DUP4 SUB DUP2 DUP7 DUP1 EXTCODESIZE ISZERO DUP1 ISZERO PUSH2 0xB68 JUMPI PUSH1 0x0 DUP1 REVERT JUMPDEST POP GAS DELEGATECALL ISZERO DUP1 ISZERO PUSH2 0xB7C JUMPI RETURNDATASIZE PUSH1 0x0 DUP1 RETURNDATACOPY RETURNDATASIZE PUSH1 0x0 REVERT JUMPDEST POP POP POP POP PUSH1 0x0 DUP3 PUSH1 0x1 PUSH1 0x1 PUSH1 0xA0 SHL SUB AND PUSH4 0x7DF1F1B9 PUSH1 0x40 MLOAD DUP2 PUSH4 0xFFFFFFFF AND PUSH1 0xE0 SHL DUP2 MSTORE PUSH1 0x4 ADD PUSH1 0x20 PUSH1 0x40 MLOAD DUP1 DUP4 SUB DUP2 DUP7 DUP1 EXTCODESIZE ISZERO DUP1 ISZERO PUSH2 0xBBB JUMPI PUSH1 0x0 DUP1 REVERT JUMPDEST POP GAS STATICCALL ISZERO DUP1 ISZERO PUSH2 0xBCF JUMPI RETURNDATASIZE PUSH1 0x0 DUP1 RETURNDATACOPY RETURNDATASIZE PUSH1 0x0 REVERT JUMPDEST POP POP POP POP PUSH1 0x40 MLOAD RETURNDATASIZE PUSH1 0x1F NOT PUSH1 0x1F DUP3 ADD AND DUP3 ADD DUP1 PUSH1 0x40 MSTORE POP DUP2 ADD SWAP1 PUSH2 0xBF3 SWAP2 SWAP1 PUSH2 0x4315 JUMP JUMPDEST SWAP1 POP PUSH1 0x0 DUP3 PUSH1 0x1 PUSH1 0x1 PUSH1 0xA0 SHL SUB AND PUSH4 0x7DF1F1B9 PUSH1 0x40 MLOAD DUP2 PUSH4 0xFFFFFFFF AND PUSH1 0xE0 SHL DUP2 MSTORE PUSH1 0x4 ADD PUSH1 0x20 PUSH1 0x40 MLOAD DUP1 DUP4 SUB DUP2 DUP7 DUP1 EXTCODESIZE ISZERO DUP1 ISZERO PUSH2 0xC30 JUMPI PUSH1 0x0 DUP1 REVERT JUMPDEST POP GAS STATICCALL ISZERO DUP1 ISZERO PUSH2 0xC44 JUMPI RETURNDATASIZE PUSH1 0x0 DUP1 RETURNDATACOPY RETURNDATASIZE PUSH1 0x0 REVERT JUMPDEST POP POP POP POP PUSH1 0x40 MLOAD RETURNDATASIZE PUSH1 0x1F NOT PUSH1 0x1F DUP3 ADD AND DUP3 ADD DUP1 PUSH1 0x40 MSTORE POP DUP2 ADD SWAP1 PUSH2 0xC68 SWAP2 SWAP1 PUSH2 0x4315 JUMP JUMPDEST SWAP1 POP DUP1 PUSH1 0x1 PUSH1 0x1 PUSH1 0xA0 SHL SUB AND DUP3 PUSH1 0x1 PUSH1 0x1 PUSH1 0xA0 SHL SUB AND EQ PUSH2 0xCD7 JUMPI PUSH2 0xCAD PUSH32 0xAF9A8BB3CBD6B84FBCCEFA71FF73E26E798553C6914585A84886212A46A90279 DUP4 PUSH2 0x24FE JUMP JUMPDEST PUSH2 0xCD7 PUSH32 0xAF9A8BB3CBD6B84FBCCEFA71FF73E26E798553C6914585A84886212A46A90279 DUP3 PUSH2 0xEC0 JUMP JUMPDEST PUSH2 0x1C5 SLOAD PUSH1 0x0 SWAP1 PUSH2 0xCF0 SWAP1 PUSH1 0x1 PUSH1 0x1 PUSH1 0xA0 SHL SUB AND PUSH2 0x2DCF JUMP JUMPDEST PUSH1 0x1 PUSH1 0x1 PUSH1 0xA0 SHL SUB AND PUSH4 0x70A08231 DUP7 PUSH1 0x40 MLOAD DUP3 PUSH4 0xFFFFFFFF AND PUSH1 0xE0 SHL DUP2 MSTORE PUSH1 0x4 ADD PUSH2 0xD1B SWAP2 SWAP1 PUSH2 0x4689 JUMP JUMPDEST PUSH1 0x20 PUSH1 0x40 MLOAD DUP1 DUP4 SUB DUP2 DUP7 DUP1 EXTCODESIZE ISZERO DUP1 ISZERO PUSH2 0xD33 JUMPI PUSH1 0x0 DUP1 REVERT JUMPDEST POP GAS STATICCALL ISZERO DUP1 ISZERO PUSH2 0xD47 JUMPI RETURNDATASIZE PUSH1 0x0 DUP1 RETURNDATACOPY RETURNDATASIZE PUSH1 0x0 REVERT JUMPDEST POP POP POP POP PUSH1 0x40 MLOAD RETURNDATASIZE PUSH1 0x1F NOT PUSH1 0x1F DUP3 ADD AND DUP3 ADD DUP1 PUSH1 0x40 MSTORE POP DUP2 ADD SWAP1 PUSH2 0xD6B SWAP2 SWAP1 PUSH2 0x45EA JUMP JUMPDEST SWAP1 POP DUP1 ISZERO PUSH2 0xD95 JUMPI PUSH2 0x1C5 SLOAD PUSH2 0xD95 SWAP1 PUSH2 0xD8D SWAP1 PUSH1 0x1 PUSH1 0x1 PUSH1 0xA0 SHL SUB AND PUSH2 0x2DCF JUMP JUMPDEST DUP7 DUP7 DUP5 PUSH2 0x2DDA JUMP JUMPDEST DUP4 PUSH1 0x1 PUSH1 0x1 PUSH1 0xA0 SHL SUB AND DUP6 PUSH1 0x1 PUSH1 0x1 PUSH1 0xA0 SHL SUB AND PUSH32 0x987CDBA0CBA67C68D2C8ABA6A4BA6545565ECCFB3E2E5FF39579FFD94ACAF9BB PUSH1 0x40 MLOAD PUSH1 0x40 MLOAD DUP1 SWAP2 SUB SWAP1 LOG3 POP POP POP POP POP POP POP POP POP POP POP POP JUMP JUMPDEST PUSH1 0x0 SWAP1 DUP2 MSTORE PUSH1 0x65 PUSH1 0x20 MSTORE PUSH1 0x40 SWAP1 KECCAK256 PUSH1 0x2 ADD SLOAD SWAP1 JUMP JUMPDEST PUSH2 0xE00 PUSH2 0x2264 JUMP JUMPDEST PUSH2 0xE1C JUMPI PUSH1 0x40 MLOAD PUSH3 0x461BCD PUSH1 0xE5 SHL DUP2 MSTORE PUSH1 0x4 ADD PUSH2 0x806 SWAP1 PUSH2 0x517E JUMP JUMPDEST PUSH2 0x1C3 SLOAD PUSH1 0x40 MLOAD PUSH32 0x27EA6F2B00000000000000000000000000000000000000000000000000000000 DUP2 MSTORE PUSH1 0x1 PUSH1 0x1 PUSH1 0xA0 SHL SUB SWAP1 SWAP2 AND SWAP1 PUSH4 0x27EA6F2B SWAP1 PUSH2 0xE66 SWAP1 DUP5 SWAP1 PUSH1 0x4 ADD PUSH2 0x47A8 JUMP JUMPDEST PUSH1 0x0 PUSH1 0x40 MLOAD DUP1 DUP4 SUB DUP2 PUSH1 0x0 DUP8 DUP1 EXTCODESIZE ISZERO DUP1 ISZERO PUSH2 0xE80 JUMPI PUSH1 0x0 DUP1 REVERT JUMPDEST POP GAS CALL ISZERO DUP1 ISZERO PUSH2 0xE94 JUMPI RETURNDATASIZE PUSH1 0x0 DUP1 RETURNDATACOPY RETURNDATASIZE PUSH1 0x0 REVERT JUMPDEST POP POP POP POP JUMPDEST POP JUMP JUMPDEST PUSH32 0x956624BFBE09C0E98E645D61EBA0DE4CE88E8CCEABDB00FEAD208D19A8E1209B DUP2 JUMP JUMPDEST PUSH1 0x0 DUP3 DUP2 MSTORE PUSH1 0x65 PUSH1 0x20 MSTORE PUSH1 0x40 SWAP1 KECCAK256 PUSH1 0x2 ADD SLOAD PUSH2 0xEDE SWAP1 PUSH2 0x596 PUSH2 0x2E1B JUMP JUMPDEST PUSH2 0xEFA JUMPI PUSH1 0x40 MLOAD PUSH3 0x461BCD PUSH1 0xE5 SHL DUP2 MSTORE PUSH1 0x4 ADD PUSH2 0x806 SWAP1 PUSH2 0x4861 JUMP JUMPDEST PUSH2 0x9D2 DUP3 DUP3 PUSH2 0x2E1F JUMP JUMPDEST PUSH2 0xF0C PUSH2 0x2264 JUMP JUMPDEST PUSH2 0xF28 JUMPI PUSH1 0x40 MLOAD PUSH3 0x461BCD PUSH1 0xE5 SHL DUP2 MSTORE PUSH1 0x4 ADD PUSH2 0x806 SWAP1 PUSH2 0x517E JUMP JUMPDEST PUSH2 0xF30 PUSH2 0x17C0 JUMP JUMPDEST PUSH2 0xF3C JUMPI PUSH2 0xF3C PUSH2 0x1AD8 JUMP JUMPDEST PUSH2 0x1C5 SLOAD PUSH1 0x0 SWAP1 PUSH2 0xF55 SWAP1 PUSH1 0x1 PUSH1 0x1 PUSH1 0xA0 SHL SUB AND PUSH2 0x2DCF JUMP JUMPDEST PUSH2 0x1C5 SLOAD SWAP1 SWAP2 POP PUSH1 0x0 SWAP1 PUSH2 0xF71 SWAP1 PUSH1 0x1 PUSH1 0x1 PUSH1 0xA0 SHL SUB AND PUSH2 0x2E88 JUMP JUMPDEST SWAP1 POP PUSH1 0x0 DUP3 PUSH1 0x1 PUSH1 0x1 PUSH1 0xA0 SHL SUB AND PUSH4 0x70A08231 ADDRESS PUSH1 0x40 MLOAD DUP3 PUSH4 0xFFFFFFFF AND PUSH1 0xE0 SHL DUP2 MSTORE PUSH1 0x4 ADD PUSH2 0xFA1 SWAP2 SWAP1 PUSH2 0x4689 JUMP JUMPDEST PUSH1 0x20 PUSH1 0x40 MLOAD DUP1 DUP4 SUB DUP2 DUP7 DUP1 EXTCODESIZE ISZERO DUP1 ISZERO PUSH2 0xFB9 JUMPI PUSH1 0x0 DUP1 REVERT JUMPDEST POP GAS STATICCALL ISZERO DUP1 ISZERO PUSH2 0xFCD JUMPI RETURNDATASIZE PUSH1 0x0 DUP1 RETURNDATACOPY RETURNDATASIZE PUSH1 0x0 REVERT JUMPDEST POP POP POP POP PUSH1 0x40 MLOAD RETURNDATASIZE PUSH1 0x1F NOT PUSH1 0x1F DUP3 ADD AND DUP3 ADD DUP1 PUSH1 0x40 MSTORE POP DUP2 ADD SWAP1 PUSH2 0xFF1 SWAP2 SWAP1 PUSH2 0x45EA JUMP JUMPDEST SWAP1 POP DUP1 ISZERO PUSH2 0x1004 JUMPI PUSH2 0x1004 DUP4 DUP4 DUP4 PUSH2 0x2F08 JUMP JUMPDEST PUSH2 0x1C3 SLOAD PUSH1 0x40 MLOAD PUSH32 0x70A0823100000000000000000000000000000000000000000000000000000000 DUP2 MSTORE PUSH1 0x0 SWAP2 PUSH1 0x1 PUSH1 0x1 PUSH1 0xA0 SHL SUB DUP1 DUP8 AND SWAP3 PUSH4 0x70A08231 SWAP3 PUSH2 0x1051 SWAP3 AND SWAP1 PUSH1 0x4 ADD PUSH2 0x4689 JUMP JUMPDEST PUSH1 0x20 PUSH1 0x40 MLOAD DUP1 DUP4 SUB DUP2 DUP7 DUP1 EXTCODESIZE ISZERO DUP1 ISZERO PUSH2 0x1069 JUMPI PUSH1 0x0 DUP1 REVERT JUMPDEST POP GAS STATICCALL ISZERO DUP1 ISZERO PUSH2 0x107D JUMPI RETURNDATASIZE PUSH1 0x0 DUP1 RETURNDATACOPY RETURNDATASIZE PUSH1 0x0 REVERT JUMPDEST POP POP POP POP PUSH1 0x40 MLOAD RETURNDATASIZE PUSH1 0x1F NOT PUSH1 0x1F DUP3 ADD AND DUP3 ADD DUP1 PUSH1 0x40 MSTORE POP DUP2 ADD SWAP1 PUSH2 0x10A1 SWAP2 SWAP1 PUSH2 0x45EA JUMP JUMPDEST SWAP1 POP DUP1 ISZERO PUSH2 0x10C3 JUMPI PUSH2 0x1C3 SLOAD PUSH2 0x10C3 SWAP1 DUP6 SWAP1 PUSH1 0x1 PUSH1 0x1 PUSH1 0xA0 SHL SUB AND DUP6 DUP5 PUSH2 0x2DDA JUMP JUMPDEST PUSH1 0x40 MLOAD ADDRESS SWAP1 PUSH32 0x1FC1E771236D2E93BB9541CDCB4654BA0FD3FB615B48D829B7B365F039985126 SWAP1 PUSH1 0x0 SWAP1 LOG2 POP POP POP POP JUMP JUMPDEST PUSH2 0x10FC PUSH2 0x2E1B JUMP JUMPDEST PUSH1 0x1 PUSH1 0x1 PUSH1 0xA0 SHL SUB AND DUP2 PUSH1 0x1 PUSH1 0x1 PUSH1 0xA0 SHL SUB AND EQ PUSH2 0x112C JUMPI PUSH1 0x40 MLOAD PUSH3 0x461BCD PUSH1 0xE5 SHL DUP2 MSTORE PUSH1 0x4 ADD PUSH2 0x806 SWAP1 PUSH2 0x5212 JUMP JUMPDEST PUSH2 0x9D2 DUP3 DUP3 PUSH2 0x2F49 JUMP JUMPDEST PUSH2 0x1162 PUSH32 0x65D7A28E3265B37A6474929F336521B332C1681B933F6CB9F3376673440D862A PUSH2 0x596 PUSH2 0x2E1B JUMP JUMPDEST PUSH2 0x117E JUMPI PUSH1 0x40 MLOAD PUSH3 0x461BCD PUSH1 0xE5 SHL DUP2 MSTORE PUSH1 0x4 ADD PUSH2 0x806 SWAP1 PUSH2 0x4A08 JUMP JUMPDEST PUSH2 0x84A PUSH2 0x2FB2 JUMP JUMPDEST PUSH2 0x11B0 PUSH32 0xAF9A8BB3CBD6B84FBCCEFA71FF73E26E798553C6914585A84886212A46A90279 CALLER PUSH2 0x1B40 JUMP JUMPDEST PUSH2 0x11CC JUMPI PUSH1 0x40 MLOAD PUSH3 0x461BCD PUSH1 0xE5 SHL DUP2 MSTORE PUSH1 0x4 ADD PUSH2 0x806 SWAP1 PUSH2 0x4E67 JUMP JUMPDEST PUSH1 0x97 SLOAD PUSH1 0xFF AND ISZERO PUSH2 0x11EF JUMPI PUSH1 0x40 MLOAD PUSH3 0x461BCD PUSH1 0xE5 SHL DUP2 MSTORE PUSH1 0x4 ADD PUSH2 0x806 SWAP1 PUSH2 0x4D56 JUMP JUMPDEST PUSH2 0x84A PUSH2 0x301E JUMP JUMPDEST PUSH1 0xC9 SLOAD PUSH1 0x0 SWAP1 DUP2 SWAP1 PUSH1 0xFF AND PUSH2 0x121E JUMPI PUSH1 0x40 MLOAD PUSH3 0x461BCD PUSH1 0xE5 SHL DUP2 MSTORE PUSH1 0x4 ADD PUSH2 0x806 SWAP1 PUSH2 0x5147 JUMP JUMPDEST PUSH1 0xC9 DUP1 SLOAD PUSH1 0xFF NOT AND SWAP1 SSTORE PUSH1 0x97 SLOAD PUSH1 0xFF AND ISZERO PUSH2 0x124B JUMPI PUSH1 0x40 MLOAD PUSH3 0x461BCD PUSH1 0xE5 SHL DUP2 MSTORE PUSH1 0x4 ADD PUSH2 0x806 SWAP1 PUSH2 0x4D56 JUMP JUMPDEST PUSH2 0x1253 PUSH2 0x417D JUMP JUMPDEST PUSH2 0x1C5 SLOAD PUSH2 0x1269 SWAP1 PUSH1 0x1 PUSH1 0x1 PUSH1 0xA0 SHL SUB AND PUSH2 0x33F6 JUMP JUMPDEST PUSH1 0x1 PUSH1 0x1 PUSH1 0xA0 SHL SUB AND PUSH4 0x8C7A63AE DUP7 PUSH1 0x40 MLOAD DUP3 PUSH4 0xFFFFFFFF AND PUSH1 0xE0 SHL DUP2 MSTORE PUSH1 0x4 ADD PUSH2 0x1294 SWAP2 SWAP1 PUSH2 0x47A8 JUMP JUMPDEST PUSH1 0xA0 PUSH1 0x40 MLOAD DUP1 DUP4 SUB DUP2 DUP7 DUP1 EXTCODESIZE ISZERO DUP1 ISZERO PUSH2 0x12AC JUMPI PUSH1 0x0 DUP1 REVERT JUMPDEST POP GAS STATICCALL ISZERO DUP1 ISZERO PUSH2 0x12C0 JUMPI RETURNDATASIZE PUSH1 0x0 DUP1 RETURNDATACOPY RETURNDATASIZE PUSH1 0x0 REVERT JUMPDEST POP POP POP POP PUSH1 0x40 MLOAD RETURNDATASIZE PUSH1 0x1F NOT PUSH1 0x1F DUP3 ADD AND DUP3 ADD DUP1 PUSH1 0x40 MSTORE POP DUP2 ADD SWAP1 PUSH2 0x12E4 SWAP2 SWAP1 PUSH2 0x4576 JUMP JUMPDEST SWAP1 POP PUSH1 0x0 PUSH2 0x12F5 DUP3 PUSH1 0x20 ADD MLOAD PUSH2 0x3401 JUMP JUMPDEST SWAP1 POP PUSH2 0x1303 DUP2 DUP4 DUP9 DUP9 PUSH2 0x34B1 JUMP JUMPDEST SWAP4 POP SWAP4 POP POP POP PUSH1 0xC9 DUP1 SLOAD PUSH1 0xFF NOT AND PUSH1 0x1 OR SWAP1 SSTORE SWAP1 SWAP4 SWAP1 SWAP3 POP SWAP1 POP JUMP JUMPDEST PUSH1 0x2 DUP2 JUMP JUMPDEST PUSH2 0x1C3 SLOAD PUSH1 0x1 PUSH1 0x1 PUSH1 0xA0 SHL SUB AND DUP2 JUMP JUMPDEST PUSH1 0x0 DUP1 DUP3 PUSH2 0x1347 JUMPI POP PUSH1 0x0 SWAP1 POP DUP1 PUSH2 0x13A3 JUMP JUMPDEST DUP3 PUSH1 0x1 EQ ISZERO PUSH2 0x135C JUMPI POP PUSH2 0x3E8 SWAP1 POP DUP1 PUSH2 0x13A3 JUMP JUMPDEST DUP3 PUSH1 0x2 EQ ISZERO PUSH2 0x1371 JUMPI POP PUSH2 0x7D0 SWAP1 POP DUP1 PUSH2 0x13A3 JUMP JUMPDEST DUP3 PUSH1 0x3 EQ ISZERO PUSH2 0x1386 JUMPI POP PUSH2 0xBB8 SWAP1 POP DUP1 PUSH2 0x13A3 JUMP JUMPDEST DUP3 PUSH1 0x4 EQ ISZERO PUSH2 0x139B JUMPI POP PUSH2 0xFA0 SWAP1 POP DUP1 PUSH2 0x13A3 JUMP JUMPDEST POP PUSH2 0x1388 SWAP1 POP DUP1 JUMPDEST SWAP2 POP SWAP2 JUMP JUMPDEST PUSH2 0x13B0 PUSH2 0x2264 JUMP JUMPDEST PUSH2 0x13CC JUMPI PUSH1 0x40 MLOAD PUSH3 0x461BCD PUSH1 0xE5 SHL DUP2 MSTORE PUSH1 0x4 ADD PUSH2 0x806 SWAP1 PUSH2 0x517E JUMP JUMPDEST PUSH2 0x1C5 SLOAD PUSH2 0x13E2 SWAP1 PUSH1 0x1 PUSH1 0x1 PUSH1 0xA0 SHL SUB AND PUSH2 0x37DA JUMP JUMPDEST PUSH2 0x1C5 DUP1 SLOAD PUSH20 0xFFFFFFFFFFFFFFFFFFFFFFFFFFFFFFFFFFFFFFFF NOT AND PUSH1 0x1 PUSH1 0x1 PUSH1 0xA0 SHL SUB SWAP3 DUP4 AND OR SWAP1 SSTORE PUSH2 0x1C3 SLOAD PUSH1 0x40 DUP1 MLOAD PUSH32 0x4F92A72800000000000000000000000000000000000000000000000000000000 DUP2 MSTORE SWAP1 MLOAD SWAP2 SWAP1 SWAP3 AND SWAP2 PUSH4 0x4F92A728 SWAP2 PUSH1 0x4 DUP1 DUP4 ADD SWAP3 PUSH1 0x0 SWAP3 SWAP2 SWAP1 DUP3 SWAP1 SUB ADD DUP2 DUP4 DUP8 DUP1 EXTCODESIZE ISZERO DUP1 ISZERO PUSH2 0x1464 JUMPI PUSH1 0x0 DUP1 REVERT JUMPDEST POP GAS CALL ISZERO DUP1 ISZERO PUSH2 0x1478 JUMPI RETURNDATASIZE PUSH1 0x0 DUP1 RETURNDATACOPY RETURNDATASIZE PUSH1 0x0 REVERT JUMPDEST POP POP PUSH2 0x1C5 SLOAD PUSH1 0x40 MLOAD CALLER SWAP4 POP PUSH32 0x7C76C17DE59691DF2EF36AF3938C91F69CD18AD27F67A54A38E38686F0B40C49 SWAP3 POP PUSH2 0x14BA SWAP2 PUSH1 0x1 PUSH1 0x1 PUSH1 0xA0 SHL SUB AND SWAP1 PUSH2 0x4689 JUMP JUMPDEST PUSH1 0x40 MLOAD DUP1 SWAP2 SUB SWAP1 LOG2 JUMP JUMPDEST PUSH1 0x0 PUSH2 0x14D0 DUP8 DUP8 PUSH2 0x25F4 JUMP JUMPDEST SWAP8 SWAP7 POP POP POP POP POP POP POP JUMP JUMPDEST PUSH1 0x0 SLOAD PUSH2 0x100 SWAP1 DIV PUSH1 0xFF AND DUP1 PUSH2 0x14F4 JUMPI POP PUSH2 0x14F4 PUSH2 0x2ACD JUMP JUMPDEST DUP1 PUSH2 0x1502 JUMPI POP PUSH1 0x0 SLOAD PUSH1 0xFF AND ISZERO JUMPDEST PUSH2 0x151E JUMPI PUSH1 0x40 MLOAD PUSH3 0x461BCD PUSH1 0xE5 SHL DUP2 MSTORE PUSH1 0x4 ADD PUSH2 0x806 SWAP1 PUSH2 0x4EFB JUMP JUMPDEST PUSH1 0x0 SLOAD PUSH2 0x100 SWAP1 DIV PUSH1 0xFF AND ISZERO DUP1 ISZERO PUSH2 0x1549 JUMPI PUSH1 0x0 DUP1 SLOAD PUSH1 0xFF NOT PUSH2 0xFF00 NOT SWAP1 SWAP2 AND PUSH2 0x100 OR AND PUSH1 0x1 OR SWAP1 SSTORE JUMPDEST PUSH2 0x1551 PUSH2 0x2B54 JUMP JUMPDEST DUP1 ISZERO PUSH2 0xE99 JUMPI PUSH1 0x0 DUP1 SLOAD PUSH2 0xFF00 NOT AND SWAP1 SSTORE POP JUMP JUMPDEST PUSH2 0x156D PUSH2 0x2264 JUMP JUMPDEST PUSH2 0x1589 JUMPI PUSH1 0x40 MLOAD PUSH3 0x461BCD PUSH1 0xE5 SHL DUP2 MSTORE PUSH1 0x4 ADD PUSH2 0x806 SWAP1 PUSH2 0x517E JUMP JUMPDEST PUSH1 0x1 PUSH1 0x1 PUSH1 0xA0 SHL SUB DUP2 AND PUSH2 0x15AF JUMPI PUSH1 0x40 MLOAD PUSH3 0x461BCD PUSH1 0xE5 SHL DUP2 MSTORE PUSH1 0x4 ADD PUSH2 0x806 SWAP1 PUSH2 0x4A65 JUMP JUMPDEST PUSH2 0x1C3 SLOAD PUSH2 0x1C5 SLOAD PUSH1 0x1 PUSH1 0x1 PUSH1 0xA0 SHL SUB SWAP2 DUP3 AND SWAP2 PUSH1 0x0 SWAP2 PUSH2 0x15D0 SWAP2 AND PUSH2 0x2DCF JUMP JUMPDEST PUSH1 0x1 PUSH1 0x1 PUSH1 0xA0 SHL SUB AND PUSH4 0x70A08231 DUP4 PUSH1 0x40 MLOAD DUP3 PUSH4 0xFFFFFFFF AND PUSH1 0xE0 SHL DUP2 MSTORE PUSH1 0x4 ADD PUSH2 0x15FB SWAP2 SWAP1 PUSH2 0x4689 JUMP JUMPDEST PUSH1 0x20 PUSH1 0x40 MLOAD DUP1 DUP4 SUB DUP2 DUP7 DUP1 EXTCODESIZE ISZERO DUP1 ISZERO PUSH2 0x1613 JUMPI PUSH1 0x0 DUP1 REVERT JUMPDEST POP GAS STATICCALL ISZERO DUP1 ISZERO PUSH2 0x1627 JUMPI RETURNDATASIZE PUSH1 0x0 DUP1 RETURNDATACOPY RETURNDATASIZE PUSH1 0x0 REVERT JUMPDEST POP POP POP POP PUSH1 0x40 MLOAD RETURNDATASIZE PUSH1 0x1F NOT PUSH1 0x1F DUP3 ADD AND DUP3 ADD DUP1 PUSH1 0x40 MSTORE POP DUP2 ADD SWAP1 PUSH2 0x164B SWAP2 SWAP1 PUSH2 0x45EA JUMP JUMPDEST SWAP1 POP DUP1 ISZERO PUSH2 0x1675 JUMPI PUSH2 0x1C5 SLOAD PUSH2 0x1675 SWAP1 PUSH2 0x166D SWAP1 PUSH1 0x1 PUSH1 0x1 PUSH1 0xA0 SHL SUB AND PUSH2 0x2DCF JUMP JUMPDEST DUP4 DUP6 DUP5 PUSH2 0x2DDA JUMP JUMPDEST PUSH1 0x40 MLOAD PUSH4 0x2A7E685 PUSH1 0xE2 SHL DUP2 MSTORE PUSH20 0x0 SWAP1 PUSH4 0xA9F9A14 SWAP1 PUSH2 0x16AC SWAP1 DUP6 SWAP1 PUSH1 0x4 ADD PUSH2 0x4689 JUMP JUMPDEST PUSH1 0x0 PUSH1 0x40 MLOAD DUP1 DUP4 SUB DUP2 DUP7 DUP1 EXTCODESIZE ISZERO DUP1 ISZERO PUSH2 0x16C4 JUMPI PUSH1 0x0 DUP1 REVERT JUMPDEST POP GAS DELEGATECALL ISZERO DUP1 ISZERO PUSH2 0x16D8 JUMPI RETURNDATASIZE PUSH1 0x0 DUP1 RETURNDATACOPY RETURNDATASIZE PUSH1 0x0 REVERT JUMPDEST POP POP PUSH2 0x1C3 DUP1 SLOAD PUSH20 0xFFFFFFFFFFFFFFFFFFFFFFFFFFFFFFFFFFFFFFFF NOT AND PUSH1 0x1 PUSH1 0x1 PUSH1 0xA0 SHL SUB DUP8 DUP2 AND SWAP2 SWAP1 SWAP2 OR SWAP2 DUP3 SWAP1 SSTORE PUSH1 0x40 DUP1 MLOAD PUSH4 0xA4D66DAF PUSH1 0xE0 SHL DUP2 MSTORE SWAP1 MLOAD SWAP3 SWAP1 SWAP2 AND SWAP4 POP PUSH4 0xA4D66DAF SWAP3 POP PUSH1 0x4 DUP1 DUP3 ADD SWAP3 PUSH1 0x20 SWAP3 SWAP1 SWAP2 SWAP1 DUP3 SWAP1 SUB ADD DUP2 DUP7 DUP1 EXTCODESIZE ISZERO DUP1 ISZERO PUSH2 0x1746 JUMPI PUSH1 0x0 DUP1 REVERT JUMPDEST POP GAS STATICCALL ISZERO DUP1 ISZERO PUSH2 0x175A JUMPI RETURNDATASIZE PUSH1 0x0 DUP1 RETURNDATACOPY RETURNDATASIZE PUSH1 0x0 REVERT JUMPDEST POP POP POP POP PUSH1 0x40 MLOAD RETURNDATASIZE PUSH1 0x1F NOT PUSH1 0x1F DUP3 ADD AND DUP3 ADD DUP1 PUSH1 0x40 MSTORE POP DUP2 ADD SWAP1 PUSH2 0x177E SWAP2 SWAP1 PUSH2 0x45EA JUMP JUMPDEST POP PUSH2 0x1C3 SLOAD PUSH1 0x40 MLOAD PUSH1 0x1 PUSH1 0x1 PUSH1 0xA0 SHL SUB SWAP2 DUP3 AND SWAP2 DUP5 AND SWAP1 PUSH32 0x987CDBA0CBA67C68D2C8ABA6A4BA6545565ECCFB3E2E5FF39579FFD94ACAF9BB SWAP1 PUSH1 0x0 SWAP1 LOG3 POP POP POP JUMP JUMPDEST PUSH1 0x97 SLOAD PUSH1 0xFF AND SWAP1 JUMP JUMPDEST PUSH2 0x1CA SLOAD DUP2 JUMP JUMPDEST PUSH8 0xDE0B6B3A7640000 DUP2 JUMP JUMPDEST PUSH3 0x15180 DUP2 JUMP JUMPDEST PUSH2 0x180D PUSH32 0xAF9A8BB3CBD6B84FBCCEFA71FF73E26E798553C6914585A84886212A46A90279 CALLER PUSH2 0x1B40 JUMP JUMPDEST PUSH2 0x1829 JUMPI PUSH1 0x40 MLOAD PUSH3 0x461BCD PUSH1 0xE5 SHL DUP2 MSTORE PUSH1 0x4 ADD PUSH2 0x806 SWAP1 PUSH2 0x4E67 JUMP JUMPDEST PUSH1 0x97 SLOAD PUSH1 0xFF AND ISZERO PUSH2 0x184C JUMPI PUSH1 0x40 MLOAD PUSH3 0x461BCD PUSH1 0xE5 SHL DUP2 MSTORE PUSH1 0x4 ADD PUSH2 0x806 SWAP1 PUSH2 0x4D56 JUMP JUMPDEST PUSH2 0x1854 PUSH2 0x37F2 JUMP JUMPDEST PUSH2 0x1870 JUMPI PUSH1 0x40 MLOAD PUSH3 0x461BCD PUSH1 0xE5 SHL DUP2 MSTORE PUSH1 0x4 ADD PUSH2 0x806 SWAP1 PUSH2 0x4B41 JUMP JUMPDEST PUSH2 0x1C3 PUSH1 0x0 SWAP1 SLOAD SWAP1 PUSH2 0x100 EXP SWAP1 DIV PUSH1 0x1 PUSH1 0x1 PUSH1 0xA0 SHL SUB AND PUSH1 0x1 PUSH1 0x1 PUSH1 0xA0 SHL SUB AND PUSH4 0x81C17A15 PUSH1 0x40 MLOAD DUP2 PUSH4 0xFFFFFFFF AND PUSH1 0xE0 SHL DUP2 MSTORE PUSH1 0x4 ADD PUSH1 0x20 PUSH1 0x40 MLOAD DUP1 DUP4 SUB DUP2 DUP7 DUP1 EXTCODESIZE ISZERO DUP1 ISZERO PUSH2 0x18BF JUMPI PUSH1 0x0 DUP1 REVERT JUMPDEST POP GAS STATICCALL ISZERO DUP1 ISZERO PUSH2 0x18D3 JUMPI RETURNDATASIZE PUSH1 0x0 DUP1 RETURNDATACOPY RETURNDATASIZE PUSH1 0x0 REVERT JUMPDEST POP POP POP POP PUSH1 0x40 MLOAD RETURNDATASIZE PUSH1 0x1F NOT PUSH1 0x1F DUP3 ADD AND DUP3 ADD DUP1 PUSH1 0x40 MSTORE POP DUP2 ADD SWAP1 PUSH2 0x18F7 SWAP2 SWAP1 PUSH2 0x44EE JUMP JUMPDEST ISZERO PUSH2 0x1914 JUMPI PUSH1 0x40 MLOAD PUSH3 0x461BCD PUSH1 0xE5 SHL DUP2 MSTORE PUSH1 0x4 ADD PUSH2 0x806 SWAP1 PUSH2 0x4DC4 JUMP JUMPDEST PUSH2 0x1C3 PUSH1 0x0 SWAP1 SLOAD SWAP1 PUSH2 0x100 EXP SWAP1 DIV PUSH1 0x1 PUSH1 0x1 PUSH1 0xA0 SHL SUB AND PUSH1 0x1 PUSH1 0x1 PUSH1 0xA0 SHL SUB AND PUSH4 0x457147A7 PUSH1 0x40 MLOAD DUP2 PUSH4 0xFFFFFFFF AND PUSH1 0xE0 SHL DUP2 MSTORE PUSH1 0x4 ADD PUSH1 0x20 PUSH1 0x40 MLOAD DUP1 DUP4 SUB DUP2 DUP7 DUP1 EXTCODESIZE ISZERO DUP1 ISZERO PUSH2 0x1963 JUMPI PUSH1 0x0 DUP1 REVERT JUMPDEST POP GAS STATICCALL ISZERO DUP1 ISZERO PUSH2 0x1977 JUMPI RETURNDATASIZE PUSH1 0x0 DUP1 RETURNDATACOPY RETURNDATASIZE PUSH1 0x0 REVERT JUMPDEST POP POP POP POP PUSH1 0x40 MLOAD RETURNDATASIZE PUSH1 0x1F NOT PUSH1 0x1F DUP3 ADD AND DUP3 ADD DUP1 PUSH1 0x40 MSTORE POP DUP2 ADD SWAP1 PUSH2 0x199B SWAP2 SWAP1 PUSH2 0x44EE JUMP JUMPDEST PUSH2 0x19B7 JUMPI PUSH1 0x40 MLOAD PUSH3 0x461BCD PUSH1 0xE5 SHL DUP2 MSTORE PUSH1 0x4 ADD PUSH2 0x806 SWAP1 PUSH2 0x4AD3 JUMP JUMPDEST PUSH2 0x19C0 DUP2 PUSH2 0x382C JUMP JUMPDEST PUSH2 0x1CB SLOAD ADDRESS SWAP1 PUSH32 0x3420DD9C54D6A8846EDD2FB39A41C30C31E7BC95B43655DAE59F47CC913B60D5 SWAP1 PUSH2 0x19F3 SWAP1 PUSH1 0x1 PUSH2 0x2971 JUMP JUMPDEST PUSH1 0x40 MLOAD PUSH2 0x1A00 SWAP2 SWAP1 PUSH2 0x47A8 JUMP JUMPDEST PUSH1 0x40 MLOAD DUP1 SWAP2 SUB SWAP1 LOG2 POP JUMP JUMPDEST PUSH2 0x1C5 SLOAD PUSH1 0x1 PUSH1 0x1 PUSH1 0xA0 SHL SUB AND DUP2 JUMP JUMPDEST PUSH2 0x1CB SLOAD SWAP1 JUMP JUMPDEST PUSH2 0x1CB DUP2 DUP2 SLOAD DUP2 LT PUSH2 0x1A30 JUMPI INVALID JUMPDEST SWAP1 PUSH1 0x0 MSTORE PUSH1 0x20 PUSH1 0x0 KECCAK256 SWAP1 PUSH1 0xC MUL ADD PUSH1 0x0 SWAP2 POP SWAP1 POP DUP1 PUSH1 0x0 ADD PUSH1 0x40 MLOAD DUP1 PUSH1 0xA0 ADD PUSH1 0x40 MSTORE SWAP1 DUP2 PUSH1 0x0 DUP3 ADD SLOAD DUP2 MSTORE PUSH1 0x20 ADD PUSH1 0x1 DUP3 ADD SLOAD DUP2 MSTORE PUSH1 0x20 ADD PUSH1 0x2 DUP3 ADD SLOAD DUP2 MSTORE PUSH1 0x20 ADD PUSH1 0x3 DUP3 ADD SLOAD DUP2 MSTORE PUSH1 0x20 ADD PUSH1 0x4 DUP3 ADD SLOAD DUP2 MSTORE POP POP SWAP1 DUP1 PUSH1 0x5 ADD PUSH1 0x40 MLOAD DUP1 PUSH1 0xA0 ADD PUSH1 0x40 MSTORE SWAP1 DUP2 PUSH1 0x0 DUP3 ADD SLOAD DUP2 MSTORE PUSH1 0x20 ADD PUSH1 0x1 DUP3 ADD SLOAD DUP2 MSTORE PUSH1 0x20 ADD PUSH1 0x2 DUP3 ADD SLOAD DUP2 MSTORE PUSH1 0x20 ADD PUSH1 0x3 DUP3 ADD SLOAD DUP2 MSTORE PUSH1 0x20 ADD PUSH1 0x4 DUP3 ADD SLOAD DUP2 MSTORE POP POP SWAP1 DUP1 PUSH1 0xA ADD SLOAD SWAP1 DUP1 PUSH1 0xB ADD SLOAD SWAP1 POP DUP5 JUMP JUMPDEST PUSH2 0x1B04 PUSH32 0x65D7A28E3265B37A6474929F336521B332C1681B933F6CB9F3376673440D862A PUSH2 0x596 PUSH2 0x2E1B JUMP JUMPDEST PUSH2 0x1B20 JUMPI PUSH1 0x40 MLOAD PUSH3 0x461BCD PUSH1 0xE5 SHL DUP2 MSTORE PUSH1 0x4 ADD PUSH2 0x806 SWAP1 PUSH2 0x4A08 JUMP JUMPDEST PUSH2 0x84A PUSH2 0x3993 JUMP JUMPDEST PUSH1 0x0 DUP3 DUP2 MSTORE PUSH1 0x65 PUSH1 0x20 MSTORE PUSH1 0x40 DUP2 KECCAK256 PUSH2 0x7B7 SWAP1 DUP4 PUSH2 0x39EC JUMP JUMPDEST PUSH1 0x0 DUP3 DUP2 MSTORE PUSH1 0x65 PUSH1 0x20 MSTORE PUSH1 0x40 DUP2 KECCAK256 PUSH2 0x7B7 SWAP1 DUP4 PUSH2 0x39F8 JUMP JUMPDEST DUP3 DUP2 EQ PUSH2 0x1B77 JUMPI PUSH1 0x40 MLOAD PUSH3 0x461BCD PUSH1 0xE5 SHL DUP2 MSTORE PUSH1 0x4 ADD PUSH2 0x806 SWAP1 PUSH2 0x4BE6 JUMP JUMPDEST PUSH1 0x0 JUMPDEST DUP2 DUP2 LT ISZERO PUSH2 0xE94 JUMPI PUSH2 0x1BB0 DUP6 DUP6 DUP4 DUP2 DUP2 LT PUSH2 0x1B91 JUMPI INVALID JUMPDEST SWAP1 POP PUSH1 0x20 MUL ADD CALLDATALOAD DUP5 DUP5 DUP5 DUP2 DUP2 LT PUSH2 0x1BA4 JUMPI INVALID JUMPDEST SWAP1 POP PUSH1 0x20 MUL ADD CALLDATALOAD PUSH2 0x11F7 JUMP JUMPDEST POP POP PUSH1 0x1 ADD PUSH2 0x1B7A JUMP JUMPDEST PUSH2 0x1BE4 PUSH32 0xAF9A8BB3CBD6B84FBCCEFA71FF73E26E798553C6914585A84886212A46A90279 CALLER PUSH2 0x1B40 JUMP JUMPDEST PUSH2 0x1C00 JUMPI PUSH1 0x40 MLOAD PUSH3 0x461BCD PUSH1 0xE5 SHL DUP2 MSTORE PUSH1 0x4 ADD PUSH2 0x806 SWAP1 PUSH2 0x4E67 JUMP JUMPDEST PUSH1 0x97 SLOAD PUSH1 0xFF AND ISZERO PUSH2 0xE99 JUMPI PUSH1 0x40 MLOAD PUSH3 0x461BCD PUSH1 0xE5 SHL DUP2 MSTORE PUSH1 0x4 ADD PUSH2 0x806 SWAP1 PUSH2 0x4D56 JUMP JUMPDEST PUSH1 0x0 DUP2 JUMP JUMPDEST PUSH1 0x97 SLOAD PUSH1 0xFF AND ISZERO PUSH2 0x1C4B JUMPI PUSH1 0x40 MLOAD PUSH3 0x461BCD PUSH1 0xE5 SHL DUP2 MSTORE PUSH1 0x4 ADD PUSH2 0x806 SWAP1 PUSH2 0x4D56 JUMP JUMPDEST PUSH2 0x84A PUSH2 0x3A0D JUMP JUMPDEST PUSH1 0x0 SLOAD PUSH2 0x100 SWAP1 DIV PUSH1 0xFF AND DUP1 PUSH2 0x1C6C JUMPI POP PUSH2 0x1C6C PUSH2 0x2ACD JUMP JUMPDEST DUP1 PUSH2 0x1C7A JUMPI POP PUSH1 0x0 SLOAD PUSH1 0xFF AND ISZERO JUMPDEST PUSH2 0x1C96 JUMPI PUSH1 0x40 MLOAD PUSH3 0x461BCD PUSH1 0xE5 SHL DUP2 MSTORE PUSH1 0x4 ADD PUSH2 0x806 SWAP1 PUSH2 0x4EFB JUMP JUMPDEST PUSH1 0x0 SLOAD PUSH2 0x100 SWAP1 DIV PUSH1 0xFF AND ISZERO DUP1 ISZERO PUSH2 0x1CC1 JUMPI PUSH1 0x0 DUP1 SLOAD PUSH1 0xFF NOT PUSH2 0xFF00 NOT SWAP1 SWAP2 AND PUSH2 0x100 OR AND PUSH1 0x1 OR SWAP1 SSTORE JUMPDEST PUSH1 0x1 PUSH1 0x1 PUSH1 0xA0 SHL SUB DUP14 AND ISZERO DUP1 ISZERO SWAP1 PUSH2 0x1CE1 JUMPI POP PUSH1 0x1 PUSH1 0x1 PUSH1 0xA0 SHL SUB DUP13 AND ISZERO ISZERO JUMPDEST PUSH2 0x1CFD JUMPI PUSH1 0x40 MLOAD PUSH3 0x461BCD PUSH1 0xE5 SHL DUP2 MSTORE PUSH1 0x4 ADD PUSH2 0x806 SWAP1 PUSH2 0x50D9 JUMP JUMPDEST DUP13 PUSH2 0x1C5 PUSH1 0x0 PUSH2 0x100 EXP DUP2 SLOAD DUP2 PUSH1 0x1 PUSH1 0x1 PUSH1 0xA0 SHL SUB MUL NOT AND SWAP1 DUP4 PUSH1 0x1 PUSH1 0x1 PUSH1 0xA0 SHL SUB AND MUL OR SWAP1 SSTORE POP PUSH1 0x0 PUSH2 0x1D4F PUSH2 0x1C5 PUSH1 0x0 SWAP1 SLOAD SWAP1 PUSH2 0x100 EXP SWAP1 DIV PUSH1 0x1 PUSH1 0x1 PUSH1 0xA0 SHL SUB AND PUSH1 0x1 PUSH1 0x1 PUSH1 0xA0 SHL SUB AND PUSH2 0x3A3A JUMP JUMPDEST SWAP1 POP PUSH1 0x1 PUSH1 0x1 PUSH1 0xA0 SHL SUB DUP2 AND PUSH2 0x1D77 JUMPI PUSH1 0x40 MLOAD PUSH3 0x461BCD PUSH1 0xE5 SHL DUP2 MSTORE PUSH1 0x4 ADD PUSH2 0x806 SWAP1 PUSH2 0x49D1 JUMP JUMPDEST PUSH2 0x1D80 DUP2 PUSH2 0x84C JUMP JUMPDEST PUSH2 0x1D89 DUP6 PUSH2 0x382C JUMP JUMPDEST PUSH2 0x1D98 DUP14 DUP13 DUP13 DUP13 DUP13 DUP13 DUP13 PUSH2 0x2C84 JUMP JUMPDEST TIMESTAMP PUSH2 0x1C4 SSTORE PUSH2 0x1C6 DUP13 SWAP1 SSTORE DUP3 PUSH2 0x1E5C JUMPI PUSH2 0x1DB0 PUSH2 0x41B5 JUMP JUMPDEST PUSH1 0x40 DUP1 MLOAD PUSH1 0x20 DUP2 ADD SWAP1 SWAP2 MSTORE PUSH2 0x1C5 SLOAD DUP2 SWAP1 PUSH2 0x1DD3 SWAP1 PUSH1 0x1 PUSH1 0x1 PUSH1 0xA0 SHL SUB AND PUSH2 0x3A52 JUMP JUMPDEST PUSH1 0x1 PUSH1 0x1 PUSH1 0xA0 SHL SUB AND PUSH4 0x9B56D788 PUSH1 0x40 MLOAD DUP2 PUSH4 0xFFFFFFFF AND PUSH1 0xE0 SHL DUP2 MSTORE PUSH1 0x4 ADD PUSH1 0x20 PUSH1 0x40 MLOAD DUP1 DUP4 SUB DUP2 DUP7 DUP1 EXTCODESIZE ISZERO DUP1 ISZERO PUSH2 0x1E0B JUMPI PUSH1 0x0 DUP1 REVERT JUMPDEST POP GAS STATICCALL ISZERO DUP1 ISZERO PUSH2 0x1E1F JUMPI RETURNDATASIZE PUSH1 0x0 DUP1 RETURNDATACOPY RETURNDATASIZE PUSH1 0x0 REVERT JUMPDEST POP POP POP POP PUSH1 0x40 MLOAD RETURNDATASIZE PUSH1 0x1F NOT PUSH1 0x1F DUP3 ADD AND DUP3 ADD DUP1 PUSH1 0x40 MSTORE POP DUP2 ADD SWAP1 PUSH2 0x1E43 SWAP2 SWAP1 PUSH2 0x45EA JUMP JUMPDEST SWAP1 MSTORE SWAP1 POP PUSH2 0x1E55 PUSH2 0x1C8 DUP3 PUSH1 0x1 PUSH2 0x41D3 JUMP JUMPDEST POP POP PUSH2 0x1E6B JUMP JUMPDEST PUSH2 0x1E69 PUSH2 0x1C8 DUP6 DUP6 PUSH2 0x421E JUMP JUMPDEST POP JUMPDEST PUSH2 0x1E95 PUSH32 0xAF9A8BB3CBD6B84FBCCEFA71FF73E26E798553C6914585A84886212A46A90279 DUP15 PUSH2 0xEFA JUMP JUMPDEST PUSH2 0x1EBF PUSH32 0xAF9A8BB3CBD6B84FBCCEFA71FF73E26E798553C6914585A84886212A46A90279 DUP3 PUSH2 0xEFA JUMP JUMPDEST PUSH2 0x1F09 PUSH32 0xAF9A8BB3CBD6B84FBCCEFA71FF73E26E798553C6914585A84886212A46A90279 PUSH32 0xB19546DFF01E856FB3F010C267A7B1C60363CF8A4664E21CC89C26224620214E PUSH2 0x2C6F JUMP JUMPDEST PUSH2 0x1F53 PUSH32 0x956624BFBE09C0E98E645D61EBA0DE4CE88E8CCEABDB00FEAD208D19A8E1209B PUSH32 0xB19546DFF01E856FB3F010C267A7B1C60363CF8A4664E21CC89C26224620214E PUSH2 0x2C6F JUMP JUMPDEST PUSH2 0x1C5 SLOAD PUSH2 0x1F94 SWAP1 PUSH32 0x956624BFBE09C0E98E645D61EBA0DE4CE88E8CCEABDB00FEAD208D19A8E1209B SWAP1 PUSH2 0x1F8F SWAP1 PUSH1 0x1 PUSH1 0x1 PUSH1 0xA0 SHL SUB AND PUSH2 0x3A5D JUMP JUMPDEST PUSH2 0xEFA JUMP JUMPDEST PUSH2 0x1C5 SLOAD PUSH1 0x0 SWAP1 PUSH2 0x1FAD SWAP1 PUSH1 0x1 PUSH1 0x1 PUSH1 0xA0 SHL SUB AND PUSH2 0x2DCF JUMP JUMPDEST PUSH1 0x1 PUSH1 0x1 PUSH1 0xA0 SHL SUB AND PUSH4 0x95EA7B3 ADDRESS PUSH1 0x0 NOT PUSH1 0x40 MLOAD DUP4 PUSH4 0xFFFFFFFF AND PUSH1 0xE0 SHL DUP2 MSTORE PUSH1 0x4 ADD PUSH2 0x1FDC SWAP3 SWAP2 SWAP1 PUSH2 0x46F6 JUMP JUMPDEST PUSH1 0x20 PUSH1 0x40 MLOAD DUP1 DUP4 SUB DUP2 PUSH1 0x0 DUP8 DUP1 EXTCODESIZE ISZERO DUP1 ISZERO PUSH2 0x1FF6 JUMPI PUSH1 0x0 DUP1 REVERT JUMPDEST POP GAS CALL ISZERO DUP1 ISZERO PUSH2 0x200A JUMPI RETURNDATASIZE PUSH1 0x0 DUP1 RETURNDATACOPY RETURNDATASIZE PUSH1 0x0 REVERT JUMPDEST POP POP POP POP PUSH1 0x40 MLOAD RETURNDATASIZE PUSH1 0x1F NOT PUSH1 0x1F DUP3 ADD AND DUP3 ADD DUP1 PUSH1 0x40 MSTORE POP DUP2 ADD SWAP1 PUSH2 0x202E SWAP2 SWAP1 PUSH2 0x44EE JUMP JUMPDEST SWAP1 POP DUP1 PUSH2 0x204D JUMPI PUSH1 0x40 MLOAD PUSH3 0x461BCD PUSH1 0xE5 SHL DUP2 MSTORE PUSH1 0x4 ADD PUSH2 0x806 SWAP1 PUSH2 0x48F5 JUMP JUMPDEST POP POP DUP1 ISZERO PUSH2 0x2061 JUMPI PUSH1 0x0 DUP1 SLOAD PUSH2 0xFF00 NOT AND SWAP1 SSTORE JUMPDEST POP POP POP POP POP POP POP POP POP POP POP POP POP JUMP JUMPDEST PUSH2 0x2078 PUSH2 0x2264 JUMP JUMPDEST PUSH2 0x2094 JUMPI PUSH1 0x40 MLOAD PUSH3 0x461BCD PUSH1 0xE5 SHL DUP2 MSTORE PUSH1 0x4 ADD PUSH2 0x806 SWAP1 PUSH2 0x517E JUMP JUMPDEST PUSH2 0x1C7 DUP1 SLOAD PUSH1 0xFF NOT AND PUSH1 0x1 OR SWAP1 SSTORE PUSH1 0x40 MLOAD ADDRESS SWAP1 PUSH32 0x90D9B09C68A7E1312CE22801552B47265D77DB9496383D51374B4058545447D7 SWAP1 PUSH1 0x0 SWAP1 LOG2 JUMP JUMPDEST PUSH1 0xC9 SLOAD PUSH1 0x0 SWAP1 DUP2 SWAP1 PUSH1 0xFF AND PUSH2 0x20F6 JUMPI PUSH1 0x40 MLOAD PUSH3 0x461BCD PUSH1 0xE5 SHL DUP2 MSTORE PUSH1 0x4 ADD PUSH2 0x806 SWAP1 PUSH2 0x5147 JUMP JUMPDEST PUSH1 0xC9 DUP1 SLOAD PUSH1 0xFF NOT AND SWAP1 SSTORE PUSH1 0x97 SLOAD PUSH1 0xFF AND ISZERO PUSH2 0x2123 JUMPI PUSH1 0x40 MLOAD PUSH3 0x461BCD PUSH1 0xE5 SHL DUP2 MSTORE PUSH1 0x4 ADD PUSH2 0x806 SWAP1 PUSH2 0x4D56 JUMP JUMPDEST PUSH2 0x212B PUSH2 0x417D JUMP JUMPDEST PUSH2 0x1C5 SLOAD PUSH2 0x2141 SWAP1 PUSH1 0x1 PUSH1 0x1 PUSH1 0xA0 SHL SUB AND PUSH2 0x33F6 JUMP JUMPDEST PUSH1 0x1 PUSH1 0x1 PUSH1 0xA0 SHL SUB AND PUSH4 0x8C7A63AE DUP6 PUSH1 0x40 MLOAD DUP3 PUSH4 0xFFFFFFFF AND PUSH1 0xE0 SHL DUP2 MSTORE PUSH1 0x4 ADD PUSH2 0x216C SWAP2 SWAP1 PUSH2 0x47A8 JUMP JUMPDEST PUSH1 0xA0 PUSH1 0x40 MLOAD DUP1 DUP4 SUB DUP2 DUP7 DUP1 EXTCODESIZE ISZERO DUP1 ISZERO PUSH2 0x2184 JUMPI PUSH1 0x0 DUP1 REVERT JUMPDEST POP GAS STATICCALL ISZERO DUP1 ISZERO PUSH2 0x2198 JUMPI RETURNDATASIZE PUSH1 0x0 DUP1 RETURNDATACOPY RETURNDATASIZE PUSH1 0x0 REVERT JUMPDEST POP POP POP POP PUSH1 0x40 MLOAD RETURNDATASIZE PUSH1 0x1F NOT PUSH1 0x1F DUP3 ADD AND DUP3 ADD DUP1 PUSH1 0x40 MSTORE POP DUP2 ADD SWAP1 PUSH2 0x21BC SWAP2 SWAP1 PUSH2 0x4576 JUMP JUMPDEST SWAP1 POP PUSH1 0x0 PUSH2 0x21CD DUP3 PUSH1 0x20 ADD MLOAD PUSH2 0x3401 JUMP JUMPDEST SWAP1 POP PUSH1 0x0 DUP1 PUSH2 0x21DC DUP4 DUP6 PUSH2 0x3A68 JUMP JUMPDEST SWAP1 SWAP3 POP SWAP1 POP PUSH1 0x0 PUSH2 0x21ED DUP4 DUP4 PUSH2 0x3AD3 JUMP JUMPDEST SWAP1 POP PUSH2 0x21FB DUP5 DUP7 DUP11 DUP5 PUSH2 0x34B1 JUMP JUMPDEST SWAP7 POP SWAP7 POP POP POP POP POP POP PUSH1 0xC9 DUP1 SLOAD PUSH1 0xFF NOT AND PUSH1 0x1 OR SWAP1 SSTORE SWAP1 SWAP3 SWAP1 SWAP2 POP JUMP JUMPDEST PUSH2 0x2242 PUSH32 0xAF9A8BB3CBD6B84FBCCEFA71FF73E26E798553C6914585A84886212A46A90279 CALLER PUSH2 0x1B40 JUMP JUMPDEST PUSH2 0x225E JUMPI PUSH1 0x40 MLOAD PUSH3 0x461BCD PUSH1 0xE5 SHL DUP2 MSTORE PUSH1 0x4 ADD PUSH2 0x806 SWAP1 PUSH2 0x4E67 JUMP JUMPDEST PUSH2 0x1CA SSTORE JUMP JUMPDEST PUSH1 0x0 PUSH2 0x2292 PUSH32 0xB19546DFF01E856FB3F010C267A7B1C60363CF8A4664E21CC89C26224620214E PUSH2 0x596 PUSH2 0x2E1B JUMP JUMPDEST SWAP1 POP SWAP1 JUMP JUMPDEST PUSH2 0x22C1 PUSH32 0xAF9A8BB3CBD6B84FBCCEFA71FF73E26E798553C6914585A84886212A46A90279 CALLER PUSH2 0x1B40 JUMP JUMPDEST PUSH2 0x22DD JUMPI PUSH1 0x40 MLOAD PUSH3 0x461BCD PUSH1 0xE5 SHL DUP2 MSTORE PUSH1 0x4 ADD PUSH2 0x806 SWAP1 PUSH2 0x4E67 JUMP JUMPDEST PUSH2 0x1CB PUSH1 0x0 DUP2 SLOAD DUP2 LT PUSH2 0x22EC JUMPI INVALID JUMPDEST SWAP1 PUSH1 0x0 MSTORE PUSH1 0x20 PUSH1 0x0 KECCAK256 SWAP1 PUSH1 0xC MUL ADD PUSH1 0x5 ADD PUSH1 0x1 ADD SLOAD PUSH1 0x0 EQ DUP1 ISZERO PUSH2 0x2333 JUMPI POP PUSH2 0x1CB PUSH1 0x0 DUP2 SLOAD DUP2 LT PUSH2 0x231A JUMPI INVALID JUMPDEST SWAP1 PUSH1 0x0 MSTORE PUSH1 0x20 PUSH1 0x0 KECCAK256 SWAP1 PUSH1 0xC MUL ADD PUSH1 0x0 ADD PUSH1 0x1 ADD SLOAD PUSH1 0x0 EQ JUMPDEST PUSH2 0x234F JUMPI PUSH1 0x40 MLOAD PUSH3 0x461BCD PUSH1 0xE5 SHL DUP2 MSTORE PUSH1 0x4 ADD PUSH2 0x806 SWAP1 PUSH2 0x5110 JUMP JUMPDEST PUSH2 0x235C PUSH2 0x1C8 DUP4 DUP4 PUSH2 0x421E JUMP JUMPDEST POP POP POP JUMP JUMPDEST PUSH2 0x2369 PUSH2 0x2264 JUMP JUMPDEST PUSH2 0x2385 JUMPI PUSH1 0x40 MLOAD PUSH3 0x461BCD PUSH1 0xE5 SHL DUP2 MSTORE PUSH1 0x4 ADD PUSH2 0x806 SWAP1 PUSH2 0x517E JUMP JUMPDEST PUSH2 0x1C7 DUP1 SLOAD PUSH1 0xFF NOT AND SWAP1 SSTORE PUSH1 0x40 MLOAD ADDRESS SWAP1 PUSH32 0x7184039938737267597232635B117C924371AC877D4329F2DFA5CA674C5CC4A5 SWAP1 PUSH1 0x0 SWAP1 LOG2 JUMP JUMPDEST PUSH2 0x23C5 PUSH2 0x2264 JUMP JUMPDEST PUSH2 0x23E1 JUMPI PUSH1 0x40 MLOAD PUSH3 0x461BCD PUSH1 0xE5 SHL DUP2 MSTORE PUSH1 0x4 ADD PUSH2 0x806 SWAP1 PUSH2 0x517E JUMP JUMPDEST PUSH2 0x1C3 SLOAD PUSH1 0x40 MLOAD PUSH32 0xBF8BCEE400000000000000000000000000000000000000000000000000000000 DUP2 MSTORE PUSH1 0x1 PUSH1 0x1 PUSH1 0xA0 SHL SUB SWAP1 SWAP2 AND SWAP1 PUSH4 0xBF8BCEE4 SWAP1 PUSH2 0xE66 SWAP1 DUP5 SWAP1 PUSH1 0x4 ADD PUSH2 0x47A8 JUMP JUMPDEST PUSH1 0x64 DUP2 JUMP JUMPDEST PUSH1 0x97 SLOAD PUSH1 0xFF AND ISZERO PUSH2 0x2453 JUMPI PUSH1 0x40 MLOAD PUSH3 0x461BCD PUSH1 0xE5 SHL DUP2 MSTORE PUSH1 0x4 ADD PUSH2 0x806 SWAP1 PUSH2 0x4D56 JUMP JUMPDEST PUSH1 0x0 DUP2 GT PUSH2 0x2473 JUMPI PUSH1 0x40 MLOAD PUSH3 0x461BCD PUSH1 0xE5 SHL DUP2 MSTORE PUSH1 0x4 ADD PUSH2 0x806 SWAP1 PUSH2 0x50A2 JUMP JUMPDEST PUSH2 0x247C DUP2 PUSH2 0x3AF8 JUMP JUMPDEST PUSH2 0xE99 PUSH2 0x3A0D JUMP JUMPDEST PUSH2 0x1C6 SLOAD DUP2 JUMP JUMPDEST PUSH1 0x0 DUP2 DUP2 MSTORE PUSH1 0x65 PUSH1 0x20 MSTORE PUSH1 0x40 DUP2 KECCAK256 PUSH2 0x7BA SWAP1 PUSH2 0x3B5D JUMP JUMPDEST PUSH1 0x40 MLOAD PUSH32 0xCDE8884500000000000000000000000000000000000000000000000000000000 DUP2 MSTORE PUSH1 0x0 SWAP1 PUSH20 0x0 SWAP1 PUSH4 0xCDE88845 SWAP1 PUSH2 0x767 SWAP1 DUP7 SWAP1 DUP7 SWAP1 PUSH1 0x4 ADD PUSH2 0x52D2 JUMP JUMPDEST PUSH2 0x1C4 SLOAD DUP2 JUMP JUMPDEST PUSH1 0x0 DUP3 DUP2 MSTORE PUSH1 0x65 PUSH1 0x20 MSTORE PUSH1 0x40 SWAP1 KECCAK256 PUSH1 0x2 ADD SLOAD PUSH2 0x251C SWAP1 PUSH2 0x596 PUSH2 0x2E1B JUMP JUMPDEST PUSH2 0x112C JUMPI PUSH1 0x40 MLOAD PUSH3 0x461BCD PUSH1 0xE5 SHL DUP2 MSTORE PUSH1 0x4 ADD PUSH2 0x806 SWAP1 PUSH2 0x4C8B JUMP JUMPDEST PUSH2 0x2540 PUSH2 0x4259 JUMP JUMPDEST PUSH2 0x2549 DUP3 PUSH2 0x3401 JUMP JUMPDEST PUSH1 0x40 DUP1 MLOAD PUSH1 0xA0 DUP2 ADD DUP3 MSTORE DUP3 SLOAD DUP2 MSTORE PUSH1 0x1 DUP4 ADD SLOAD PUSH1 0x20 DUP3 ADD MSTORE PUSH1 0x2 DUP4 ADD SLOAD SWAP2 DUP2 ADD SWAP2 SWAP1 SWAP2 MSTORE PUSH1 0x3 DUP3 ADD SLOAD PUSH1 0x60 DUP3 ADD MSTORE PUSH1 0x4 SWAP1 SWAP2 ADD SLOAD PUSH1 0x80 DUP3 ADD MSTORE SWAP3 SWAP2 POP POP JUMP JUMPDEST PUSH1 0x0 DUP1 PUSH1 0x0 JUMPDEST PUSH2 0x1CB SLOAD DUP2 LT ISZERO PUSH2 0x25CF JUMPI PUSH2 0x25C5 PUSH2 0x1CB DUP3 DUP2 SLOAD DUP2 LT PUSH2 0x25AA JUMPI INVALID JUMPDEST PUSH1 0x0 SWAP2 DUP3 MSTORE PUSH1 0x20 SWAP1 SWAP2 KECCAK256 PUSH1 0x6 PUSH1 0xC SWAP1 SWAP3 MUL ADD ADD SLOAD DUP4 SWAP1 PUSH2 0x3AD3 JUMP JUMPDEST SWAP2 POP PUSH1 0x1 ADD PUSH2 0x258E JUMP JUMPDEST POP SWAP1 POP SWAP1 JUMP JUMPDEST PUSH2 0x1C8 DUP2 DUP2 SLOAD DUP2 LT PUSH2 0x25E3 JUMPI INVALID JUMPDEST PUSH1 0x0 SWAP2 DUP3 MSTORE PUSH1 0x20 SWAP1 SWAP2 KECCAK256 ADD SLOAD SWAP1 POP DUP2 JUMP JUMPDEST PUSH1 0xC9 SLOAD PUSH1 0x0 SWAP1 PUSH1 0xFF AND PUSH2 0x2619 JUMPI PUSH1 0x40 MLOAD PUSH3 0x461BCD PUSH1 0xE5 SHL DUP2 MSTORE PUSH1 0x4 ADD PUSH2 0x806 SWAP1 PUSH2 0x5147 JUMP JUMPDEST PUSH1 0xC9 DUP1 SLOAD PUSH1 0xFF NOT AND SWAP1 SSTORE PUSH1 0x97 SLOAD PUSH1 0xFF AND ISZERO PUSH2 0x2646 JUMPI PUSH1 0x40 MLOAD PUSH3 0x461BCD PUSH1 0xE5 SHL DUP2 MSTORE PUSH1 0x4 ADD PUSH2 0x806 SWAP1 PUSH2 0x4D56 JUMP JUMPDEST PUSH1 0x0 PUSH2 0x2651 DUP5 PUSH2 0x3401 JUMP JUMPDEST SWAP1 POP DUP1 PUSH1 0x4 ADD SLOAD PUSH1 0x0 EQ PUSH2 0x2677 JUMPI PUSH1 0x40 MLOAD PUSH3 0x461BCD PUSH1 0xE5 SHL DUP2 MSTORE PUSH1 0x4 ADD PUSH2 0x806 SWAP1 PUSH2 0x4B0A JUMP JUMPDEST PUSH1 0x0 DUP4 GT PUSH2 0x2697 JUMPI PUSH1 0x40 MLOAD PUSH3 0x461BCD PUSH1 0xE5 SHL DUP2 MSTORE PUSH1 0x4 ADD PUSH2 0x806 SWAP1 PUSH2 0x4D1F JUMP JUMPDEST PUSH2 0x1C5 SLOAD PUSH2 0x26AD SWAP1 PUSH1 0x1 PUSH1 0x1 PUSH1 0xA0 SHL SUB AND PUSH2 0x3A52 JUMP JUMPDEST PUSH1 0x1 PUSH1 0x1 PUSH1 0xA0 SHL SUB AND PUSH4 0x1852F200 CALLER PUSH2 0x1C8 PUSH1 0x40 MLOAD DUP4 PUSH4 0xFFFFFFFF AND PUSH1 0xE0 SHL DUP2 MSTORE PUSH1 0x4 ADD PUSH2 0x26DC SWAP3 SWAP2 SWAP1 PUSH2 0x469D JUMP JUMPDEST PUSH1 0x20 PUSH1 0x40 MLOAD DUP1 DUP4 SUB DUP2 DUP7 DUP1 EXTCODESIZE ISZERO DUP1 ISZERO PUSH2 0x26F4 JUMPI PUSH1 0x0 DUP1 REVERT JUMPDEST POP GAS STATICCALL ISZERO DUP1 ISZERO PUSH2 0x2708 JUMPI RETURNDATASIZE PUSH1 0x0 DUP1 RETURNDATACOPY RETURNDATASIZE PUSH1 0x0 REVERT JUMPDEST POP POP POP POP PUSH1 0x40 MLOAD RETURNDATASIZE PUSH1 0x1F NOT PUSH1 0x1F DUP3 ADD AND DUP3 ADD DUP1 PUSH1 0x40 MSTORE POP DUP2 ADD SWAP1 PUSH2 0x272C SWAP2 SWAP1 PUSH2 0x44EE JUMP JUMPDEST PUSH2 0x2748 JUMPI PUSH1 0x40 MLOAD PUSH3 0x461BCD PUSH1 0xE5 SHL DUP2 MSTORE PUSH1 0x4 ADD PUSH2 0x806 SWAP1 PUSH2 0x4E30 JUMP JUMPDEST PUSH2 0x1CA SLOAD TIMESTAMP GT PUSH2 0x276A JUMPI PUSH1 0x40 MLOAD PUSH3 0x461BCD PUSH1 0xE5 SHL DUP2 MSTORE PUSH1 0x4 ADD PUSH2 0x806 SWAP1 PUSH2 0x4FC6 JUMP JUMPDEST DUP1 SLOAD PUSH2 0x2775 SWAP1 PUSH2 0x3B68 JUMP JUMPDEST ISZERO PUSH2 0x27C2 JUMPI PUSH2 0x27A6 PUSH32 0x956624BFBE09C0E98E645D61EBA0DE4CE88E8CCEABDB00FEAD208D19A8E1209B PUSH2 0x596 PUSH2 0x2E1B JUMP JUMPDEST PUSH2 0x27C2 JUMPI PUSH1 0x40 MLOAD PUSH3 0x461BCD PUSH1 0xE5 SHL DUP2 MSTORE PUSH1 0x4 ADD PUSH2 0x806 SWAP1 PUSH2 0x4963 JUMP JUMPDEST PUSH1 0x1 DUP2 ADD SLOAD PUSH2 0x27D1 SWAP1 DUP5 PUSH2 0x3AD3 JUMP JUMPDEST PUSH1 0x1 DUP3 ADD SSTORE PUSH2 0x27DE PUSH2 0x4288 JUMP JUMPDEST POP PUSH1 0x40 DUP1 MLOAD DUP1 DUP3 ADD SWAP1 SWAP2 MSTORE DUP4 DUP2 MSTORE PUSH1 0x20 DUP2 ADD DUP6 SWAP1 MSTORE PUSH2 0x1C5 SLOAD PUSH2 0x2809 SWAP1 PUSH1 0x1 PUSH1 0x1 PUSH1 0xA0 SHL SUB AND PUSH2 0x33F6 JUMP JUMPDEST PUSH1 0x1 PUSH1 0x1 PUSH1 0xA0 SHL SUB AND PUSH4 0x5BE57B6A DUP3 CALLER PUSH1 0x40 MLOAD DUP4 PUSH4 0xFFFFFFFF AND PUSH1 0xE0 SHL DUP2 MSTORE PUSH1 0x4 ADD PUSH2 0x2836 SWAP3 SWAP2 SWAP1 PUSH2 0x526F JUMP JUMPDEST PUSH1 0x20 PUSH1 0x40 MLOAD DUP1 DUP4 SUB DUP2 PUSH1 0x0 DUP8 DUP1 EXTCODESIZE ISZERO DUP1 ISZERO PUSH2 0x2850 JUMPI PUSH1 0x0 DUP1 REVERT JUMPDEST POP GAS CALL ISZERO DUP1 ISZERO PUSH2 0x2864 JUMPI RETURNDATASIZE PUSH1 0x0 DUP1 RETURNDATACOPY RETURNDATASIZE PUSH1 0x0 REVERT JUMPDEST POP POP POP POP PUSH1 0x40 MLOAD RETURNDATASIZE PUSH1 0x1F NOT PUSH1 0x1F DUP3 ADD AND DUP3 ADD DUP1 PUSH1 0x40 MSTORE POP DUP2 ADD SWAP1 PUSH2 0x2888 SWAP2 SWAP1 PUSH2 0x45EA JUMP JUMPDEST PUSH2 0x1C5 SLOAD SWAP1 SWAP4 POP PUSH2 0x28AD SWAP1 PUSH2 0x28A5 SWAP1 PUSH1 0x1 PUSH1 0x1 PUSH1 0xA0 SHL SUB AND PUSH2 0x2DCF JUMP JUMPDEST CALLER ADDRESS DUP8 PUSH2 0x2DDA JUMP JUMPDEST DUP3 DUP6 CALLER PUSH1 0x1 PUSH1 0x1 PUSH1 0xA0 SHL SUB AND PUSH32 0xCB3EF4109DCD006671348924F00AAC8398190A5FF283D6E470D74581513E1036 DUP8 PUSH1 0x40 MLOAD PUSH2 0x28E8 SWAP2 SWAP1 PUSH2 0x47A8 JUMP JUMPDEST PUSH1 0x40 MLOAD DUP1 SWAP2 SUB SWAP1 LOG4 POP POP PUSH1 0xC9 DUP1 SLOAD PUSH1 0xFF NOT AND PUSH1 0x1 OR SWAP1 SSTORE SWAP3 SWAP2 POP POP JUMP JUMPDEST PUSH32 0xB19546DFF01E856FB3F010C267A7B1C60363CF8A4664E21CC89C26224620214E DUP2 JUMP JUMPDEST PUSH32 0x65D7A28E3265B37A6474929F336521B332C1681B933F6CB9F3376673440D862A DUP2 JUMP JUMPDEST PUSH32 0xAF9A8BB3CBD6B84FBCCEFA71FF73E26E798553C6914585A84886212A46A90279 DUP2 JUMP JUMPDEST PUSH1 0x0 PUSH2 0x7B7 DUP4 DUP4 PUSH1 0x40 MLOAD DUP1 PUSH1 0x40 ADD PUSH1 0x40 MSTORE DUP1 PUSH1 0x1E DUP2 MSTORE PUSH1 0x20 ADD PUSH32 0x536166654D6174683A207375627472616374696F6E206F766572666C6F770000 DUP2 MSTORE POP PUSH2 0x3B7E JUMP JUMPDEST PUSH2 0x29BB PUSH2 0x37F2 JUMP JUMPDEST ISZERO PUSH2 0x29D8 JUMPI PUSH1 0x40 MLOAD PUSH3 0x461BCD PUSH1 0xE5 SHL DUP2 MSTORE PUSH1 0x4 ADD PUSH2 0x806 SWAP1 PUSH2 0x4C54 JUMP JUMPDEST PUSH2 0x1CB DUP2 DUP2 SLOAD DUP2 LT PUSH2 0x29E6 JUMPI INVALID JUMPDEST SWAP1 PUSH1 0x0 MSTORE PUSH1 0x20 PUSH1 0x0 KECCAK256 SWAP1 PUSH1 0xC MUL ADD PUSH1 0x5 ADD PUSH1 0x4 ADD SLOAD PUSH1 0x0 EQ PUSH2 0x2A1A JUMPI PUSH1 0x40 MLOAD PUSH3 0x461BCD PUSH1 0xE5 SHL DUP2 MSTORE PUSH1 0x4 ADD PUSH2 0x806 SWAP1 PUSH2 0x51DB JUMP JUMPDEST PUSH2 0x1C5 SLOAD PUSH1 0x0 SWAP1 PUSH2 0x2A45 SWAP1 PUSH2 0x2A37 SWAP1 PUSH1 0x1 PUSH1 0x1 PUSH1 0xA0 SHL SUB AND PUSH2 0x3BAA JUMP JUMPDEST PUSH2 0x2A3F PUSH2 0x3C43 JUMP JUMPDEST SWAP1 PUSH2 0x3AD3 JUMP JUMPDEST SWAP1 POP DUP1 PUSH2 0x1CB DUP4 DUP2 SLOAD DUP2 LT PUSH2 0x2A56 JUMPI INVALID JUMPDEST PUSH1 0x0 SWAP2 DUP3 MSTORE PUSH1 0x20 SWAP1 SWAP2 KECCAK256 PUSH1 0x9 PUSH1 0xC SWAP1 SWAP3 MUL ADD ADD SSTORE PUSH2 0x1CB DUP1 SLOAD ADDRESS SWAP2 PUSH32 0xF839B119F21FB055E13AEBAC51BCA6B308F52EC2D8DB8306CE4D092D964E5BD0 SWAP2 DUP6 SWAP1 DUP2 LT PUSH2 0x2A9D JUMPI INVALID JUMPDEST SWAP1 PUSH1 0x0 MSTORE PUSH1 0x20 PUSH1 0x0 KECCAK256 SWAP1 PUSH1 0xC MUL ADD PUSH1 0x5 ADD PUSH1 0x0 ADD SLOAD DUP4 PUSH1 0x40 MLOAD PUSH2 0x2AC1 SWAP3 SWAP2 SWAP1 PUSH2 0x52D2 JUMP JUMPDEST PUSH1 0x40 MLOAD DUP1 SWAP2 SUB SWAP1 LOG2 POP POP JUMP JUMPDEST ADDRESS EXTCODESIZE ISZERO SWAP1 JUMP JUMPDEST PUSH1 0x0 SLOAD PUSH2 0x100 SWAP1 DIV PUSH1 0xFF AND DUP1 PUSH2 0x2AEC JUMPI POP PUSH2 0x2AEC PUSH2 0x2ACD JUMP JUMPDEST DUP1 PUSH2 0x2AFA JUMPI POP PUSH1 0x0 SLOAD PUSH1 0xFF AND ISZERO JUMPDEST PUSH2 0x2B16 JUMPI PUSH1 0x40 MLOAD PUSH3 0x461BCD PUSH1 0xE5 SHL DUP2 MSTORE PUSH1 0x4 ADD PUSH2 0x806 SWAP1 PUSH2 0x4EFB JUMP JUMPDEST PUSH1 0x0 SLOAD PUSH2 0x100 SWAP1 DIV PUSH1 0xFF AND ISZERO DUP1 ISZERO PUSH2 0x1551 JUMPI PUSH1 0x0 DUP1 SLOAD PUSH1 0xFF NOT PUSH2 0xFF00 NOT SWAP1 SWAP2 AND PUSH2 0x100 OR AND PUSH1 0x1 OR SWAP1 SSTORE DUP1 ISZERO PUSH2 0xE99 JUMPI PUSH1 0x0 DUP1 SLOAD PUSH2 0xFF00 NOT AND SWAP1 SSTORE POP JUMP JUMPDEST PUSH1 0x0 SLOAD PUSH2 0x100 SWAP1 DIV PUSH1 0xFF AND DUP1 PUSH2 0x2B6D JUMPI POP PUSH2 0x2B6D PUSH2 0x2ACD JUMP JUMPDEST DUP1 PUSH2 0x2B7B JUMPI POP PUSH1 0x0 SLOAD PUSH1 0xFF AND ISZERO JUMPDEST PUSH2 0x2B97 JUMPI PUSH1 0x40 MLOAD PUSH3 0x461BCD PUSH1 0xE5 SHL DUP2 MSTORE PUSH1 0x4 ADD PUSH2 0x806 SWAP1 PUSH2 0x4EFB JUMP JUMPDEST PUSH1 0x0 SLOAD PUSH2 0x100 SWAP1 DIV PUSH1 0xFF AND ISZERO DUP1 ISZERO PUSH2 0x2BC2 JUMPI PUSH1 0x0 DUP1 SLOAD PUSH1 0xFF NOT PUSH2 0xFF00 NOT SWAP1 SWAP2 AND PUSH2 0x100 OR AND PUSH1 0x1 OR SWAP1 SSTORE JUMPDEST PUSH1 0x97 DUP1 SLOAD PUSH1 0xFF NOT AND SWAP1 SSTORE DUP1 ISZERO PUSH2 0xE99 JUMPI PUSH1 0x0 DUP1 SLOAD PUSH2 0xFF00 NOT AND SWAP1 SSTORE POP JUMP JUMPDEST PUSH1 0x0 SLOAD PUSH2 0x100 SWAP1 DIV PUSH1 0xFF AND DUP1 PUSH2 0x2BF9 JUMPI POP PUSH2 0x2BF9 PUSH2 0x2ACD JUMP JUMPDEST DUP1 PUSH2 0x2C07 JUMPI POP PUSH1 0x0 SLOAD PUSH1 0xFF AND ISZERO JUMPDEST PUSH2 0x2C23 JUMPI PUSH1 0x40 MLOAD PUSH3 0x461BCD PUSH1 0xE5 SHL DUP2 MSTORE PUSH1 0x4 ADD PUSH2 0x806 SWAP1 PUSH2 0x4EFB JUMP JUMPDEST PUSH1 0x0 SLOAD PUSH2 0x100 SWAP1 DIV PUSH1 0xFF AND ISZERO DUP1 ISZERO PUSH2 0x2C4E JUMPI PUSH1 0x0 DUP1 SLOAD PUSH1 0xFF NOT PUSH2 0xFF00 NOT SWAP1 SWAP2 AND PUSH2 0x100 OR AND PUSH1 0x1 OR SWAP1 SSTORE JUMPDEST PUSH1 0xC9 DUP1 SLOAD PUSH1 0xFF NOT AND PUSH1 0x1 OR SWAP1 SSTORE DUP1 ISZERO PUSH2 0xE99 JUMPI PUSH1 0x0 DUP1 SLOAD PUSH2 0xFF00 NOT AND SWAP1 SSTORE POP JUMP JUMPDEST PUSH1 0x0 SWAP2 DUP3 MSTORE PUSH1 0x65 PUSH1 0x20 MSTORE PUSH1 0x40 SWAP1 SWAP2 KECCAK256 PUSH1 0x2 ADD SSTORE JUMP JUMPDEST PUSH2 0x1C5 SLOAD PUSH1 0x0 SWAP1 PUSH2 0x2C9D SWAP1 PUSH1 0x1 PUSH1 0x1 PUSH1 0xA0 SHL SUB AND PUSH2 0x3C47 JUMP JUMPDEST PUSH1 0x1 PUSH1 0x1 PUSH1 0xA0 SHL SUB AND PUSH4 0x1B21551 PUSH1 0x40 MLOAD DUP2 PUSH4 0xFFFFFFFF AND PUSH1 0xE0 SHL DUP2 MSTORE PUSH1 0x4 ADD PUSH1 0x20 PUSH1 0x40 MLOAD DUP1 DUP4 SUB DUP2 PUSH1 0x0 DUP8 DUP1 EXTCODESIZE ISZERO DUP1 ISZERO PUSH2 0x2CD7 JUMPI PUSH1 0x0 DUP1 REVERT JUMPDEST POP GAS CALL ISZERO DUP1 ISZERO PUSH2 0x2CEB JUMPI RETURNDATASIZE PUSH1 0x0 DUP1 RETURNDATACOPY RETURNDATASIZE PUSH1 0x0 REVERT JUMPDEST POP POP POP POP PUSH1 0x40 MLOAD RETURNDATASIZE PUSH1 0x1F NOT PUSH1 0x1F DUP3 ADD AND DUP3 ADD DUP1 PUSH1 0x40 MSTORE POP DUP2 ADD SWAP1 PUSH2 0x2D0F SWAP2 SWAP1 PUSH2 0x4315 JUMP JUMPDEST PUSH2 0x1C3 DUP1 SLOAD PUSH20 0xFFFFFFFFFFFFFFFFFFFFFFFFFFFFFFFFFFFFFFFF NOT AND PUSH1 0x1 PUSH1 0x1 PUSH1 0xA0 SHL SUB DUP4 DUP2 AND SWAP2 SWAP1 SWAP2 OR SWAP2 DUP3 SWAP1 SSTORE PUSH2 0x1C5 SLOAD PUSH1 0x40 MLOAD PUSH32 0xBB4A250900000000000000000000000000000000000000000000000000000000 DUP2 MSTORE SWAP4 SWAP5 POP SWAP2 DUP2 AND SWAP3 PUSH4 0xBB4A2509 SWAP3 PUSH2 0x2D93 SWAP3 AND SWAP1 ADDRESS SWAP1 DUP14 SWAP1 DUP14 SWAP1 DUP14 SWAP1 DUP14 SWAP1 DUP14 SWAP1 DUP14 SWAP1 DUP14 SWAP1 PUSH1 0x4 ADD PUSH2 0x4729 JUMP JUMPDEST PUSH1 0x0 PUSH1 0x40 MLOAD DUP1 DUP4 SUB DUP2 PUSH1 0x0 DUP8 DUP1 EXTCODESIZE ISZERO DUP1 ISZERO PUSH2 0x2DAD JUMPI PUSH1 0x0 DUP1 REVERT JUMPDEST POP GAS CALL ISZERO DUP1 ISZERO PUSH2 0x2DC1 JUMPI RETURNDATASIZE PUSH1 0x0 DUP1 RETURNDATACOPY RETURNDATASIZE PUSH1 0x0 REVERT JUMPDEST POP POP POP POP POP POP POP POP POP POP POP POP JUMP JUMPDEST PUSH1 0x0 PUSH2 0x7BA DUP3 PUSH2 0x3C52 JUMP JUMPDEST PUSH1 0x40 DUP1 MLOAD DUP1 DUP3 ADD SWAP1 SWAP2 MSTORE PUSH1 0x18 DUP2 MSTORE PUSH32 0x4661696C656420746F207472616E736665722045524332300000000000000000 PUSH1 0x20 DUP3 ADD MSTORE PUSH2 0xE94 DUP6 DUP6 DUP6 DUP6 DUP6 PUSH2 0x3C6A JUMP JUMPDEST CALLER SWAP1 JUMP JUMPDEST PUSH1 0x0 DUP3 DUP2 MSTORE PUSH1 0x65 PUSH1 0x20 MSTORE PUSH1 0x40 SWAP1 KECCAK256 PUSH2 0x2E37 SWAP1 DUP3 PUSH2 0x3D58 JUMP JUMPDEST ISZERO PUSH2 0x9D2 JUMPI PUSH2 0x2E44 PUSH2 0x2E1B JUMP JUMPDEST PUSH1 0x1 PUSH1 0x1 PUSH1 0xA0 SHL SUB AND DUP2 PUSH1 0x1 PUSH1 0x1 PUSH1 0xA0 SHL SUB AND DUP4 PUSH32 0x2F8788117E7EFF1D82E926EC794901D17C78024A50270940304540A733656F0D PUSH1 0x40 MLOAD PUSH1 0x40 MLOAD DUP1 SWAP2 SUB SWAP1 LOG4 POP POP JUMP JUMPDEST PUSH1 0x0 PUSH1 0x1 PUSH1 0x1 PUSH1 0xA0 SHL SUB DUP3 AND PUSH4 0xB93F9B0A PUSH1 0x6 JUMPDEST PUSH1 0x40 MLOAD DUP3 PUSH4 0xFFFFFFFF AND PUSH1 0xE0 SHL DUP2 MSTORE PUSH1 0x4 ADD PUSH2 0x2EB8 SWAP2 SWAP1 PUSH2 0x47A8 JUMP JUMPDEST PUSH1 0x20 PUSH1 0x40 MLOAD DUP1 DUP4 SUB DUP2 DUP7 DUP1 EXTCODESIZE ISZERO DUP1 ISZERO PUSH2 0x2ED0 JUMPI PUSH1 0x0 DUP1 REVERT JUMPDEST POP GAS STATICCALL ISZERO DUP1 ISZERO PUSH2 0x2EE4 JUMPI RETURNDATASIZE PUSH1 0x0 DUP1 RETURNDATACOPY RETURNDATASIZE PUSH1 0x0 REVERT JUMPDEST POP POP POP POP PUSH1 0x40 MLOAD RETURNDATASIZE PUSH1 0x1F NOT PUSH1 0x1F DUP3 ADD AND DUP3 ADD DUP1 PUSH1 0x40 MSTORE POP DUP2 ADD SWAP1 PUSH2 0x7BA SWAP2 SWAP1 PUSH2 0x4315 JUMP JUMPDEST PUSH2 0x235C DUP4 DUP4 DUP4 PUSH1 0x40 MLOAD DUP1 PUSH1 0x40 ADD PUSH1 0x40 MSTORE DUP1 PUSH1 0x18 DUP2 MSTORE PUSH1 0x20 ADD PUSH32 0x4661696C656420746F207472616E736665722045524332300000000000000000 DUP2 MSTORE POP PUSH2 0x3D6D JUMP JUMPDEST PUSH1 0x0 DUP3 DUP2 MSTORE PUSH1 0x65 PUSH1 0x20 MSTORE PUSH1 0x40 SWAP1 KECCAK256 PUSH2 0x2F61 SWAP1 DUP3 PUSH2 0x3E58 JUMP JUMPDEST ISZERO PUSH2 0x9D2 JUMPI PUSH2 0x2F6E PUSH2 0x2E1B JUMP JUMPDEST PUSH1 0x1 PUSH1 0x1 PUSH1 0xA0 SHL SUB AND DUP2 PUSH1 0x1 PUSH1 0x1 PUSH1 0xA0 SHL SUB AND DUP4 PUSH32 0xF6391F5C32D9C69D2A47EA670B442974B53935D1EDC7FD64EB21E047A839171B PUSH1 0x40 MLOAD PUSH1 0x40 MLOAD DUP1 SWAP2 SUB SWAP1 LOG4 POP POP JUMP JUMPDEST PUSH1 0x97 SLOAD PUSH1 0xFF AND PUSH2 0x2FD4 JUMPI PUSH1 0x40 MLOAD PUSH3 0x461BCD PUSH1 0xE5 SHL DUP2 MSTORE PUSH1 0x4 ADD PUSH2 0x806 SWAP1 PUSH2 0x48BE JUMP JUMPDEST PUSH1 0x97 DUP1 SLOAD PUSH1 0xFF NOT AND SWAP1 SSTORE PUSH32 0x5DB9EE0A495BF2E6FF9C91A7834C1BA4FDD244A5E8AA4E537BD38AEAE4B073AA PUSH2 0x3007 PUSH2 0x2E1B JUMP JUMPDEST PUSH1 0x40 MLOAD PUSH2 0x3014 SWAP2 SWAP1 PUSH2 0x4689 JUMP JUMPDEST PUSH1 0x40 MLOAD DUP1 SWAP2 SUB SWAP1 LOG1 JUMP JUMPDEST PUSH2 0x1CB SLOAD PUSH1 0x0 SWAP1 PUSH2 0x3030 SWAP1 PUSH1 0x1 PUSH2 0x2971 JUMP JUMPDEST SWAP1 POP PUSH1 0x0 PUSH2 0x1CB DUP3 DUP2 SLOAD DUP2 LT PUSH2 0x3042 JUMPI INVALID JUMPDEST SWAP1 PUSH1 0x0 MSTORE PUSH1 0x20 PUSH1 0x0 KECCAK256 SWAP1 PUSH1 0xC MUL ADD PUSH1 0x5 ADD PUSH1 0x4 ADD SLOAD GT PUSH2 0x3074 JUMPI PUSH1 0x40 MLOAD PUSH3 0x461BCD PUSH1 0xE5 SHL DUP2 MSTORE PUSH1 0x4 ADD PUSH2 0x806 SWAP1 PUSH2 0x4B78 JUMP JUMPDEST PUSH2 0x1CB DUP2 DUP2 SLOAD DUP2 LT PUSH2 0x3082 JUMPI INVALID JUMPDEST SWAP1 PUSH1 0x0 MSTORE PUSH1 0x20 PUSH1 0x0 KECCAK256 SWAP1 PUSH1 0xC MUL ADD PUSH1 0x0 ADD PUSH1 0x4 ADD SLOAD PUSH1 0x0 EQ PUSH2 0x30B6 JUMPI PUSH1 0x40 MLOAD PUSH3 0x461BCD PUSH1 0xE5 SHL DUP2 MSTORE PUSH1 0x4 ADD PUSH2 0x806 SWAP1 PUSH2 0x4F58 JUMP JUMPDEST PUSH1 0x0 PUSH2 0x3106 PUSH2 0x1CB DUP4 DUP2 SLOAD DUP2 LT PUSH2 0x30C9 JUMPI INVALID JUMPDEST SWAP1 PUSH1 0x0 MSTORE PUSH1 0x20 PUSH1 0x0 KECCAK256 SWAP1 PUSH1 0xC MUL ADD PUSH1 0x0 ADD PUSH1 0x1 ADD SLOAD PUSH2 0x1CB DUP5 DUP2 SLOAD DUP2 LT PUSH2 0x30EC JUMPI INVALID JUMPDEST PUSH1 0x0 SWAP2 DUP3 MSTORE PUSH1 0x20 SWAP1 SWAP2 KECCAK256 PUSH1 0x6 PUSH1 0xC SWAP1 SWAP3 MUL ADD ADD SLOAD SWAP1 PUSH2 0x3AD3 JUMP JUMPDEST PUSH2 0x1C3 SLOAD PUSH1 0x40 DUP1 MLOAD PUSH4 0xA4D66DAF PUSH1 0xE0 SHL DUP2 MSTORE SWAP1 MLOAD SWAP3 SWAP4 POP PUSH1 0x1 PUSH1 0x1 PUSH1 0xA0 SHL SUB SWAP1 SWAP2 AND SWAP2 PUSH4 0x27EA6F2B SWAP2 PUSH2 0x3224 SWAP2 PUSH2 0x3198 SWAP2 DUP7 SWAP2 DUP7 SWAP2 PUSH4 0xA4D66DAF SWAP2 PUSH1 0x4 DUP1 DUP4 ADD SWAP3 PUSH1 0x20 SWAP3 SWAP2 SWAP1 DUP3 SWAP1 SUB ADD DUP2 DUP7 DUP1 EXTCODESIZE ISZERO DUP1 ISZERO PUSH2 0x3160 JUMPI PUSH1 0x0 DUP1 REVERT JUMPDEST POP GAS STATICCALL ISZERO DUP1 ISZERO PUSH2 0x3174 JUMPI RETURNDATASIZE PUSH1 0x0 DUP1 RETURNDATACOPY RETURNDATASIZE PUSH1 0x0 REVERT JUMPDEST POP POP POP POP PUSH1 0x40 MLOAD RETURNDATASIZE PUSH1 0x1F NOT PUSH1 0x1F DUP3 ADD AND DUP3 ADD DUP1 PUSH1 0x40 MSTORE POP DUP2 ADD SWAP1 PUSH2 0x2A3F SWAP2 SWAP1 PUSH2 0x45EA JUMP JUMPDEST PUSH2 0x1C3 PUSH1 0x0 SWAP1 SLOAD SWAP1 PUSH2 0x100 EXP SWAP1 DIV PUSH1 0x1 PUSH1 0x1 PUSH1 0xA0 SHL SUB AND PUSH1 0x1 PUSH1 0x1 PUSH1 0xA0 SHL SUB AND PUSH4 0x1A861D26 PUSH1 0x40 MLOAD DUP2 PUSH4 0xFFFFFFFF AND PUSH1 0xE0 SHL DUP2 MSTORE PUSH1 0x4 ADD PUSH1 0x20 PUSH1 0x40 MLOAD DUP1 DUP4 SUB DUP2 DUP7 DUP1 EXTCODESIZE ISZERO DUP1 ISZERO PUSH2 0x31E7 JUMPI PUSH1 0x0 DUP1 REVERT JUMPDEST POP GAS STATICCALL ISZERO DUP1 ISZERO PUSH2 0x31FB JUMPI RETURNDATASIZE PUSH1 0x0 DUP1 RETURNDATACOPY RETURNDATASIZE PUSH1 0x0 REVERT JUMPDEST POP POP POP POP PUSH1 0x40 MLOAD RETURNDATASIZE PUSH1 0x1F NOT PUSH1 0x1F DUP3 ADD AND DUP3 ADD DUP1 PUSH1 0x40 MSTORE POP DUP2 ADD SWAP1 PUSH2 0x321F SWAP2 SWAP1 PUSH2 0x45EA JUMP JUMPDEST PUSH2 0x3E6D JUMP JUMPDEST PUSH1 0x40 MLOAD DUP3 PUSH4 0xFFFFFFFF AND PUSH1 0xE0 SHL DUP2 MSTORE PUSH1 0x4 ADD PUSH2 0x3240 SWAP2 SWAP1 PUSH2 0x47A8 JUMP JUMPDEST PUSH1 0x0 PUSH1 0x40 MLOAD DUP1 DUP4 SUB DUP2 PUSH1 0x0 DUP8 DUP1 EXTCODESIZE ISZERO DUP1 ISZERO PUSH2 0x325A JUMPI PUSH1 0x0 DUP1 REVERT JUMPDEST POP GAS CALL ISZERO DUP1 ISZERO PUSH2 0x326E JUMPI RETURNDATASIZE PUSH1 0x0 DUP1 RETURNDATACOPY RETURNDATASIZE PUSH1 0x0 REVERT JUMPDEST POP POP PUSH2 0x1C5 SLOAD PUSH1 0x0 SWAP3 POP PUSH2 0x328B SWAP2 POP PUSH1 0x1 PUSH1 0x1 PUSH1 0xA0 SHL SUB AND PUSH2 0x3BAA JUMP JUMPDEST SWAP1 POP PUSH2 0x3299 DUP2 PUSH2 0x2A3F PUSH2 0x3C43 JUMP JUMPDEST PUSH2 0x1CB DUP5 DUP2 SLOAD DUP2 LT PUSH2 0x32A7 JUMPI INVALID JUMPDEST PUSH1 0x0 SWAP2 DUP3 MSTORE PUSH1 0x20 SWAP1 SWAP2 KECCAK256 PUSH1 0x4 PUSH1 0xC SWAP1 SWAP3 MUL ADD ADD SSTORE PUSH2 0x32C7 DUP2 PUSH2 0x2A3F PUSH2 0x3C43 JUMP JUMPDEST PUSH2 0x1CB DUP5 DUP2 SLOAD DUP2 LT PUSH2 0x32D5 JUMPI INVALID JUMPDEST PUSH1 0x0 SWAP2 DUP3 MSTORE PUSH1 0x20 SWAP1 SWAP2 KECCAK256 PUSH1 0x9 PUSH1 0xC SWAP1 SWAP3 MUL ADD ADD SSTORE PUSH2 0x1CB DUP1 SLOAD ADDRESS SWAP2 PUSH32 0xF839B119F21FB055E13AEBAC51BCA6B308F52EC2D8DB8306CE4D092D964E5BD0 SWAP2 DUP7 SWAP1 DUP2 LT PUSH2 0x331C JUMPI INVALID JUMPDEST SWAP1 PUSH1 0x0 MSTORE PUSH1 0x20 PUSH1 0x0 KECCAK256 SWAP1 PUSH1 0xC MUL ADD PUSH1 0x0 ADD PUSH1 0x0 ADD SLOAD PUSH2 0x1CB DUP7 DUP2 SLOAD DUP2 LT PUSH2 0x333F JUMPI INVALID JUMPDEST SWAP1 PUSH1 0x0 MSTORE PUSH1 0x20 PUSH1 0x0 KECCAK256 SWAP1 PUSH1 0xC MUL ADD PUSH1 0x0 ADD PUSH1 0x4 ADD SLOAD PUSH1 0x40 MLOAD PUSH2 0x3362 SWAP3 SWAP2 SWAP1 PUSH2 0x52D2 JUMP JUMPDEST PUSH1 0x40 MLOAD DUP1 SWAP2 SUB SWAP1 LOG2 ADDRESS PUSH1 0x1 PUSH1 0x1 PUSH1 0xA0 SHL SUB AND PUSH32 0xF839B119F21FB055E13AEBAC51BCA6B308F52EC2D8DB8306CE4D092D964E5BD0 PUSH2 0x1CB DUP6 DUP2 SLOAD DUP2 LT PUSH2 0x33A3 JUMPI INVALID JUMPDEST SWAP1 PUSH1 0x0 MSTORE PUSH1 0x20 PUSH1 0x0 KECCAK256 SWAP1 PUSH1 0xC MUL ADD PUSH1 0x5 ADD PUSH1 0x0 ADD SLOAD PUSH2 0x1CB DUP7 DUP2 SLOAD DUP2 LT PUSH2 0x33C6 JUMPI INVALID JUMPDEST SWAP1 PUSH1 0x0 MSTORE PUSH1 0x20 PUSH1 0x0 KECCAK256 SWAP1 PUSH1 0xC MUL ADD PUSH1 0x5 ADD PUSH1 0x4 ADD SLOAD PUSH1 0x40 MLOAD PUSH2 0x33E9 SWAP3 SWAP2 SWAP1 PUSH2 0x52D2 JUMP JUMPDEST PUSH1 0x40 MLOAD DUP1 SWAP2 SUB SWAP1 LOG2 POP POP POP JUMP JUMPDEST PUSH1 0x0 PUSH2 0x7BA DUP3 PUSH2 0x3E83 JUMP JUMPDEST PUSH1 0x0 DUP1 DUP3 GT DUP1 ISZERO PUSH2 0x3420 JUMPI POP PUSH2 0x1CB SLOAD PUSH2 0x341C SWAP1 PUSH1 0x2 PUSH2 0x3E9B JUMP JUMPDEST DUP3 GT ISZERO JUMPDEST PUSH2 0x343C JUMPI PUSH1 0x40 MLOAD PUSH3 0x461BCD PUSH1 0xE5 SHL DUP2 MSTORE PUSH1 0x4 ADD PUSH2 0x806 SWAP1 PUSH2 0x4BAF JUMP JUMPDEST PUSH1 0x0 PUSH2 0x3468 PUSH1 0x1 PUSH2 0x3462 PUSH1 0x2 PUSH2 0x345C PUSH2 0x3455 DUP9 DUP4 PUSH2 0x3ED5 JUMP JUMPDEST DUP9 SWAP1 PUSH2 0x3AD3 JUMP JUMPDEST SWAP1 PUSH2 0x3F17 JUMP JUMPDEST SWAP1 PUSH2 0x2971 JUMP JUMPDEST SWAP1 POP PUSH1 0x0 PUSH2 0x1CB DUP3 DUP2 SLOAD DUP2 LT PUSH2 0x347A JUMPI INVALID JUMPDEST PUSH1 0x0 SWAP2 DUP3 MSTORE PUSH1 0x20 DUP3 KECCAK256 PUSH1 0xC SWAP1 SWAP2 MUL ADD SWAP2 POP PUSH2 0x3496 DUP6 PUSH1 0x2 PUSH2 0x3ED5 JUMP JUMPDEST PUSH1 0x1 EQ PUSH2 0x34A6 JUMPI DUP2 PUSH1 0x5 ADD PUSH2 0x34A8 JUMP JUMPDEST DUP2 JUMPDEST SWAP6 SWAP5 POP POP POP POP POP JUMP JUMPDEST PUSH2 0x1C5 SLOAD PUSH1 0x0 SWAP1 DUP2 SWAP1 PUSH2 0x34CC SWAP1 PUSH1 0x1 PUSH1 0x1 PUSH1 0xA0 SHL SUB AND PUSH2 0x33F6 JUMP JUMPDEST PUSH1 0x1 PUSH1 0x1 PUSH1 0xA0 SHL SUB AND PUSH4 0x430C2081 CALLER DUP7 PUSH1 0x40 MLOAD DUP4 PUSH4 0xFFFFFFFF AND PUSH1 0xE0 SHL DUP2 MSTORE PUSH1 0x4 ADD PUSH2 0x34F9 SWAP3 SWAP2 SWAP1 PUSH2 0x46F6 JUMP JUMPDEST PUSH1 0x20 PUSH1 0x40 MLOAD DUP1 DUP4 SUB DUP2 DUP7 DUP1 EXTCODESIZE ISZERO DUP1 ISZERO PUSH2 0x3511 JUMPI PUSH1 0x0 DUP1 REVERT JUMPDEST POP GAS STATICCALL ISZERO DUP1 ISZERO PUSH2 0x3525 JUMPI RETURNDATASIZE PUSH1 0x0 DUP1 RETURNDATACOPY RETURNDATASIZE PUSH1 0x0 REVERT JUMPDEST POP POP POP POP PUSH1 0x40 MLOAD RETURNDATASIZE PUSH1 0x1F NOT PUSH1 0x1F DUP3 ADD AND DUP3 ADD DUP1 PUSH1 0x40 MSTORE POP DUP2 ADD SWAP1 PUSH2 0x3549 SWAP2 SWAP1 PUSH2 0x44EE JUMP JUMPDEST PUSH2 0x3565 JUMPI PUSH1 0x40 MLOAD PUSH3 0x461BCD PUSH1 0xE5 SHL DUP2 MSTORE PUSH1 0x4 ADD PUSH2 0x806 SWAP1 PUSH2 0x5034 JUMP JUMPDEST PUSH2 0x1C5 SLOAD PUSH2 0x357B SWAP1 PUSH1 0x1 PUSH1 0x1 PUSH1 0xA0 SHL SUB AND PUSH2 0x3A52 JUMP JUMPDEST PUSH1 0x1 PUSH1 0x1 PUSH1 0xA0 SHL SUB AND PUSH4 0x1852F200 CALLER PUSH2 0x1C8 PUSH1 0x40 MLOAD DUP4 PUSH4 0xFFFFFFFF AND PUSH1 0xE0 SHL DUP2 MSTORE PUSH1 0x4 ADD PUSH2 0x35AA SWAP3 SWAP2 SWAP1 PUSH2 0x469D JUMP JUMPDEST PUSH1 0x20 PUSH1 0x40 MLOAD DUP1 DUP4 SUB DUP2 DUP7 DUP1 EXTCODESIZE ISZERO DUP1 ISZERO PUSH2 0x35C2 JUMPI PUSH1 0x0 DUP1 REVERT JUMPDEST POP GAS STATICCALL ISZERO DUP1 ISZERO PUSH2 0x35D6 JUMPI RETURNDATASIZE PUSH1 0x0 DUP1 RETURNDATACOPY RETURNDATASIZE PUSH1 0x0 REVERT JUMPDEST POP POP POP POP PUSH1 0x40 MLOAD RETURNDATASIZE PUSH1 0x1F NOT PUSH1 0x1F DUP3 ADD AND DUP3 ADD DUP1 PUSH1 0x40 MSTORE POP DUP2 ADD SWAP1 PUSH2 0x35FA SWAP2 SWAP1 PUSH2 0x44EE JUMP JUMPDEST PUSH2 0x3616 JUMPI PUSH1 0x40 MLOAD PUSH3 0x461BCD PUSH1 0xE5 SHL DUP2 MSTORE PUSH1 0x4 ADD PUSH2 0x806 SWAP1 PUSH2 0x4E30 JUMP JUMPDEST PUSH1 0x0 DUP4 GT PUSH2 0x3636 JUMPI PUSH1 0x40 MLOAD PUSH3 0x461BCD PUSH1 0xE5 SHL DUP2 MSTORE PUSH1 0x4 ADD PUSH2 0x806 SWAP1 PUSH2 0x4FFD JUMP JUMPDEST PUSH1 0x0 DUP1 PUSH2 0x3643 DUP9 DUP9 PUSH2 0x3A68 JUMP JUMPDEST SWAP1 SWAP3 POP SWAP1 POP PUSH1 0x0 PUSH2 0x3654 DUP4 DUP4 PUSH2 0x3AD3 JUMP JUMPDEST SWAP1 POP DUP1 DUP7 GT ISZERO PUSH2 0x3676 JUMPI PUSH1 0x40 MLOAD PUSH3 0x461BCD PUSH1 0xE5 SHL DUP2 MSTORE PUSH1 0x4 ADD PUSH2 0x806 SWAP1 PUSH2 0x4F8F JUMP JUMPDEST DUP9 PUSH1 0x4 ADD SLOAD PUSH2 0x3683 PUSH2 0x3C43 JUMP JUMPDEST GT PUSH2 0x36A0 JUMPI PUSH1 0x40 MLOAD PUSH3 0x461BCD PUSH1 0xE5 SHL DUP2 MSTORE PUSH1 0x4 ADD PUSH2 0x806 SWAP1 PUSH2 0x4CE8 JUMP JUMPDEST PUSH1 0x4 DUP10 ADD SLOAD PUSH2 0x36BE JUMPI PUSH1 0x1 DUP10 ADD SLOAD PUSH2 0x36B8 SWAP1 DUP8 PUSH2 0x2971 JUMP JUMPDEST PUSH1 0x1 DUP11 ADD SSTORE JUMPDEST PUSH1 0x0 PUSH2 0x36CA DUP5 DUP9 PUSH2 0x3E6D JUMP JUMPDEST SWAP1 POP PUSH1 0x0 PUSH2 0x36DC DUP5 PUSH2 0x321F DUP11 DUP6 PUSH2 0x2971 JUMP JUMPDEST PUSH2 0x1C5 SLOAD SWAP1 SWAP2 POP PUSH2 0x36F5 SWAP1 PUSH1 0x1 PUSH1 0x1 PUSH1 0xA0 SHL SUB AND PUSH2 0x33F6 JUMP JUMPDEST PUSH1 0x1 PUSH1 0x1 PUSH1 0xA0 SHL SUB AND PUSH4 0xB8192205 DUP11 DUP4 DUP6 PUSH1 0x40 MLOAD DUP5 PUSH4 0xFFFFFFFF AND PUSH1 0xE0 SHL DUP2 MSTORE PUSH1 0x4 ADD PUSH2 0x3724 SWAP4 SWAP3 SWAP2 SWAP1 PUSH2 0x52E0 JUMP JUMPDEST PUSH1 0x0 PUSH1 0x40 MLOAD DUP1 DUP4 SUB DUP2 PUSH1 0x0 DUP8 DUP1 EXTCODESIZE ISZERO DUP1 ISZERO PUSH2 0x373E JUMPI PUSH1 0x0 DUP1 REVERT JUMPDEST POP GAS CALL ISZERO DUP1 ISZERO PUSH2 0x3752 JUMPI RETURNDATASIZE PUSH1 0x0 DUP1 RETURNDATACOPY RETURNDATASIZE PUSH1 0x0 REVERT JUMPDEST POP POP PUSH2 0x1C5 SLOAD PUSH2 0x3781 SWAP3 POP PUSH2 0x3770 SWAP2 POP PUSH1 0x1 PUSH1 0x1 PUSH1 0xA0 SHL SUB AND PUSH2 0x2DCF JUMP JUMPDEST ADDRESS CALLER PUSH2 0x377C DUP6 DUP8 PUSH2 0x3AD3 JUMP JUMPDEST PUSH2 0x2DDA JUMP JUMPDEST DUP9 DUP11 PUSH1 0x20 ADD MLOAD CALLER PUSH1 0x1 PUSH1 0x1 PUSH1 0xA0 SHL SUB AND PUSH32 0x92F2787B755DAE547F1701582FE74C7ABF277EC14DB316DD01ABC69CACF7A259 DUP6 DUP6 PUSH1 0x40 MLOAD PUSH2 0x37C2 SWAP3 SWAP2 SWAP1 PUSH2 0x52D2 JUMP JUMPDEST PUSH1 0x40 MLOAD DUP1 SWAP2 SUB SWAP1 LOG4 SWAP1 SWAP11 SWAP1 SWAP10 POP SWAP8 POP POP POP POP POP POP POP POP JUMP JUMPDEST PUSH1 0x0 PUSH1 0x1 PUSH1 0x1 PUSH1 0xA0 SHL SUB DUP3 AND PUSH4 0xB93F9B0A PUSH1 0xB PUSH2 0x2E9C JUMP JUMPDEST PUSH2 0x1CB DUP1 SLOAD PUSH1 0x0 SWAP2 DUP3 SWAP2 PUSH2 0x3807 SWAP1 PUSH1 0x1 PUSH2 0x2971 JUMP JUMPDEST DUP2 SLOAD DUP2 LT PUSH2 0x3811 JUMPI INVALID JUMPDEST SWAP1 PUSH1 0x0 MSTORE PUSH1 0x20 PUSH1 0x0 KECCAK256 SWAP1 PUSH1 0xC MUL ADD PUSH1 0x0 ADD PUSH1 0x4 ADD SLOAD GT SWAP1 POP SWAP1 JUMP JUMPDEST PUSH2 0x1CB SLOAD PUSH1 0x5 DUP2 LT PUSH2 0x3850 JUMPI PUSH1 0x40 MLOAD PUSH3 0x461BCD PUSH1 0xE5 SHL DUP2 MSTORE PUSH1 0x4 ADD PUSH2 0x806 SWAP1 PUSH2 0x492C JUMP JUMPDEST PUSH1 0x40 DUP1 MLOAD PUSH2 0x120 DUP2 ADD SWAP1 SWAP2 MSTORE PUSH2 0x1CB SWAP1 DUP1 PUSH1 0x80 DUP2 ADD DUP1 PUSH2 0x3876 PUSH1 0x1 PUSH2 0x2A3F DUP9 PUSH1 0x2 PUSH2 0x3E9B JUMP JUMPDEST DUP2 MSTORE PUSH1 0x20 ADD PUSH1 0x0 DUP2 MSTORE PUSH1 0x20 ADD PUSH2 0x388D PUSH1 0x1 DUP1 PUSH2 0x24A2 JUMP JUMPDEST DUP2 MSTORE PUSH1 0x20 ADD PUSH1 0x0 DUP2 MSTORE PUSH1 0x20 ADD PUSH1 0x0 DUP2 MSTORE POP DUP2 MSTORE PUSH1 0x20 ADD PUSH1 0x40 MLOAD DUP1 PUSH1 0xA0 ADD PUSH1 0x40 MSTORE DUP1 PUSH2 0x38C7 PUSH1 0x2 PUSH2 0x2A3F PUSH1 0x2 DUP10 PUSH2 0x3E9B SWAP1 SWAP2 SWAP1 PUSH4 0xFFFFFFFF AND JUMP JUMPDEST DUP2 MSTORE PUSH1 0x20 ADD PUSH1 0x0 DUP2 MSTORE PUSH1 0x20 ADD PUSH2 0x38DE PUSH1 0x1 DUP1 PUSH2 0x24A2 JUMP JUMPDEST DUP2 MSTORE PUSH1 0x0 PUSH1 0x20 DUP1 DUP4 ADD DUP3 SWAP1 MSTORE PUSH1 0x40 SWAP3 DUP4 ADD DUP3 SWAP1 MSTORE SWAP3 DUP5 MSTORE DUP4 DUP4 ADD DUP2 SWAP1 MSTORE SWAP3 DUP2 ADD DUP4 SWAP1 MSTORE DUP5 SLOAD PUSH1 0x1 DUP2 DUP2 ADD DUP8 SSTORE SWAP6 DUP5 MSTORE SWAP3 DUP3 SWAP1 KECCAK256 DUP5 MLOAD DUP1 MLOAD PUSH1 0xC SWAP1 SWAP6 MUL SWAP1 SWAP2 ADD SWAP4 DUP5 SSTORE DUP1 DUP4 ADD MLOAD SWAP6 DUP5 ADD SWAP6 SWAP1 SWAP6 SSTORE DUP5 DUP2 ADD MLOAD PUSH1 0x2 DUP5 ADD SSTORE PUSH1 0x60 DUP1 DUP7 ADD MLOAD PUSH1 0x3 DUP6 ADD SSTORE PUSH1 0x80 SWAP6 DUP7 ADD MLOAD PUSH1 0x4 DUP6 ADD SSTORE DUP5 DUP4 ADD MLOAD DUP1 MLOAD PUSH1 0x5 DUP7 ADD SSTORE SWAP3 DUP4 ADD MLOAD PUSH1 0x6 DUP6 ADD SSTORE DUP3 DUP3 ADD MLOAD PUSH1 0x7 DUP6 ADD SSTORE DUP3 DUP2 ADD MLOAD PUSH1 0x8 DUP6 ADD SSTORE SWAP2 SWAP1 SWAP5 ADD MLOAD PUSH1 0x9 DUP4 ADD SSTORE SWAP3 DUP3 ADD MLOAD PUSH1 0xA DUP3 ADD SSTORE SWAP2 ADD MLOAD PUSH1 0xB SWAP1 SWAP2 ADD SSTORE POP PUSH2 0x1CA SSTORE JUMP JUMPDEST PUSH1 0x97 SLOAD PUSH1 0xFF AND ISZERO PUSH2 0x39B6 JUMPI PUSH1 0x40 MLOAD PUSH3 0x461BCD PUSH1 0xE5 SHL DUP2 MSTORE PUSH1 0x4 ADD PUSH2 0x806 SWAP1 PUSH2 0x4D56 JUMP JUMPDEST PUSH1 0x97 DUP1 SLOAD PUSH1 0xFF NOT AND PUSH1 0x1 OR SWAP1 SSTORE PUSH32 0x62E78CEA01BEE320CD4E420270B5EA74000D11B0C9F74754EBDBFC544B05A258 PUSH2 0x3007 PUSH2 0x2E1B JUMP JUMPDEST PUSH1 0x0 PUSH2 0x7B7 DUP4 DUP4 PUSH2 0x3F59 JUMP JUMPDEST PUSH1 0x0 PUSH2 0x7B7 DUP4 PUSH1 0x1 PUSH1 0x1 PUSH1 0xA0 SHL SUB DUP5 AND PUSH2 0x3F9E JUMP JUMPDEST PUSH1 0x40 MLOAD ADDRESS SWAP1 PUSH32 0xA2380B088EE4DF06F20F2BBD1971331D0A68504A9F120CC3B029AEB934F87B3C SWAP1 PUSH1 0x0 SWAP1 LOG2 JUMP JUMPDEST PUSH1 0x0 PUSH1 0x1 PUSH1 0x1 PUSH1 0xA0 SHL SUB DUP3 AND PUSH4 0xB93F9B0A PUSH1 0x7 PUSH2 0x2E9C JUMP JUMPDEST PUSH1 0x0 PUSH2 0x7BA DUP3 PUSH2 0x3FB6 JUMP JUMPDEST PUSH1 0x0 PUSH2 0x7BA DUP3 PUSH2 0x3FCE JUMP JUMPDEST PUSH1 0x0 DUP1 PUSH1 0x0 PUSH2 0x3A7F DUP6 PUSH1 0x2 ADD SLOAD DUP6 PUSH1 0x40 ADD MLOAD PUSH2 0x712 JUMP JUMPDEST SWAP1 POP PUSH1 0x0 PUSH2 0x3A95 DUP7 PUSH1 0x3 ADD SLOAD DUP7 PUSH1 0x40 ADD MLOAD PUSH2 0x712 JUMP JUMPDEST SWAP1 POP PUSH2 0x3AAE DUP6 PUSH1 0x80 ADD MLOAD DUP3 PUSH2 0x2971 SWAP1 SWAP2 SWAP1 PUSH4 0xFFFFFFFF AND JUMP JUMPDEST SWAP4 POP PUSH2 0x3AC7 DUP6 PUSH1 0x60 ADD MLOAD DUP4 PUSH2 0x2971 SWAP1 SWAP2 SWAP1 PUSH4 0xFFFFFFFF AND JUMP JUMPDEST SWAP3 POP POP POP JUMPDEST SWAP3 POP SWAP3 SWAP1 POP JUMP JUMPDEST PUSH1 0x0 DUP3 DUP3 ADD DUP4 DUP2 LT ISZERO PUSH2 0x7B7 JUMPI PUSH1 0x40 MLOAD PUSH3 0x461BCD PUSH1 0xE5 SHL DUP2 MSTORE PUSH1 0x4 ADD PUSH2 0x806 SWAP1 PUSH2 0x4A9C JUMP JUMPDEST PUSH2 0x1C5 SLOAD PUSH2 0xE99 SWAP1 PUSH2 0x3B12 SWAP1 PUSH1 0x1 PUSH1 0x1 PUSH1 0xA0 SHL SUB AND PUSH2 0x2DCF JUMP JUMPDEST PUSH2 0x1C3 SLOAD PUSH1 0x40 DUP1 MLOAD DUP1 DUP3 ADD SWAP1 SWAP2 MSTORE PUSH1 0x19 DUP2 MSTORE PUSH32 0x4661696C656420746F20636F6C6C656374207061796D656E7400000000000000 PUSH1 0x20 DUP3 ADD MSTORE CALLER SWAP2 PUSH1 0x1 PUSH1 0x1 PUSH1 0xA0 SHL SUB AND SWAP1 DUP6 SWAP1 PUSH2 0x3C6A JUMP JUMPDEST PUSH1 0x0 PUSH2 0x7BA DUP3 PUSH2 0x3FE6 JUMP JUMPDEST PUSH1 0x0 PUSH2 0x3B75 DUP3 PUSH1 0x2 PUSH2 0x3ED5 JUMP JUMPDEST PUSH1 0x1 EQ SWAP3 SWAP2 POP POP JUMP JUMPDEST PUSH1 0x0 DUP2 DUP5 DUP5 GT ISZERO PUSH2 0x3BA2 JUMPI PUSH1 0x40 MLOAD PUSH3 0x461BCD PUSH1 0xE5 SHL DUP2 MSTORE PUSH1 0x4 ADD PUSH2 0x806 SWAP2 SWAP1 PUSH2 0x47B1 JUMP JUMPDEST POP POP POP SWAP1 SUB SWAP1 JUMP JUMPDEST PUSH1 0x40 MLOAD PUSH32 0xFC56365800000000000000000000000000000000000000000000000000000000 DUP2 MSTORE PUSH1 0x0 SWAP1 PUSH1 0x1 PUSH1 0x1 PUSH1 0xA0 SHL SUB DUP4 AND SWAP1 PUSH4 0xFC563658 SWAP1 PUSH2 0x3BF3 SWAP1 PUSH1 0x7 SWAP1 PUSH1 0x4 ADD PUSH2 0x47A8 JUMP JUMPDEST PUSH1 0x20 PUSH1 0x40 MLOAD DUP1 DUP4 SUB DUP2 DUP7 DUP1 EXTCODESIZE ISZERO DUP1 ISZERO PUSH2 0x3C0B JUMPI PUSH1 0x0 DUP1 REVERT JUMPDEST POP GAS STATICCALL ISZERO DUP1 ISZERO PUSH2 0x3C1F JUMPI RETURNDATASIZE PUSH1 0x0 DUP1 RETURNDATACOPY RETURNDATASIZE PUSH1 0x0 REVERT JUMPDEST POP POP POP POP PUSH1 0x40 MLOAD RETURNDATASIZE PUSH1 0x1F NOT PUSH1 0x1F DUP3 ADD AND DUP3 ADD DUP1 PUSH1 0x40 MSTORE POP DUP2 ADD SWAP1 PUSH2 0x7BA SWAP2 SWAP1 PUSH2 0x45EA JUMP JUMPDEST TIMESTAMP SWAP1 JUMP JUMPDEST PUSH1 0x0 PUSH2 0x7BA DUP3 PUSH2 0x3FEA JUMP JUMPDEST PUSH1 0x0 PUSH1 0x1 PUSH1 0x1 PUSH1 0xA0 SHL SUB DUP3 AND PUSH4 0xB93F9B0A PUSH1 0x5 PUSH2 0x2E9C JUMP JUMPDEST PUSH1 0x1 PUSH1 0x1 PUSH1 0xA0 SHL SUB DUP4 AND PUSH2 0x3C90 JUMPI PUSH1 0x40 MLOAD PUSH3 0x461BCD PUSH1 0xE5 SHL DUP2 MSTORE PUSH1 0x4 ADD PUSH2 0x806 SWAP1 PUSH2 0x499A JUMP JUMPDEST PUSH1 0x40 MLOAD PUSH32 0x23B872DD00000000000000000000000000000000000000000000000000000000 DUP2 MSTORE PUSH1 0x0 SWAP1 PUSH1 0x1 PUSH1 0x1 PUSH1 0xA0 SHL SUB DUP8 AND SWAP1 PUSH4 0x23B872DD SWAP1 PUSH2 0x3CDC SWAP1 DUP9 SWAP1 DUP9 SWAP1 DUP9 SWAP1 PUSH1 0x4 ADD PUSH2 0x4779 JUMP JUMPDEST PUSH1 0x20 PUSH1 0x40 MLOAD DUP1 DUP4 SUB DUP2 PUSH1 0x0 DUP8 DUP1 EXTCODESIZE ISZERO DUP1 ISZERO PUSH2 0x3CF6 JUMPI PUSH1 0x0 DUP1 REVERT JUMPDEST POP GAS CALL ISZERO DUP1 ISZERO PUSH2 0x3D0A JUMPI RETURNDATASIZE PUSH1 0x0 DUP1 RETURNDATACOPY RETURNDATASIZE PUSH1 0x0 REVERT JUMPDEST POP POP POP POP PUSH1 0x40 MLOAD RETURNDATASIZE PUSH1 0x1F NOT PUSH1 0x1F DUP3 ADD AND DUP3 ADD DUP1 PUSH1 0x40 MSTORE POP DUP2 ADD SWAP1 PUSH2 0x3D2E SWAP2 SWAP1 PUSH2 0x44EE JUMP JUMPDEST SWAP1 POP DUP2 DUP2 PUSH2 0x3D4F JUMPI PUSH1 0x40 MLOAD PUSH3 0x461BCD PUSH1 0xE5 SHL DUP2 MSTORE PUSH1 0x4 ADD PUSH2 0x806 SWAP2 SWAP1 PUSH2 0x47B1 JUMP JUMPDEST POP POP POP POP POP POP POP JUMP JUMPDEST PUSH1 0x0 PUSH2 0x7B7 DUP4 PUSH1 0x1 PUSH1 0x1 PUSH1 0xA0 SHL SUB DUP5 AND PUSH2 0x4002 JUMP JUMPDEST PUSH1 0x1 PUSH1 0x1 PUSH1 0xA0 SHL SUB DUP4 AND PUSH2 0x3D93 JUMPI PUSH1 0x40 MLOAD PUSH3 0x461BCD PUSH1 0xE5 SHL DUP2 MSTORE PUSH1 0x4 ADD PUSH2 0x806 SWAP1 PUSH2 0x499A JUMP JUMPDEST PUSH1 0x40 MLOAD PUSH32 0xA9059CBB00000000000000000000000000000000000000000000000000000000 DUP2 MSTORE PUSH1 0x0 SWAP1 PUSH1 0x1 PUSH1 0x1 PUSH1 0xA0 SHL SUB DUP7 AND SWAP1 PUSH4 0xA9059CBB SWAP1 PUSH2 0x3DDD SWAP1 DUP8 SWAP1 DUP8 SWAP1 PUSH1 0x4 ADD PUSH2 0x46F6 JUMP JUMPDEST PUSH1 0x20 PUSH1 0x40 MLOAD DUP1 DUP4 SUB DUP2 PUSH1 0x0 DUP8 DUP1 EXTCODESIZE ISZERO DUP1 ISZERO PUSH2 0x3DF7 JUMPI PUSH1 0x0 DUP1 REVERT JUMPDEST POP GAS CALL ISZERO DUP1 ISZERO PUSH2 0x3E0B JUMPI RETURNDATASIZE PUSH1 0x0 DUP1 RETURNDATACOPY RETURNDATASIZE PUSH1 0x0 REVERT JUMPDEST POP POP POP POP PUSH1 0x40 MLOAD RETURNDATASIZE PUSH1 0x1F NOT PUSH1 0x1F DUP3 ADD AND DUP3 ADD DUP1 PUSH1 0x40 MSTORE POP DUP2 ADD SWAP1 PUSH2 0x3E2F SWAP2 SWAP1 PUSH2 0x44EE JUMP JUMPDEST SWAP1 POP DUP2 DUP2 PUSH2 0x3E50 JUMPI PUSH1 0x40 MLOAD PUSH3 0x461BCD PUSH1 0xE5 SHL DUP2 MSTORE PUSH1 0x4 ADD PUSH2 0x806 SWAP2 SWAP1 PUSH2 0x47B1 JUMP JUMPDEST POP POP POP POP POP POP JUMP JUMPDEST PUSH1 0x0 PUSH2 0x7B7 DUP4 PUSH1 0x1 PUSH1 0x1 PUSH1 0xA0 SHL SUB DUP5 AND PUSH2 0x404C JUMP JUMPDEST PUSH1 0x0 DUP2 DUP4 LT PUSH2 0x3E7C JUMPI DUP2 PUSH2 0x7B7 JUMP JUMPDEST POP SWAP1 SWAP2 SWAP1 POP JUMP JUMPDEST PUSH1 0x0 PUSH1 0x1 PUSH1 0x1 PUSH1 0xA0 SHL SUB DUP3 AND PUSH4 0xB93F9B0A PUSH1 0xC PUSH2 0x2E9C JUMP JUMPDEST PUSH1 0x0 DUP3 PUSH2 0x3EAA JUMPI POP PUSH1 0x0 PUSH2 0x7BA JUMP JUMPDEST DUP3 DUP3 MUL DUP3 DUP5 DUP3 DUP2 PUSH2 0x3EB7 JUMPI INVALID JUMPDEST DIV EQ PUSH2 0x7B7 JUMPI PUSH1 0x40 MLOAD PUSH3 0x461BCD PUSH1 0xE5 SHL DUP2 MSTORE PUSH1 0x4 ADD PUSH2 0x806 SWAP1 PUSH2 0x4E9E JUMP JUMPDEST PUSH1 0x0 PUSH2 0x7B7 DUP4 DUP4 PUSH1 0x40 MLOAD DUP1 PUSH1 0x40 ADD PUSH1 0x40 MSTORE DUP1 PUSH1 0x18 DUP2 MSTORE PUSH1 0x20 ADD PUSH32 0x536166654D6174683A206D6F64756C6F206279207A65726F0000000000000000 DUP2 MSTORE POP PUSH2 0x4112 JUMP JUMPDEST PUSH1 0x0 PUSH2 0x7B7 DUP4 DUP4 PUSH1 0x40 MLOAD DUP1 PUSH1 0x40 ADD PUSH1 0x40 MSTORE DUP1 PUSH1 0x1A DUP2 MSTORE PUSH1 0x20 ADD PUSH32 0x536166654D6174683A206469766973696F6E206279207A65726F000000000000 DUP2 MSTORE POP PUSH2 0x4146 JUMP JUMPDEST DUP2 SLOAD PUSH1 0x0 SWAP1 DUP3 LT PUSH2 0x3F7C JUMPI PUSH1 0x40 MLOAD PUSH3 0x461BCD PUSH1 0xE5 SHL DUP2 MSTORE PUSH1 0x4 ADD PUSH2 0x806 SWAP1 PUSH2 0x4804 JUMP JUMPDEST DUP3 PUSH1 0x0 ADD DUP3 DUP2 SLOAD DUP2 LT PUSH2 0x3F8B JUMPI INVALID JUMPDEST SWAP1 PUSH1 0x0 MSTORE PUSH1 0x20 PUSH1 0x0 KECCAK256 ADD SLOAD SWAP1 POP SWAP3 SWAP2 POP POP JUMP JUMPDEST PUSH1 0x0 SWAP1 DUP2 MSTORE PUSH1 0x1 SWAP2 SWAP1 SWAP2 ADD PUSH1 0x20 MSTORE PUSH1 0x40 SWAP1 KECCAK256 SLOAD ISZERO ISZERO SWAP1 JUMP JUMPDEST PUSH1 0x0 PUSH1 0x1 PUSH1 0x1 PUSH1 0xA0 SHL SUB DUP3 AND PUSH4 0xB93F9B0A PUSH1 0x13 PUSH2 0x2E9C JUMP JUMPDEST PUSH1 0x0 PUSH1 0x1 PUSH1 0x1 PUSH1 0xA0 SHL SUB DUP3 AND PUSH4 0xB93F9B0A PUSH1 0xE PUSH2 0x2E9C JUMP JUMPDEST SLOAD SWAP1 JUMP JUMPDEST PUSH1 0x0 PUSH1 0x1 PUSH1 0x1 PUSH1 0xA0 SHL SUB DUP3 AND PUSH4 0xB93F9B0A PUSH1 0x2 PUSH2 0x2E9C JUMP JUMPDEST PUSH1 0x0 PUSH2 0x400E DUP4 DUP4 PUSH2 0x3F9E JUMP JUMPDEST PUSH2 0x4044 JUMPI POP DUP2 SLOAD PUSH1 0x1 DUP2 DUP2 ADD DUP5 SSTORE PUSH1 0x0 DUP5 DUP2 MSTORE PUSH1 0x20 DUP1 DUP3 KECCAK256 SWAP1 SWAP4 ADD DUP5 SWAP1 SSTORE DUP5 SLOAD DUP5 DUP3 MSTORE DUP3 DUP7 ADD SWAP1 SWAP4 MSTORE PUSH1 0x40 SWAP1 KECCAK256 SWAP2 SWAP1 SWAP2 SSTORE PUSH2 0x7BA JUMP JUMPDEST POP PUSH1 0x0 PUSH2 0x7BA JUMP JUMPDEST PUSH1 0x0 DUP2 DUP2 MSTORE PUSH1 0x1 DUP4 ADD PUSH1 0x20 MSTORE PUSH1 0x40 DUP2 KECCAK256 SLOAD DUP1 ISZERO PUSH2 0x4108 JUMPI DUP4 SLOAD PUSH1 0x0 NOT DUP1 DUP4 ADD SWAP2 SWAP1 DUP2 ADD SWAP1 PUSH1 0x0 SWAP1 DUP8 SWAP1 DUP4 SWAP1 DUP2 LT PUSH2 0x407F JUMPI INVALID JUMPDEST SWAP1 PUSH1 0x0 MSTORE PUSH1 0x20 PUSH1 0x0 KECCAK256 ADD SLOAD SWAP1 POP DUP1 DUP8 PUSH1 0x0 ADD DUP5 DUP2 SLOAD DUP2 LT PUSH2 0x409C JUMPI INVALID JUMPDEST PUSH1 0x0 SWAP2 DUP3 MSTORE PUSH1 0x20 DUP1 DUP4 KECCAK256 SWAP1 SWAP2 ADD SWAP3 SWAP1 SWAP3 SSTORE DUP3 DUP2 MSTORE PUSH1 0x1 DUP10 DUP2 ADD SWAP1 SWAP3 MSTORE PUSH1 0x40 SWAP1 KECCAK256 SWAP1 DUP5 ADD SWAP1 SSTORE DUP7 SLOAD DUP8 SWAP1 DUP1 PUSH2 0x40CC JUMPI INVALID JUMPDEST PUSH1 0x1 SWAP1 SUB DUP2 DUP2 SWAP1 PUSH1 0x0 MSTORE PUSH1 0x20 PUSH1 0x0 KECCAK256 ADD PUSH1 0x0 SWAP1 SSTORE SWAP1 SSTORE DUP7 PUSH1 0x1 ADD PUSH1 0x0 DUP8 DUP2 MSTORE PUSH1 0x20 ADD SWAP1 DUP2 MSTORE PUSH1 0x20 ADD PUSH1 0x0 KECCAK256 PUSH1 0x0 SWAP1 SSTORE PUSH1 0x1 SWAP5 POP POP POP POP POP PUSH2 0x7BA JUMP JUMPDEST PUSH1 0x0 SWAP2 POP POP PUSH2 0x7BA JUMP JUMPDEST PUSH1 0x0 DUP2 DUP4 PUSH2 0x4133 JUMPI PUSH1 0x40 MLOAD PUSH3 0x461BCD PUSH1 0xE5 SHL DUP2 MSTORE PUSH1 0x4 ADD PUSH2 0x806 SWAP2 SWAP1 PUSH2 0x47B1 JUMP JUMPDEST POP DUP3 DUP5 DUP2 PUSH2 0x413D JUMPI INVALID JUMPDEST MOD SWAP5 SWAP4 POP POP POP POP JUMP JUMPDEST PUSH1 0x0 DUP2 DUP4 PUSH2 0x4167 JUMPI PUSH1 0x40 MLOAD PUSH3 0x461BCD PUSH1 0xE5 SHL DUP2 MSTORE PUSH1 0x4 ADD PUSH2 0x806 SWAP2 SWAP1 PUSH2 0x47B1 JUMP JUMPDEST POP PUSH1 0x0 DUP4 DUP6 DUP2 PUSH2 0x4173 JUMPI INVALID JUMPDEST DIV SWAP6 SWAP5 POP POP POP POP POP JUMP JUMPDEST PUSH1 0x40 MLOAD DUP1 PUSH1 0xA0 ADD PUSH1 0x40 MSTORE DUP1 PUSH1 0x0 PUSH1 0x1 PUSH1 0x1 PUSH1 0xA0 SHL SUB AND DUP2 MSTORE PUSH1 0x20 ADD PUSH1 0x0 DUP2 MSTORE PUSH1 0x20 ADD PUSH1 0x0 DUP2 MSTORE PUSH1 0x20 ADD PUSH1 0x0 DUP2 MSTORE PUSH1 0x20 ADD PUSH1 0x0 DUP2 MSTORE POP SWAP1 JUMP JUMPDEST PUSH1 0x40 MLOAD DUP1 PUSH1 0x20 ADD PUSH1 0x40 MSTORE DUP1 PUSH1 0x1 SWAP1 PUSH1 0x20 DUP3 MUL DUP1 CALLDATASIZE DUP4 CALLDATACOPY POP SWAP2 SWAP3 SWAP2 POP POP JUMP JUMPDEST DUP3 DUP1 SLOAD DUP3 DUP3 SSTORE SWAP1 PUSH1 0x0 MSTORE PUSH1 0x20 PUSH1 0x0 KECCAK256 SWAP1 DUP2 ADD SWAP3 DUP3 ISZERO PUSH2 0x420E JUMPI SWAP2 PUSH1 0x20 MUL DUP3 ADD JUMPDEST DUP3 DUP2 GT ISZERO PUSH2 0x420E JUMPI DUP3 MLOAD DUP3 SSTORE SWAP2 PUSH1 0x20 ADD SWAP2 SWAP1 PUSH1 0x1 ADD SWAP1 PUSH2 0x41F3 JUMP JUMPDEST POP PUSH2 0x421A SWAP3 SWAP2 POP PUSH2 0x42A2 JUMP JUMPDEST POP SWAP1 JUMP JUMPDEST DUP3 DUP1 SLOAD DUP3 DUP3 SSTORE SWAP1 PUSH1 0x0 MSTORE PUSH1 0x20 PUSH1 0x0 KECCAK256 SWAP1 DUP2 ADD SWAP3 DUP3 ISZERO PUSH2 0x420E JUMPI SWAP2 PUSH1 0x20 MUL DUP3 ADD JUMPDEST DUP3 DUP2 GT ISZERO PUSH2 0x420E JUMPI DUP3 CALLDATALOAD DUP3 SSTORE SWAP2 PUSH1 0x20 ADD SWAP2 SWAP1 PUSH1 0x1 ADD SWAP1 PUSH2 0x423E JUMP JUMPDEST PUSH1 0x40 MLOAD DUP1 PUSH1 0xA0 ADD PUSH1 0x40 MSTORE DUP1 PUSH1 0x0 DUP2 MSTORE PUSH1 0x20 ADD PUSH1 0x0 DUP2 MSTORE PUSH1 0x20 ADD PUSH1 0x0 DUP2 MSTORE PUSH1 0x20 ADD PUSH1 0x0 DUP2 MSTORE PUSH1 0x20 ADD PUSH1 0x0 DUP2 MSTORE POP SWAP1 JUMP JUMPDEST PUSH1 0x40 MLOAD DUP1 PUSH1 0x40 ADD PUSH1 0x40 MSTORE DUP1 PUSH1 0x0 DUP2 MSTORE PUSH1 0x20 ADD PUSH1 0x0 DUP2 MSTORE POP SWAP1 JUMP JUMPDEST JUMPDEST DUP1 DUP3 GT ISZERO PUSH2 0x421A JUMPI PUSH1 0x0 DUP2 SSTORE PUSH1 0x1 ADD PUSH2 0x42A3 JUMP JUMPDEST PUSH1 0x0 DUP1 DUP4 PUSH1 0x1F DUP5 ADD SLT PUSH2 0x42C8 JUMPI DUP2 DUP3 REVERT JUMPDEST POP DUP2 CALLDATALOAD PUSH8 0xFFFFFFFFFFFFFFFF DUP2 GT ISZERO PUSH2 0x42DF JUMPI DUP2 DUP3 REVERT JUMPDEST PUSH1 0x20 DUP4 ADD SWAP2 POP DUP4 PUSH1 0x20 DUP1 DUP4 MUL DUP6 ADD ADD GT ISZERO PUSH2 0x3ACC JUMPI PUSH1 0x0 DUP1 REVERT JUMPDEST PUSH1 0x0 PUSH1 0x20 DUP3 DUP5 SUB SLT ISZERO PUSH2 0x430A JUMPI DUP1 DUP2 REVERT JUMPDEST DUP2 CALLDATALOAD PUSH2 0x7B7 DUP2 PUSH2 0x52F6 JUMP JUMPDEST PUSH1 0x0 PUSH1 0x20 DUP3 DUP5 SUB SLT ISZERO PUSH2 0x4326 JUMPI DUP1 DUP2 REVERT JUMPDEST DUP2 MLOAD PUSH2 0x7B7 DUP2 PUSH2 0x52F6 JUMP JUMPDEST PUSH1 0x0 DUP1 PUSH1 0x0 DUP1 PUSH1 0x0 DUP1 PUSH1 0x0 DUP1 PUSH1 0x0 DUP1 PUSH1 0x0 DUP1 PUSH2 0x160 DUP14 DUP16 SUB SLT ISZERO PUSH2 0x4353 JUMPI DUP8 DUP9 REVERT JUMPDEST PUSH2 0x435D DUP14 CALLDATALOAD PUSH2 0x52F6 JUMP JUMPDEST DUP13 CALLDATALOAD SWAP12 POP PUSH2 0x436E PUSH1 0x20 DUP15 ADD CALLDATALOAD PUSH2 0x52F6 JUMP JUMPDEST PUSH1 0x20 DUP14 ADD CALLDATALOAD SWAP11 POP PUSH1 0x40 DUP14 ADD CALLDATALOAD SWAP10 POP PUSH1 0x60 DUP14 ADD CALLDATALOAD SWAP9 POP PUSH1 0x80 DUP14 ADD CALLDATALOAD SWAP8 POP PUSH1 0xA0 DUP14 ADD CALLDATALOAD SWAP7 POP PUSH1 0xC0 DUP14 ADD CALLDATALOAD SWAP6 POP PUSH1 0xE0 DUP14 ADD CALLDATALOAD SWAP5 POP PUSH2 0x100 DUP14 ADD CALLDATALOAD SWAP4 POP PUSH2 0x120 DUP14 ADD CALLDATALOAD SWAP3 POP PUSH8 0xFFFFFFFFFFFFFFFF PUSH2 0x140 DUP15 ADD CALLDATALOAD GT ISZERO PUSH2 0x43C8 JUMPI DUP1 DUP2 REVERT JUMPDEST PUSH2 0x43D9 DUP15 PUSH2 0x140 DUP16 ADD CALLDATALOAD DUP16 ADD PUSH2 0x42B7 JUMP JUMPDEST DUP2 SWAP4 POP DUP1 SWAP3 POP POP POP SWAP3 SWAP6 SWAP9 SWAP12 POP SWAP3 SWAP6 SWAP9 SWAP12 POP SWAP3 SWAP6 SWAP9 SWAP12 JUMP JUMPDEST PUSH1 0x0 DUP1 PUSH1 0x0 DUP1 PUSH1 0x0 DUP1 PUSH1 0x0 PUSH1 0xE0 DUP9 DUP11 SUB SLT ISZERO PUSH2 0x440B JUMPI DUP3 DUP4 REVERT JUMPDEST DUP8 CALLDATALOAD PUSH2 0x4416 DUP2 PUSH2 0x52F6 JUMP JUMPDEST SWAP10 PUSH1 0x20 DUP10 ADD CALLDATALOAD SWAP10 POP PUSH1 0x40 DUP10 ADD CALLDATALOAD SWAP9 PUSH1 0x60 DUP2 ADD CALLDATALOAD SWAP9 POP PUSH1 0x80 DUP2 ADD CALLDATALOAD SWAP8 POP PUSH1 0xA0 DUP2 ADD CALLDATALOAD SWAP7 POP PUSH1 0xC0 ADD CALLDATALOAD SWAP5 POP SWAP3 POP POP POP JUMP JUMPDEST PUSH1 0x0 DUP1 PUSH1 0x20 DUP4 DUP6 SUB SLT ISZERO PUSH2 0x4457 JUMPI DUP2 DUP3 REVERT JUMPDEST DUP3 CALLDATALOAD PUSH8 0xFFFFFFFFFFFFFFFF DUP2 GT ISZERO PUSH2 0x446D JUMPI DUP3 DUP4 REVERT JUMPDEST PUSH2 0x4479 DUP6 DUP3 DUP7 ADD PUSH2 0x42B7 JUMP JUMPDEST SWAP1 SWAP7 SWAP1 SWAP6 POP SWAP4 POP POP POP POP JUMP JUMPDEST PUSH1 0x0 DUP1 PUSH1 0x0 DUP1 PUSH1 0x40 DUP6 DUP8 SUB SLT ISZERO PUSH2 0x449A JUMPI DUP4 DUP5 REVERT JUMPDEST DUP5 CALLDATALOAD PUSH8 0xFFFFFFFFFFFFFFFF DUP1 DUP3 GT ISZERO PUSH2 0x44B1 JUMPI DUP6 DUP7 REVERT JUMPDEST PUSH2 0x44BD DUP9 DUP4 DUP10 ADD PUSH2 0x42B7 JUMP JUMPDEST SWAP1 SWAP7 POP SWAP5 POP PUSH1 0x20 DUP8 ADD CALLDATALOAD SWAP2 POP DUP1 DUP3 GT ISZERO PUSH2 0x44D5 JUMPI DUP4 DUP5 REVERT JUMPDEST POP PUSH2 0x44E2 DUP8 DUP3 DUP9 ADD PUSH2 0x42B7 JUMP JUMPDEST SWAP6 SWAP9 SWAP5 SWAP8 POP SWAP6 POP POP POP POP JUMP JUMPDEST PUSH1 0x0 PUSH1 0x20 DUP3 DUP5 SUB SLT ISZERO PUSH2 0x44FF JUMPI DUP1 DUP2 REVERT JUMPDEST DUP2 MLOAD DUP1 ISZERO ISZERO DUP2 EQ PUSH2 0x7B7 JUMPI DUP2 DUP3 REVERT JUMPDEST PUSH1 0x0 PUSH1 0x20 DUP3 DUP5 SUB SLT ISZERO PUSH2 0x451F JUMPI DUP1 DUP2 REVERT JUMPDEST POP CALLDATALOAD SWAP2 SWAP1 POP JUMP JUMPDEST PUSH1 0x0 DUP1 PUSH1 0x40 DUP4 DUP6 SUB SLT ISZERO PUSH2 0x4538 JUMPI DUP2 DUP3 REVERT JUMPDEST DUP3 CALLDATALOAD SWAP2 POP PUSH1 0x20 DUP4 ADD CALLDATALOAD PUSH2 0x454A DUP2 PUSH2 0x52F6 JUMP JUMPDEST DUP1 SWAP2 POP POP SWAP3 POP SWAP3 SWAP1 POP JUMP JUMPDEST PUSH1 0x0 DUP1 PUSH1 0x40 DUP4 DUP6 SUB SLT ISZERO PUSH2 0x4567 JUMPI DUP2 DUP3 REVERT JUMPDEST POP POP DUP1 CALLDATALOAD SWAP3 PUSH1 0x20 SWAP1 SWAP2 ADD CALLDATALOAD SWAP2 POP JUMP JUMPDEST PUSH1 0x0 PUSH1 0xA0 DUP3 DUP5 SUB SLT ISZERO PUSH2 0x4587 JUMPI DUP1 DUP2 REVERT JUMPDEST PUSH1 0x40 MLOAD PUSH1 0xA0 DUP2 ADD DUP2 DUP2 LT PUSH8 0xFFFFFFFFFFFFFFFF DUP3 GT OR ISZERO PUSH2 0x45A6 JUMPI DUP3 DUP4 REVERT JUMPDEST PUSH1 0x40 MSTORE DUP3 MLOAD PUSH2 0x45B4 DUP2 PUSH2 0x52F6 JUMP JUMPDEST DUP1 DUP3 MSTORE POP PUSH1 0x20 DUP4 ADD MLOAD PUSH1 0x20 DUP3 ADD MSTORE PUSH1 0x40 DUP4 ADD MLOAD PUSH1 0x40 DUP3 ADD MSTORE PUSH1 0x60 DUP4 ADD MLOAD PUSH1 0x60 DUP3 ADD MSTORE PUSH1 0x80 DUP4 ADD MLOAD PUSH1 0x80 DUP3 ADD MSTORE DUP1 SWAP2 POP POP SWAP3 SWAP2 POP POP JUMP JUMPDEST PUSH1 0x0 PUSH1 0x20 DUP3 DUP5 SUB SLT ISZERO PUSH2 0x45FB JUMPI DUP1 DUP2 REVERT JUMPDEST POP MLOAD SWAP2 SWAP1 POP JUMP JUMPDEST PUSH1 0x0 DUP1 PUSH1 0x0 DUP1 PUSH1 0x0 DUP1 PUSH1 0xC0 DUP8 DUP10 SUB SLT ISZERO PUSH2 0x461A JUMPI DUP4 DUP5 REVERT JUMPDEST DUP7 CALLDATALOAD SWAP6 POP PUSH1 0x20 DUP8 ADD CALLDATALOAD SWAP5 POP PUSH1 0x40 DUP8 ADD CALLDATALOAD SWAP4 POP PUSH1 0x60 DUP8 ADD CALLDATALOAD PUSH1 0xFF DUP2 AND DUP2 EQ PUSH2 0x463F JUMPI DUP3 DUP4 REVERT JUMPDEST SWAP6 SWAP9 SWAP5 SWAP8 POP SWAP3 SWAP6 PUSH1 0x80 DUP2 ADD CALLDATALOAD SWAP5 PUSH1 0xA0 SWAP1 SWAP2 ADD CALLDATALOAD SWAP4 POP SWAP2 POP POP JUMP JUMPDEST DUP1 MLOAD DUP3 MSTORE PUSH1 0x20 DUP2 ADD MLOAD PUSH1 0x20 DUP4 ADD MSTORE PUSH1 0x40 DUP2 ADD MLOAD PUSH1 0x40 DUP4 ADD MSTORE PUSH1 0x60 DUP2 ADD MLOAD PUSH1 0x60 DUP4 ADD MSTORE PUSH1 0x80 DUP2 ADD MLOAD PUSH1 0x80 DUP4 ADD MSTORE POP POP JUMP JUMPDEST PUSH1 0x1 PUSH1 0x1 PUSH1 0xA0 SHL SUB SWAP2 SWAP1 SWAP2 AND DUP2 MSTORE PUSH1 0x20 ADD SWAP1 JUMP JUMPDEST PUSH1 0x0 PUSH1 0x40 DUP3 ADD PUSH1 0x1 PUSH1 0x1 PUSH1 0xA0 SHL SUB DUP6 AND DUP4 MSTORE PUSH1 0x20 PUSH1 0x40 DUP2 DUP6 ADD MSTORE DUP2 DUP6 SLOAD DUP1 DUP5 MSTORE PUSH1 0x60 DUP7 ADD SWAP2 POP DUP7 DUP6 MSTORE DUP3 DUP6 KECCAK256 SWAP4 POP DUP5 JUMPDEST DUP2 DUP2 LT ISZERO PUSH2 0x46E9 JUMPI DUP5 SLOAD DUP4 MSTORE PUSH1 0x1 SWAP5 DUP6 ADD SWAP5 SWAP3 DUP5 ADD SWAP3 ADD PUSH2 0x46CD JUMP JUMPDEST POP SWAP1 SWAP8 SWAP7 POP POP POP POP POP POP POP JUMP JUMPDEST PUSH1 0x1 PUSH1 0x1 PUSH1 0xA0 SHL SUB SWAP3 SWAP1 SWAP3 AND DUP3 MSTORE PUSH1 0x20 DUP3 ADD MSTORE PUSH1 0x40 ADD SWAP1 JUMP JUMPDEST PUSH1 0x1 PUSH1 0x1 PUSH1 0xA0 SHL SUB SWAP3 DUP4 AND DUP2 MSTORE SWAP2 AND PUSH1 0x20 DUP3 ADD MSTORE PUSH1 0x40 ADD SWAP1 JUMP JUMPDEST PUSH1 0x1 PUSH1 0x1 PUSH1 0xA0 SHL SUB SWAP10 DUP11 AND DUP2 MSTORE SWAP8 DUP10 AND PUSH1 0x20 DUP10 ADD MSTORE SWAP6 SWAP1 SWAP8 AND PUSH1 0x40 DUP8 ADD MSTORE PUSH1 0x60 DUP7 ADD SWAP4 SWAP1 SWAP4 MSTORE PUSH1 0x80 DUP6 ADD SWAP2 SWAP1 SWAP2 MSTORE PUSH1 0xA0 DUP5 ADD MSTORE PUSH1 0xC0 DUP4 ADD MSTORE PUSH1 0xE0 DUP3 ADD SWAP3 SWAP1 SWAP3 MSTORE PUSH2 0x100 DUP2 ADD SWAP2 SWAP1 SWAP2 MSTORE PUSH2 0x120 ADD SWAP1 JUMP JUMPDEST PUSH1 0x1 PUSH1 0x1 PUSH1 0xA0 SHL SUB SWAP4 DUP5 AND DUP2 MSTORE SWAP2 SWAP1 SWAP3 AND PUSH1 0x20 DUP3 ADD MSTORE PUSH1 0x40 DUP2 ADD SWAP2 SWAP1 SWAP2 MSTORE PUSH1 0x60 ADD SWAP1 JUMP JUMPDEST SWAP1 ISZERO ISZERO DUP2 MSTORE PUSH1 0x20 ADD SWAP1 JUMP JUMPDEST SWAP1 DUP2 MSTORE PUSH1 0x20 ADD SWAP1 JUMP JUMPDEST PUSH1 0x0 PUSH1 0x20 DUP1 DUP4 MSTORE DUP4 MLOAD DUP1 DUP3 DUP6 ADD MSTORE DUP3 JUMPDEST DUP2 DUP2 LT ISZERO PUSH2 0x47DD JUMPI DUP6 DUP2 ADD DUP4 ADD MLOAD DUP6 DUP3 ADD PUSH1 0x40 ADD MSTORE DUP3 ADD PUSH2 0x47C1 JUMP JUMPDEST DUP2 DUP2 GT ISZERO PUSH2 0x47EE JUMPI DUP4 PUSH1 0x40 DUP4 DUP8 ADD ADD MSTORE JUMPDEST POP PUSH1 0x1F ADD PUSH1 0x1F NOT AND SWAP3 SWAP1 SWAP3 ADD PUSH1 0x40 ADD SWAP4 SWAP3 POP POP POP JUMP JUMPDEST PUSH1 0x20 DUP1 DUP3 MSTORE PUSH1 0x22 SWAP1 DUP3 ADD MSTORE PUSH32 0x456E756D657261626C655365743A20696E646578206F7574206F6620626F756E PUSH1 0x40 DUP3 ADD MSTORE PUSH32 0x6473000000000000000000000000000000000000000000000000000000000000 PUSH1 0x60 DUP3 ADD MSTORE PUSH1 0x80 ADD SWAP1 JUMP JUMPDEST PUSH1 0x20 DUP1 DUP3 MSTORE PUSH1 0x2F SWAP1 DUP3 ADD MSTORE PUSH32 0x416363657373436F6E74726F6C3A2073656E646572206D75737420626520616E PUSH1 0x40 DUP3 ADD MSTORE PUSH32 0x2061646D696E20746F206772616E740000000000000000000000000000000000 PUSH1 0x60 DUP3 ADD MSTORE PUSH1 0x80 ADD SWAP1 JUMP JUMPDEST PUSH1 0x20 DUP1 DUP3 MSTORE PUSH1 0x14 SWAP1 DUP3 ADD MSTORE PUSH32 0x5061757361626C653A206E6F7420706175736564000000000000000000000000 PUSH1 0x40 DUP3 ADD MSTORE PUSH1 0x60 ADD SWAP1 JUMP JUMPDEST PUSH1 0x20 DUP1 DUP3 MSTORE PUSH1 0x16 SWAP1 DUP3 ADD MSTORE PUSH32 0x4661696C656420746F20617070726F7665205553444300000000000000000000 PUSH1 0x40 DUP3 ADD MSTORE PUSH1 0x60 ADD SWAP1 JUMP JUMPDEST PUSH1 0x20 DUP1 DUP3 MSTORE PUSH1 0x16 SWAP1 DUP3 ADD MSTORE PUSH32 0x43616E6E6F7420657863656564203520736C6963657300000000000000000000 PUSH1 0x40 DUP3 ADD MSTORE PUSH1 0x60 ADD SWAP1 JUMP JUMPDEST PUSH1 0x20 DUP1 DUP3 MSTORE PUSH1 0xF SWAP1 DUP3 ADD MSTORE PUSH32 0x5265712053454E494F525F524F4C450000000000000000000000000000000000 PUSH1 0x40 DUP3 ADD MSTORE PUSH1 0x60 ADD SWAP1 JUMP JUMPDEST PUSH1 0x20 DUP1 DUP3 MSTORE PUSH1 0x1A SWAP1 DUP3 ADD MSTORE PUSH32 0x43616E27742073656E6420746F207A65726F2061646472657373000000000000 PUSH1 0x40 DUP3 ADD MSTORE PUSH1 0x60 ADD SWAP1 JUMP JUMPDEST PUSH1 0x20 DUP1 DUP3 MSTORE PUSH1 0xD SWAP1 DUP3 ADD MSTORE PUSH32 0x4F776E657220696E76616C696400000000000000000000000000000000000000 PUSH1 0x40 DUP3 ADD MSTORE PUSH1 0x60 ADD SWAP1 JUMP JUMPDEST PUSH1 0x20 DUP1 DUP3 MSTORE PUSH1 0x2C SWAP1 DUP3 ADD MSTORE PUSH32 0x4D75737420686176652070617573657220726F6C6520746F20706572666F726D PUSH1 0x40 DUP3 ADD MSTORE PUSH32 0x207468697320616374696F6E0000000000000000000000000000000000000000 PUSH1 0x60 DUP3 ADD MSTORE PUSH1 0x80 ADD SWAP1 JUMP JUMPDEST PUSH1 0x20 DUP1 DUP3 MSTORE PUSH1 0x1A SWAP1 DUP3 ADD MSTORE PUSH32 0x4372656469746C696E652063616E6E6F7420626520656D707479000000000000 PUSH1 0x40 DUP3 ADD MSTORE PUSH1 0x60 ADD SWAP1 JUMP JUMPDEST PUSH1 0x20 DUP1 DUP3 MSTORE PUSH1 0x1B SWAP1 DUP3 ADD MSTORE PUSH32 0x536166654D6174683A206164646974696F6E206F766572666C6F770000000000 PUSH1 0x40 DUP3 ADD MSTORE PUSH1 0x60 ADD SWAP1 JUMP JUMPDEST PUSH1 0x20 DUP1 DUP3 MSTORE PUSH1 0x1D SWAP1 DUP3 ADD MSTORE PUSH32 0x4265796F6E64207072696E636970616C20677261636520706572696F64000000 PUSH1 0x40 DUP3 ADD MSTORE PUSH1 0x60 ADD SWAP1 JUMP JUMPDEST PUSH1 0x20 DUP1 DUP3 MSTORE PUSH1 0xE SWAP1 DUP3 ADD MSTORE PUSH32 0x5472616E636865206C6F636B6564000000000000000000000000000000000000 PUSH1 0x40 DUP3 ADD MSTORE PUSH1 0x60 ADD SWAP1 JUMP JUMPDEST PUSH1 0x20 DUP1 DUP3 MSTORE PUSH1 0x1A SWAP1 DUP3 ADD MSTORE PUSH32 0x43757272656E7420736C696365207374696C6C20616374697665000000000000 PUSH1 0x40 DUP3 ADD MSTORE PUSH1 0x60 ADD SWAP1 JUMP JUMPDEST PUSH1 0x20 DUP1 DUP3 MSTORE PUSH1 0x1D SWAP1 DUP3 ADD MSTORE PUSH32 0x4A756E696F72207472616E636865206D757374206265206C6F636B6564000000 PUSH1 0x40 DUP3 ADD MSTORE PUSH1 0x60 ADD SWAP1 JUMP JUMPDEST PUSH1 0x20 DUP1 DUP3 MSTORE PUSH1 0x13 SWAP1 DUP3 ADD MSTORE PUSH32 0x556E737570706F72746564207472616E63686500000000000000000000000000 PUSH1 0x40 DUP3 ADD MSTORE PUSH1 0x60 ADD SWAP1 JUMP JUMPDEST PUSH1 0x20 DUP1 DUP3 MSTORE PUSH1 0x1E SWAP1 DUP3 ADD MSTORE PUSH32 0x546F6B656E7349647320616E6420416D6F756E7473206D69736D617463680000 PUSH1 0x40 DUP3 ADD MSTORE PUSH1 0x60 ADD SWAP1 JUMP JUMPDEST PUSH1 0x20 DUP1 DUP3 MSTORE PUSH1 0x1A SWAP1 DUP3 ADD MSTORE PUSH32 0x426F72726F776572206D757374206E6F7420626520656D707479000000000000 PUSH1 0x40 DUP3 ADD MSTORE PUSH1 0x60 ADD SWAP1 JUMP JUMPDEST PUSH1 0x20 DUP1 DUP3 MSTORE PUSH1 0x13 SWAP1 DUP3 ADD MSTORE PUSH32 0x506F6F6C20616C7265616479206C6F636B656400000000000000000000000000 PUSH1 0x40 DUP3 ADD MSTORE PUSH1 0x60 ADD SWAP1 JUMP JUMPDEST PUSH1 0x20 DUP1 DUP3 MSTORE PUSH1 0x30 SWAP1 DUP3 ADD MSTORE PUSH32 0x416363657373436F6E74726F6C3A2073656E646572206D75737420626520616E PUSH1 0x40 DUP3 ADD MSTORE PUSH32 0x2061646D696E20746F207265766F6B6500000000000000000000000000000000 PUSH1 0x60 DUP3 ADD MSTORE PUSH1 0x80 ADD SWAP1 JUMP JUMPDEST PUSH1 0x20 DUP1 DUP3 MSTORE PUSH1 0x11 SWAP1 DUP3 ADD MSTORE PUSH32 0x5472616E636865206973206C6F636B6564000000000000000000000000000000 PUSH1 0x40 DUP3 ADD MSTORE PUSH1 0x60 ADD SWAP1 JUMP JUMPDEST PUSH1 0x20 DUP1 DUP3 MSTORE PUSH1 0x13 SWAP1 DUP3 ADD MSTORE PUSH32 0x4D757374206465706F736974203E207A65726F00000000000000000000000000 PUSH1 0x40 DUP3 ADD MSTORE PUSH1 0x60 ADD SWAP1 JUMP JUMPDEST PUSH1 0x20 DUP1 DUP3 MSTORE PUSH1 0x10 SWAP1 DUP3 ADD MSTORE PUSH32 0x5061757361626C653A2070617573656400000000000000000000000000000000 PUSH1 0x40 DUP3 ADD MSTORE PUSH1 0x60 ADD SWAP1 JUMP JUMPDEST PUSH1 0x20 DUP1 DUP3 MSTORE PUSH1 0x16 SWAP1 DUP3 ADD MSTORE PUSH32 0x5061796D656E7420706572696F6420696E76616C696400000000000000000000 PUSH1 0x40 DUP3 ADD MSTORE PUSH1 0x60 ADD SWAP1 JUMP JUMPDEST PUSH1 0x20 DUP1 DUP3 MSTORE PUSH1 0x12 SWAP1 DUP3 ADD MSTORE PUSH32 0x4372656469746C696E65206973206C6174650000000000000000000000000000 PUSH1 0x40 DUP3 ADD MSTORE PUSH1 0x60 ADD SWAP1 JUMP JUMPDEST PUSH1 0x20 DUP1 DUP3 MSTORE DUP2 DUP2 ADD MSTORE PUSH32 0x4F776E65722063616E6E6F7420626520746865207A65726F2061646472657373 PUSH1 0x40 DUP3 ADD MSTORE PUSH1 0x60 ADD SWAP1 JUMP JUMPDEST PUSH1 0x20 DUP1 DUP3 MSTORE PUSH1 0x15 SWAP1 DUP3 ADD MSTORE PUSH32 0x41646472657373206E6F7420676F2D6C69737465640000000000000000000000 PUSH1 0x40 DUP3 ADD MSTORE PUSH1 0x60 ADD SWAP1 JUMP JUMPDEST PUSH1 0x20 DUP1 DUP3 MSTORE PUSH1 0x15 SWAP1 DUP3 ADD MSTORE PUSH32 0x4D7573742068617665206C6F636B657220726F6C650000000000000000000000 PUSH1 0x40 DUP3 ADD MSTORE PUSH1 0x60 ADD SWAP1 JUMP JUMPDEST PUSH1 0x20 DUP1 DUP3 MSTORE PUSH1 0x21 SWAP1 DUP3 ADD MSTORE PUSH32 0x536166654D6174683A206D756C7469706C69636174696F6E206F766572666C6F PUSH1 0x40 DUP3 ADD MSTORE PUSH32 0x7700000000000000000000000000000000000000000000000000000000000000 PUSH1 0x60 DUP3 ADD MSTORE PUSH1 0x80 ADD SWAP1 JUMP JUMPDEST PUSH1 0x20 DUP1 DUP3 MSTORE PUSH1 0x2E SWAP1 DUP3 ADD MSTORE PUSH32 0x436F6E747261637420696E7374616E63652068617320616C7265616479206265 PUSH1 0x40 DUP3 ADD MSTORE PUSH32 0x656E20696E697469616C697A6564000000000000000000000000000000000000 PUSH1 0x60 DUP3 ADD MSTORE PUSH1 0x80 ADD SWAP1 JUMP JUMPDEST PUSH1 0x20 DUP1 DUP3 MSTORE PUSH1 0x17 SWAP1 DUP3 ADD MSTORE PUSH32 0x4C6F636B2063616E6E6F7420626520657874656E646564000000000000000000 PUSH1 0x40 DUP3 ADD MSTORE PUSH1 0x60 ADD SWAP1 JUMP JUMPDEST PUSH1 0x20 DUP1 DUP3 MSTORE PUSH1 0x15 SWAP1 DUP3 ADD MSTORE PUSH32 0x496E76616C69642072656465656D20616D6F756E740000000000000000000000 PUSH1 0x40 DUP3 ADD MSTORE PUSH1 0x60 ADD SWAP1 JUMP JUMPDEST PUSH1 0x20 DUP1 DUP3 MSTORE PUSH1 0x14 SWAP1 DUP3 ADD MSTORE PUSH32 0x4E6F74206F70656E20666F722066756E64696E67000000000000000000000000 PUSH1 0x40 DUP3 ADD MSTORE PUSH1 0x60 ADD SWAP1 JUMP JUMPDEST PUSH1 0x20 DUP1 DUP3 MSTORE PUSH1 0x1C SWAP1 DUP3 ADD MSTORE PUSH32 0x4D757374207769746864726177206D6F7265207468616E207A65726F00000000 PUSH1 0x40 DUP3 ADD MSTORE PUSH1 0x60 ADD SWAP1 JUMP JUMPDEST PUSH1 0x20 DUP1 DUP3 MSTORE PUSH1 0xF SWAP1 DUP3 ADD MSTORE PUSH32 0x4E6F7420746F6B656E206F776E65720000000000000000000000000000000000 PUSH1 0x40 DUP3 ADD MSTORE PUSH1 0x60 ADD SWAP1 JUMP JUMPDEST PUSH1 0x20 DUP1 DUP3 MSTORE PUSH1 0x16 SWAP1 DUP3 ADD MSTORE PUSH32 0x5465726D206D757374206E6F7420626520656D70747900000000000000000000 PUSH1 0x40 DUP3 ADD MSTORE PUSH1 0x60 ADD SWAP1 JUMP JUMPDEST PUSH1 0x20 DUP1 DUP3 MSTORE PUSH1 0x17 SWAP1 DUP3 ADD MSTORE PUSH32 0x4D75737420706179206D6F7265207468616E207A65726F000000000000000000 PUSH1 0x40 DUP3 ADD MSTORE PUSH1 0x60 ADD SWAP1 JUMP JUMPDEST PUSH1 0x20 DUP1 DUP3 MSTORE PUSH1 0x17 SWAP1 DUP3 ADD MSTORE PUSH32 0x436F6E6669672F626F72726F77657220696E76616C6964000000000000000000 PUSH1 0x40 DUP3 ADD MSTORE PUSH1 0x60 ADD SWAP1 JUMP JUMPDEST PUSH1 0x20 DUP1 DUP3 MSTORE PUSH1 0x15 SWAP1 DUP3 ADD MSTORE PUSH32 0x4D757374206E6F7420686176652062616C616E63650000000000000000000000 PUSH1 0x40 DUP3 ADD MSTORE PUSH1 0x60 ADD SWAP1 JUMP JUMPDEST PUSH1 0x20 DUP1 DUP3 MSTORE PUSH1 0x1F SWAP1 DUP3 ADD MSTORE PUSH32 0x5265656E7472616E637947756172643A207265656E7472616E742063616C6C00 PUSH1 0x40 DUP3 ADD MSTORE PUSH1 0x60 ADD SWAP1 JUMP JUMPDEST PUSH1 0x20 DUP1 DUP3 MSTORE PUSH1 0x2B SWAP1 DUP3 ADD MSTORE PUSH32 0x4D75737420686176652061646D696E20726F6C6520746F20706572666F726D20 PUSH1 0x40 DUP3 ADD MSTORE PUSH32 0x7468697320616374696F6E000000000000000000000000000000000000000000 PUSH1 0x60 DUP3 ADD MSTORE PUSH1 0x80 ADD SWAP1 JUMP JUMPDEST PUSH1 0x20 DUP1 DUP3 MSTORE PUSH1 0x1D SWAP1 DUP3 ADD MSTORE PUSH32 0x4A756E696F72207472616E63686520616C7265616479206C6F636B6564000000 PUSH1 0x40 DUP3 ADD MSTORE PUSH1 0x60 ADD SWAP1 JUMP JUMPDEST PUSH1 0x20 DUP1 DUP3 MSTORE PUSH1 0x2F SWAP1 DUP3 ADD MSTORE PUSH32 0x416363657373436F6E74726F6C3A2063616E206F6E6C792072656E6F756E6365 PUSH1 0x40 DUP3 ADD MSTORE PUSH32 0x20726F6C657320666F722073656C660000000000000000000000000000000000 PUSH1 0x60 DUP3 ADD MSTORE PUSH1 0x80 ADD SWAP1 JUMP JUMPDEST DUP3 MLOAD DUP2 MSTORE PUSH1 0x20 SWAP3 DUP4 ADD MLOAD SWAP3 DUP2 ADD SWAP3 SWAP1 SWAP3 MSTORE PUSH1 0x1 PUSH1 0x1 PUSH1 0xA0 SHL SUB AND PUSH1 0x40 DUP3 ADD MSTORE PUSH1 0x60 ADD SWAP1 JUMP JUMPDEST PUSH1 0xA0 DUP2 ADD PUSH2 0x7BA DUP3 DUP5 PUSH2 0x4659 JUMP JUMPDEST PUSH2 0x180 DUP2 ADD PUSH2 0x52B1 DUP3 DUP8 PUSH2 0x4659 JUMP JUMPDEST PUSH2 0x52BE PUSH1 0xA0 DUP4 ADD DUP7 PUSH2 0x4659 JUMP JUMPDEST PUSH2 0x140 DUP3 ADD SWAP4 SWAP1 SWAP4 MSTORE PUSH2 0x160 ADD MSTORE SWAP3 SWAP2 POP POP JUMP JUMPDEST SWAP2 DUP3 MSTORE PUSH1 0x20 DUP3 ADD MSTORE PUSH1 0x40 ADD SWAP1 JUMP JUMPDEST SWAP3 DUP4 MSTORE PUSH1 0x20 DUP4 ADD SWAP2 SWAP1 SWAP2 MSTORE PUSH1 0x40 DUP3 ADD MSTORE PUSH1 0x60 ADD SWAP1 JUMP JUMPDEST PUSH1 0x1 PUSH1 0x1 PUSH1 0xA0 SHL SUB DUP2 AND DUP2 EQ PUSH2 0xE99 JUMPI PUSH1 0x0 DUP1 REVERT INVALID LOG2 PUSH5 0x6970667358 0x22 SLT KECCAK256 DUP7 0xD4 0xE8 EXP 0x2B ADDRESS DUP1 DUP15 CREATE2 0x28 COINBASE SGT PC DUP11 JUMPDEST 0xEC GASPRICE 0x5E 0xF8 0xCA PUSH2 0x5458 0xE9 0xA5 0xBA PUSH29 0x6C3026F7B64736F6C634300060C003300000000000000000000000000 "
		},
		"gasEstimates": {
			"creation": {
				"codeDepositCost": "4262600",
				"executionCost": "4921",
				"totalCost": "4267521"
			},
			"external": {
				"DEFAULT_ADMIN_ROLE()": "362",
				"FP_SCALING_FACTOR()": "362",
				"LOCKER_ROLE()": "360",
				"NUM_TRANCHES_PER_SLICE()": "319",
				"ONE_HUNDRED()": "318",
				"OWNER_ROLE()": "316",
				"PAUSER_ROLE()": "338",
				"SECONDS_PER_DAY()": "295",
				"SENIOR_ROLE()": "319",
				"__BaseUpgradeablePausable__init(address)": "infinite",
				"__PauserPausable__init()": "infinite",
				"allowedUIDTypes(uint256)": "2129",
				"assess()": "2210",
				"availableToWithdraw(uint256)": "544",
				"config()": "1181",
				"createdAt()": "1161",
				"creditLine()": "1183",
				"deposit(uint256,uint256)": "infinite",
				"depositWithPermit(uint256,uint256,uint256,uint8,bytes32,bytes32)": "infinite",
				"drawdown(uint256)": "infinite",
				"drawdownsPaused()": "1131",
				"emergencyShutdown()": "infinite",
				"fundableAt()": "1140",
				"getRoleAdmin(bytes32)": "1312",
				"getRoleMember(bytes32,uint256)": "infinite",
				"getRoleMemberCount(bytes32)": "infinite",
				"getTranche(uint256)": "infinite",
				"grantRole(bytes32,address)": "infinite",
				"hasRole(bytes32,address)": "infinite",
				"initialize(address,address,uint256,uint256,uint256,uint256,uint256,uint256,uint256,uint256,uint256[])": "infinite",
				"initializeNextSlice(uint256)": "infinite",
				"isAdmin()": "infinite",
				"juniorFeePercent()": "1095",
				"lockJuniorCapital()": "infinite",
				"lockPool()": "infinite",
				"migrateAndSetNewCreditLine(address)": "infinite",
				"migrateCreditLine(address,uint256,uint256,uint256,uint256,uint256,uint256)": "infinite",
				"numSlices()": "1161",
				"pause()": "infinite",
				"pauseDrawdowns()": "infinite",
				"paused()": "1130",
				"pay(uint256)": "infinite",
				"poolSlices(uint256)": "infinite",
				"renounceRole(bytes32,address)": "infinite",
				"revokeRole(bytes32,address)": "infinite",
				"setAllowedUIDTypes(uint256[])": "infinite",
				"setFundableAt(uint256)": "infinite",
				"setLimit(uint256)": "infinite",
				"setMaxLimit(uint256)": "infinite",
				"sharePriceToUsdc(uint256,uint256)": "infinite",
				"totalDeployed()": "1097",
				"totalJuniorDeposits()": "infinite",
				"unpause()": "infinite",
				"unpauseDrawdowns()": "infinite",
				"updateGoldfinchConfig()": "infinite",
				"usdcToSharePrice(uint256,uint256)": "infinite",
				"withdraw(uint256,uint256)": "infinite",
				"withdrawMax(uint256)": "infinite",
				"withdrawMultiple(uint256[],uint256[])": "infinite"
			},
			"internal": {
				"_assess()": "1166",
				"_initializeNextSlice(uint256)": "infinite",
				"_isSeniorTrancheId(uint256)": "infinite",
				"_lockJuniorCapital(uint256)": "infinite",
				"_lockPool()": "infinite",
				"_withdraw(struct ITranchedPool.TrancheInfo storage pointer,struct IPoolTokens.TokenInfo memory,uint256,uint256)": "infinite",
				"collectInterestAndPrincipal(address,uint256,uint256)": "infinite",
				"collectPayment(uint256)": "infinite",
				"createAndSetCreditLine(address,uint256,uint256,uint256,uint256,uint256,uint256)": "infinite",
				"currentTime()": "14",
				"getTrancheInfo(uint256)": "infinite",
				"locked()": "infinite",
				"redeemableInterestAndPrincipal(struct ITranchedPool.TrancheInfo storage pointer,struct IPoolTokens.TokenInfo memory)": "infinite",
				"sendToReserve(uint256)": "infinite"
			}
		},
		"methodIdentifiers": {
			"DEFAULT_ADMIN_ROLE()": "a217fddf",
			"FP_SCALING_FACTOR()": "68dcfdc0",
			"LOCKER_ROLE()": "f3621367",
			"NUM_TRANCHES_PER_SLICE()": "44c08f23",
			"ONE_HUNDRED()": "bfaa8cca",
			"OWNER_ROLE()": "e58378bb",
			"PAUSER_ROLE()": "e63ab1e9",
			"SECONDS_PER_DAY()": "74f0314f",
			"SENIOR_ROLE()": "2ae754be",
			"__BaseUpgradeablePausable__init(address)": "097616a3",
			"__PauserPausable__init()": "526d81f6",
			"allowedUIDTypes(uint256)": "e2a657f9",
			"assess()": "a6a25e88",
			"availableToWithdraw(uint256)": "4d02fe6f",
			"config()": "79502c55",
			"createdAt()": "cf09e0d0",
			"creditLine()": "47195e13",
			"deposit(uint256,uint256)": "e2bbb158",
			"depositWithPermit(uint256,uint256,uint256,uint8,bytes32,bytes32)": "515bc323",
			"drawdown(uint256)": "a079a4dd",
			"drawdownsPaused()": "17f76941",
			"emergencyShutdown()": "3403c2fc",
			"fundableAt()": "5eb185a2",
			"getRoleAdmin(bytes32)": "248a9ca3",
			"getRoleMember(bytes32,uint256)": "9010d07c",
			"getRoleMemberCount(bytes32)": "ca15c873",
			"getTranche(uint256)": "d972e8ad",
			"grantRole(bytes32,address)": "2f2ff15d",
			"hasRole(bytes32,address)": "91d14854",
			"initialize(address,address,uint256,uint256,uint256,uint256,uint256,uint256,uint256,uint256,uint256[])": "a8deac0e",
			"initializeNextSlice(uint256)": "78bcd604",
			"isAdmin()": "b6db75a0",
			"juniorFeePercent()": "c77d5698",
			"lockJuniorCapital()": "0881806c",
			"lockPool()": "4026478e",
			"migrateAndSetNewCreditLine(address)": "56ce1560",
			"migrateCreditLine(address,uint256,uint256,uint256,uint256,uint256,uint256)": "1fe032be",
			"numSlices()": "7976323d",
			"pause()": "8456cb59",
			"pauseDrawdowns()": "a8f9c4fe",
			"paused()": "5c975abb",
			"pay(uint256)": "c290d691",
			"poolSlices(uint256)": "80b65431",
			"renounceRole(bytes32,address)": "36568abe",
			"revokeRole(bytes32,address)": "d547741f",
			"setAllowedUIDTypes(uint256[])": "b9317d86",
			"setFundableAt(uint256)": "ae6c857a",
			"setLimit(uint256)": "27ea6f2b",
			"setMaxLimit(uint256)": "bf8bcee4",
			"sharePriceToUsdc(uint256,uint256)": "0174b449",
			"totalDeployed()": "0cfb14b0",
			"totalJuniorDeposits()": "dd0ec241",
			"unpause()": "3f4ba83a",
			"unpauseDrawdowns()": "bf6c87c7",
			"updateGoldfinchConfig()": "4f92a728",
			"usdcToSharePrice(uint256,uint256)": "cde88845",
			"withdraw(uint256,uint256)": "441a3e70",
			"withdrawMax(uint256)": "aa2a7c4c",
			"withdrawMultiple(uint256[],uint256[])": "9d110530"
		}
	},
	"abi": [
		{
			"anonymous": false,
			"inputs": [
				{
					"indexed": true,
					"internalType": "address",
					"name": "oldCreditLine",
					"type": "address"
				},
				{
					"indexed": true,
					"internalType": "address",
					"name": "newCreditLine",
					"type": "address"
				}
			],
			"name": "CreditLineMigrated",
			"type": "event"
		},
		{
			"anonymous": false,
			"inputs": [
				{
					"indexed": true,
					"internalType": "address",
					"name": "owner",
					"type": "address"
				},
				{
					"indexed": true,
					"internalType": "uint256",
					"name": "tranche",
					"type": "uint256"
				},
				{
					"indexed": true,
					"internalType": "uint256",
					"name": "tokenId",
					"type": "uint256"
				},
				{
					"indexed": false,
					"internalType": "uint256",
					"name": "amount",
					"type": "uint256"
				}
			],
			"name": "DepositMade",
			"type": "event"
		},
		{
			"anonymous": false,
			"inputs": [
				{
					"indexed": true,
					"internalType": "address",
					"name": "borrower",
					"type": "address"
				},
				{
					"indexed": false,
					"internalType": "uint256",
					"name": "amount",
					"type": "uint256"
				}
			],
			"name": "DrawdownMade",
			"type": "event"
		},
		{
			"anonymous": false,
			"inputs": [
				{
					"indexed": true,
					"internalType": "address",
					"name": "pool",
					"type": "address"
				}
			],
			"name": "DrawdownsPaused",
			"type": "event"
		},
		{
			"anonymous": false,
			"inputs": [
				{
					"indexed": true,
					"internalType": "address",
					"name": "pool",
					"type": "address"
				}
			],
			"name": "DrawdownsUnpaused",
			"type": "event"
		},
		{
			"anonymous": false,
			"inputs": [
				{
					"indexed": true,
					"internalType": "address",
					"name": "pool",
					"type": "address"
				}
			],
			"name": "EmergencyShutdown",
			"type": "event"
		},
		{
			"anonymous": false,
			"inputs": [
				{
					"indexed": true,
					"internalType": "address",
					"name": "who",
					"type": "address"
				},
				{
					"indexed": false,
					"internalType": "address",
					"name": "configAddress",
					"type": "address"
				}
			],
			"name": "GoldfinchConfigUpdated",
			"type": "event"
		},
		{
			"anonymous": false,
			"inputs": [
				{
					"indexed": false,
					"internalType": "address",
					"name": "account",
					"type": "address"
				}
			],
			"name": "Paused",
			"type": "event"
		},
		{
			"anonymous": false,
			"inputs": [
				{
					"indexed": true,
					"internalType": "address",
					"name": "payer",
					"type": "address"
				},
				{
					"indexed": true,
					"internalType": "address",
					"name": "pool",
					"type": "address"
				},
				{
					"indexed": false,
					"internalType": "uint256",
					"name": "interestAmount",
					"type": "uint256"
				},
				{
					"indexed": false,
					"internalType": "uint256",
					"name": "principalAmount",
					"type": "uint256"
				},
				{
					"indexed": false,
					"internalType": "uint256",
					"name": "remainingAmount",
					"type": "uint256"
				},
				{
					"indexed": false,
					"internalType": "uint256",
					"name": "reserveAmount",
					"type": "uint256"
				}
			],
			"name": "PaymentApplied",
			"type": "event"
		},
		{
			"anonymous": false,
			"inputs": [
				{
					"indexed": true,
					"internalType": "address",
					"name": "from",
					"type": "address"
				},
				{
					"indexed": false,
					"internalType": "uint256",
					"name": "amount",
					"type": "uint256"
				}
			],
			"name": "ReserveFundsCollected",
			"type": "event"
		},
		{
			"anonymous": false,
			"inputs": [
				{
					"indexed": true,
					"internalType": "bytes32",
					"name": "role",
					"type": "bytes32"
				},
				{
					"indexed": true,
					"internalType": "address",
					"name": "account",
					"type": "address"
				},
				{
					"indexed": true,
					"internalType": "address",
					"name": "sender",
					"type": "address"
				}
			],
			"name": "RoleGranted",
			"type": "event"
		},
		{
			"anonymous": false,
			"inputs": [
				{
					"indexed": true,
					"internalType": "bytes32",
					"name": "role",
					"type": "bytes32"
				},
				{
					"indexed": true,
					"internalType": "address",
					"name": "account",
					"type": "address"
				},
				{
					"indexed": true,
					"internalType": "address",
					"name": "sender",
					"type": "address"
				}
			],
			"name": "RoleRevoked",
			"type": "event"
		},
		{
			"anonymous": false,
			"inputs": [
				{
					"indexed": true,
					"internalType": "address",
					"name": "pool",
					"type": "address"
				},
				{
					"indexed": true,
					"internalType": "uint256",
					"name": "tranche",
					"type": "uint256"
				},
				{
					"indexed": false,
					"internalType": "uint256",
					"name": "principalSharePrice",
					"type": "uint256"
				},
				{
					"indexed": false,
					"internalType": "int256",
					"name": "principalDelta",
					"type": "int256"
				},
				{
					"indexed": false,
					"internalType": "uint256",
					"name": "interestSharePrice",
					"type": "uint256"
				},
				{
					"indexed": false,
					"internalType": "int256",
					"name": "interestDelta",
					"type": "int256"
				}
			],
			"name": "SharePriceUpdated",
			"type": "event"
		},
		{
			"anonymous": false,
			"inputs": [
				{
					"indexed": true,
					"internalType": "address",
					"name": "pool",
					"type": "address"
				},
				{
					"indexed": false,
					"internalType": "uint256",
					"name": "sliceId",
					"type": "uint256"
				}
			],
			"name": "SliceCreated",
			"type": "event"
		},
		{
			"anonymous": false,
			"inputs": [
				{
					"indexed": true,
					"internalType": "address",
					"name": "pool",
					"type": "address"
				},
				{
					"indexed": false,
					"internalType": "uint256",
					"name": "trancheId",
					"type": "uint256"
				},
				{
					"indexed": false,
					"internalType": "uint256",
					"name": "lockedUntil",
					"type": "uint256"
				}
			],
			"name": "TrancheLocked",
			"type": "event"
		},
		{
			"anonymous": false,
			"inputs": [
				{
					"indexed": true,
					"internalType": "address",
					"name": "pool",
					"type": "address"
				}
			],
			"name": "TranchedPoolAssessed",
			"type": "event"
		},
		{
			"anonymous": false,
			"inputs": [
				{
					"indexed": false,
					"internalType": "address",
					"name": "account",
					"type": "address"
				}
			],
			"name": "Unpaused",
			"type": "event"
		},
		{
			"anonymous": false,
			"inputs": [
				{
					"indexed": true,
					"internalType": "address",
					"name": "owner",
					"type": "address"
				},
				{
					"indexed": true,
					"internalType": "uint256",
					"name": "tranche",
					"type": "uint256"
				},
				{
					"indexed": true,
					"internalType": "uint256",
					"name": "tokenId",
					"type": "uint256"
				},
				{
					"indexed": false,
					"internalType": "uint256",
					"name": "interestWithdrawn",
					"type": "uint256"
				},
				{
					"indexed": false,
					"internalType": "uint256",
					"name": "principalWithdrawn",
					"type": "uint256"
				}
			],
			"name": "WithdrawalMade",
			"type": "event"
		},
		{
			"inputs": [],
			"name": "DEFAULT_ADMIN_ROLE",
			"outputs": [
				{
					"internalType": "bytes32",
					"name": "",
					"type": "bytes32"
				}
			],
			"stateMutability": "view",
			"type": "function"
		},
		{
			"inputs": [],
			"name": "FP_SCALING_FACTOR",
			"outputs": [
				{
					"internalType": "uint256",
					"name": "",
					"type": "uint256"
				}
			],
			"stateMutability": "view",
			"type": "function"
		},
		{
			"inputs": [],
			"name": "LOCKER_ROLE",
			"outputs": [
				{
					"internalType": "bytes32",
					"name": "",
					"type": "bytes32"
				}
			],
			"stateMutability": "view",
			"type": "function"
		},
		{
			"inputs": [],
			"name": "NUM_TRANCHES_PER_SLICE",
			"outputs": [
				{
					"internalType": "uint256",
					"name": "",
					"type": "uint256"
				}
			],
			"stateMutability": "view",
			"type": "function"
		},
		{
			"inputs": [],
			"name": "ONE_HUNDRED",
			"outputs": [
				{
					"internalType": "uint256",
					"name": "",
					"type": "uint256"
				}
			],
			"stateMutability": "view",
			"type": "function"
		},
		{
			"inputs": [],
			"name": "OWNER_ROLE",
			"outputs": [
				{
					"internalType": "bytes32",
					"name": "",
					"type": "bytes32"
				}
			],
			"stateMutability": "view",
			"type": "function"
		},
		{
			"inputs": [],
			"name": "PAUSER_ROLE",
			"outputs": [
				{
					"internalType": "bytes32",
					"name": "",
					"type": "bytes32"
				}
			],
			"stateMutability": "view",
			"type": "function"
		},
		{
			"inputs": [],
			"name": "SECONDS_PER_DAY",
			"outputs": [
				{
					"internalType": "uint256",
					"name": "",
					"type": "uint256"
				}
			],
			"stateMutability": "view",
			"type": "function"
		},
		{
			"inputs": [],
			"name": "SENIOR_ROLE",
			"outputs": [
				{
					"internalType": "bytes32",
					"name": "",
					"type": "bytes32"
				}
			],
			"stateMutability": "view",
			"type": "function"
		},
		{
			"inputs": [
				{
					"internalType": "address",
					"name": "owner",
					"type": "address"
				}
			],
			"name": "__BaseUpgradeablePausable__init",
			"outputs": [],
			"stateMutability": "nonpayable",
			"type": "function"
		},
		{
			"inputs": [],
			"name": "__PauserPausable__init",
			"outputs": [],
			"stateMutability": "nonpayable",
			"type": "function"
		},
		{
			"inputs": [
				{
					"internalType": "uint256",
					"name": "",
					"type": "uint256"
				}
			],
			"name": "allowedUIDTypes",
			"outputs": [
				{
					"internalType": "uint256",
					"name": "",
					"type": "uint256"
				}
			],
			"stateMutability": "view",
			"type": "function"
		},
		{
			"inputs": [],
			"name": "assess",
			"outputs": [],
			"stateMutability": "nonpayable",
			"type": "function"
		},
		{
			"inputs": [
				{
					"internalType": "uint256",
					"name": "tokenId",
					"type": "uint256"
				}
			],
			"name": "availableToWithdraw",
			"outputs": [
				{
					"internalType": "uint256",
					"name": "interestRedeemable",
					"type": "uint256"
				},
				{
					"internalType": "uint256",
					"name": "principalRedeemable",
					"type": "uint256"
				}
			],
			"stateMutability": "view",
			"type": "function"
		},
		{
			"inputs": [],
			"name": "config",
			"outputs": [
				{
					"internalType": "contract GoldfinchConfig",
					"name": "",
					"type": "address"
				}
			],
			"stateMutability": "view",
			"type": "function"
		},
		{
			"inputs": [],
			"name": "createdAt",
			"outputs": [
				{
					"internalType": "uint256",
					"name": "",
					"type": "uint256"
				}
			],
			"stateMutability": "view",
			"type": "function"
		},
		{
			"inputs": [],
			"name": "creditLine",
			"outputs": [
				{
					"internalType": "contract IV2CreditLine",
					"name": "",
					"type": "address"
				}
			],
			"stateMutability": "view",
			"type": "function"
		},
		{
			"inputs": [
				{
					"internalType": "uint256",
					"name": "tranche",
					"type": "uint256"
				},
				{
					"internalType": "uint256",
					"name": "amount",
					"type": "uint256"
				}
			],
			"name": "deposit",
			"outputs": [
				{
					"internalType": "uint256",
					"name": "tokenId",
					"type": "uint256"
				}
			],
			"stateMutability": "nonpayable",
			"type": "function"
		},
		{
			"inputs": [
				{
					"internalType": "uint256",
					"name": "tranche",
					"type": "uint256"
				},
				{
					"internalType": "uint256",
					"name": "amount",
					"type": "uint256"
				},
				{
					"internalType": "uint256",
					"name": "deadline",
					"type": "uint256"
				},
				{
					"internalType": "uint8",
					"name": "v",
					"type": "uint8"
				},
				{
					"internalType": "bytes32",
					"name": "r",
					"type": "bytes32"
				},
				{
					"internalType": "bytes32",
					"name": "s",
					"type": "bytes32"
				}
			],
			"name": "depositWithPermit",
			"outputs": [
				{
					"internalType": "uint256",
					"name": "tokenId",
					"type": "uint256"
				}
			],
			"stateMutability": "nonpayable",
			"type": "function"
		},
		{
			"inputs": [
				{
					"internalType": "uint256",
					"name": "amount",
					"type": "uint256"
				}
			],
			"name": "drawdown",
			"outputs": [],
			"stateMutability": "nonpayable",
			"type": "function"
		},
		{
			"inputs": [],
			"name": "drawdownsPaused",
			"outputs": [
				{
					"internalType": "bool",
					"name": "",
					"type": "bool"
				}
			],
			"stateMutability": "view",
			"type": "function"
		},
		{
			"inputs": [],
			"name": "emergencyShutdown",
			"outputs": [],
			"stateMutability": "nonpayable",
			"type": "function"
		},
		{
			"inputs": [],
			"name": "fundableAt",
			"outputs": [
				{
					"internalType": "uint256",
					"name": "",
					"type": "uint256"
				}
			],
			"stateMutability": "view",
			"type": "function"
		},
		{
			"inputs": [
				{
					"internalType": "bytes32",
					"name": "role",
					"type": "bytes32"
				}
			],
			"name": "getRoleAdmin",
			"outputs": [
				{
					"internalType": "bytes32",
					"name": "",
					"type": "bytes32"
				}
			],
			"stateMutability": "view",
			"type": "function"
		},
		{
			"inputs": [
				{
					"internalType": "bytes32",
					"name": "role",
					"type": "bytes32"
				},
				{
					"internalType": "uint256",
					"name": "index",
					"type": "uint256"
				}
			],
			"name": "getRoleMember",
			"outputs": [
				{
					"internalType": "address",
					"name": "",
					"type": "address"
				}
			],
			"stateMutability": "view",
			"type": "function"
		},
		{
			"inputs": [
				{
					"internalType": "bytes32",
					"name": "role",
					"type": "bytes32"
				}
			],
			"name": "getRoleMemberCount",
			"outputs": [
				{
					"internalType": "uint256",
					"name": "",
					"type": "uint256"
				}
			],
			"stateMutability": "view",
			"type": "function"
		},
		{
			"inputs": [
				{
					"internalType": "uint256",
					"name": "tranche",
					"type": "uint256"
				}
			],
			"name": "getTranche",
			"outputs": [
				{
					"components": [
						{
							"internalType": "uint256",
							"name": "id",
							"type": "uint256"
						},
						{
							"internalType": "uint256",
							"name": "principalDeposited",
							"type": "uint256"
						},
						{
							"internalType": "uint256",
							"name": "principalSharePrice",
							"type": "uint256"
						},
						{
							"internalType": "uint256",
							"name": "interestSharePrice",
							"type": "uint256"
						},
						{
							"internalType": "uint256",
							"name": "lockedUntil",
							"type": "uint256"
						}
					],
					"internalType": "struct ITranchedPool.TrancheInfo",
					"name": "",
					"type": "tuple"
				}
			],
			"stateMutability": "view",
			"type": "function"
		},
		{
			"inputs": [
				{
					"internalType": "bytes32",
					"name": "role",
					"type": "bytes32"
				},
				{
					"internalType": "address",
					"name": "account",
					"type": "address"
				}
			],
			"name": "grantRole",
			"outputs": [],
			"stateMutability": "nonpayable",
			"type": "function"
		},
		{
			"inputs": [
				{
					"internalType": "bytes32",
					"name": "role",
					"type": "bytes32"
				},
				{
					"internalType": "address",
					"name": "account",
					"type": "address"
				}
			],
			"name": "hasRole",
			"outputs": [
				{
					"internalType": "bool",
					"name": "",
					"type": "bool"
				}
			],
			"stateMutability": "view",
			"type": "function"
		},
		{
			"inputs": [
				{
					"internalType": "address",
					"name": "_config",
					"type": "address"
				},
				{
					"internalType": "address",
					"name": "_borrower",
					"type": "address"
				},
				{
					"internalType": "uint256",
					"name": "_juniorFeePercent",
					"type": "uint256"
				},
				{
					"internalType": "uint256",
					"name": "_limit",
					"type": "uint256"
				},
				{
					"internalType": "uint256",
					"name": "_interestApr",
					"type": "uint256"
				},
				{
					"internalType": "uint256",
					"name": "_paymentPeriodInDays",
					"type": "uint256"
				},
				{
					"internalType": "uint256",
					"name": "_termInDays",
					"type": "uint256"
				},
				{
					"internalType": "uint256",
					"name": "_lateFeeApr",
					"type": "uint256"
				},
				{
					"internalType": "uint256",
					"name": "_principalGracePeriodInDays",
					"type": "uint256"
				},
				{
					"internalType": "uint256",
					"name": "_fundableAt",
					"type": "uint256"
				},
				{
					"internalType": "uint256[]",
					"name": "_allowedUIDTypes",
					"type": "uint256[]"
				}
			],
			"name": "initialize",
			"outputs": [],
			"stateMutability": "nonpayable",
			"type": "function"
		},
		{
			"inputs": [
				{
					"internalType": "uint256",
					"name": "_fundableAt",
					"type": "uint256"
				}
			],
			"name": "initializeNextSlice",
			"outputs": [],
			"stateMutability": "nonpayable",
			"type": "function"
		},
		{
			"inputs": [],
			"name": "isAdmin",
			"outputs": [
				{
					"internalType": "bool",
					"name": "",
					"type": "bool"
				}
			],
			"stateMutability": "view",
			"type": "function"
		},
		{
			"inputs": [],
			"name": "juniorFeePercent",
			"outputs": [
				{
					"internalType": "uint256",
					"name": "",
					"type": "uint256"
				}
			],
			"stateMutability": "view",
			"type": "function"
		},
		{
			"inputs": [],
			"name": "lockJuniorCapital",
			"outputs": [],
			"stateMutability": "nonpayable",
			"type": "function"
		},
		{
			"inputs": [],
			"name": "lockPool",
			"outputs": [],
			"stateMutability": "nonpayable",
			"type": "function"
		},
		{
			"inputs": [
				{
					"internalType": "address",
					"name": "newCl",
					"type": "address"
				}
			],
			"name": "migrateAndSetNewCreditLine",
			"outputs": [],
			"stateMutability": "nonpayable",
			"type": "function"
		},
		{
			"inputs": [
				{
					"internalType": "address",
					"name": "_borrower",
					"type": "address"
				},
				{
					"internalType": "uint256",
					"name": "_maxLimit",
					"type": "uint256"
				},
				{
					"internalType": "uint256",
					"name": "_interestApr",
					"type": "uint256"
				},
				{
					"internalType": "uint256",
					"name": "_paymentPeriodInDays",
					"type": "uint256"
				},
				{
					"internalType": "uint256",
					"name": "_termInDays",
					"type": "uint256"
				},
				{
					"internalType": "uint256",
					"name": "_lateFeeApr",
					"type": "uint256"
				},
				{
					"internalType": "uint256",
					"name": "_principalGracePeriodInDays",
					"type": "uint256"
				}
			],
			"name": "migrateCreditLine",
			"outputs": [],
			"stateMutability": "nonpayable",
			"type": "function"
		},
		{
			"inputs": [],
			"name": "numSlices",
			"outputs": [
				{
					"internalType": "uint256",
					"name": "",
					"type": "uint256"
				}
			],
			"stateMutability": "view",
			"type": "function"
		},
		{
			"inputs": [],
			"name": "pause",
			"outputs": [],
			"stateMutability": "nonpayable",
			"type": "function"
		},
		{
			"inputs": [],
			"name": "pauseDrawdowns",
			"outputs": [],
			"stateMutability": "nonpayable",
			"type": "function"
		},
		{
			"inputs": [],
			"name": "paused",
			"outputs": [
				{
					"internalType": "bool",
					"name": "",
					"type": "bool"
				}
			],
			"stateMutability": "view",
			"type": "function"
		},
		{
			"inputs": [
				{
					"internalType": "uint256",
					"name": "amount",
					"type": "uint256"
				}
			],
			"name": "pay",
			"outputs": [],
			"stateMutability": "nonpayable",
			"type": "function"
		},
		{
			"inputs": [
				{
					"internalType": "uint256",
					"name": "",
					"type": "uint256"
				}
			],
			"name": "poolSlices",
			"outputs": [
				{
					"components": [
						{
							"internalType": "uint256",
							"name": "id",
							"type": "uint256"
						},
						{
							"internalType": "uint256",
							"name": "principalDeposited",
							"type": "uint256"
						},
						{
							"internalType": "uint256",
							"name": "principalSharePrice",
							"type": "uint256"
						},
						{
							"internalType": "uint256",
							"name": "interestSharePrice",
							"type": "uint256"
						},
						{
							"internalType": "uint256",
							"name": "lockedUntil",
							"type": "uint256"
						}
					],
					"internalType": "struct ITranchedPool.TrancheInfo",
					"name": "seniorTranche",
					"type": "tuple"
				},
				{
					"components": [
						{
							"internalType": "uint256",
							"name": "id",
							"type": "uint256"
						},
						{
							"internalType": "uint256",
							"name": "principalDeposited",
							"type": "uint256"
						},
						{
							"internalType": "uint256",
							"name": "principalSharePrice",
							"type": "uint256"
						},
						{
							"internalType": "uint256",
							"name": "interestSharePrice",
							"type": "uint256"
						},
						{
							"internalType": "uint256",
							"name": "lockedUntil",
							"type": "uint256"
						}
					],
					"internalType": "struct ITranchedPool.TrancheInfo",
					"name": "juniorTranche",
					"type": "tuple"
				},
				{
					"internalType": "uint256",
					"name": "totalInterestAccrued",
					"type": "uint256"
				},
				{
					"internalType": "uint256",
					"name": "principalDeployed",
					"type": "uint256"
				}
			],
			"stateMutability": "view",
			"type": "function"
		},
		{
			"inputs": [
				{
					"internalType": "bytes32",
					"name": "role",
					"type": "bytes32"
				},
				{
					"internalType": "address",
					"name": "account",
					"type": "address"
				}
			],
			"name": "renounceRole",
			"outputs": [],
			"stateMutability": "nonpayable",
			"type": "function"
		},
		{
			"inputs": [
				{
					"internalType": "bytes32",
					"name": "role",
					"type": "bytes32"
				},
				{
					"internalType": "address",
					"name": "account",
					"type": "address"
				}
			],
			"name": "revokeRole",
			"outputs": [],
			"stateMutability": "nonpayable",
			"type": "function"
		},
		{
			"inputs": [
				{
					"internalType": "uint256[]",
					"name": "ids",
					"type": "uint256[]"
				}
			],
			"name": "setAllowedUIDTypes",
			"outputs": [],
			"stateMutability": "nonpayable",
			"type": "function"
		},
		{
			"inputs": [
				{
					"internalType": "uint256",
					"name": "newFundableAt",
					"type": "uint256"
				}
			],
			"name": "setFundableAt",
			"outputs": [],
			"stateMutability": "nonpayable",
			"type": "function"
		},
		{
			"inputs": [
				{
					"internalType": "uint256",
					"name": "newAmount",
					"type": "uint256"
				}
			],
			"name": "setLimit",
			"outputs": [],
			"stateMutability": "nonpayable",
			"type": "function"
		},
		{
			"inputs": [
				{
					"internalType": "uint256",
					"name": "newAmount",
					"type": "uint256"
				}
			],
			"name": "setMaxLimit",
			"outputs": [],
			"stateMutability": "nonpayable",
			"type": "function"
		},
		{
			"inputs": [
				{
					"internalType": "uint256",
					"name": "sharePrice",
					"type": "uint256"
				},
				{
					"internalType": "uint256",
					"name": "totalShares",
					"type": "uint256"
				}
			],
			"name": "sharePriceToUsdc",
			"outputs": [
				{
					"internalType": "uint256",
					"name": "",
					"type": "uint256"
				}
			],
			"stateMutability": "pure",
			"type": "function"
		},
		{
			"inputs": [],
			"name": "totalDeployed",
			"outputs": [
				{
					"internalType": "uint256",
					"name": "",
					"type": "uint256"
				}
			],
			"stateMutability": "view",
			"type": "function"
		},
		{
			"inputs": [],
			"name": "totalJuniorDeposits",
			"outputs": [
				{
					"internalType": "uint256",
					"name": "",
					"type": "uint256"
				}
			],
			"stateMutability": "view",
			"type": "function"
		},
		{
			"inputs": [],
			"name": "unpause",
			"outputs": [],
			"stateMutability": "nonpayable",
			"type": "function"
		},
		{
			"inputs": [],
			"name": "unpauseDrawdowns",
			"outputs": [],
			"stateMutability": "nonpayable",
			"type": "function"
		},
		{
			"inputs": [],
			"name": "updateGoldfinchConfig",
			"outputs": [],
			"stateMutability": "nonpayable",
			"type": "function"
		},
		{
			"inputs": [
				{
					"internalType": "uint256",
					"name": "amount",
					"type": "uint256"
				},
				{
					"internalType": "uint256",
					"name": "totalShares",
					"type": "uint256"
				}
			],
			"name": "usdcToSharePrice",
			"outputs": [
				{
					"internalType": "uint256",
					"name": "",
					"type": "uint256"
				}
			],
			"stateMutability": "pure",
			"type": "function"
		},
		{
			"inputs": [
				{
					"internalType": "uint256",
					"name": "tokenId",
					"type": "uint256"
				},
				{
					"internalType": "uint256",
					"name": "amount",
					"type": "uint256"
				}
			],
			"name": "withdraw",
			"outputs": [
				{
					"internalType": "uint256",
					"name": "interestWithdrawn",
					"type": "uint256"
				},
				{
					"internalType": "uint256",
					"name": "principalWithdrawn",
					"type": "uint256"
				}
			],
			"stateMutability": "nonpayable",
			"type": "function"
		},
		{
			"inputs": [
				{
					"internalType": "uint256",
					"name": "tokenId",
					"type": "uint256"
				}
			],
			"name": "withdrawMax",
			"outputs": [
				{
					"internalType": "uint256",
					"name": "interestWithdrawn",
					"type": "uint256"
				},
				{
					"internalType": "uint256",
					"name": "principalWithdrawn",
					"type": "uint256"
				}
			],
			"stateMutability": "nonpayable",
			"type": "function"
		},
		{
			"inputs": [
				{
					"internalType": "uint256[]",
					"name": "tokenIds",
					"type": "uint256[]"
				},
				{
					"internalType": "uint256[]",
					"name": "amounts",
					"type": "uint256[]"
				}
			],
			"name": "withdrawMultiple",
			"outputs": [],
			"stateMutability": "nonpayable",
			"type": "function"
		}
	]
}